{"abi":[{"type":"function","name":"isVaultActive","inputs":[{"name":"vaultAddress_","type":"address","internalType":"address"}],"outputs":[{"name":"","type":"bool","internalType":"bool"}],"stateMutability":"view"},{"type":"function","name":"setVaultStatus","inputs":[{"name":"vaultAddress_","type":"address","internalType":"address"},{"name":"status_","type":"bool","internalType":"bool"}],"outputs":[],"stateMutability":"nonpayable"},{"type":"function","name":"validVaults","inputs":[{"name":"","type":"address","internalType":"address"}],"outputs":[{"name":"","type":"bool","internalType":"bool"}],"stateMutability":"view"},{"type":"event","name":"VaultStatusChanged","inputs":[{"name":"vaultAddress","type":"address","indexed":true,"internalType":"address"},{"name":"status","type":"bool","indexed":false,"internalType":"bool"}],"anonymous":false}],"bytecode":{"object":"0x608060405234801561001057600080fd5b50610225806100206000396000f3fe608060405234801561001057600080fd5b50600436106100415760003560e01c80630c5aed571461004657806360d712fc146100865780636657fc671461009b575b600080fd5b610072610054366004610191565b6001600160a01b031660009081526020819052604090205460ff1690565b604051901515815260200160405180910390f35b6100996100943660046101b3565b6100be565b005b6100726100a9366004610191565b60006020819052908152604090205460ff1681565b6001600160a01b0382166101185760405162461bcd60e51b815260206004820152601d60248201527f7661756c74416464726573735f206973207a65726f2061646472657373000000604482015260640160405180910390fd5b6001600160a01b03821660008181526020818152604091829020805460ff191685151590811790915591519182527f32a7de7321c9403d8687817e59bda821c4153c1ba40a38e43d5405070cdfb384910160405180910390a25050565b80356001600160a01b038116811461018c57600080fd5b919050565b6000602082840312156101a357600080fd5b6101ac82610175565b9392505050565b600080604083850312156101c657600080fd5b6101cf83610175565b9150602083013580151581146101e457600080fd5b80915050925092905056fea2646970667358221220ae4d8bc6639018859b4630e09ea822c7f299772cec4af20f2b4f3ac8f4d5153664736f6c63430008180033","linkReferences":{}},"methodIdentifiers":{"isVaultActive(address)":"0c5aed57","setVaultStatus(address,bool)":"60d712fc","validVaults(address)":"6657fc67"},"id":17}