{"abi":[{"type":"fallback","stateMutability":"payable"},{"type":"receive","stateMutability":"payable"},{"type":"function","name":"DEFAULT_ADMIN_ROLE","inputs":[],"outputs":[{"name":"","type":"bytes32","internalType":"bytes32"}],"stateMutability":"view"},{"type":"function","name":"REVERT_MSG","inputs":[],"outputs":[{"name":"","type":"string","internalType":"string"}],"stateMutability":"view"},{"type":"function","name":"VAULT_STRATEGY_ROLE","inputs":[],"outputs":[{"name":"","type":"bytes32","internalType":"bytes32"}],"stateMutability":"view"},{"type":"function","name":"claimEarnings","inputs":[{"name":"","type":"address","internalType":"address"},{"name":"","type":"address","internalType":"address"}],"outputs":[{"name":"","type":"address","internalType":"address"},{"name":"","type":"uint256","internalType":"uint256"}],"stateMutability":"nonpayable"},{"type":"function","name":"deposit","inputs":[{"name":"sender_","type":"address","internalType":"address"},{"name":"receiver_","type":"address","internalType":"address"},{"name":"token_","type":"address","internalType":"address"},{"name":"tokenAmount_","type":"uint256","internalType":"uint256"},{"name":"","type":"bool","internalType":"bool"}],"outputs":[{"name":"liquidTkn","type":"address","internalType":"address"},{"name":"liquidTknAmount","type":"uint256","internalType":"uint256"}],"stateMutability":"nonpayable"},{"type":"function","name":"getProtocol","inputs":[],"outputs":[{"name":"","type":"address","internalType":"address"}],"stateMutability":"view"},{"type":"function","name":"getRoleAdmin","inputs":[{"name":"role","type":"bytes32","internalType":"bytes32"}],"outputs":[{"name":"","type":"bytes32","internalType":"bytes32"}],"stateMutability":"view"},{"type":"function","name":"getSlippage","inputs":[],"outputs":[{"name":"","type":"uint256","internalType":"uint256"}],"stateMutability":"view"},{"type":"function","name":"getTokenPrice","inputs":[{"name":"","type":"address","internalType":"address"}],"outputs":[{"name":"","type":"uint256","internalType":"uint256"}],"stateMutability":"view"},{"type":"function","name":"grantRole","inputs":[{"name":"role","type":"bytes32","internalType":"bytes32"},{"name":"account","type":"address","internalType":"address"}],"outputs":[],"stateMutability":"nonpayable"},{"type":"function","name":"hasRole","inputs":[{"name":"role","type":"bytes32","internalType":"bytes32"},{"name":"account","type":"address","internalType":"address"}],"outputs":[{"name":"","type":"bool","internalType":"bool"}],"stateMutability":"view"},{"type":"function","name":"initialize","inputs":[{"name":"kelpProtocolAddress_","type":"address","internalType":"address"},{"name":"rsETHAddress_","type":"address","internalType":"address"}],"outputs":[],"stateMutability":"nonpayable"},{"type":"function","name":"kelpProtocolAddress","inputs":[],"outputs":[{"name":"","type":"address","internalType":"address"}],"stateMutability":"view"},{"type":"function","name":"pause","inputs":[],"outputs":[],"stateMutability":"nonpayable"},{"type":"function","name":"paused","inputs":[],"outputs":[{"name":"","type":"bool","internalType":"bool"}],"stateMutability":"view"},{"type":"function","name":"protocolName","inputs":[],"outputs":[{"name":"","type":"string","internalType":"string"}],"stateMutability":"view"},{"type":"function","name":"renounceRole","inputs":[{"name":"role","type":"bytes32","internalType":"bytes32"},{"name":"callerConfirmation","type":"address","internalType":"address"}],"outputs":[],"stateMutability":"nonpayable"},{"type":"function","name":"revokeRole","inputs":[{"name":"role","type":"bytes32","internalType":"bytes32"},{"name":"account","type":"address","internalType":"address"}],"outputs":[],"stateMutability":"nonpayable"},{"type":"function","name":"rsETHAddress","inputs":[],"outputs":[{"name":"","type":"address","internalType":"address"}],"stateMutability":"view"},{"type":"function","name":"setKelpProtocolAddress","inputs":[{"name":"kelpProtocolAddress_","type":"address","internalType":"address"}],"outputs":[],"stateMutability":"nonpayable"},{"type":"function","name":"setSlippage","inputs":[{"name":"slippage_","type":"uint256","internalType":"uint256"}],"outputs":[],"stateMutability":"nonpayable"},{"type":"function","name":"setWETHAddress","inputs":[{"name":"wethAddress_","type":"address","internalType":"address"}],"outputs":[],"stateMutability":"nonpayable"},{"type":"function","name":"slippage","inputs":[],"outputs":[{"name":"","type":"uint256","internalType":"uint256"}],"stateMutability":"view"},{"type":"function","name":"supportsInterface","inputs":[{"name":"interfaceId","type":"bytes4","internalType":"bytes4"}],"outputs":[{"name":"","type":"bool","internalType":"bool"}],"stateMutability":"view"},{"type":"function","name":"unpause","inputs":[],"outputs":[],"stateMutability":"nonpayable"},{"type":"function","name":"wethAddress","inputs":[],"outputs":[{"name":"","type":"address","internalType":"address"}],"stateMutability":"view"},{"type":"function","name":"withdraw","inputs":[{"name":"","type":"address","internalType":"address"},{"name":"","type":"address","internalType":"address"},{"name":"","type":"address","internalType":"address"},{"name":"","type":"uint256","internalType":"uint256"},{"name":"","type":"address","internalType":"address"},{"name":"","type":"uint256","internalType":"uint256"},{"name":"","type":"bytes","internalType":"bytes"}],"outputs":[{"name":"","type":"address","internalType":"address"},{"name":"","type":"uint256","internalType":"uint256"}],"stateMutability":"nonpayable"},{"type":"event","name":"AddressUpdated","inputs":[{"name":"which","type":"string","indexed":true,"internalType":"string"},{"name":"newAddress","type":"address","indexed":false,"internalType":"address"}],"anonymous":false},{"type":"event","name":"DepositedOnProtocol","inputs":[{"name":"sender","type":"address","indexed":true,"internalType":"address"},{"name":"token","type":"address","indexed":true,"internalType":"address"},{"name":"tokenAmount","type":"uint256","indexed":false,"internalType":"uint256"},{"name":"liquidTkn","type":"address","indexed":true,"internalType":"address"},{"name":"liquidTknAmount","type":"uint256","indexed":false,"internalType":"uint256"}],"anonymous":false},{"type":"event","name":"Initialized","inputs":[{"name":"version","type":"uint64","indexed":false,"internalType":"uint64"}],"anonymous":false},{"type":"event","name":"Paused","inputs":[{"name":"account","type":"address","indexed":false,"internalType":"address"}],"anonymous":false},{"type":"event","name":"RoleAdminChanged","inputs":[{"name":"role","type":"bytes32","indexed":true,"internalType":"bytes32"},{"name":"previousAdminRole","type":"bytes32","indexed":true,"internalType":"bytes32"},{"name":"newAdminRole","type":"bytes32","indexed":true,"internalType":"bytes32"}],"anonymous":false},{"type":"event","name":"RoleGranted","inputs":[{"name":"role","type":"bytes32","indexed":true,"internalType":"bytes32"},{"name":"account","type":"address","indexed":true,"internalType":"address"},{"name":"sender","type":"address","indexed":true,"internalType":"address"}],"anonymous":false},{"type":"event","name":"RoleRevoked","inputs":[{"name":"role","type":"bytes32","indexed":true,"internalType":"bytes32"},{"name":"account","type":"address","indexed":true,"internalType":"address"},{"name":"sender","type":"address","indexed":true,"internalType":"address"}],"anonymous":false},{"type":"event","name":"SlippageUpdated","inputs":[{"name":"newSlippage","type":"uint256","indexed":false,"internalType":"uint256"}],"anonymous":false},{"type":"event","name":"Unpaused","inputs":[{"name":"account","type":"address","indexed":false,"internalType":"address"}],"anonymous":false},{"type":"event","name":"WithdrawFromProtocol","inputs":[{"name":"caller_","type":"address","indexed":true,"internalType":"address"},{"name":"receiver_","type":"address","indexed":true,"internalType":"address"},{"name":"liquidTokenAddress_","type":"address","indexed":true,"internalType":"address"},{"name":"amountSpent","type":"uint256","indexed":false,"internalType":"uint256"},{"name":"asset_","type":"address","indexed":false,"internalType":"address"},{"name":"assetsAmount_","type":"uint256","indexed":false,"internalType":"uint256"}],"anonymous":false},{"type":"error","name":"AccessControlBadConfirmation","inputs":[]},{"type":"error","name":"AccessControlUnauthorizedAccount","inputs":[{"name":"account","type":"address","internalType":"address"},{"name":"neededRole","type":"bytes32","internalType":"bytes32"}]},{"type":"error","name":"AddressEmptyCode","inputs":[{"name":"target","type":"address","internalType":"address"}]},{"type":"error","name":"AddressInsufficientBalance","inputs":[{"name":"account","type":"address","internalType":"address"}]},{"type":"error","name":"EnforcedPause","inputs":[]},{"type":"error","name":"ExceedCapacity","inputs":[]},{"type":"error","name":"ExpectedPause","inputs":[]},{"type":"error","name":"FailedInnerCall","inputs":[]},{"type":"error","name":"InvalidInitialization","inputs":[]},{"type":"error","name":"MinDeposit","inputs":[]},{"type":"error","name":"NotInitializing","inputs":[]},{"type":"error","name":"OnlyWETHAllowed","inputs":[]},{"type":"error","name":"ReentrancyGuardReentrantCall","inputs":[]},{"type":"error","name":"SafeERC20FailedOperation","inputs":[{"name":"token","type":"address","internalType":"address"}]},{"type":"error","name":"SlippageExceededOnDeposit","inputs":[{"name":"required","type":"uint256","internalType":"uint256"},{"name":"actual","type":"uint256","internalType":"uint256"}]},{"type":"error","name":"SlippageExceededOnWithdrawal","inputs":[{"name":"required","type":"uint256","internalType":"uint256"},{"name":"actual","type":"uint256","internalType":"uint256"}]},{"type":"error","name":"ZeroAddress","inputs":[{"name":"target","type":"string","internalType":"string"}]},{"type":"error","name":"ZeroAmount","inputs":[{"name":"target","type":"string","internalType":"string"}]}],"bytecode":{"object":"0x608060405234801561001057600080fd5b50611bb3806100206000396000f3fe60806040526004361061018b5760003560e01c80636a39fe60116100e0578063d02641a011610084578063e567e86911610061578063e567e869146104e2578063ee81e4fc146104f7578063f0fa55a914610517578063fc9cee3c1461053757005b8063d02641a014610484578063d16352af146104a4578063d547741f146104c257005b80638456cb59116100bd5780638456cb591461041f57806391d1485414610434578063970de38114610454578063a217fddf1461046f57005b80636a39fe60146103925780636a4234eb146103b25780637e531a39146103d257005b80633e032a3b11610147578063485cc95511610124578063485cc955146102ee5780634f0e0ef31461030e5780635354c2b11461032e5780635c975abb1461036d57005b80633e032a3b146102a35780633f4ba83a146102b957806340e63f6a146102ce57005b806301ffc9a71461019457806309de8dc1146101c95780631bacfd0b14610201578063248a9ca3146102435780632f2ff15d1461026357806336568abe1461028357005b3661019257005b005b3480156101a057600080fd5b506101b46101af36600461168b565b61054c565b60405190151581526020015b60405180910390f35b3480156101d557600080fd5b506004546101e9906001600160a01b031681565b6040516001600160a01b0390911681526020016101c0565b34801561020d57600080fd5b506102357f4fe08aea4652d25d7d2c09148537810c0b7e49021cc60dd467483872e4452ff581565b6040519081526020016101c0565b34801561024f57600080fd5b5061023561025e3660046116b5565b610583565b34801561026f57600080fd5b5061019261027e3660046116ea565b6105a5565b34801561028f57600080fd5b5061019261029e3660046116ea565b6105c7565b3480156102af57600080fd5b5061023560015481565b3480156102c557600080fd5b506101926105ff565b3480156102da57600080fd5b506101926102e9366004611716565b610615565b3480156102fa57600080fd5b50610192610309366004611731565b6106dc565b34801561031a57600080fd5b506000546101e9906001600160a01b031681565b34801561033a57600080fd5b5061034e610349366004611769565b6108d0565b604080516001600160a01b0390931683526020830191909152016101c0565b34801561037957600080fd5b50600080516020611b5e8339815191525460ff166101b4565b34801561039e57600080fd5b5061034e6103ad3660046117e1565b610de8565b3480156103be57600080fd5b506101926103cd366004611716565b610e31565b3480156103de57600080fd5b5061041260405180604001604052806014815260200173119d5b98dd1a5bdb881b9bdd08185b1b1bddd95960621b81525081565b6040516101c0919061190c565b34801561042b57600080fd5b50610192610ee7565b34801561044057600080fd5b506101b461044f3660046116ea565b610efa565b34801561046057600080fd5b5061034e6103ad366004611731565b34801561047b57600080fd5b50610235600081565b34801561049057600080fd5b5061023561049f366004611716565b610f32565b3480156104b057600080fd5b506003546001600160a01b03166101e9565b3480156104ce57600080fd5b506101926104dd3660046116ea565b610f76565b3480156104ee57600080fd5b50610412610f92565b34801561050357600080fd5b506003546101e9906001600160a01b031681565b34801561052357600080fd5b506101926105323660046116b5565b611020565b34801561054357600080fd5b50600154610235565b60006001600160e01b03198216637965db0b60e01b148061057d57506301ffc9a760e01b6001600160e01b03198316145b92915050565b6000908152600080516020611b3e833981519152602052604090206001015490565b6105ae82610583565b6105b78161108f565b6105c18383611099565b50505050565b6001600160a01b03811633146105f05760405163334bd91960e11b815260040160405180910390fd5b6105fa828261113e565b505050565b600061060a8161108f565b6106126111ba565b50565b60006106208161108f565b61065682604051806040016040528060148152602001736b656c7050726f746f636f6c416464726573735f60601b81525061121a565b604051736b656c7050726f746f636f6c416464726573735f60601b81526014016040519081900381206001600160a01b0384168252907f943e9d45a11aaae5d87503e3bc248665d9807856e5cf2bdb4a988bee444227819060200160405180910390a250600380546001600160a01b0319166001600160a01b0392909216919091179055565b7ff0c57e16840df040f15088dc2f81fe391c3923bec73e23a9662efc9c229c6a008054600160401b810460ff16159067ffffffffffffffff166000811580156107225750825b905060008267ffffffffffffffff16600114801561073f5750303b155b90508115801561074d575080155b1561076b5760405163f92ee8a960e01b815260040160405180910390fd5b845467ffffffffffffffff19166001178555831561079557845460ff60401b1916600160401b1785555b6107cb87604051806040016040528060148152602001736b656c7050726f746f636f6c416464726573735f60601b81525061121a565b6107fa866040518060400160405280600d81526020016c7273455448416464726573735f60981b81525061121a565b610802611247565b61080a611251565b610812611261565b61081d600033611099565b50600380546001600160a01b03808a166001600160a01b0319928316179092556004805492891692909116919091178155668e1bc9bf040000600155604080518082019091529081526304b656c760e41b602082015260029061088090826119c9565b5083156108c757845460ff60401b19168555604051600181527fc7f505b2f371ae2175ee4913f4499e1f2633a7b5936321eed1cdaeb6115181d29060200160405180910390a15b50505050505050565b6000806108db611271565b6108e36112a2565b7f4fe08aea4652d25d7d2c09148537810c0b7e49021cc60dd467483872e4452ff561090d8161108f565b610936886040518060400160405280600781526020016673656e6465725f60c81b81525061121a565b610961876040518060400160405280600981526020016872656365697665725f60b81b81525061121a565b6109898660405180604001604052806006815260200165746f6b656e5f60d01b81525061121a565b6109b7856040518060400160405280600c81526020016b746f6b656e416d6f756e745f60a01b8152506112ec565b6109cc6001600160a01b03871689308861130f565b60035460405163095ea7b360e01b81526001600160a01b039182166004820152602481018790529087169063095ea7b3906044016020604051808303816000875af1158015610a1f573d6000803e3d6000fd5b505050506040513d601f19601f82011682018060405250810190610a439190611a89565b506000670de0b6b3a7640000600154670de0b6b3a7640000610a659190611abc565b610a6f9088611acf565b610a799190611ae6565b9050600360009054906101000a90046001600160a01b03166001600160a01b031663778fbe606040518163ffffffff1660e01b8152600401602060405180830381865afa158015610ace573d6000803e3d6000fd5b505050506040513d601f19601f82011682018060405250810190610af29190611b08565b861015610b125760405163011bcd8360e41b815260040160405180910390fd5b600354604051634426082b60e11b81526001600160a01b0389811660048301529091169063884c105690602401602060405180830381865afa158015610b5c573d6000803e3d6000fd5b505050506040513d601f19601f82011682018060405250810190610b809190611b08565b861115610ba0576040516362fc4d6760e11b815260040160405180910390fd5b600354604051635d2dda2160e11b81526001600160a01b03898116600483015260248201899052600092169063ba5bb44290604401602060405180830381865afa158015610bf2573d6000803e3d6000fd5b505050506040513d601f19601f82011682018060405250810190610c169190611b08565b6003546040516361d70bb360e11b81526001600160a01b038b81166004830152602482018b905260448201849052608060648301526000608483015292935091169063c3ae17669060a401600060405180830381600087803b158015610c7b57600080fd5b505af1158015610c8f573d6000803e3d6000fd5b5050600480546040516370a0823160e01b81523092810192909252600093506001600160a01b031691506370a0823190602401602060405180830381865afa158015610cdf573d6000803e3d6000fd5b505050506040513d601f19601f82011682018060405250810190610d039190611b08565b905082811015610d355760405163c60d402760e01b815260048101849052602481018290526044015b60405180910390fd5b6004546001600160a01b03169550935083610d51868b83611376565b856001600160a01b0316896001600160a01b03168c6001600160a01b03167f044d4bbddd3af59e620636cb231e96ccd6acfbac6aa9a369ea17075cc839daee8b89604051610da9929190918252602082015260400190565b60405180910390a450505050610dde60017f9b779b17422d0df92223018b32b4d1fa46e071723d6817e2486d003becc55f0055565b9550959350505050565b60008060405180604001604052806014815260200173119d5b98dd1a5bdb881b9bdd08185b1b1bddd95960621b81525060405162461bcd60e51b8152600401610d2c919061190c565b6000610e3c8161108f565b610e6a826040518060400160405280600c81526020016b77657468416464726573735f60a01b81525061121a565b6040516a776574684164647265737360a81b8152600b016040519081900381206001600160a01b0384168252907f943e9d45a11aaae5d87503e3bc248665d9807856e5cf2bdb4a988bee444227819060200160405180910390a250600080546001600160a01b0319166001600160a01b0392909216919091179055565b6000610ef28161108f565b6106126113cd565b6000918252600080516020611b3e833981519152602090815260408084206001600160a01b0393909316845291905290205460ff1690565b6040805180820182526014815273119d5b98dd1a5bdb881b9bdd08185b1b1bddd95960621b6020820152905162461bcd60e51b8152600091610d2c9160040161190c565b610f7f82610583565b610f888161108f565b6105c1838361113e565b60028054610f9f9061193f565b80601f0160208091040260200160405190810160405280929190818152602001828054610fcb9061193f565b80156110185780601f10610fed57610100808354040283529160200191611018565b820191906000526020600020905b815481529060010190602001808311610ffb57829003601f168201915b505050505081565b600061102b8161108f565b6110568260405180604001604052806009815260200168736c6970706167655f60b81b8152506112ec565b6040518281527ff5a802650e0a86db227cc342f06327d2ca0ff5cf2b12e0084fc5d8a7db2c54fd9060200160405180910390a150600155565b6106128133611416565b6000600080516020611b3e8339815191526110b48484610efa565b611134576000848152602082815260408083206001600160a01b03871684529091529020805460ff191660011790556110ea3390565b6001600160a01b0316836001600160a01b0316857f2f8788117e7eff1d82e926ec794901d17c78024a50270940304540a733656f0d60405160405180910390a4600191505061057d565b600091505061057d565b6000600080516020611b3e8339815191526111598484610efa565b15611134576000848152602082815260408083206001600160a01b0387168085529252808320805460ff1916905551339287917ff6391f5c32d9c69d2a47ea670b442974b53935d1edc7fd64eb21e047a839171b9190a4600191505061057d565b6111c261144f565b600080516020611b5e833981519152805460ff191681557f5db9ee0a495bf2e6ff9c91a7834c1ba4fdd244a5e8aa4e537bd38aeae4b073aa335b6040516001600160a01b03909116815260200160405180910390a150565b6001600160a01b038216611243578060405163eac0d38960e01b8152600401610d2c919061190c565b5050565b61124f61147f565b565b61125961147f565b61124f6114c8565b61126961147f565b61124f6114d0565b600080516020611b5e8339815191525460ff161561124f5760405163d93c066560e01b815260040160405180910390fd5b7f9b779b17422d0df92223018b32b4d1fa46e071723d6817e2486d003becc55f008054600119016112e657604051633ee5aeb560e01b815260040160405180910390fd5b60029055565b8160000361124357806040516303b3e63560e41b8152600401610d2c919061190c565b6040516001600160a01b0384811660248301528381166044830152606482018390526105c19186918216906323b872dd906084015b604051602081830303815290604052915060e01b6020820180516001600160e01b0383818316178352505050506114f1565b6040516001600160a01b038381166024830152604482018390526105fa91859182169063a9059cbb90606401611344565b60017f9b779b17422d0df92223018b32b4d1fa46e071723d6817e2486d003becc55f0055565b6113d5611271565b600080516020611b5e833981519152805460ff191660011781557f62e78cea01bee320cd4e420270b5ea74000d11b0c9f74754ebdbfc544b05a258336111fc565b6114208282610efa565b6112435760405163e2517d3f60e01b81526001600160a01b038216600482015260248101839052604401610d2c565b600080516020611b5e8339815191525460ff1661124f57604051638dfc202b60e01b815260040160405180910390fd5b7ff0c57e16840df040f15088dc2f81fe391c3923bec73e23a9662efc9c229c6a0054600160401b900460ff1661124f57604051631afcd79f60e31b815260040160405180910390fd5b6113a761147f565b6114d861147f565b600080516020611b5e833981519152805460ff19169055565b60006115066001600160a01b03841683611554565b9050805160001415801561152b5750808060200190518101906115299190611a89565b155b156105fa57604051635274afe760e01b81526001600160a01b0384166004820152602401610d2c565b606061156283836000611569565b9392505050565b60608147101561158e5760405163cd78605960e01b8152306004820152602401610d2c565b600080856001600160a01b031684866040516115aa9190611b21565b60006040518083038185875af1925050503d80600081146115e7576040519150601f19603f3d011682016040523d82523d6000602084013e6115ec565b606091505b50915091506115fc868383611606565b9695505050505050565b60608261161b5761161682611662565b611562565b815115801561163257506001600160a01b0384163b155b1561165b57604051639996b31560e01b81526001600160a01b0385166004820152602401610d2c565b5080611562565b8051156116725780518082602001fd5b604051630a12f52160e11b815260040160405180910390fd5b60006020828403121561169d57600080fd5b81356001600160e01b03198116811461156257600080fd5b6000602082840312156116c757600080fd5b5035919050565b80356001600160a01b03811681146116e557600080fd5b919050565b600080604083850312156116fd57600080fd5b8235915061170d602084016116ce565b90509250929050565b60006020828403121561172857600080fd5b611562826116ce565b6000806040838503121561174457600080fd5b61174d836116ce565b915061170d602084016116ce565b801515811461061257600080fd5b600080600080600060a0868803121561178157600080fd5b61178a866116ce565b9450611798602087016116ce565b93506117a6604087016116ce565b92506060860135915060808601356117bd8161175b565b809150509295509295909350565b634e487b7160e01b600052604160045260246000fd5b600080600080600080600060e0888a0312156117fc57600080fd5b611805886116ce565b9650611813602089016116ce565b9550611821604089016116ce565b945060608801359350611836608089016116ce565b925060a0880135915060c088013567ffffffffffffffff8082111561185a57600080fd5b818a0191508a601f83011261186e57600080fd5b813581811115611880576118806117cb565b604051601f8201601f19908116603f011681019083821181831017156118a8576118a86117cb565b816040528281528d60208487010111156118c157600080fd5b82602086016020830137600060208483010152809550505050505092959891949750929550565b60005b838110156119035781810151838201526020016118eb565b50506000910152565b602081526000825180602084015261192b8160408501602087016118e8565b601f01601f19169190910160400192915050565b600181811c9082168061195357607f821691505b60208210810361197357634e487b7160e01b600052602260045260246000fd5b50919050565b601f8211156105fa576000816000526020600020601f850160051c810160208610156119a25750805b601f850160051c820191505b818110156119c1578281556001016119ae565b505050505050565b815167ffffffffffffffff8111156119e3576119e36117cb565b6119f7816119f1845461193f565b84611979565b602080601f831160018114611a2c5760008415611a145750858301515b600019600386901b1c1916600185901b1785556119c1565b600085815260208120601f198616915b82811015611a5b57888601518255948401946001909101908401611a3c565b5085821015611a795787850151600019600388901b60f8161c191681555b5050505050600190811b01905550565b600060208284031215611a9b57600080fd5b81516115628161175b565b634e487b7160e01b600052601160045260246000fd5b8181038181111561057d5761057d611aa6565b808202811582820484141761057d5761057d611aa6565b600082611b0357634e487b7160e01b600052601260045260246000fd5b500490565b600060208284031215611b1a57600080fd5b5051919050565b60008251611b338184602087016118e8565b919091019291505056fe02dd7bc7dec4dceedda775e58dd541e08a116c6c53815c0bd028192f7b626800cd5ed15c6e187e77e9aee88184c21f4f2182ab5827cb3b7e07fbedcd63f03300a26469706673582212203f4e3e8c28bc66744ace0cf271454374a522068d1c2cd7a9875b6f3a82d1812464736f6c63430008180033","linkReferences":{}},"methodIdentifiers":{"DEFAULT_ADMIN_ROLE()":"a217fddf","REVERT_MSG()":"7e531a39","VAULT_STRATEGY_ROLE()":"1bacfd0b","claimEarnings(address,address)":"970de381","deposit(address,address,address,uint256,bool)":"5354c2b1","getProtocol()":"d16352af","getRoleAdmin(bytes32)":"248a9ca3","getSlippage()":"fc9cee3c","getTokenPrice(address)":"d02641a0","grantRole(bytes32,address)":"2f2ff15d","hasRole(bytes32,address)":"91d14854","initialize(address,address)":"485cc955","kelpProtocolAddress()":"ee81e4fc","pause()":"8456cb59","paused()":"5c975abb","protocolName()":"e567e869","renounceRole(bytes32,address)":"36568abe","revokeRole(bytes32,address)":"d547741f","rsETHAddress()":"09de8dc1","setKelpProtocolAddress(address)":"40e63f6a","setSlippage(uint256)":"f0fa55a9","setWETHAddress(address)":"6a4234eb","slippage()":"3e032a3b","supportsInterface(bytes4)":"01ffc9a7","unpause()":"3f4ba83a","wethAddress()":"4f0e0ef3","withdraw(address,address,address,uint256,address,uint256,bytes)":"6a39fe60"},"id":25}