{"abi":[{"type":"receive","stateMutability":"payable"},{"type":"function","name":"DEFAULT_ADMIN_ROLE","inputs":[],"outputs":[{"name":"","type":"bytes32","internalType":"bytes32"}],"stateMutability":"view"},{"type":"function","name":"FEE_MANAGER_ROLE","inputs":[],"outputs":[{"name":"","type":"bytes32","internalType":"bytes32"}],"stateMutability":"view"},{"type":"function","name":"LYSADMIN_MANAGER_ROLE","inputs":[],"outputs":[{"name":"","type":"bytes32","internalType":"bytes32"}],"stateMutability":"view"},{"type":"function","name":"TRANSFERS_MANAGER_ROLE","inputs":[],"outputs":[{"name":"","type":"bytes32","internalType":"bytes32"}],"stateMutability":"view"},{"type":"function","name":"VALUATIONS_MANAGER_ROLE","inputs":[],"outputs":[{"name":"","type":"bytes32","internalType":"bytes32"}],"stateMutability":"view"},{"type":"function","name":"VAULTS_MANAGER_ROLE","inputs":[],"outputs":[{"name":"","type":"bytes32","internalType":"bytes32"}],"stateMutability":"view"},{"type":"function","name":"aggregatorFeeModel","inputs":[],"outputs":[{"name":"","type":"address","internalType":"address"}],"stateMutability":"view"},{"type":"function","name":"allowance","inputs":[{"name":"owner","type":"address","internalType":"address"},{"name":"spender","type":"address","internalType":"address"}],"outputs":[{"name":"","type":"uint256","internalType":"uint256"}],"stateMutability":"view"},{"type":"function","name":"approve","inputs":[{"name":"spender","type":"address","internalType":"address"},{"name":"value","type":"uint256","internalType":"uint256"}],"outputs":[{"name":"","type":"bool","internalType":"bool"}],"stateMutability":"nonpayable"},{"type":"function","name":"balanceOf","inputs":[{"name":"account_","type":"address","internalType":"address"}],"outputs":[{"name":"","type":"uint256","internalType":"uint256"}],"stateMutability":"view"},{"type":"function","name":"currentAssetsPerVault","inputs":[{"name":"tokenHolder_","type":"address","internalType":"address"}],"outputs":[{"name":"vaults","type":"address[]","internalType":"address[]"},{"name":"assets","type":"uint256[]","internalType":"uint256[]"}],"stateMutability":"view"},{"type":"function","name":"currentSharesPerVault","inputs":[{"name":"tokenHolder_","type":"address","internalType":"address"}],"outputs":[{"name":"vaults","type":"address[]","internalType":"address[]"},{"name":"shares","type":"uint256[]","internalType":"uint256[]"}],"stateMutability":"view"},{"type":"function","name":"decimals","inputs":[],"outputs":[{"name":"","type":"uint8","internalType":"uint8"}],"stateMutability":"view"},{"type":"function","name":"deposit","inputs":[{"name":"receiver_","type":"address","internalType":"address"},{"name":"vaults_","type":"address[]","internalType":"address[]"},{"name":"values_","type":"uint256[]","internalType":"uint256[]"},{"name":"totalValue_","type":"uint256","internalType":"uint256"}],"outputs":[{"name":"","type":"uint256","internalType":"uint256"}],"stateMutability":"nonpayable"},{"type":"function","name":"depositFailureMode","inputs":[],"outputs":[{"name":"","type":"uint8","internalType":"enum IAggregatorToken.DepositFailureMode"}],"stateMutability":"view"},{"type":"function","name":"exchangeRate","inputs":[],"outputs":[{"name":"","type":"uint256","internalType":"uint256"}],"stateMutability":"view"},{"type":"function","name":"getPortfolioLastExchangeRate","inputs":[{"name":"tokenHolder_","type":"address","internalType":"address"}],"outputs":[{"name":"","type":"uint256","internalType":"uint256"}],"stateMutability":"view"},{"type":"function","name":"getRoleAdmin","inputs":[{"name":"role","type":"bytes32","internalType":"bytes32"}],"outputs":[{"name":"","type":"bytes32","internalType":"bytes32"}],"stateMutability":"view"},{"type":"function","name":"getUnderlyingAsset","inputs":[],"outputs":[{"name":"","type":"address","internalType":"address"}],"stateMutability":"view"},{"type":"function","name":"grantRole","inputs":[{"name":"role","type":"bytes32","internalType":"bytes32"},{"name":"account","type":"address","internalType":"address"}],"outputs":[],"stateMutability":"nonpayable"},{"type":"function","name":"hasRole","inputs":[{"name":"role","type":"bytes32","internalType":"bytes32"},{"name":"account","type":"address","internalType":"address"}],"outputs":[{"name":"","type":"bool","internalType":"bool"}],"stateMutability":"view"},{"type":"function","name":"initialize","inputs":[{"name":"underlyingAsset_","type":"address","internalType":"address"},{"name":"vaultsRegistry_","type":"address","internalType":"address"},{"name":"ownerAddress_","type":"address","internalType":"address"},{"name":"name_","type":"string","internalType":"string"},{"name":"symbol_","type":"string","internalType":"string"}],"outputs":[],"stateMutability":"nonpayable"},{"type":"function","name":"lastAssetsPerVault","inputs":[{"name":"tokenHolder_","type":"address","internalType":"address"}],"outputs":[{"name":"vaults","type":"address[]","internalType":"address[]"},{"name":"assets","type":"uint256[]","internalType":"uint256[]"}],"stateMutability":"view"},{"type":"function","name":"lastSharesPerVault","inputs":[{"name":"tokenHolder_","type":"address","internalType":"address"}],"outputs":[{"name":"vaults","type":"address[]","internalType":"address[]"},{"name":"shares","type":"uint256[]","internalType":"uint256[]"}],"stateMutability":"view"},{"type":"function","name":"maxVaultsPerHolder","inputs":[],"outputs":[{"name":"","type":"uint256","internalType":"uint256"}],"stateMutability":"view"},{"type":"function","name":"name","inputs":[],"outputs":[{"name":"","type":"string","internalType":"string"}],"stateMutability":"view"},{"type":"function","name":"numberOfVaults","inputs":[{"name":"tokenHolder_","type":"address","internalType":"address"}],"outputs":[{"name":"","type":"uint256","internalType":"uint256"}],"stateMutability":"view"},{"type":"function","name":"pause","inputs":[],"outputs":[],"stateMutability":"nonpayable"},{"type":"function","name":"paused","inputs":[],"outputs":[{"name":"","type":"bool","internalType":"bool"}],"stateMutability":"view"},{"type":"function","name":"renounceRole","inputs":[{"name":"role","type":"bytes32","internalType":"bytes32"},{"name":"callerConfirmation","type":"address","internalType":"address"}],"outputs":[],"stateMutability":"nonpayable"},{"type":"function","name":"revokeRole","inputs":[{"name":"role","type":"bytes32","internalType":"bytes32"},{"name":"account","type":"address","internalType":"address"}],"outputs":[],"stateMutability":"nonpayable"},{"type":"function","name":"setAggregatorFeeModel","inputs":[{"name":"aggregatorFeeModel_","type":"address","internalType":"address"}],"outputs":[],"stateMutability":"nonpayable"},{"type":"function","name":"setMaxVaultsPerHolder","inputs":[{"name":"maxVaultsPerHolder_","type":"uint256","internalType":"uint256"}],"outputs":[],"stateMutability":"nonpayable"},{"type":"function","name":"setTransferStrategy","inputs":[{"name":"transferStrategy_","type":"address","internalType":"address"}],"outputs":[],"stateMutability":"nonpayable"},{"type":"function","name":"supportsInterface","inputs":[{"name":"interfaceId","type":"bytes4","internalType":"bytes4"}],"outputs":[{"name":"","type":"bool","internalType":"bool"}],"stateMutability":"view"},{"type":"function","name":"symbol","inputs":[],"outputs":[{"name":"","type":"string","internalType":"string"}],"stateMutability":"view"},{"type":"function","name":"totalSupply","inputs":[],"outputs":[{"name":"","type":"uint256","internalType":"uint256"}],"stateMutability":"view"},{"type":"function","name":"transfer","inputs":[{"name":"to","type":"address","internalType":"address"},{"name":"value","type":"uint256","internalType":"uint256"}],"outputs":[{"name":"","type":"bool","internalType":"bool"}],"stateMutability":"nonpayable"},{"type":"function","name":"transferFrom","inputs":[{"name":"from","type":"address","internalType":"address"},{"name":"to","type":"address","internalType":"address"},{"name":"value","type":"uint256","internalType":"uint256"}],"outputs":[{"name":"","type":"bool","internalType":"bool"}],"stateMutability":"nonpayable"},{"type":"function","name":"transferStrategy","inputs":[],"outputs":[{"name":"","type":"address","internalType":"address"}],"stateMutability":"view"},{"type":"function","name":"underlyingAsset","inputs":[],"outputs":[{"name":"","type":"address","internalType":"address"}],"stateMutability":"view"},{"type":"function","name":"underlyingValue","inputs":[],"outputs":[{"name":"","type":"uint256","internalType":"uint256"}],"stateMutability":"view"},{"type":"function","name":"unpause","inputs":[],"outputs":[],"stateMutability":"nonpayable"},{"type":"function","name":"updatePortfolioValuation","inputs":[{"name":"tokenHolder_","type":"address","internalType":"address"}],"outputs":[{"name":"","type":"bool","internalType":"bool"}],"stateMutability":"nonpayable"},{"type":"function","name":"vaultsOf","inputs":[{"name":"tokenHolder_","type":"address","internalType":"address"}],"outputs":[{"name":"vaults","type":"address[]","internalType":"address[]"}],"stateMutability":"view"},{"type":"function","name":"vaultsRegistry","inputs":[],"outputs":[{"name":"","type":"address","internalType":"address"}],"stateMutability":"view"},{"type":"function","name":"vaultsShares","inputs":[{"name":"","type":"address","internalType":"address"}],"outputs":[{"name":"","type":"uint256","internalType":"uint256"}],"stateMutability":"view"},{"type":"function","name":"withdraw","inputs":[{"name":"vaults_","type":"address[]","internalType":"address[]"},{"name":"assets_","type":"uint256[]","internalType":"uint256[]"},{"name":"maxSlippage","type":"uint256","internalType":"uint256"}],"outputs":[{"name":"","type":"uint256","internalType":"uint256"}],"stateMutability":"nonpayable"},{"type":"function","name":"withdrawalMode","inputs":[],"outputs":[{"name":"","type":"uint8","internalType":"enum IAggregatorToken.WithdrawalMode"}],"stateMutability":"view"},{"type":"event","name":"AggregatorFeeModelSet","inputs":[{"name":"newAggregatorFeeModel","type":"address","indexed":true,"internalType":"address"}],"anonymous":false},{"type":"event","name":"Approval","inputs":[{"name":"owner","type":"address","indexed":true,"internalType":"address"},{"name":"spender","type":"address","indexed":true,"internalType":"address"},{"name":"value","type":"uint256","indexed":false,"internalType":"uint256"}],"anonymous":false},{"type":"event","name":"Deposit","inputs":[{"name":"from","type":"address","indexed":true,"internalType":"address"},{"name":"to","type":"address","indexed":true,"internalType":"address"},{"name":"vaults","type":"address[]","indexed":false,"internalType":"address[]"},{"name":"amounts","type":"uint256[]","indexed":false,"internalType":"uint256[]"},{"name":"totalShares","type":"uint256","indexed":false,"internalType":"uint256"}],"anonymous":false},{"type":"event","name":"Initialized","inputs":[{"name":"version","type":"uint64","indexed":false,"internalType":"uint64"}],"anonymous":false},{"type":"event","name":"MaxVaultsPerHolderSet","inputs":[{"name":"newValue","type":"uint256","indexed":false,"internalType":"uint256"}],"anonymous":false},{"type":"event","name":"MaxVaultsSet","inputs":[],"anonymous":false},{"type":"event","name":"Paused","inputs":[{"name":"account","type":"address","indexed":false,"internalType":"address"}],"anonymous":false},{"type":"event","name":"PortfolioValuationUpdated","inputs":[{"name":"tokenHolder","type":"address","indexed":true,"internalType":"address"}],"anonymous":false},{"type":"event","name":"RoleAdminChanged","inputs":[{"name":"role","type":"bytes32","indexed":true,"internalType":"bytes32"},{"name":"previousAdminRole","type":"bytes32","indexed":true,"internalType":"bytes32"},{"name":"newAdminRole","type":"bytes32","indexed":true,"internalType":"bytes32"}],"anonymous":false},{"type":"event","name":"RoleGranted","inputs":[{"name":"role","type":"bytes32","indexed":true,"internalType":"bytes32"},{"name":"account","type":"address","indexed":true,"internalType":"address"},{"name":"sender","type":"address","indexed":true,"internalType":"address"}],"anonymous":false},{"type":"event","name":"RoleRevoked","inputs":[{"name":"role","type":"bytes32","indexed":true,"internalType":"bytes32"},{"name":"account","type":"address","indexed":true,"internalType":"address"},{"name":"sender","type":"address","indexed":true,"internalType":"address"}],"anonymous":false},{"type":"event","name":"Transfer","inputs":[{"name":"from","type":"address","indexed":true,"internalType":"address"},{"name":"to","type":"address","indexed":true,"internalType":"address"},{"name":"value","type":"uint256","indexed":false,"internalType":"uint256"}],"anonymous":false},{"type":"event","name":"TransferStrategySet","inputs":[{"name":"newTransterStrategy","type":"address","indexed":true,"internalType":"address"}],"anonymous":false},{"type":"event","name":"Unpaused","inputs":[{"name":"account","type":"address","indexed":false,"internalType":"address"}],"anonymous":false},{"type":"event","name":"Withdrawal","inputs":[{"name":"from","type":"address","indexed":true,"internalType":"address"},{"name":"to","type":"address","indexed":true,"internalType":"address"},{"name":"value","type":"uint256","indexed":false,"internalType":"uint256"}],"anonymous":false},{"type":"error","name":"AccessControlBadConfirmation","inputs":[]},{"type":"error","name":"AccessControlUnauthorizedAccount","inputs":[{"name":"account","type":"address","internalType":"address"},{"name":"neededRole","type":"bytes32","internalType":"bytes32"}]},{"type":"error","name":"BrokeSlippage","inputs":[]},{"type":"error","name":"CallerNotAllowed","inputs":[]},{"type":"error","name":"DifferentArgumentsLenght","inputs":[]},{"type":"error","name":"ERC20InsufficientAllowance","inputs":[{"name":"spender","type":"address","internalType":"address"},{"name":"allowance","type":"uint256","internalType":"uint256"},{"name":"needed","type":"uint256","internalType":"uint256"}]},{"type":"error","name":"ERC20InsufficientBalance","inputs":[{"name":"sender","type":"address","internalType":"address"},{"name":"balance","type":"uint256","internalType":"uint256"},{"name":"needed","type":"uint256","internalType":"uint256"}]},{"type":"error","name":"ERC20InvalidApprover","inputs":[{"name":"approver","type":"address","internalType":"address"}]},{"type":"error","name":"ERC20InvalidReceiver","inputs":[{"name":"receiver","type":"address","internalType":"address"}]},{"type":"error","name":"ERC20InvalidSender","inputs":[{"name":"sender","type":"address","internalType":"address"}]},{"type":"error","name":"ERC20InvalidSpender","inputs":[{"name":"spender","type":"address","internalType":"address"}]},{"type":"error","name":"EmptyString","inputs":[{"name":"target","type":"string","internalType":"string"}]},{"type":"error","name":"EnforcedPause","inputs":[]},{"type":"error","name":"ExpectedPause","inputs":[]},{"type":"error","name":"InsufficentAssetsPerValut","inputs":[{"name":"from","type":"address","internalType":"address"},{"name":"fromBalance","type":"uint256","internalType":"uint256"},{"name":"value","type":"uint256","internalType":"uint256"}]},{"type":"error","name":"InsufficentSharesPerValut","inputs":[{"name":"from","type":"address","internalType":"address"},{"name":"fromBalance","type":"uint256","internalType":"uint256"},{"name":"value","type":"uint256","internalType":"uint256"}]},{"type":"error","name":"InsufficentTotalAssets","inputs":[{"name":"from","type":"address","internalType":"address"},{"name":"fromBalance","type":"uint256","internalType":"uint256"},{"name":"value","type":"uint256","internalType":"uint256"}]},{"type":"error","name":"InsufficentTotalShares","inputs":[{"name":"from","type":"address","internalType":"address"},{"name":"fromBalance","type":"uint256","internalType":"uint256"},{"name":"value","type":"uint256","internalType":"uint256"}]},{"type":"error","name":"InsufficientShares","inputs":[{"name":"user","type":"address","internalType":"address"}]},{"type":"error","name":"InvalidInitialization","inputs":[]},{"type":"error","name":"MaxVaultsPerUser","inputs":[]},{"type":"error","name":"NotInitializing","inputs":[]},{"type":"error","name":"ReentrancyGuardReentrantCall","inputs":[]},{"type":"error","name":"UnsupportedVault","inputs":[]},{"type":"error","name":"WrongDepositValues","inputs":[]},{"type":"error","name":"WrongValues","inputs":[]},{"type":"error","name":"ZeroAddress","inputs":[{"name":"target","type":"string","internalType":"string"}]},{"type":"error","name":"ZeroAmount","inputs":[{"name":"target","type":"string","internalType":"string"}]}],"bytecode":{"object":"0x608060405234801561001057600080fd5b50613662806100206000396000f3fe6080604052600436106102b25760003560e01c806370a0823111610175578063a217fddf116100dc578063caef5ef811610095578063d5d322021161006f578063d5d32202146108fb578063dd62ed3e1461091b578063ecf002f914610961578063f9a8f4401461098157600080fd5b8063caef5ef814610895578063d027f74d146108c1578063d547741f146108db57600080fd5b8063a217fddf146107bf578063a9059cbb146107d4578063b24e7c23146107f4578063b7ac72eb14610814578063c40b23b114610841578063c92f6aef1461086157600080fd5b806391d148541161012e57806391d14854146106f257806393ce57951461071257806393e4526e1461073257806395d89b411461075257806396907fce14610767578063991bdc3d1461078957600080fd5b806370a082311461062e5780637158da7c146106675780637d3500c51461068757806383b43589146106a75780638456cb59146106c75780638c326876146106dc57600080fd5b8063313ce567116102195780634e1199f6116101d25780634e1199f61461053457806359b2a1a6146105545780635c975abb146105885780636225eb5f146105ad5780636cc811f8146105e15780636f7f80c11461060e57600080fd5b8063313ce5671461048057806333b23f671461049c57806336568abe146104ca57806339c94d5b146104ea5780633ba0b9a91461050a5780633f4ba83a1461051f57600080fd5b80631b206b731161026b5780631b206b73146103ac5780631f4c38b3146103de57806323b872dd14610400578063248a9ca3146104205780632a032a75146104405780632f2ff15d1461046057600080fd5b806301ffc9a7146102be57806305db2f41146102f357806306fdde0314610335578063095ea7b314610357578063135c494e1461037757806318160ddd1461039757600080fd5b366102b957005b600080fd5b3480156102ca57600080fd5b506102de6102d9366004612caa565b610997565b60405190151581526020015b60405180910390f35b3480156102ff57600080fd5b506103277f6c0757dc3e6b28b2580c03fd9e96c274acf4f99d91fbec9b418fa1d70604ff1c81565b6040519081526020016102ea565b34801561034157600080fd5b5061034a6109ce565b6040516102ea9190612cd4565b34801561036357600080fd5b506102de610372366004612d38565b610a60565b34801561038357600080fd5b50610327610392366004612daf565b610a7a565b3480156103a357600080fd5b50600854610327565b3480156103b857600080fd5b506000546001600160a01b03165b6040516001600160a01b0390911681526020016102ea565b3480156103ea57600080fd5b506103fe6103f9366004612e39565b610c2a565b005b34801561040c57600080fd5b506102de61041b366004612e56565b610c8d565b34801561042c57600080fd5b5061032761043b366004612e97565b610cb1565b34801561044c57600080fd5b5061032761045b366004612e39565b610cd3565b34801561046c57600080fd5b506103fe61047b366004612eb0565b610d4b565b34801561048c57600080fd5b50604051601281526020016102ea565b3480156104a857600080fd5b506104bc6104b7366004612e39565b610d6d565b6040516102ea929190612f25565b3480156104d657600080fd5b506103fe6104e5366004612eb0565b610edf565b3480156104f657600080fd5b506104bc610505366004612e39565b610f17565b34801561051657600080fd5b50610327611081565b34801561052b57600080fd5b506103fe6110a8565b34801561054057600080fd5b506104bc61054f366004612e39565b6110be565b34801561056057600080fd5b506103277f510226e20fcb59b9dc03e0e76160e5cff0f15ce05df1aa493018fab55b6e76a181565b34801561059457600080fd5b5060008051602061360d8339815191525460ff166102de565b3480156105b957600080fd5b506103277f7e2a7ea667a2899e8ad289cc55df0a4a71a479e0ff5e61fb0803cb33906ddabe81565b3480156105ed57600080fd5b506106016105fc366004612e39565b611228565b6040516102ea9190612f7c565b34801561061a57600080fd5b506103fe610629366004612e97565b61129e565b34801561063a57600080fd5b50610327610649366004612e39565b6001600160a01b03166000908152600c602052604090206003015490565b34801561067357600080fd5b506000546103c6906001600160a01b031681565b34801561069357600080fd5b506104bc6106a2366004612e39565b6112f2565b3480156106b357600080fd5b506103fe6106c2366004613044565b6114a2565b3480156106d357600080fd5b506103fe61178d565b3480156106e857600080fd5b5061032760035481565b3480156106fe57600080fd5b506102de61070d366004612eb0565b6117a0565b34801561071e57600080fd5b506001546103c6906001600160a01b031681565b34801561073e57600080fd5b506005546103c6906001600160a01b031681565b34801561075e57600080fd5b5061034a6117d8565b34801561077357600080fd5b506103276000805160206135cd83398151915281565b34801561079557600080fd5b506103276107a4366004612e39565b6001600160a01b03166000908152600c602052604090205490565b3480156107cb57600080fd5b50610327600081565b3480156107e057600080fd5b506102de6107ef366004612d38565b6117e7565b34801561080057600080fd5b506004546103c6906001600160a01b031681565b34801561082057600080fd5b5061032761082f366004612e39565b60066020526000908152604090205481565b34801561084d57600080fd5b506102de61085c366004612e39565b6117f5565b34801561086d57600080fd5b506103277f97ddbaf00fe0302cd886e6ef0169e3547b3909cb96632300921a94542750300281565b3480156108a157600080fd5b506007546108b490610100900460ff1681565b6040516102ea91906130fd565b3480156108cd57600080fd5b506007546108b49060ff1681565b3480156108e757600080fd5b506103fe6108f6366004612eb0565b611959565b34801561090757600080fd5b50610327610916366004613110565b611975565b34801561092757600080fd5b50610327610936366004613183565b6001600160a01b039182166000908152600b6020908152604080832093909416825291909152205490565b34801561096d57600080fd5b506103fe61097c366004612e39565b611a81565b34801561098d57600080fd5b5061032760025481565b60006001600160e01b03198216637965db0b60e01b14806109c857506301ffc9a760e01b6001600160e01b03198316145b92915050565b6060600980546109dd906131b1565b80601f0160208091040260200160405190810160405280929190818152602001828054610a09906131b1565b8015610a565780601f10610a2b57610100808354040283529160200191610a56565b820191906000526020600020905b815481529060010190602001808311610a3957829003601f168201915b5050505050905090565b600033610a708185856001611af6565b5060019392505050565b6000610a84611bd0565b610aaf876040518060400160405280600981526020016872656365697665725f60b81b815250611c03565b610adc826040518060400160405280600b81526020016a746f74616c56616c75655f60a81b815250611c30565b610ae886868686611c53565b6000546001600160a01b03166323b872dd336040516001600160e01b031960e084901b1681526001600160a01b039091166004820152306024820152604481018590526064016020604051808303816000875af1158015610b4d573d6000803e3d6000fd5b505050506040513d601f19601f82011682018060405250810190610b7191906131eb565b50600080610b828989898989611c73565b91509150838114610ba657604051630605bed760e41b815260040160405180910390fd5b8060036000828254610bb89190613223565b90915550610bcb90508983836001611d95565b336001600160a01b0316896001600160a01b03167fcca721777a6ecfefca61eb6abe93dd4f6bc3798df0cf7aacedffc26fbd7521c08a8a8a8a88604051610c16959493929190613236565b60405180910390a350979650505050505050565b6000805160206135cd833981519152610c4281611e85565b600480546001600160a01b0319166001600160a01b0384169081179091556040517f9c061fb0876729ebd2e3138c7f48d25a58846f574974823f463346cd1c59162490600090a25050565b600033610c9b858285611e8f565b610ca6858585611ef4565b506001949350505050565b60009081526000805160206135ed833981519152602052604090206001015490565b6000610d03826040518060400160405280600c81526020016b746f6b656e486f6c6465725f60a01b815250611c03565b6001600160a01b0382166000908152600c602052604081206003810154909103610d305750600092915050565b80600301548160040154610d4491906132bd565b9392505050565b610d5482610cb1565b610d5d81611e85565b610d678383611fc8565b50505050565b6001600160a01b0381166000908152600c6020526040902080546060918291806001600160401b03811115610da457610da4612f8f565b604051908082528060200260200182016040528015610dcd578160200160208202803683370190505b509350806001600160401b03811115610de857610de8612f8f565b604051908082528060200260200182016040528015610e11578160200160208202803683370190505b50925060005b81811015610ed7576000836000018281548110610e3657610e366132df565b9060005260206000200160009054906101000a90046001600160a01b0316905080868381518110610e6957610e696132df565b60200260200101906001600160a01b031690816001600160a01b031681525050836001016000826001600160a01b03166001600160a01b0316815260200190815260200160002054858381518110610ec357610ec36132df565b602090810291909101015250600101610e17565b505050915091565b6001600160a01b0381163314610f085760405163334bd91960e11b815260040160405180910390fd5b610f12828261206d565b505050565b6001600160a01b0381166000908152600c6020526040902080546060918291806001600160401b03811115610f4e57610f4e612f8f565b604051908082528060200260200182016040528015610f77578160200160208202803683370190505b509350806001600160401b03811115610f9257610f92612f8f565b604051908082528060200260200182016040528015610fbb578160200160208202803683370190505b50925060005b81811015610ed7576000836000018281548110610fe057610fe06132df565b9060005260206000200160009054906101000a90046001600160a01b0316905080868381518110611013576110136132df565b60200260200101906001600160a01b031690816001600160a01b031681525050836001016000826001600160a01b03166001600160a01b031681526020019081526020016000205485838151811061106d5761106d6132df565b602090810291909101015250600101610fc1565b60006003546000036110935750600090565b6003546008546110a391906132bd565b905090565b60006110b381611e85565b6110bb6120e9565b50565b6001600160a01b0381166000908152600c6020526040902080546060918291806001600160401b038111156110f5576110f5612f8f565b60405190808252806020026020018201604052801561111e578160200160208202803683370190505b509350806001600160401b0381111561113957611139612f8f565b604051908082528060200260200182016040528015611162578160200160208202803683370190505b50925060005b81811015610ed7576000836000018281548110611187576111876132df565b9060005260206000200160009054906101000a90046001600160a01b03169050808683815181106111ba576111ba6132df565b60200260200101906001600160a01b031690816001600160a01b031681525050836002016000826001600160a01b03166001600160a01b0316815260200190815260200160002054858381518110611214576112146132df565b602090810291909101015250600101611168565b6001600160a01b0381166000908152600c602090815260409182902080548351818402810184019094528084526060939283018282801561129257602002820191906000526020600020905b81546001600160a01b03168152600190910190602001808311611274575b50505050509050919050565b6000805160206135cd8339815191526112b681611e85565b60028290556040518281527f8d37248dd9d2267215ef16c9eac8ec90993dd9de5539f828ca6c6e5f78bcd6d19060200160405180910390a15050565b6001600160a01b0381166000908152600c6020526040902080546060918291806001600160401b0381111561132957611329612f8f565b604051908082528060200260200182016040528015611352578160200160208202803683370190505b509350806001600160401b0381111561136d5761136d612f8f565b604051908082528060200260200182016040528015611396578160200160208202803683370190505b50925060005b81811015610ed75760008360000182815481106113bb576113bb6132df565b9060005260206000200160009054906101000a90046001600160a01b03169050808683815181106113ee576113ee6132df565b6001600160a01b039283166020918202929092018101919091529082166000818152600187019092526040918290205491516303d1689d60e11b8152600481018390526307a2d13a90602401602060405180830381865afa158015611457573d6000803e3d6000fd5b505050506040513d601f19601f8201168201806040525081019061147b91906132f5565b86848151811061148d5761148d6132df565b6020908102919091010152505060010161139c565b7ff0c57e16840df040f15088dc2f81fe391c3923bec73e23a9662efc9c229c6a008054600160401b810460ff1615906001600160401b03166000811580156114e75750825b90506000826001600160401b031660011480156115035750303b155b905081158015611511575080155b1561152f5760405163f92ee8a960e01b815260040160405180910390fd5b845467ffffffffffffffff19166001178555831561155957845460ff60401b1916600160401b1785555b61158b8a6040518060400160405280601081526020016f756e6465726c79696e6741737365745f60801b815250611c03565b6115bc896040518060400160405280600f81526020016e7661756c747352656769737472795f60881b815250611c03565b6115eb886040518060400160405280600d81526020016c6f776e6572416464726573735f60981b815250611c03565b61161287604051806040016040528060058152602001646e616d655f60d81b815250612149565b61163b866040518060400160405280600781526020016673796d626f6c5f60c81b815250612149565b61164361216d565b61164b61217d565b6116757f6c0757dc3e6b28b2580c03fd9e96c274acf4f99d91fbec9b418fa1d70604ff1c89611fc8565b5061168e6000805160206135cd83398151915289611fc8565b506116b97f7e2a7ea667a2899e8ad289cc55df0a4a71a479e0ff5e61fb0803cb33906ddabe89611fc8565b506116e47f510226e20fcb59b9dc03e0e76160e5cff0f15ce05df1aa493018fab55b6e76a189611fc8565b506116f0600089611fc8565b5060096116fd8882613356565b50600a61170a8782613356565b50600080546001600160a01b03808d166001600160a01b03199283161790925560018054928c1692909116919091179055831561178157845460ff60401b19168555604051600181527fc7f505b2f371ae2175ee4913f4499e1f2633a7b5936321eed1cdaeb6115181d29060200160405180910390a15b50505050505050505050565b600061179881611e85565b6110bb612185565b60009182526000805160206135ed833981519152602090815260408084206001600160a01b0393909316845291905290205460ff1690565b6060600a80546109dd906131b1565b600033610a70818585611ef4565b6000611825826040518060400160405280600c81526020016b746f6b656e486f6c6465725f60a01b815250611c03565b6001600160a01b0382166000908152600c60205260408120805490915b81811015611914576000836000018281548110611861576118616132df565b6000918252602080832091909101546001600160a01b0316808352600187019091526040918290205491516303d1689d60e11b81526004810183905290925082906307a2d13a90602401602060405180830381865afa1580156118c8573d6000803e3d6000fd5b505050506040513d601f19601f820116820180604052508101906118ec91906132f5565b6001600160a01b03909216600090815260028601602052604090209190915550600101611842565b504360078301556040516001600160a01b038516907f5c5298efa9309afe25d68a67cd612c27a01dc84d7a56bb565a680277ae74256490600090a25060019392505050565b61196282610cb1565b61196b81611e85565b610d67838361206d565b600061198386868686611c53565b600080611992888888886121ce565b9150915080600360008282546119a89190613415565b909155506119bb90503383836000611d95565b6000546001600160a01b031663a9059cbb336040516001600160e01b031960e084901b1681526001600160a01b039091166004820152602481018490526044016020604051808303816000875af1158015611a1a573d6000803e3d6000fd5b505050506040513d601f19601f82011682018060405250810190611a3e91906131eb565b50604051818152339030907f2717ead6b9200dd235aad468c9809ea400fe33ac69b5bfaa6d3e90fc922b63989060200160405180910390a3979650505050505050565b7f6c0757dc3e6b28b2580c03fd9e96c274acf4f99d91fbec9b418fa1d70604ff1c611aab81611e85565b600580546001600160a01b0319166001600160a01b0384169081179091556040517f031fb19387aba8ea3c835d3fa1a9d7fa67d67b240c170b8c62981f0dc2321f0790600090a25050565b6001600160a01b038416611b255760405163e602df0560e01b8152600060048201526024015b60405180910390fd5b6001600160a01b038316611b4f57604051634a1406b160e11b815260006004820152602401611b1c565b6001600160a01b038085166000908152600b602090815260408083209387168352929052208290558015610d6757826001600160a01b0316846001600160a01b03167f8c5be1e5ebec7d5bd14f71427d1e84f3dd0314c0f7b2291e5b200ac8c7c3b92584604051611bc291815260200190565b60405180910390a350505050565b60008051602061360d8339815191525460ff1615611c015760405163d93c066560e01b815260040160405180910390fd5b565b6001600160a01b038216611c2c578060405163eac0d38960e01b8152600401611b1c9190612cd4565b5050565b81600003611c2c57806040516303b3e63560e41b8152600401611b1c9190612cd4565b828114610d6757604051631e29feeb60e11b815260040160405180910390fd5b60008060005b85811015611d8a576000878783818110611c9557611c956132df565b9050602002016020810190611caa9190612e39565b90506000868684818110611cc057611cc06132df565b905060200201359050611cf082604051806040016040528060058152602001641d985d5b1d60da1b815250611c03565b611d17816040518060400160405280600581526020016476616c756560d81b815250611c30565b611d208261235e565b611d3d57604051639583f86160e01b815260040160405180910390fd5b6000611d4983836123cd565b9050611d558187613223565b9550611d658b84838560016124b7565b611d6f838261259c565b611d798286613223565b94505060019092019150611c799050565b509550959350505050565b8015611e01576001600160a01b0384166000908152600c602052604081206003018054859290611dc6908490613223565b90915550506001600160a01b0384166000908152600c602052604081206004018054849290611df6908490613223565b90915550611e629050565b6001600160a01b0384166000908152600c602052604081206003018054859290611e2c908490613415565b90915550506001600160a01b0384166000908152600c602052604081206004018054849290611e5c908490613415565b90915550505b5050506001600160a01b03166000908152600c6020526040902043600790910155565b6110bb81336125e6565b6001600160a01b038381166000908152600b60209081526040808320938616835292905220546000198114610d675781811015611ee557828183604051637dc7a0d960e11b8152600401611b1c93929190613428565b610d6784848484036000611af6565b6001600160a01b038316611f1e57604051634b637e8f60e11b815260006004820152602401611b1c565b6001600160a01b038216611f485760405163ec442f0560e01b815260006004820152602401611b1c565b600080611f5685858561261f565b91509150611f678583836000611d95565b611f748483836001611d95565b836001600160a01b0316856001600160a01b03167fddf252ad1be2c89b69c2b068fc378daa952ba7f163c4a11628f55a4df523b3ef85604051611fb991815260200190565b60405180910390a35050505050565b60006000805160206135ed833981519152611fe384846117a0565b612063576000848152602082815260408083206001600160a01b03871684529091529020805460ff191660011790556120193390565b6001600160a01b0316836001600160a01b0316857f2f8788117e7eff1d82e926ec794901d17c78024a50270940304540a733656f0d60405160405180910390a460019150506109c8565b60009150506109c8565b60006000805160206135ed83398151915261208884846117a0565b15612063576000848152602082815260408083206001600160a01b0387168085529252808320805460ff1916905551339287917ff6391f5c32d9c69d2a47ea670b442974b53935d1edc7fd64eb21e047a839171b9190a460019150506109c8565b6120f16128d1565b60008051602061360d833981519152805460ff191681557f5db9ee0a495bf2e6ff9c91a7834c1ba4fdd244a5e8aa4e537bd38aeae4b073aa335b6040516001600160a01b03909116815260200160405180910390a150565b8151600003611c2c57806040516318a996bb60e21b8152600401611b1c9190612cd4565b612175612901565b611c0161294a565b611c01612901565b61218d611bd0565b60008051602061360d833981519152805460ff191660011781557f62e78cea01bee320cd4e420270b5ea74000d11b0c9f74754ebdbfc544b05a2583361212b565b60008060005b858110156123545760008787838181106121f0576121f06132df565b90506020020160208101906122059190612e39565b9050600086868481811061221b5761221b6132df565b90506020020135905061224b82604051806040016040528060058152602001641d985d5b1d60da1b815250611c03565b612272816040518060400160405280600581526020016476616c756560d81b815250611c30565b61227b8261235e565b61229857604051639583f86160e01b815260040160405180910390fd5b604051632d182be560e21b815260048101829052306024820181905260448201526000906001600160a01b0384169063b460af94906064016020604051808303816000875af11580156122ef573d6000803e3d6000fd5b505050506040513d601f19601f8201168201806040525081019061231391906132f5565b905061231f8187613223565b955061232f3384838560006124b7565b612339838261296b565b6123438286613223565b945050600190920191506121d49050565b5094509492505050565b600154604051630c5aed5760e01b81526001600160a01b0383811660048301526000921690630c5aed5790602401602060405180830381865afa1580156123a9573d6000803e3d6000fd5b505050506040513d601f19601f820116820180604052508101906109c891906131eb565b6000805460405163095ea7b360e01b81526001600160a01b038581166004830152602482018590529091169063095ea7b3906044016020604051808303816000875af1158015612421573d6000803e3d6000fd5b505050506040513d601f19601f8201168201806040525081019061244591906131eb565b50604051636e553f6560e01b8152600481018390523060248201526001600160a01b03841690636e553f65906044016020604051808303816000875af1158015612493573d6000803e3d6000fd5b505050506040513d601f19601f82011682018060405250810190610d4491906132f5565b801561250a576124c785856129ac565b6001600160a01b038581166000908152600c6020908152604080832093881683526001840182528083208054880190556002909301905220805483019055612595565b6001600160a01b038086166000908152600c602090815260408083209388168352600190930190529081208054859290612545908490613415565b90915550506001600160a01b038086166000908152600c602090815260408083209388168352600290930190529081208054849290612585908490613415565b9091555061259590508585612a56565b5050505050565b6001600160a01b038216600090815260066020526040812080548392906125c4908490613223565b9250508190555080600860008282546125dd9190613223565b90915550505050565b6125f082826117a0565b611c2c5760405163e2517d3f60e01b81526001600160a01b038216600482015260248101839052604401611b1c565b60008082612645866001600160a01b03166000908152600c602052604090206003015490565b101561268b578461266e866001600160a01b03166000908152600c602052604090206003015490565b8460405163391434e360e21b8152600401611b1c93929190613428565b600480546040516313e65a9560e01b81526001600160a01b0388811693820193909352868316602482015260448101869052600092839216906313e65a9590606401600060405180830381865afa1580156126ea573d6000803e3d6000fd5b505050506040513d6000823e601f3d908101601f1916820160405261271291908101906134db565b6001600160a01b0389166000908152600c602052604081209294509092505b835181101561286857600084828151811061274e5761274e6132df565b60200260200101519050600084838151811061276c5761276c6132df565b60200260200101519050836001016000836001600160a01b03166001600160a01b03168152602001908152602001600020548111156127de576001600160a01b0382166000908152600185016020526040908190205490516337b4f30760e11b8152611b1c918d918490600401613428565b60006127ea8584612c1c565b6001600160a01b0384166000908152600287016020526040902054909150811115612848576001600160a01b03831660009081526002860160205260409081902054905163140ff5cb60e31b8152611b1c918e918490600401613428565b6128558c8c858585612c78565b9781019702959095019450600101612731565b508060030154851115612897576003810154604051630520449f60e41b8152611b1c918a918890600401613428565b80600401548411156128c6578781600401548560405163a3292ecd60e01b8152600401611b1c93929190613428565b505050935093915050565b60008051602061360d8339815191525460ff16611c0157604051638dfc202b60e01b815260040160405180910390fd5b7ff0c57e16840df040f15088dc2f81fe391c3923bec73e23a9662efc9c229c6a0054600160401b900460ff16611c0157604051631afcd79f60e31b815260040160405180910390fd5b612952612901565b60008051602061360d833981519152805460ff19169055565b6001600160a01b03821660009081526006602052604081208054839290612993908490613415565b9250508190555080600860008282546125dd9190613415565b6001600160a01b038083166000908152600c60209081526040808320938516835260019093019052908120549003611c2c576002546001600160a01b0383166000908152600c602052604090205410612a1857604051631f734a2960e21b815260040160405180910390fd5b6001600160a01b039182166000908152600c602090815260408220805460018101825590835291200180546001600160a01b03191691909216179055565b6001600160a01b038083166000908152600c60209081526040808320938516835260019093019052908120549003611c2c576001600160a01b0382166000908152600c6020526040812054905b6001600160a01b0384166000908152600c6020526040902054811015612b1c576001600160a01b038481166000908152600c6020526040902080549185169183908110612af257612af26132df565b6000918252602090912001546001600160a01b031603612b1457809150612b1c565b600101612aa3565b506001600160a01b0383166000908152600c6020526040902054811015610f12576001600160a01b0383166000908152600c602052604090208054612b6390600190613415565b81548110612b7357612b736132df565b60009182526020808320909101546001600160a01b038681168452600c9092526040909220805491909216919083908110612bb057612bb06132df565b600091825260208083209190910180546001600160a01b0319166001600160a01b039485161790559185168152600c90915260409020805480612bf557612bf561359f565b600082815260209020810160001990810180546001600160a01b0319169055019055505050565b6001600160a01b03811660009081526001830160205260408120548103612c45575060006109c8565b6001600160a01b03821660009081526001840160209081526040808320546002870190925290912054610d4491906132bd565b6000612c8482846135b5565b9050612c948685858460006124b7565b612ca28585858460016124b7565b505050505050565b600060208284031215612cbc57600080fd5b81356001600160e01b031981168114610d4457600080fd5b60006020808352835180602085015260005b81811015612d0257858101830151858201604001528201612ce6565b506000604082860101526040601f19601f8301168501019250505092915050565b6001600160a01b03811681146110bb57600080fd5b60008060408385031215612d4b57600080fd5b8235612d5681612d23565b946020939093013593505050565b60008083601f840112612d7657600080fd5b5081356001600160401b03811115612d8d57600080fd5b6020830191508360208260051b8501011115612da857600080fd5b9250929050565b60008060008060008060808789031215612dc857600080fd5b8635612dd381612d23565b955060208701356001600160401b0380821115612def57600080fd5b612dfb8a838b01612d64565b90975095506040890135915080821115612e1457600080fd5b50612e2189828a01612d64565b979a9699509497949695606090950135949350505050565b600060208284031215612e4b57600080fd5b8135610d4481612d23565b600080600060608486031215612e6b57600080fd5b8335612e7681612d23565b92506020840135612e8681612d23565b929592945050506040919091013590565b600060208284031215612ea957600080fd5b5035919050565b60008060408385031215612ec357600080fd5b823591506020830135612ed581612d23565b809150509250929050565b60008151808452602080850194506020840160005b83811015612f1a5781516001600160a01b031687529582019590820190600101612ef5565b509495945050505050565b604081526000612f386040830185612ee0565b82810360208481019190915284518083528582019282019060005b81811015612f6f57845183529383019391830191600101612f53565b5090979650505050505050565b602081526000610d446020830184612ee0565b634e487b7160e01b600052604160045260246000fd5b604051601f8201601f191681016001600160401b0381118282101715612fcd57612fcd612f8f565b604052919050565b600082601f830112612fe657600080fd5b81356001600160401b03811115612fff57612fff612f8f565b613012601f8201601f1916602001612fa5565b81815284602083860101111561302757600080fd5b816020850160208301376000918101602001919091529392505050565b600080600080600060a0868803121561305c57600080fd5b853561306781612d23565b9450602086013561307781612d23565b9350604086013561308781612d23565b925060608601356001600160401b03808211156130a357600080fd5b6130af89838a01612fd5565b935060808801359150808211156130c557600080fd5b506130d288828901612fd5565b9150509295509295909350565b600281106110bb57634e487b7160e01b600052602160045260246000fd5b6020810161310a836130df565b91905290565b60008060008060006060868803121561312857600080fd5b85356001600160401b038082111561313f57600080fd5b61314b89838a01612d64565b9097509550602088013591508082111561316457600080fd5b5061317188828901612d64565b96999598509660400135949350505050565b6000806040838503121561319657600080fd5b82356131a181612d23565b91506020830135612ed581612d23565b600181811c908216806131c557607f821691505b6020821081036131e557634e487b7160e01b600052602260045260246000fd5b50919050565b6000602082840312156131fd57600080fd5b81518015158114610d4457600080fd5b634e487b7160e01b600052601160045260246000fd5b808201808211156109c8576109c861320d565b6060808252810185905260008660808301825b8881101561327957823561325c81612d23565b6001600160a01b0316825260209283019290910190600101613249565b5083810360208501528581526001600160fb1b0386111561329957600080fd5b8560051b915081876020830137604093909301939093525001602001949350505050565b6000826132da57634e487b7160e01b600052601260045260246000fd5b500490565b634e487b7160e01b600052603260045260246000fd5b60006020828403121561330757600080fd5b5051919050565b601f821115610f12576000816000526020600020601f850160051c810160208610156133375750805b601f850160051c820191505b81811015612ca257828155600101613343565b81516001600160401b0381111561336f5761336f612f8f565b6133838161337d84546131b1565b8461330e565b602080601f8311600181146133b857600084156133a05750858301515b600019600386901b1c1916600185901b178555612ca2565b600085815260208120601f198616915b828110156133e7578886015182559484019460019091019084016133c8565b50858210156134055787850151600019600388901b60f8161c191681555b5050505050600190811b01905550565b818103818111156109c8576109c861320d565b6001600160a01b039390931683526020830191909152604082015260600190565b60006001600160401b0382111561346257613462612f8f565b5060051b60200190565b600082601f83011261347d57600080fd5b8151602061349261348d83613449565b612fa5565b8083825260208201915060208460051b8701019350868411156134b457600080fd5b602086015b848110156134d057805183529183019183016134b9565b509695505050505050565b600080604083850312156134ee57600080fd5b82516001600160401b038082111561350557600080fd5b818501915085601f83011261351957600080fd5b8151602061352961348d83613449565b82815260059290921b8401810191818101908984111561354857600080fd5b948201945b8386101561356f57855161356081612d23565b8252948201949082019061354d565b9188015191965090935050508082111561358857600080fd5b506135958582860161346c565b9150509250929050565b634e487b7160e01b600052603160045260246000fd5b80820281158282048414176109c8576109c861320d56fe2ff7e0ecadc3de46f2c240904f290a3c26562b4f0e9b5e3b2dfacabf65dcfd3802dd7bc7dec4dceedda775e58dd541e08a116c6c53815c0bd028192f7b626800cd5ed15c6e187e77e9aee88184c21f4f2182ab5827cb3b7e07fbedcd63f03300a264697066735822122098f778f896ae173ed7021e15fdf83de1fcfdd2d62cadf65fe7ffb1501842778264736f6c63430008180033","linkReferences":{}},"methodIdentifiers":{"DEFAULT_ADMIN_ROLE()":"a217fddf","FEE_MANAGER_ROLE()":"05db2f41","LYSADMIN_MANAGER_ROLE()":"96907fce","TRANSFERS_MANAGER_ROLE()":"c92f6aef","VALUATIONS_MANAGER_ROLE()":"6225eb5f","VAULTS_MANAGER_ROLE()":"59b2a1a6","aggregatorFeeModel()":"93e4526e","allowance(address,address)":"dd62ed3e","approve(address,uint256)":"095ea7b3","balanceOf(address)":"70a08231","currentAssetsPerVault(address)":"7d3500c5","currentSharesPerVault(address)":"39c94d5b","decimals()":"313ce567","deposit(address,address[],uint256[],uint256)":"135c494e","depositFailureMode()":"d027f74d","exchangeRate()":"3ba0b9a9","getPortfolioLastExchangeRate(address)":"2a032a75","getRoleAdmin(bytes32)":"248a9ca3","getUnderlyingAsset()":"1b206b73","grantRole(bytes32,address)":"2f2ff15d","hasRole(bytes32,address)":"91d14854","initialize(address,address,address,string,string)":"83b43589","lastAssetsPerVault(address)":"4e1199f6","lastSharesPerVault(address)":"33b23f67","maxVaultsPerHolder()":"f9a8f440","name()":"06fdde03","numberOfVaults(address)":"991bdc3d","pause()":"8456cb59","paused()":"5c975abb","renounceRole(bytes32,address)":"36568abe","revokeRole(bytes32,address)":"d547741f","setAggregatorFeeModel(address)":"ecf002f9","setMaxVaultsPerHolder(uint256)":"6f7f80c1","setTransferStrategy(address)":"1f4c38b3","supportsInterface(bytes4)":"01ffc9a7","symbol()":"95d89b41","totalSupply()":"18160ddd","transfer(address,uint256)":"a9059cbb","transferFrom(address,address,uint256)":"23b872dd","transferStrategy()":"b24e7c23","underlyingAsset()":"7158da7c","underlyingValue()":"8c326876","unpause()":"3f4ba83a","updatePortfolioValuation(address)":"c40b23b1","vaultsOf(address)":"6cc811f8","vaultsRegistry()":"93ce5795","vaultsShares(address)":"b7ac72eb","withdraw(address[],uint256[],uint256)":"d5d32202","withdrawalMode()":"caef5ef8"},"id":0}