{"abi":[{"type":"constructor","inputs":[{"name":"_count","type":"int256","internalType":"int256"}],"stateMutability":"nonpayable"},{"type":"function","name":"decrementCount","inputs":[],"outputs":[],"stateMutability":"nonpayable"},{"type":"function","name":"getCount","inputs":[],"outputs":[{"name":"count_","type":"int256","internalType":"int256"}],"stateMutability":"view"},{"type":"function","name":"incrementCount","inputs":[],"outputs":[],"stateMutability":"nonpayable"},{"type":"function","name":"setCount","inputs":[{"name":"count_","type":"int256","internalType":"int256"}],"outputs":[],"stateMutability":"nonpayable"}],"bytecode":{"object":"0x608060405234801561001057600080fd5b506040516101c93803806101c983398101604081905261002f91610037565b600055610050565b60006020828403121561004957600080fd5b5051919050565b61016a8061005f6000396000f3fe608060405234801561001057600080fd5b506004361061004c5760003560e01c8063a87d942c14610051578063b7f90f1214610066578063e5071b8e14610070578063fc583c8d14610078575b600080fd5b60005460405190815260200160405180910390f35b61006e61008b565b005b61006e6100a4565b61006e6100863660046100b6565b600055565b600160008082825461009d91906100e5565b9091555050565b600160008082825461009d919061010c565b6000602082840312156100c857600080fd5b5035919050565b634e487b7160e01b600052601160045260246000fd5b8181036000831280158383131683831282161715610105576101056100cf565b5092915050565b808201828112600083128015821682158216171561012c5761012c6100cf565b50509291505056fea2646970667358221220ab366a615497ae1b1a2f78fbe21736dc8ed97815282d72dbf0effa697b29e27f64736f6c63430008180033","linkReferences":{}},"methodIdentifiers":{"decrementCount()":"b7f90f12","getCount()":"a87d942c","incrementCount()":"e5071b8e","setCount(int256)":"fc583c8d"},"id":4}