{"abi":[{"type":"fallback","stateMutability":"payable"},{"type":"receive","stateMutability":"payable"},{"type":"function","name":"DEFAULT_ADMIN_ROLE","inputs":[],"outputs":[{"name":"","type":"bytes32","internalType":"bytes32"}],"stateMutability":"view"},{"type":"function","name":"REVERT_MSG","inputs":[],"outputs":[{"name":"","type":"string","internalType":"string"}],"stateMutability":"view"},{"type":"function","name":"VAULT_STRATEGY_ROLE","inputs":[],"outputs":[{"name":"","type":"bytes32","internalType":"bytes32"}],"stateMutability":"view"},{"type":"function","name":"claimEarnings","inputs":[{"name":"","type":"address","internalType":"address"},{"name":"","type":"address","internalType":"address"}],"outputs":[{"name":"","type":"address","internalType":"address"},{"name":"","type":"uint256","internalType":"uint256"}],"stateMutability":"nonpayable"},{"type":"function","name":"deposit","inputs":[{"name":"sender_","type":"address","internalType":"address"},{"name":"receiver_","type":"address","internalType":"address"},{"name":"token_","type":"address","internalType":"address"},{"name":"tokenAmount_","type":"uint256","internalType":"uint256"},{"name":"wrapToken_","type":"bool","internalType":"bool"}],"outputs":[{"name":"liquidTkn","type":"address","internalType":"address"},{"name":"liquidTknAmount","type":"uint256","internalType":"uint256"}],"stateMutability":"nonpayable"},{"type":"function","name":"eETHAddress","inputs":[],"outputs":[{"name":"","type":"address","internalType":"address"}],"stateMutability":"view"},{"type":"function","name":"getProtocol","inputs":[],"outputs":[{"name":"","type":"address","internalType":"address"}],"stateMutability":"view"},{"type":"function","name":"getRoleAdmin","inputs":[{"name":"role","type":"bytes32","internalType":"bytes32"}],"outputs":[{"name":"","type":"bytes32","internalType":"bytes32"}],"stateMutability":"view"},{"type":"function","name":"getSlippage","inputs":[],"outputs":[{"name":"","type":"uint256","internalType":"uint256"}],"stateMutability":"view"},{"type":"function","name":"getTokenPrice","inputs":[{"name":"","type":"address","internalType":"address"}],"outputs":[{"name":"","type":"uint256","internalType":"uint256"}],"stateMutability":"view"},{"type":"function","name":"grantRole","inputs":[{"name":"role","type":"bytes32","internalType":"bytes32"},{"name":"account","type":"address","internalType":"address"}],"outputs":[],"stateMutability":"nonpayable"},{"type":"function","name":"hasRole","inputs":[{"name":"role","type":"bytes32","internalType":"bytes32"},{"name":"account","type":"address","internalType":"address"}],"outputs":[{"name":"","type":"bool","internalType":"bool"}],"stateMutability":"view"},{"type":"function","name":"initialize","inputs":[{"name":"liquifierAddress_","type":"address","internalType":"address"},{"name":"eETHAddress_","type":"address","internalType":"address"},{"name":"weETHAddress_","type":"address","internalType":"address"}],"outputs":[],"stateMutability":"nonpayable"},{"type":"function","name":"liquifierAddress","inputs":[],"outputs":[{"name":"","type":"address","internalType":"address"}],"stateMutability":"view"},{"type":"function","name":"pause","inputs":[],"outputs":[],"stateMutability":"nonpayable"},{"type":"function","name":"paused","inputs":[],"outputs":[{"name":"","type":"bool","internalType":"bool"}],"stateMutability":"view"},{"type":"function","name":"protocolName","inputs":[],"outputs":[{"name":"","type":"string","internalType":"string"}],"stateMutability":"view"},{"type":"function","name":"renounceRole","inputs":[{"name":"role","type":"bytes32","internalType":"bytes32"},{"name":"callerConfirmation","type":"address","internalType":"address"}],"outputs":[],"stateMutability":"nonpayable"},{"type":"function","name":"revokeRole","inputs":[{"name":"role","type":"bytes32","internalType":"bytes32"},{"name":"account","type":"address","internalType":"address"}],"outputs":[],"stateMutability":"nonpayable"},{"type":"function","name":"setLiquifierAddress","inputs":[{"name":"liquifierAddress_","type":"address","internalType":"address"}],"outputs":[],"stateMutability":"nonpayable"},{"type":"function","name":"setSlippage","inputs":[{"name":"slippage_","type":"uint256","internalType":"uint256"}],"outputs":[],"stateMutability":"nonpayable"},{"type":"function","name":"setWETHAddress","inputs":[{"name":"wethAddress_","type":"address","internalType":"address"}],"outputs":[],"stateMutability":"nonpayable"},{"type":"function","name":"slippage","inputs":[],"outputs":[{"name":"","type":"uint256","internalType":"uint256"}],"stateMutability":"view"},{"type":"function","name":"supportsInterface","inputs":[{"name":"interfaceId","type":"bytes4","internalType":"bytes4"}],"outputs":[{"name":"","type":"bool","internalType":"bool"}],"stateMutability":"view"},{"type":"function","name":"unpause","inputs":[],"outputs":[],"stateMutability":"nonpayable"},{"type":"function","name":"weETHAddress","inputs":[],"outputs":[{"name":"","type":"address","internalType":"address"}],"stateMutability":"view"},{"type":"function","name":"wethAddress","inputs":[],"outputs":[{"name":"","type":"address","internalType":"address"}],"stateMutability":"view"},{"type":"function","name":"withdraw","inputs":[{"name":"","type":"address","internalType":"address"},{"name":"","type":"address","internalType":"address"},{"name":"","type":"address","internalType":"address"},{"name":"","type":"uint256","internalType":"uint256"},{"name":"","type":"address","internalType":"address"},{"name":"","type":"uint256","internalType":"uint256"},{"name":"","type":"bytes","internalType":"bytes"}],"outputs":[{"name":"","type":"address","internalType":"address"},{"name":"","type":"uint256","internalType":"uint256"}],"stateMutability":"nonpayable"},{"type":"event","name":"AddressUpdated","inputs":[{"name":"which","type":"string","indexed":true,"internalType":"string"},{"name":"newAddress","type":"address","indexed":false,"internalType":"address"}],"anonymous":false},{"type":"event","name":"DepositedOnProtocol","inputs":[{"name":"sender","type":"address","indexed":true,"internalType":"address"},{"name":"token","type":"address","indexed":true,"internalType":"address"},{"name":"tokenAmount","type":"uint256","indexed":false,"internalType":"uint256"},{"name":"liquidTkn","type":"address","indexed":true,"internalType":"address"},{"name":"liquidTknAmount","type":"uint256","indexed":false,"internalType":"uint256"}],"anonymous":false},{"type":"event","name":"Initialized","inputs":[{"name":"version","type":"uint64","indexed":false,"internalType":"uint64"}],"anonymous":false},{"type":"event","name":"Paused","inputs":[{"name":"account","type":"address","indexed":false,"internalType":"address"}],"anonymous":false},{"type":"event","name":"RoleAdminChanged","inputs":[{"name":"role","type":"bytes32","indexed":true,"internalType":"bytes32"},{"name":"previousAdminRole","type":"bytes32","indexed":true,"internalType":"bytes32"},{"name":"newAdminRole","type":"bytes32","indexed":true,"internalType":"bytes32"}],"anonymous":false},{"type":"event","name":"RoleGranted","inputs":[{"name":"role","type":"bytes32","indexed":true,"internalType":"bytes32"},{"name":"account","type":"address","indexed":true,"internalType":"address"},{"name":"sender","type":"address","indexed":true,"internalType":"address"}],"anonymous":false},{"type":"event","name":"RoleRevoked","inputs":[{"name":"role","type":"bytes32","indexed":true,"internalType":"bytes32"},{"name":"account","type":"address","indexed":true,"internalType":"address"},{"name":"sender","type":"address","indexed":true,"internalType":"address"}],"anonymous":false},{"type":"event","name":"SlippageUpdated","inputs":[{"name":"newSlippage","type":"uint256","indexed":false,"internalType":"uint256"}],"anonymous":false},{"type":"event","name":"Unpaused","inputs":[{"name":"account","type":"address","indexed":false,"internalType":"address"}],"anonymous":false},{"type":"event","name":"WithdrawFromProtocol","inputs":[{"name":"caller_","type":"address","indexed":true,"internalType":"address"},{"name":"receiver_","type":"address","indexed":true,"internalType":"address"},{"name":"liquidTokenAddress_","type":"address","indexed":true,"internalType":"address"},{"name":"amountSpent","type":"uint256","indexed":false,"internalType":"uint256"},{"name":"asset_","type":"address","indexed":false,"internalType":"address"},{"name":"assetsAmount_","type":"uint256","indexed":false,"internalType":"uint256"}],"anonymous":false},{"type":"error","name":"AccessControlBadConfirmation","inputs":[]},{"type":"error","name":"AccessControlUnauthorizedAccount","inputs":[{"name":"account","type":"address","internalType":"address"},{"name":"neededRole","type":"bytes32","internalType":"bytes32"}]},{"type":"error","name":"AddressEmptyCode","inputs":[{"name":"target","type":"address","internalType":"address"}]},{"type":"error","name":"AddressInsufficientBalance","inputs":[{"name":"account","type":"address","internalType":"address"}]},{"type":"error","name":"EnforcedPause","inputs":[]},{"type":"error","name":"ExpectedPause","inputs":[]},{"type":"error","name":"FailedInnerCall","inputs":[]},{"type":"error","name":"InvalidInitialization","inputs":[]},{"type":"error","name":"NotInitializing","inputs":[]},{"type":"error","name":"OnlyWETHAllowed","inputs":[]},{"type":"error","name":"ReentrancyGuardReentrantCall","inputs":[]},{"type":"error","name":"SafeERC20FailedOperation","inputs":[{"name":"token","type":"address","internalType":"address"}]},{"type":"error","name":"SlippageExceededOnDeposit","inputs":[{"name":"required","type":"uint256","internalType":"uint256"},{"name":"actual","type":"uint256","internalType":"uint256"}]},{"type":"error","name":"SlippageExceededOnWithdrawal","inputs":[{"name":"required","type":"uint256","internalType":"uint256"},{"name":"actual","type":"uint256","internalType":"uint256"}]},{"type":"error","name":"WrapError","inputs":[{"name":"token","type":"address","internalType":"address"},{"name":"amount","type":"uint256","internalType":"uint256"}]},{"type":"error","name":"ZeroAddress","inputs":[{"name":"target","type":"string","internalType":"string"}]},{"type":"error","name":"ZeroAmount","inputs":[{"name":"target","type":"string","internalType":"string"}]}],"bytecode":{"object":"0x608060405234801561001057600080fd5b50611aa3806100206000396000f3fe6080604052600436106101a35760003560e01c80638456cb59116100e0578063c6bbd76311610084578063d547741f11610061578063d547741f1461051a578063e567e8691461053a578063f0fa55a91461054f578063fc9cee3c1461056f57005b8063c6bbd763146104bc578063d02641a0146104dc578063d16352af146104fc57005b8063a117d59b116100bd578063a117d59b14610447578063a217fddf14610467578063bcaa0a5b1461047c578063c0c53b8b1461049c57005b80638456cb59146103f757806391d148541461040c578063970de3811461042c57005b80634dbb1797116101475780635c975abb116101245780635c975abb146103455780636a39fe601461036a5780636a4234eb1461038a5780637e531a39146103aa57005b80634dbb1797146102ae5780634f0e0ef3146102e65780635354c2b11461030657005b80632f2ff15d116101805780632f2ff15d1461024357806336568abe146102635780633e032a3b146102835780633f4ba83a1461029957005b806301ffc9a7146101ac5780631bacfd0b146101e1578063248a9ca31461022357005b366101aa57005b005b3480156101b857600080fd5b506101cc6101c7366004611648565b610584565b60405190151581526020015b60405180910390f35b3480156101ed57600080fd5b506102157f4fe08aea4652d25d7d2c09148537810c0b7e49021cc60dd467483872e4452ff581565b6040519081526020016101d8565b34801561022f57600080fd5b5061021561023e366004611672565b6105bb565b34801561024f57600080fd5b506101aa61025e3660046116a7565b6105dd565b34801561026f57600080fd5b506101aa61027e3660046116a7565b6105ff565b34801561028f57600080fd5b5061021560015481565b3480156102a557600080fd5b506101aa610637565b3480156102ba57600080fd5b506005546102ce906001600160a01b031681565b6040516001600160a01b0390911681526020016101d8565b3480156102f257600080fd5b506000546102ce906001600160a01b031681565b34801561031257600080fd5b506103266103213660046116e1565b61064d565b604080516001600160a01b0390931683526020830191909152016101d8565b34801561035157600080fd5b50600080516020611a4e8339815191525460ff166101cc565b34801561037657600080fd5b50610326610385366004611759565b610b0f565b34801561039657600080fd5b506101aa6103a5366004611860565b610b58565b3480156103b657600080fd5b506103ea60405180604001604052806014815260200173119d5b98dd1a5bdb881b9bdd08185b1b1bddd95960621b81525081565b6040516101d8919061189f565b34801561040357600080fd5b506101aa610c0e565b34801561041857600080fd5b506101cc6104273660046116a7565b610c21565b34801561043857600080fd5b506103266103853660046118d2565b34801561045357600080fd5b506101aa610462366004611860565b610c59565b34801561047357600080fd5b50610215600081565b34801561048857600080fd5b506003546102ce906001600160a01b031681565b3480156104a857600080fd5b506101aa6104b73660046118fc565b610d1a565b3480156104c857600080fd5b506004546102ce906001600160a01b031681565b3480156104e857600080fd5b506102156104f7366004611860565b610eef565b34801561050857600080fd5b506003546001600160a01b03166102ce565b34801561052657600080fd5b506101aa6105353660046116a7565b610f33565b34801561054657600080fd5b506103ea610f4f565b34801561055b57600080fd5b506101aa61056a366004611672565b610fdd565b34801561057b57600080fd5b50600154610215565b60006001600160e01b03198216637965db0b60e01b14806105b557506301ffc9a760e01b6001600160e01b03198316145b92915050565b6000908152600080516020611a2e833981519152602052604090206001015490565b6105e6826105bb565b6105ef8161104c565b6105f98383611056565b50505050565b6001600160a01b03811633146106285760405163334bd91960e11b815260040160405180910390fd5b61063282826110fb565b505050565b60006106428161104c565b61064a611177565b50565b6000806106586111d7565b61066061120a565b7f4fe08aea4652d25d7d2c09148537810c0b7e49021cc60dd467483872e4452ff561068a8161104c565b6106b3886040518060400160405280600781526020016673656e6465725f60c81b815250611254565b6106de876040518060400160405280600981526020016872656365697665725f60b81b815250611254565b6107068660405180604001604052806006815260200165746f6b656e5f60d01b815250611254565b610734856040518060400160405280600c81526020016b746f6b656e416d6f756e745f60a01b815250611281565b6107496001600160a01b0387168930886112a4565b60035460405163095ea7b360e01b81526001600160a01b039182166004820152602481018790529087169063095ea7b3906044016020604051808303816000875af115801561079c573d6000803e3d6000fd5b505050506040513d601f19601f820116820180604052508101906107c0919061193f565b506000670de0b6b3a7640000600154670de0b6b3a76400006107e29190611972565b6107ec9088611985565b6107f6919061199c565b600354604051632dbc21bd60e21b81526001600160a01b038a81166004830152602482018a90526000604483015292935091169063b6f086f4906064016020604051808303816000875af1158015610852573d6000803e3d6000fd5b505050506040513d601f19601f8201168201806040525081019061087691906119be565b50600480546040516370a0823160e01b815230928101929092526000916001600160a01b03909116906370a0823190602401602060405180830381865afa1580156108c5573d6000803e3d6000fd5b505050506040513d601f19601f820116820180604052508101906108e991906119be565b90508181101561091b5760405163c60d402760e01b815260048101839052602481018290526044015b60405180910390fd5b6004546001600160a01b031694509250828515610a65576004805460055460405163095ea7b360e01b81526001600160a01b039182169381019390935260248301849052169063095ea7b3906044016020604051808303816000875af1158015610989573d6000803e3d6000fd5b505050506040513d601f19601f820116820180604052508101906109ad919061193f565b50600554604051630ea598cb60e41b8152600481018390526001600160a01b039091169063ea598cb0906024016020604051808303816000875af11580156109f9573d6000803e3d6000fd5b505050506040513d601f19601f82011682018060405250810190610a1d91906119be565b6005546001600160a01b0316955093506000849003610a65576003546040516309b835c760e31b81526001600160a01b03909116600482015260248101829052604401610912565b610a796001600160a01b0386168a8661130b565b846001600160a01b0316886001600160a01b03168b6001600160a01b03167f044d4bbddd3af59e620636cb231e96ccd6acfbac6aa9a369ea17075cc839daee8a88604051610ad1929190918252602082015260400190565b60405180910390a4505050610b0560017f9b779b17422d0df92223018b32b4d1fa46e071723d6817e2486d003becc55f0055565b9550959350505050565b60008060405180604001604052806014815260200173119d5b98dd1a5bdb881b9bdd08185b1b1bddd95960621b81525060405162461bcd60e51b8152600401610912919061189f565b6000610b638161104c565b610b91826040518060400160405280600c81526020016b77657468416464726573735f60a01b815250611254565b6040516a776574684164647265737360a81b8152600b016040519081900381206001600160a01b0384168252907f943e9d45a11aaae5d87503e3bc248665d9807856e5cf2bdb4a988bee444227819060200160405180910390a250600080546001600160a01b0319166001600160a01b0392909216919091179055565b6000610c198161104c565b61064a611362565b6000918252600080516020611a2e833981519152602090815260408084206001600160a01b0393909316845291905290205460ff1690565b6000610c648161104c565b610c9782604051806040016040528060118152602001706c6971756966696572416464726573735f60781b815250611254565b604051706c6971756966696572416464726573735f60781b81526011016040519081900381206001600160a01b0384168252907f943e9d45a11aaae5d87503e3bc248665d9807856e5cf2bdb4a988bee444227819060200160405180910390a250600380546001600160a01b0319166001600160a01b0392909216919091179055565b7ff0c57e16840df040f15088dc2f81fe391c3923bec73e23a9662efc9c229c6a008054600160401b810460ff16159067ffffffffffffffff16600081158015610d605750825b905060008267ffffffffffffffff166001148015610d7d5750303b155b905081158015610d8b575080155b15610da95760405163f92ee8a960e01b815260040160405180910390fd5b845467ffffffffffffffff191660011785558315610dd357845460ff60401b1916600160401b1785555b610e0688604051806040016040528060118152602001706c6971756966696572416464726573735f60781b815250611254565b610e33876040518060400160405280600b81526020016a654554484164647265737360a81b815250611254565b610e3b6113ab565b610e436113b3565b610e4b6113c3565b610e56600033611056565b50600380546001600160a01b03808b166001600160a01b031992831617909255600480548a84169083161790556005805492891692909116919091179055668e1bc9bf0400006001558315610ee557845460ff60401b19168555604051600181527fc7f505b2f371ae2175ee4913f4499e1f2633a7b5936321eed1cdaeb6115181d29060200160405180910390a15b5050505050505050565b6040805180820182526014815273119d5b98dd1a5bdb881b9bdd08185b1b1bddd95960621b6020820152905162461bcd60e51b81526000916109129160040161189f565b610f3c826105bb565b610f458161104c565b6105f983836110fb565b60028054610f5c906119d7565b80601f0160208091040260200160405190810160405280929190818152602001828054610f88906119d7565b8015610fd55780601f10610faa57610100808354040283529160200191610fd5565b820191906000526020600020905b815481529060010190602001808311610fb857829003601f168201915b505050505081565b6000610fe88161104c565b6110138260405180604001604052806009815260200168736c6970706167655f60b81b815250611281565b6040518281527ff5a802650e0a86db227cc342f06327d2ca0ff5cf2b12e0084fc5d8a7db2c54fd9060200160405180910390a150600155565b61064a81336113d3565b6000600080516020611a2e8339815191526110718484610c21565b6110f1576000848152602082815260408083206001600160a01b03871684529091529020805460ff191660011790556110a73390565b6001600160a01b0316836001600160a01b0316857f2f8788117e7eff1d82e926ec794901d17c78024a50270940304540a733656f0d60405160405180910390a460019150506105b5565b60009150506105b5565b6000600080516020611a2e8339815191526111168484610c21565b156110f1576000848152602082815260408083206001600160a01b0387168085529252808320805460ff1916905551339287917ff6391f5c32d9c69d2a47ea670b442974b53935d1edc7fd64eb21e047a839171b9190a460019150506105b5565b61117f61140c565b600080516020611a4e833981519152805460ff191681557f5db9ee0a495bf2e6ff9c91a7834c1ba4fdd244a5e8aa4e537bd38aeae4b073aa335b6040516001600160a01b03909116815260200160405180910390a150565b600080516020611a4e8339815191525460ff16156112085760405163d93c066560e01b815260040160405180910390fd5b565b7f9b779b17422d0df92223018b32b4d1fa46e071723d6817e2486d003becc55f0080546001190161124e57604051633ee5aeb560e01b815260040160405180910390fd5b60029055565b6001600160a01b03821661127d578060405163eac0d38960e01b8152600401610912919061189f565b5050565b8160000361127d57806040516303b3e63560e41b8152600401610912919061189f565b6040516001600160a01b0384811660248301528381166044830152606482018390526105f99186918216906323b872dd906084015b604051602081830303815290604052915060e01b6020820180516001600160e01b03838183161783525050505061143c565b6040516001600160a01b0383811660248301526044820183905261063291859182169063a9059cbb906064016112d9565b60017f9b779b17422d0df92223018b32b4d1fa46e071723d6817e2486d003becc55f0055565b61136a6111d7565b600080516020611a4e833981519152805460ff191660011781557f62e78cea01bee320cd4e420270b5ea74000d11b0c9f74754ebdbfc544b05a258336111b9565b61120861149f565b6113bb61149f565b6112086114e8565b6113cb61149f565b6112086114f0565b6113dd8282610c21565b61127d5760405163e2517d3f60e01b81526001600160a01b038216600482015260248101839052604401610912565b600080516020611a4e8339815191525460ff1661120857604051638dfc202b60e01b815260040160405180910390fd5b60006114516001600160a01b03841683611511565b90508051600014158015611476575080806020019051810190611474919061193f565b155b1561063257604051635274afe760e01b81526001600160a01b0384166004820152602401610912565b7ff0c57e16840df040f15088dc2f81fe391c3923bec73e23a9662efc9c229c6a0054600160401b900460ff1661120857604051631afcd79f60e31b815260040160405180910390fd5b61133c61149f565b6114f861149f565b600080516020611a4e833981519152805460ff19169055565b606061151f83836000611526565b9392505050565b60608147101561154b5760405163cd78605960e01b8152306004820152602401610912565b600080856001600160a01b031684866040516115679190611a11565b60006040518083038185875af1925050503d80600081146115a4576040519150601f19603f3d011682016040523d82523d6000602084013e6115a9565b606091505b50915091506115b98683836115c3565b9695505050505050565b6060826115d8576115d38261161f565b61151f565b81511580156115ef57506001600160a01b0384163b155b1561161857604051639996b31560e01b81526001600160a01b0385166004820152602401610912565b508061151f565b80511561162f5780518082602001fd5b604051630a12f52160e11b815260040160405180910390fd5b60006020828403121561165a57600080fd5b81356001600160e01b03198116811461151f57600080fd5b60006020828403121561168457600080fd5b5035919050565b80356001600160a01b03811681146116a257600080fd5b919050565b600080604083850312156116ba57600080fd5b823591506116ca6020840161168b565b90509250929050565b801515811461064a57600080fd5b600080600080600060a086880312156116f957600080fd5b6117028661168b565b94506117106020870161168b565b935061171e6040870161168b565b9250606086013591506080860135611735816116d3565b809150509295509295909350565b634e487b7160e01b600052604160045260246000fd5b600080600080600080600060e0888a03121561177457600080fd5b61177d8861168b565b965061178b6020890161168b565b95506117996040890161168b565b9450606088013593506117ae6080890161168b565b925060a0880135915060c088013567ffffffffffffffff808211156117d257600080fd5b818a0191508a601f8301126117e657600080fd5b8135818111156117f8576117f8611743565b604051601f8201601f19908116603f0116810190838211818310171561182057611820611743565b816040528281528d602084870101111561183957600080fd5b82602086016020830137600060208483010152809550505050505092959891949750929550565b60006020828403121561187257600080fd5b61151f8261168b565b60005b8381101561189657818101518382015260200161187e565b50506000910152565b60208152600082518060208401526118be81604085016020870161187b565b601f01601f19169190910160400192915050565b600080604083850312156118e557600080fd5b6118ee8361168b565b91506116ca6020840161168b565b60008060006060848603121561191157600080fd5b61191a8461168b565b92506119286020850161168b565b91506119366040850161168b565b90509250925092565b60006020828403121561195157600080fd5b815161151f816116d3565b634e487b7160e01b600052601160045260246000fd5b818103818111156105b5576105b561195c565b80820281158282048414176105b5576105b561195c565b6000826119b957634e487b7160e01b600052601260045260246000fd5b500490565b6000602082840312156119d057600080fd5b5051919050565b600181811c908216806119eb57607f821691505b602082108103611a0b57634e487b7160e01b600052602260045260246000fd5b50919050565b60008251611a2381846020870161187b565b919091019291505056fe02dd7bc7dec4dceedda775e58dd541e08a116c6c53815c0bd028192f7b626800cd5ed15c6e187e77e9aee88184c21f4f2182ab5827cb3b7e07fbedcd63f03300a26469706673582212204c5a720443fd9e8c2e4e319fae819aa6ff38b9a5822b2e0c61ab10bf5441759764736f6c63430008180033","linkReferences":{}},"methodIdentifiers":{"DEFAULT_ADMIN_ROLE()":"a217fddf","REVERT_MSG()":"7e531a39","VAULT_STRATEGY_ROLE()":"1bacfd0b","claimEarnings(address,address)":"970de381","deposit(address,address,address,uint256,bool)":"5354c2b1","eETHAddress()":"c6bbd763","getProtocol()":"d16352af","getRoleAdmin(bytes32)":"248a9ca3","getSlippage()":"fc9cee3c","getTokenPrice(address)":"d02641a0","grantRole(bytes32,address)":"2f2ff15d","hasRole(bytes32,address)":"91d14854","initialize(address,address,address)":"c0c53b8b","liquifierAddress()":"bcaa0a5b","pause()":"8456cb59","paused()":"5c975abb","protocolName()":"e567e869","renounceRole(bytes32,address)":"36568abe","revokeRole(bytes32,address)":"d547741f","setLiquifierAddress(address)":"a117d59b","setSlippage(uint256)":"f0fa55a9","setWETHAddress(address)":"6a4234eb","slippage()":"3e032a3b","supportsInterface(bytes4)":"01ffc9a7","unpause()":"3f4ba83a","weETHAddress()":"4dbb1797","wethAddress()":"4f0e0ef3","withdraw(address,address,address,uint256,address,uint256,bytes)":"6a39fe60"},"id":20}