{
  "_format": "hh-sol-artifact-1",
  "contractName": "LidoMock",
  "sourceName": "contracts/_mocks/adapters/LidoMock.sol",
  "abi": [
    {
      "inputs": [],
      "stateMutability": "nonpayable",
      "type": "constructor"
    },
    {
      "anonymous": false,
      "inputs": [
        {
          "indexed": true,
          "internalType": "address",
          "name": "owner",
          "type": "address"
        },
        {
          "indexed": true,
          "internalType": "address",
          "name": "spender",
          "type": "address"
        },
        {
          "indexed": false,
          "internalType": "uint256",
          "name": "value",
          "type": "uint256"
        }
      ],
      "name": "Approval",
      "type": "event"
    },
    {
      "anonymous": false,
      "inputs": [
        {
          "indexed": true,
          "internalType": "address",
          "name": "from",
          "type": "address"
        },
        {
          "indexed": true,
          "internalType": "address",
          "name": "to",
          "type": "address"
        },
        {
          "indexed": false,
          "internalType": "uint256",
          "name": "value",
          "type": "uint256"
        }
      ],
      "name": "Transfer",
      "type": "event"
    },
    {
      "inputs": [
        {
          "internalType": "address",
          "name": "",
          "type": "address"
        }
      ],
      "name": "_balances",
      "outputs": [
        {
          "internalType": "uint256",
          "name": "",
          "type": "uint256"
        }
      ],
      "stateMutability": "view",
      "type": "function"
    },
    {
      "inputs": [
        {
          "internalType": "address",
          "name": "owner",
          "type": "address"
        },
        {
          "internalType": "address",
          "name": "spender",
          "type": "address"
        }
      ],
      "name": "allowance",
      "outputs": [
        {
          "internalType": "uint256",
          "name": "",
          "type": "uint256"
        }
      ],
      "stateMutability": "view",
      "type": "function"
    },
    {
      "inputs": [
        {
          "internalType": "address",
          "name": "recipient",
          "type": "address"
        },
        {
          "internalType": "uint256",
          "name": "amount",
          "type": "uint256"
        }
      ],
      "name": "approve",
      "outputs": [
        {
          "internalType": "bool",
          "name": "",
          "type": "bool"
        }
      ],
      "stateMutability": "nonpayable",
      "type": "function"
    },
    {
      "inputs": [
        {
          "internalType": "address",
          "name": "account",
          "type": "address"
        }
      ],
      "name": "balanceOf",
      "outputs": [
        {
          "internalType": "uint256",
          "name": "",
          "type": "uint256"
        }
      ],
      "stateMutability": "view",
      "type": "function"
    },
    {
      "inputs": [
        {
          "internalType": "address",
          "name": "account",
          "type": "address"
        },
        {
          "internalType": "uint256",
          "name": "amount",
          "type": "uint256"
        }
      ],
      "name": "burnFrom",
      "outputs": [],
      "stateMutability": "nonpayable",
      "type": "function"
    },
    {
      "inputs": [],
      "name": "decimals",
      "outputs": [
        {
          "internalType": "uint8",
          "name": "",
          "type": "uint8"
        }
      ],
      "stateMutability": "view",
      "type": "function"
    },
    {
      "inputs": [
        {
          "internalType": "address",
          "name": "spender",
          "type": "address"
        },
        {
          "internalType": "uint256",
          "name": "subtractedValue",
          "type": "uint256"
        }
      ],
      "name": "decreaseAllowance",
      "outputs": [
        {
          "internalType": "bool",
          "name": "",
          "type": "bool"
        }
      ],
      "stateMutability": "nonpayable",
      "type": "function"
    },
    {
      "inputs": [
        {
          "internalType": "uint256",
          "name": "_sharesAmount",
          "type": "uint256"
        }
      ],
      "name": "getPooledEthByShares",
      "outputs": [
        {
          "internalType": "uint256",
          "name": "",
          "type": "uint256"
        }
      ],
      "stateMutability": "view",
      "type": "function"
    },
    {
      "inputs": [
        {
          "internalType": "address",
          "name": "spender",
          "type": "address"
        },
        {
          "internalType": "uint256",
          "name": "addedValue",
          "type": "uint256"
        }
      ],
      "name": "increaseAllowance",
      "outputs": [
        {
          "internalType": "bool",
          "name": "",
          "type": "bool"
        }
      ],
      "stateMutability": "nonpayable",
      "type": "function"
    },
    {
      "inputs": [],
      "name": "isSafeApprove",
      "outputs": [
        {
          "internalType": "bool",
          "name": "",
          "type": "bool"
        }
      ],
      "stateMutability": "view",
      "type": "function"
    },
    {
      "inputs": [],
      "name": "isStakingPaused",
      "outputs": [
        {
          "internalType": "bool",
          "name": "",
          "type": "bool"
        }
      ],
      "stateMutability": "view",
      "type": "function"
    },
    {
      "inputs": [
        {
          "internalType": "address",
          "name": "account",
          "type": "address"
        },
        {
          "internalType": "uint256",
          "name": "amount",
          "type": "uint256"
        }
      ],
      "name": "mint",
      "outputs": [],
      "stateMutability": "nonpayable",
      "type": "function"
    },
    {
      "inputs": [
        {
          "internalType": "address",
          "name": "_account",
          "type": "address"
        },
        {
          "internalType": "uint256",
          "name": "newBalance",
          "type": "uint256"
        }
      ],
      "name": "mockBalanceOf",
      "outputs": [],
      "stateMutability": "nonpayable",
      "type": "function"
    },
    {
      "inputs": [],
      "name": "name",
      "outputs": [
        {
          "internalType": "string",
          "name": "",
          "type": "string"
        }
      ],
      "stateMutability": "view",
      "type": "function"
    },
    {
      "inputs": [],
      "name": "needToReturnValue",
      "outputs": [
        {
          "internalType": "bool",
          "name": "",
          "type": "bool"
        }
      ],
      "stateMutability": "view",
      "type": "function"
    },
    {
      "inputs": [],
      "name": "returnBoolValue",
      "outputs": [
        {
          "internalType": "bool",
          "name": "",
          "type": "bool"
        }
      ],
      "stateMutability": "view",
      "type": "function"
    },
    {
      "inputs": [
        {
          "internalType": "uint8",
          "name": "value",
          "type": "uint8"
        }
      ],
      "name": "setDecimals",
      "outputs": [],
      "stateMutability": "nonpayable",
      "type": "function"
    },
    {
      "inputs": [
        {
          "internalType": "bool",
          "name": "_value",
          "type": "bool"
        }
      ],
      "name": "setIsSafeApprove",
      "outputs": [],
      "stateMutability": "nonpayable",
      "type": "function"
    },
    {
      "inputs": [
        {
          "internalType": "bool",
          "name": "_value",
          "type": "bool"
        }
      ],
      "name": "setNeedToReturnValue",
      "outputs": [],
      "stateMutability": "nonpayable",
      "type": "function"
    },
    {
      "inputs": [
        {
          "internalType": "bool",
          "name": "pause",
          "type": "bool"
        }
      ],
      "name": "setPaused",
      "outputs": [],
      "stateMutability": "nonpayable",
      "type": "function"
    },
    {
      "inputs": [
        {
          "internalType": "bool",
          "name": "_value",
          "type": "bool"
        }
      ],
      "name": "setReturnBoolValue",
      "outputs": [],
      "stateMutability": "nonpayable",
      "type": "function"
    },
    {
      "inputs": [
        {
          "internalType": "uint256",
          "name": "slippage_",
          "type": "uint256"
        }
      ],
      "name": "setSlippage",
      "outputs": [],
      "stateMutability": "nonpayable",
      "type": "function"
    },
    {
      "inputs": [
        {
          "internalType": "address",
          "name": "",
          "type": "address"
        }
      ],
      "name": "submit",
      "outputs": [
        {
          "internalType": "uint256",
          "name": "",
          "type": "uint256"
        }
      ],
      "stateMutability": "payable",
      "type": "function"
    },
    {
      "inputs": [],
      "name": "symbol",
      "outputs": [
        {
          "internalType": "string",
          "name": "",
          "type": "string"
        }
      ],
      "stateMutability": "view",
      "type": "function"
    },
    {
      "inputs": [],
      "name": "totalSupply",
      "outputs": [
        {
          "internalType": "uint256",
          "name": "",
          "type": "uint256"
        }
      ],
      "stateMutability": "view",
      "type": "function"
    },
    {
      "inputs": [
        {
          "internalType": "address",
          "name": "recipient",
          "type": "address"
        },
        {
          "internalType": "uint256",
          "name": "amount",
          "type": "uint256"
        }
      ],
      "name": "transfer",
      "outputs": [
        {
          "internalType": "bool",
          "name": "",
          "type": "bool"
        }
      ],
      "stateMutability": "nonpayable",
      "type": "function"
    },
    {
      "inputs": [
        {
          "internalType": "address",
          "name": "sender",
          "type": "address"
        },
        {
          "internalType": "address",
          "name": "recipient",
          "type": "address"
        },
        {
          "internalType": "uint256",
          "name": "amount",
          "type": "uint256"
        }
      ],
      "name": "transferFrom",
      "outputs": [
        {
          "internalType": "bool",
          "name": "",
          "type": "bool"
        }
      ],
      "stateMutability": "nonpayable",
      "type": "function"
    }
  ],
  "bytecode": "0x60806040526005805463ffffff001916620101001790553480156200002357600080fd5b506040805180820182526005808252640e6e88aa8960db1b6020808401829052845180860190955291845290830152906012828260036200006583826200013c565b5060046200007482826200013c565b50506005805460ff191660ff93909316929092179091555062000208915050565b634e487b7160e01b600052604160045260246000fd5b600181811c90821680620000c057607f821691505b602082108103620000e157634e487b7160e01b600052602260045260246000fd5b50919050565b601f82111562000137576000816000526020600020601f850160051c81016020861015620001125750805b601f850160051c820191505b8181101562000133578281556001016200011e565b5050505b505050565b81516001600160401b0381111562000158576200015862000095565b6200017081620001698454620000ab565b84620000e7565b602080601f831160018114620001a857600084156200018f5750858301515b600019600386901b1c1916600185901b17855562000133565b600085815260208120601f198616915b82811015620001d957888601518255948401946001909101908401620001b8565b5085821015620001f85787850151600019600388901b60f8161c191681555b5050505050600190811b01905550565b61116380620002186000396000f3fe60806040526004361061019c5760003560e01c80636ebcf607116100ec578063a1903eab1161008a578063cf787f7911610064578063cf787f7914610518578063d98a056114610551578063dd62ed3e14610572578063f0fa55a9146105b857600080fd5b8063a1903eab146104c5578063a457c2d7146104d8578063a9059cbb146104f857600080fd5b806379cc6790116100c657806379cc67901461043f5780637a1395aa1461045f5780637a28fb881461049057806395d89b41146104b057600080fd5b80636ebcf607146103bc57806370a08231146103e957806375216a2f1461041f57600080fd5b8063257224ab1161015957806335df40f21161013357806335df40f214610326578063395093511461035d5780633f06b9071461037d57806340c10f191461039c57600080fd5b8063257224ab146102985780632dbcb32b146102cd578063313ce5671461030457600080fd5b806306fdde03146101a1578063095ea7b3146101cc57806316c38b3c146101fc57806318160ddd146102395780631ea7ca891461025857806323b872dd14610278575b600080fd5b3480156101ad57600080fd5b506101b66105d8565b6040516101c39190610f01565b60405180910390f35b3480156101d857600080fd5b506101ec6101e7366004610f6c565b61066a565b60405190151581526020016101c3565b34801561020857600080fd5b50610237610217366004610f96565b600580549115156401000000000264ff0000000019909216919091179055565b005b34801561024557600080fd5b506002545b6040519081526020016101c3565b34801561026457600080fd5b50600554640100000000900460ff166101ec565b34801561028457600080fd5b506101ec610293366004610fb8565b610728565b3480156102a457600080fd5b506102376102b3366004610f96565b600580549115156101000261ff0019909216919091179055565b3480156102d957600080fd5b506102376102e8366004610f6c565b6001600160a01b03909116600090815260208190526040902055565b34801561031057600080fd5b5060055460405160ff90911681526020016101c3565b34801561033257600080fd5b50610237610341366004610f96565b60058054911515620100000262ff000019909216919091179055565b34801561036957600080fd5b506101ec610378366004610f6c565b610781565b34801561038957600080fd5b506005546101ec90610100900460ff1681565b3480156103a857600080fd5b506102376103b7366004610f6c565b6107bd565b3480156103c857600080fd5b5061024a6103d7366004610ff4565b60006020819052908152604090205481565b3480156103f557600080fd5b5061024a610404366004610ff4565b6001600160a01b031660009081526020819052604090205490565b34801561042b57600080fd5b506005546101ec9062010000900460ff1681565b34801561044b57600080fd5b5061023761045a366004610f6c565b6107cb565b34801561046b57600080fd5b5061023761047a36600461100f565b6005805460ff191660ff92909216919091179055565b34801561049c57600080fd5b5061024a6104ab366004611032565b6107d5565b3480156104bc57600080fd5b506101b6610809565b61024a6104d3366004610ff4565b610818565b3480156104e457600080fd5b506101ec6104f3366004610f6c565b61085a565b34801561050457600080fd5b506101ec610513366004610f6c565b6108ee565b34801561052457600080fd5b50610237610533366004610f96565b6005805491151563010000000263ff00000019909216919091179055565b34801561055d57600080fd5b506005546101ec906301000000900460ff1681565b34801561057e57600080fd5b5061024a61058d36600461104b565b6001600160a01b03918216600090815260016020908152604080832093909416825291909152205490565b3480156105c457600080fd5b506102376105d3366004611032565b600655565b6060600380546105e79061107e565b80601f01602080910402602001604051908101604052809291908181526020018280546106139061107e565b80156106605780601f1061063557610100808354040283529160200191610660565b820191906000526020600020905b81548152906001019060200180831161064357829003601f168201915b5050505050905090565b60055460009062010000900460ff16801561068d5750600554610100900460ff16155b1561069a57506000610722565b60055462010000900460ff1680156106bb57506005546301000000900460ff165b80156106c657508115155b80156106f457503360009081526001602090815260408083206001600160a01b038716845290915290205415155b1561070157506000610722565b61070b8383610928565b5060055462010000900460ff1661071e57005b5060015b92915050565b60055460009062010000900460ff16801561074b5750600554610100900460ff16155b156107585750600061077a565b610763848484610935565b5060055462010000900460ff1661077657005b5060015b9392505050565b3360008181526001602090815260408083206001600160a01b0387168452909152812054909161071e9185906107b89086906110ce565b6109df565b6107c78282610b04565b5050565b6107c78282610be3565b6000600654670de0b6b3a76400006107ed91906110e1565b6107ff83670de0b6b3a76400006110f4565b610722919061110b565b6060600480546105e79061107e565b600080670de0b6b3a7640000600654670de0b6b3a764000061083a91906110e1565b61084490346110f4565b61084e919061110b565b905061072233826107bd565b3360009081526001602090815260408083206001600160a01b0386168452909152812054828110156108e15760405162461bcd60e51b815260206004820152602560248201527f45524332303a2064656372656173656420616c6c6f77616e63652062656c6f77604482015264207a65726f60d81b60648201526084015b60405180910390fd5b61077633858584036109df565b60055460009062010000900460ff1680156109115750600554610100900460ff16155b1561091e57506000610722565b61070b8383610d29565b600061071e3384846109df565b6000610942848484610d32565b6001600160a01b0384166000908152600160209081526040808320338452909152902054828110156109c75760405162461bcd60e51b815260206004820152602860248201527f45524332303a207472616e7366657220616d6f756e74206578636565647320616044820152676c6c6f77616e636560c01b60648201526084016108d8565b6109d485338584036109df565b506001949350505050565b6001600160a01b038316610a415760405162461bcd60e51b8152602060048201526024808201527f45524332303a20617070726f76652066726f6d20746865207a65726f206164646044820152637265737360e01b60648201526084016108d8565b6001600160a01b038216610aa25760405162461bcd60e51b815260206004820152602260248201527f45524332303a20617070726f766520746f20746865207a65726f206164647265604482015261737360f01b60648201526084016108d8565b6001600160a01b0383811660008181526001602090815260408083209487168084529482529182902085905590518481527f8c5be1e5ebec7d5bd14f71427d1e84f3dd0314c0f7b2291e5b200ac8c7c3b92591015b60405180910390a3505050565b6001600160a01b038216610b5a5760405162461bcd60e51b815260206004820152601f60248201527f45524332303a206d696e7420746f20746865207a65726f20616464726573730060448201526064016108d8565b8060026000828254610b6c91906110ce565b90915550506001600160a01b03821660009081526020819052604081208054839290610b999084906110ce565b90915550506040518181526001600160a01b038316906000907fddf252ad1be2c89b69c2b068fc378daa952ba7f163c4a11628f55a4df523b3ef9060200160405180910390a35050565b6001600160a01b038216610c435760405162461bcd60e51b815260206004820152602160248201527f45524332303a206275726e2066726f6d20746865207a65726f206164647265736044820152607360f81b60648201526084016108d8565b6001600160a01b03821660009081526020819052604090205481811015610cb75760405162461bcd60e51b815260206004820152602260248201527f45524332303a206275726e20616d6f756e7420657863656564732062616c616e604482015261636560f01b60648201526084016108d8565b6001600160a01b0383166000908152602081905260408120838303905560028054849290610ce69084906110e1565b90915550506040518281526000906001600160a01b038516907fddf252ad1be2c89b69c2b068fc378daa952ba7f163c4a11628f55a4df523b3ef90602001610af7565b600061071e3384845b6001600160a01b038316610d965760405162461bcd60e51b815260206004820152602560248201527f45524332303a207472616e736665722066726f6d20746865207a65726f206164604482015264647265737360d81b60648201526084016108d8565b6001600160a01b038216610df85760405162461bcd60e51b815260206004820152602360248201527f45524332303a207472616e7366657220746f20746865207a65726f206164647260448201526265737360e81b60648201526084016108d8565b6001600160a01b03831660009081526020819052604090205481811015610e705760405162461bcd60e51b815260206004820152602660248201527f45524332303a207472616e7366657220616d6f756e7420657863656564732062604482015265616c616e636560d01b60648201526084016108d8565b6001600160a01b03808516600090815260208190526040808220858503905591851681529081208054849290610ea79084906110ce565b92505081905550826001600160a01b0316846001600160a01b03167fddf252ad1be2c89b69c2b068fc378daa952ba7f163c4a11628f55a4df523b3ef84604051610ef391815260200190565b60405180910390a350505050565b60006020808352835180602085015260005b81811015610f2f57858101830151858201604001528201610f13565b506000604082860101526040601f19601f8301168501019250505092915050565b80356001600160a01b0381168114610f6757600080fd5b919050565b60008060408385031215610f7f57600080fd5b610f8883610f50565b946020939093013593505050565b600060208284031215610fa857600080fd5b8135801515811461077a57600080fd5b600080600060608486031215610fcd57600080fd5b610fd684610f50565b9250610fe460208501610f50565b9150604084013590509250925092565b60006020828403121561100657600080fd5b61077a82610f50565b60006020828403121561102157600080fd5b813560ff8116811461077a57600080fd5b60006020828403121561104457600080fd5b5035919050565b6000806040838503121561105e57600080fd5b61106783610f50565b915061107560208401610f50565b90509250929050565b600181811c9082168061109257607f821691505b6020821081036110b257634e487b7160e01b600052602260045260246000fd5b50919050565b634e487b7160e01b600052601160045260246000fd5b80820180821115610722576107226110b8565b81810381811115610722576107226110b8565b8082028115828204841417610722576107226110b8565b60008261112857634e487b7160e01b600052601260045260246000fd5b50049056fea2646970667358221220912fe5aea0e068725601623cfc6ac5ece374ba87a14f42cb6884c0ad9d8bc24664736f6c63430008180033",
  "linkReferences": {},
  "deployedLinkReferences": {}
}