{"abi":[{"type":"receive","stateMutability":"payable"},{"type":"function","name":"DEFAULT_ADMIN_ROLE","inputs":[],"outputs":[{"name":"","type":"bytes32","internalType":"bytes32"}],"stateMutability":"view"},{"type":"function","name":"MASTER_TOKEN_ROLE","inputs":[],"outputs":[{"name":"","type":"bytes32","internalType":"bytes32"}],"stateMutability":"view"},{"type":"function","name":"REVERT_MSG","inputs":[],"outputs":[{"name":"","type":"string","internalType":"string"}],"stateMutability":"view"},{"type":"function","name":"VAULT_MANAGER_ROLE","inputs":[],"outputs":[{"name":"","type":"bytes32","internalType":"bytes32"}],"stateMutability":"view"},{"type":"function","name":"allowance","inputs":[{"name":"owner","type":"address","internalType":"address"},{"name":"spender","type":"address","internalType":"address"}],"outputs":[{"name":"","type":"uint256","internalType":"uint256"}],"stateMutability":"view"},{"type":"function","name":"approve","inputs":[{"name":"spender","type":"address","internalType":"address"},{"name":"value","type":"uint256","internalType":"uint256"}],"outputs":[{"name":"","type":"bool","internalType":"bool"}],"stateMutability":"nonpayable"},{"type":"function","name":"asset","inputs":[],"outputs":[{"name":"","type":"address","internalType":"address"}],"stateMutability":"view"},{"type":"function","name":"balanceOf","inputs":[{"name":"account","type":"address","internalType":"address"}],"outputs":[{"name":"","type":"uint256","internalType":"uint256"}],"stateMutability":"view"},{"type":"function","name":"convertToAssets","inputs":[{"name":"shares","type":"uint256","internalType":"uint256"}],"outputs":[{"name":"","type":"uint256","internalType":"uint256"}],"stateMutability":"view"},{"type":"function","name":"convertToShares","inputs":[{"name":"assets","type":"uint256","internalType":"uint256"}],"outputs":[{"name":"","type":"uint256","internalType":"uint256"}],"stateMutability":"view"},{"type":"function","name":"decimals","inputs":[],"outputs":[{"name":"","type":"uint8","internalType":"uint8"}],"stateMutability":"view"},{"type":"function","name":"deployAssets","inputs":[],"outputs":[{"name":"","type":"address","internalType":"address"},{"name":"","type":"uint256","internalType":"uint256"}],"stateMutability":"nonpayable"},{"type":"function","name":"deposit","inputs":[{"name":"assetsAmount_","type":"uint256","internalType":"uint256"},{"name":"account_","type":"address","internalType":"address"}],"outputs":[{"name":"","type":"uint256","internalType":"uint256"}],"stateMutability":"nonpayable"},{"type":"function","name":"getRoleAdmin","inputs":[{"name":"role","type":"bytes32","internalType":"bytes32"}],"outputs":[{"name":"","type":"bytes32","internalType":"bytes32"}],"stateMutability":"view"},{"type":"function","name":"getVaultValuation","inputs":[],"outputs":[{"name":"","type":"uint256","internalType":"uint256"}],"stateMutability":"view"},{"type":"function","name":"grantRole","inputs":[{"name":"role","type":"bytes32","internalType":"bytes32"},{"name":"account","type":"address","internalType":"address"}],"outputs":[],"stateMutability":"nonpayable"},{"type":"function","name":"harvest","inputs":[],"outputs":[{"name":"","type":"address","internalType":"address"},{"name":"","type":"uint256","internalType":"uint256"}],"stateMutability":"nonpayable"},{"type":"function","name":"hasRole","inputs":[{"name":"role","type":"bytes32","internalType":"bytes32"},{"name":"account","type":"address","internalType":"address"}],"outputs":[{"name":"","type":"bool","internalType":"bool"}],"stateMutability":"view"},{"type":"function","name":"initialize","inputs":[{"name":"underlyingTokenAddress_","type":"address","internalType":"address"},{"name":"masterTokenAddress_","type":"address","internalType":"address"},{"name":"vaultsRegistryAddress_","type":"address","internalType":"address"},{"name":"ownerAddress_","type":"address","internalType":"address"},{"name":"sharesName_","type":"string","internalType":"string"},{"name":"sharesSymbol_","type":"string","internalType":"string"}],"outputs":[],"stateMutability":"nonpayable"},{"type":"function","name":"liveValuationOnDeposit","inputs":[],"outputs":[{"name":"","type":"bool","internalType":"bool"}],"stateMutability":"view"},{"type":"function","name":"liveValuationOnWithdraw","inputs":[],"outputs":[{"name":"","type":"bool","internalType":"bool"}],"stateMutability":"view"},{"type":"function","name":"masterTokenAddress","inputs":[],"outputs":[{"name":"","type":"address","internalType":"address"}],"stateMutability":"view"},{"type":"function","name":"maxDeposit","inputs":[{"name":"","type":"address","internalType":"address"}],"outputs":[{"name":"","type":"uint256","internalType":"uint256"}],"stateMutability":"view"},{"type":"function","name":"maxMint","inputs":[{"name":"","type":"address","internalType":"address"}],"outputs":[{"name":"","type":"uint256","internalType":"uint256"}],"stateMutability":"view"},{"type":"function","name":"maxRedeem","inputs":[{"name":"owner","type":"address","internalType":"address"}],"outputs":[{"name":"","type":"uint256","internalType":"uint256"}],"stateMutability":"view"},{"type":"function","name":"maxWithdraw","inputs":[{"name":"owner","type":"address","internalType":"address"}],"outputs":[{"name":"","type":"uint256","internalType":"uint256"}],"stateMutability":"view"},{"type":"function","name":"mint","inputs":[{"name":"","type":"uint256","internalType":"uint256"},{"name":"","type":"address","internalType":"address"}],"outputs":[{"name":"","type":"uint256","internalType":"uint256"}],"stateMutability":"nonpayable"},{"type":"function","name":"name","inputs":[],"outputs":[{"name":"","type":"string","internalType":"string"}],"stateMutability":"view"},{"type":"function","name":"pause","inputs":[],"outputs":[],"stateMutability":"nonpayable"},{"type":"function","name":"paused","inputs":[],"outputs":[{"name":"","type":"bool","internalType":"bool"}],"stateMutability":"view"},{"type":"function","name":"pendingDepositAssets","inputs":[],"outputs":[{"name":"","type":"uint256","internalType":"uint256"}],"stateMutability":"view"},{"type":"function","name":"previewDeposit","inputs":[{"name":"assets","type":"uint256","internalType":"uint256"}],"outputs":[{"name":"","type":"uint256","internalType":"uint256"}],"stateMutability":"view"},{"type":"function","name":"previewMint","inputs":[{"name":"shares","type":"uint256","internalType":"uint256"}],"outputs":[{"name":"","type":"uint256","internalType":"uint256"}],"stateMutability":"view"},{"type":"function","name":"previewRedeem","inputs":[{"name":"shares","type":"uint256","internalType":"uint256"}],"outputs":[{"name":"","type":"uint256","internalType":"uint256"}],"stateMutability":"view"},{"type":"function","name":"previewWithdraw","inputs":[{"name":"assets","type":"uint256","internalType":"uint256"}],"outputs":[{"name":"","type":"uint256","internalType":"uint256"}],"stateMutability":"view"},{"type":"function","name":"redeem","inputs":[{"name":"sharesAmount_","type":"uint256","internalType":"uint256"},{"name":"caller_","type":"address","internalType":"address"},{"name":"account_","type":"address","internalType":"address"}],"outputs":[{"name":"","type":"uint256","internalType":"uint256"}],"stateMutability":"nonpayable"},{"type":"function","name":"renounceRole","inputs":[{"name":"role","type":"bytes32","internalType":"bytes32"},{"name":"callerConfirmation","type":"address","internalType":"address"}],"outputs":[],"stateMutability":"nonpayable"},{"type":"function","name":"revokeRole","inputs":[{"name":"role","type":"bytes32","internalType":"bytes32"},{"name":"account","type":"address","internalType":"address"}],"outputs":[],"stateMutability":"nonpayable"},{"type":"function","name":"setLiveValuation","inputs":[{"name":"status_","type":"bool","internalType":"bool"},{"name":"target_","type":"uint256","internalType":"uint256"}],"outputs":[],"stateMutability":"nonpayable"},{"type":"function","name":"setMasterTokenAddress","inputs":[{"name":"masterTokenAddress_","type":"address","internalType":"address"}],"outputs":[],"stateMutability":"nonpayable"},{"type":"function","name":"setValuationSource","inputs":[{"name":"valuationSource_","type":"uint8","internalType":"uint8"}],"outputs":[],"stateMutability":"nonpayable"},{"type":"function","name":"setVaultStrategyAddress","inputs":[{"name":"vaultStrategyAddress_","type":"address","internalType":"address"}],"outputs":[],"stateMutability":"nonpayable"},{"type":"function","name":"setVaultsRegistryAddress","inputs":[{"name":"vaultsRegistryAddress_","type":"address","internalType":"address"}],"outputs":[],"stateMutability":"nonpayable"},{"type":"function","name":"setWithdrawStrategyAddress","inputs":[{"name":"withdrawStrategyAddress_","type":"address","internalType":"address"}],"outputs":[],"stateMutability":"nonpayable"},{"type":"function","name":"supportsInterface","inputs":[{"name":"interfaceId","type":"bytes4","internalType":"bytes4"}],"outputs":[{"name":"","type":"bool","internalType":"bool"}],"stateMutability":"view"},{"type":"function","name":"symbol","inputs":[],"outputs":[{"name":"","type":"string","internalType":"string"}],"stateMutability":"view"},{"type":"function","name":"totalAssets","inputs":[],"outputs":[{"name":"","type":"uint256","internalType":"uint256"}],"stateMutability":"view"},{"type":"function","name":"totalSupply","inputs":[],"outputs":[{"name":"","type":"uint256","internalType":"uint256"}],"stateMutability":"view"},{"type":"function","name":"transfer","inputs":[{"name":"to","type":"address","internalType":"address"},{"name":"value","type":"uint256","internalType":"uint256"}],"outputs":[{"name":"","type":"bool","internalType":"bool"}],"stateMutability":"nonpayable"},{"type":"function","name":"transferFrom","inputs":[{"name":"from","type":"address","internalType":"address"},{"name":"to","type":"address","internalType":"address"},{"name":"value","type":"uint256","internalType":"uint256"}],"outputs":[{"name":"","type":"bool","internalType":"bool"}],"stateMutability":"nonpayable"},{"type":"function","name":"unpause","inputs":[],"outputs":[],"stateMutability":"nonpayable"},{"type":"function","name":"updateVaultValuation","inputs":[{"name":"priceSource_","type":"uint8","internalType":"uint8"}],"outputs":[{"name":"","type":"uint256","internalType":"uint256"}],"stateMutability":"nonpayable"},{"type":"function","name":"valuationSource","inputs":[],"outputs":[{"name":"","type":"uint8","internalType":"uint8"}],"stateMutability":"view"},{"type":"function","name":"vaultStrategyAddress","inputs":[],"outputs":[{"name":"","type":"address","internalType":"address"}],"stateMutability":"view"},{"type":"function","name":"vaultsRegistryAddress","inputs":[],"outputs":[{"name":"","type":"address","internalType":"address"}],"stateMutability":"view"},{"type":"function","name":"withdraw","inputs":[{"name":"assetsAmount_","type":"uint256","internalType":"uint256"},{"name":"caller_","type":"address","internalType":"address"},{"name":"account_","type":"address","internalType":"address"}],"outputs":[{"name":"","type":"uint256","internalType":"uint256"}],"stateMutability":"nonpayable"},{"type":"function","name":"withdrawStrategyAddress","inputs":[],"outputs":[{"name":"","type":"address","internalType":"address"}],"stateMutability":"view"},{"type":"event","name":"Approval","inputs":[{"name":"owner","type":"address","indexed":true,"internalType":"address"},{"name":"spender","type":"address","indexed":true,"internalType":"address"},{"name":"value","type":"uint256","indexed":false,"internalType":"uint256"}],"anonymous":false},{"type":"event","name":"AssetsDeployed","inputs":[{"name":"liquidToken","type":"address","indexed":true,"internalType":"address"},{"name":"liquidTokenAmount","type":"uint256","indexed":false,"internalType":"uint256"},{"name":"pendingDepositAssets","type":"uint256","indexed":false,"internalType":"uint256"},{"name":"caller","type":"address","indexed":true,"internalType":"address"}],"anonymous":false},{"type":"event","name":"Deposit","inputs":[{"name":"sender","type":"address","indexed":true,"internalType":"address"},{"name":"owner","type":"address","indexed":true,"internalType":"address"},{"name":"assets","type":"uint256","indexed":false,"internalType":"uint256"},{"name":"shares","type":"uint256","indexed":false,"internalType":"uint256"}],"anonymous":false},{"type":"event","name":"HarvestExecuted","inputs":[{"name":"token","type":"address","indexed":true,"internalType":"address"},{"name":"tokenAmount","type":"uint256","indexed":false,"internalType":"uint256"},{"name":"caller","type":"address","indexed":true,"internalType":"address"}],"anonymous":false},{"type":"event","name":"Initialized","inputs":[{"name":"version","type":"uint64","indexed":false,"internalType":"uint64"}],"anonymous":false},{"type":"event","name":"LiveValuationSet","inputs":[{"name":"status","type":"bool","indexed":false,"internalType":"bool"}],"anonymous":false},{"type":"event","name":"MasterTokenAddressSet","inputs":[{"name":"newAddress","type":"address","indexed":true,"internalType":"address"}],"anonymous":false},{"type":"event","name":"Paused","inputs":[{"name":"account","type":"address","indexed":false,"internalType":"address"}],"anonymous":false},{"type":"event","name":"RoleAdminChanged","inputs":[{"name":"role","type":"bytes32","indexed":true,"internalType":"bytes32"},{"name":"previousAdminRole","type":"bytes32","indexed":true,"internalType":"bytes32"},{"name":"newAdminRole","type":"bytes32","indexed":true,"internalType":"bytes32"}],"anonymous":false},{"type":"event","name":"RoleGranted","inputs":[{"name":"role","type":"bytes32","indexed":true,"internalType":"bytes32"},{"name":"account","type":"address","indexed":true,"internalType":"address"},{"name":"sender","type":"address","indexed":true,"internalType":"address"}],"anonymous":false},{"type":"event","name":"RoleRevoked","inputs":[{"name":"role","type":"bytes32","indexed":true,"internalType":"bytes32"},{"name":"account","type":"address","indexed":true,"internalType":"address"},{"name":"sender","type":"address","indexed":true,"internalType":"address"}],"anonymous":false},{"type":"event","name":"Transfer","inputs":[{"name":"from","type":"address","indexed":true,"internalType":"address"},{"name":"to","type":"address","indexed":true,"internalType":"address"},{"name":"value","type":"uint256","indexed":false,"internalType":"uint256"}],"anonymous":false},{"type":"event","name":"Unpaused","inputs":[{"name":"account","type":"address","indexed":false,"internalType":"address"}],"anonymous":false},{"type":"event","name":"ValuationSourceSet","inputs":[{"name":"valuationSource","type":"uint8","indexed":false,"internalType":"uint8"}],"anonymous":false},{"type":"event","name":"VaultStrategyAddressSet","inputs":[{"name":"newAddress","type":"address","indexed":true,"internalType":"address"}],"anonymous":false},{"type":"event","name":"VaultValuationUpdated","inputs":[{"name":"vaultValuation","type":"uint256","indexed":false,"internalType":"uint256"},{"name":"deployedAssetsValue","type":"uint256","indexed":false,"internalType":"uint256"},{"name":"pendingDepositAssets","type":"uint256","indexed":false,"internalType":"uint256"},{"name":"caller","type":"address","indexed":true,"internalType":"address"}],"anonymous":false},{"type":"event","name":"VaultsRegistryAddressSet","inputs":[{"name":"newAddress","type":"address","indexed":true,"internalType":"address"}],"anonymous":false},{"type":"event","name":"Withdraw","inputs":[{"name":"sender","type":"address","indexed":true,"internalType":"address"},{"name":"receiver","type":"address","indexed":true,"internalType":"address"},{"name":"owner","type":"address","indexed":true,"internalType":"address"},{"name":"assets","type":"uint256","indexed":false,"internalType":"uint256"},{"name":"shares","type":"uint256","indexed":false,"internalType":"uint256"}],"anonymous":false},{"type":"event","name":"WithdrawStrategyAddressSet","inputs":[{"name":"newAddress","type":"address","indexed":true,"internalType":"address"}],"anonymous":false},{"type":"error","name":"AccessControlBadConfirmation","inputs":[]},{"type":"error","name":"AccessControlUnauthorizedAccount","inputs":[{"name":"account","type":"address","internalType":"address"},{"name":"neededRole","type":"bytes32","internalType":"bytes32"}]},{"type":"error","name":"AddressEmptyCode","inputs":[{"name":"target","type":"address","internalType":"address"}]},{"type":"error","name":"AddressInsufficientBalance","inputs":[{"name":"account","type":"address","internalType":"address"}]},{"type":"error","name":"ERC20InsufficientAllowance","inputs":[{"name":"spender","type":"address","internalType":"address"},{"name":"allowance","type":"uint256","internalType":"uint256"},{"name":"needed","type":"uint256","internalType":"uint256"}]},{"type":"error","name":"ERC20InsufficientBalance","inputs":[{"name":"sender","type":"address","internalType":"address"},{"name":"balance","type":"uint256","internalType":"uint256"},{"name":"needed","type":"uint256","internalType":"uint256"}]},{"type":"error","name":"ERC20InvalidApprover","inputs":[{"name":"approver","type":"address","internalType":"address"}]},{"type":"error","name":"ERC20InvalidReceiver","inputs":[{"name":"receiver","type":"address","internalType":"address"}]},{"type":"error","name":"ERC20InvalidSender","inputs":[{"name":"sender","type":"address","internalType":"address"}]},{"type":"error","name":"ERC20InvalidSpender","inputs":[{"name":"spender","type":"address","internalType":"address"}]},{"type":"error","name":"ERC4626ExceededMaxDeposit","inputs":[{"name":"receiver","type":"address","internalType":"address"},{"name":"assets","type":"uint256","internalType":"uint256"},{"name":"max","type":"uint256","internalType":"uint256"}]},{"type":"error","name":"ERC4626ExceededMaxMint","inputs":[{"name":"receiver","type":"address","internalType":"address"},{"name":"shares","type":"uint256","internalType":"uint256"},{"name":"max","type":"uint256","internalType":"uint256"}]},{"type":"error","name":"ERC4626ExceededMaxRedeem","inputs":[{"name":"owner","type":"address","internalType":"address"},{"name":"shares","type":"uint256","internalType":"uint256"},{"name":"max","type":"uint256","internalType":"uint256"}]},{"type":"error","name":"ERC4626ExceededMaxWithdraw","inputs":[{"name":"owner","type":"address","internalType":"address"},{"name":"assets","type":"uint256","internalType":"uint256"},{"name":"max","type":"uint256","internalType":"uint256"}]},{"type":"error","name":"EmptyString","inputs":[{"name":"target","type":"string","internalType":"string"}]},{"type":"error","name":"EnforcedPause","inputs":[]},{"type":"error","name":"ExpectedPause","inputs":[]},{"type":"error","name":"FailedInnerCall","inputs":[]},{"type":"error","name":"InsufficientAssetsToWithdraw","inputs":[{"name":"account","type":"address","internalType":"address"},{"name":"accountBalance","type":"uint256","internalType":"uint256"},{"name":"requestedAmount","type":"uint256","internalType":"uint256"}]},{"type":"error","name":"InsufficientFundsForAssetsDeployment","inputs":[]},{"type":"error","name":"InsufficientShares","inputs":[{"name":"user","type":"address","internalType":"address"}]},{"type":"error","name":"InvalidAssetReturned","inputs":[{"name":"vaultAsset","type":"address","internalType":"address"},{"name":"returnedAsset","type":"address","internalType":"address"},{"name":"assetsAmount","type":"uint256","internalType":"uint256"}]},{"type":"error","name":"InvalidInitialization","inputs":[]},{"type":"error","name":"InvalidTarget","inputs":[]},{"type":"error","name":"MathOverflowedMulDiv","inputs":[]},{"type":"error","name":"NotInitializing","inputs":[]},{"type":"error","name":"ReentrancyGuardReentrantCall","inputs":[]},{"type":"error","name":"SafeERC20FailedOperation","inputs":[{"name":"token","type":"address","internalType":"address"}]},{"type":"error","name":"ZeroAddress","inputs":[{"name":"target","type":"string","internalType":"string"}]},{"type":"error","name":"ZeroAmount","inputs":[{"name":"target","type":"string","internalType":"string"}]}],"bytecode":{"object":"0x608060405234801561001057600080fd5b50613750806100206000396000f3fe60806040526004361061037a5760003560e01c80635e5a24a4116101d1578063b3d7f6b911610102578063cef14719116100a0578063dd62ed3e1161006f578063dd62ed3e14610a1f578063e6a00fef14610a3f578063ea9853d014610a60578063ef8b30f71461095e57600080fd5b8063cef147191461099e578063d547741f146109bf578063d905777e146109df578063da9b759d146109ff57600080fd5b8063c06d8cd4116100dc578063c06d8cd414610949578063c63d75b614610664578063c6e6f5921461095e578063ce96cb771461097e57600080fd5b8063b3d7f6b9146108e9578063b460af9414610909578063ba0876521461092957600080fd5b806391d148541161016f57806395d89b411161014957806395d89b411461087f578063964455eb14610894578063a217fddf146108b4578063a9059cbb146108c957600080fd5b806391d148541461081f5780639317c2001461083f57806394bf804d1461085f57600080fd5b806370a08231116101ab57806370a082311461078a578063794c9599146107aa5780637e531a39146107ca5780638456cb591461080a57600080fd5b80635e5a24a414610716578063654aeebf1461074a5780636e553f651461076a57600080fd5b80632fe447bb116102ab578063402d267d116102495780634cdad506116102235780634cdad506146104345780635489becc146106bb5780635b48b6b8146106d15780635c975abb146106f157600080fd5b8063402d267d14610664578063429e6e0f146106865780634641257d146106a657600080fd5b806336568abe1161028557806336568abe146105fa57806338d52e0f1461061a57806339e3aca11461062f5780633f4ba83a1461064f57600080fd5b80632fe447bb146105925780633129a242146105c5578063313ce567146105e557600080fd5b80630e1b456c1161031857806318160ddd116102f257806318160ddd1461051057806323b872dd14610532578063248a9ca3146105525780632f2ff15d1461057257600080fd5b80630e1b456c1461049457806313c5977d146104b657806316c2501e146104d857600080fd5b806306fdde031161035457806306fdde031461041257806307a2d13a14610434578063095ea7b3146104545780630a28a4771461047457600080fd5b806301e1d1141461038657806301ffc9a7146103ae578063037897d6146103de57600080fd5b3661038157005b600080fd5b34801561039257600080fd5b5061039b610a80565b6040519081526020015b60405180910390f35b3480156103ba57600080fd5b506103ce6103c9366004612f70565b610b04565b60405190151581526020016103a5565b3480156103ea57600080fd5b506103f3610b3b565b604080516001600160a01b0390931683526020830191909152016103a5565b34801561041e57600080fd5b50610427610e1f565b6040516103a59190612fbe565b34801561044057600080fd5b5061039b61044f366004612ff1565b610ee2565b34801561046057600080fd5b506103ce61046f36600461301f565b610eef565b34801561048057600080fd5b5061039b61048f366004612ff1565b610f07565b3480156104a057600080fd5b5061039b60008051602061367b83398151915281565b3480156104c257600080fd5b506104d66104d1366004613059565b610f14565b005b3480156104e457600080fd5b506000546104f8906001600160a01b031681565b6040516001600160a01b0390911681526020016103a5565b34801561051c57600080fd5b5060008051602061369b8339815191525461039b565b34801561053e57600080fd5b506103ce61054d366004613077565b610fc5565b34801561055e57600080fd5b5061039b61056d366004612ff1565b610feb565b34801561057e57600080fd5b506104d661058d3660046130b8565b61100d565b34801561059e57600080fd5b506003546105b390600160a01b900460ff1681565b60405160ff90911681526020016103a5565b3480156105d157600080fd5b506104d66105e03660046130e8565b61102f565b3480156105f157600080fd5b506105b36110d0565b34801561060657600080fd5b506104d66106153660046130b8565b6110fc565b34801561062657600080fd5b506104f861112f565b34801561063b57600080fd5b506002546104f8906001600160a01b031681565b34801561065b57600080fd5b506104d661114b565b34801561067057600080fd5b5061039b61067f3660046130e8565b5060001990565b34801561069257600080fd5b506003546104f8906001600160a01b031681565b3480156106b257600080fd5b506103f3611161565b3480156106c757600080fd5b5061039b60045481565b3480156106dd57600080fd5b506104d66106ec3660046130e8565b61127f565b3480156106fd57600080fd5b506000805160206136fb8339815191525460ff166103ce565b34801561072257600080fd5b5061039b7fd1473398bb66596de5d1ea1fc8e303ff2ac23265adc9144b1b52065dc4f0934b81565b34801561075657600080fd5b506104d6610765366004613105565b611320565b34801561077657600080fd5b5061039b6107853660046130b8565b6113e8565b34801561079657600080fd5b5061039b6107a53660046130e8565b6114b4565b3480156107b657600080fd5b506104d66107c53660046130e8565b6114dc565b3480156107d657600080fd5b5061042760405180604001604052806014815260200173119d5b98dd1a5bdb881b9bdd08185b1b1bddd95960621b81525081565b34801561081657600080fd5b506104d6611575565b34801561082b57600080fd5b506103ce61083a3660046130b8565b611588565b34801561084b57600080fd5b506104d661085a3660046131cb565b6115c0565b34801561086b57600080fd5b5061039b61087a3660046130b8565b6118a4565b34801561088b57600080fd5b506104276118e8565b3480156108a057600080fd5b5061039b6108af366004613105565b611927565b3480156108c057600080fd5b5061039b600081565b3480156108d557600080fd5b506103ce6108e436600461301f565b611acb565b3480156108f557600080fd5b5061039b610904366004612ff1565b611ad9565b34801561091557600080fd5b5061039b610924366004613278565b611ae6565b34801561093557600080fd5b5061039b610944366004613278565b611bb7565b34801561095557600080fd5b5061039b611c8b565b34801561096a57600080fd5b5061039b610979366004612ff1565b611d5a565b34801561098a57600080fd5b5061039b6109993660046130e8565b611d67565b3480156109aa57600080fd5b506003546103ce90600160b01b900460ff1681565b3480156109cb57600080fd5b506104d66109da3660046130b8565b611d7c565b3480156109eb57600080fd5b5061039b6109fa3660046130e8565b611d98565b348015610a0b57600080fd5b506001546104f8906001600160a01b031681565b348015610a2b57600080fd5b5061039b610a3a3660046132ba565b611da3565b348015610a4b57600080fd5b506003546103ce90600160a81b900460ff1681565b348015610a6c57600080fd5b506104d6610a7b3660046130e8565b611ded565b6000806000805160206136db83398151915280546040516370a0823160e01b81523060048201529192506001600160a01b0316906370a0823190602401602060405180830381865afa158015610ada573d6000803e3d6000fd5b505050506040513d601f19601f82011682018060405250810190610afe91906132e8565b91505090565b60006001600160e01b03198216637965db0b60e01b1480610b3557506301ffc9a760e01b6001600160e01b03198316145b92915050565b6000807fd1473398bb66596de5d1ea1fc8e303ff2ac23265adc9144b1b52065dc4f0934b610b6881611e8e565b610ba06004546040518060400160405280601481526020017370656e64696e674465706f73697441737365747360601b815250611e98565b6002546040805180820190915260148152737661756c7453747261746567794164647265737360601b6020820152610be1916001600160a01b031690611ebf565b610be9610a80565b6004541115610c0b5760405163735038a160e11b815260040160405180910390fd5b600254604080516376bcfb8960e11b815290516000926001600160a01b03169163ed79f712916004808301926020929190829003018187875af1158015610c56573d6000803e3d6000fd5b505050506040513d601f19601f82011682018060405250810190610c7a9190613301565b9050610c8461112f565b6004805460405163095ea7b360e01b81526001600160a01b0385811693820193909352602481019190915291169063095ea7b3906044016020604051808303816000875af1158015610cda573d6000803e3d6000fd5b505050506040513d601f19601f82011682018060405250810190610cfe919061331e565b5060025460009081906001600160a01b031663642024e43082610d1f61112f565b600480546040516001600160e01b031960e088901b1681526001600160a01b0395861692810192909252928416602482015292166044830152606482015260840160408051808303816000875af1158015610d7e573d6000803e3d6000fd5b505050506040513d601f19601f82011682018060405250810190610da2919061333b565b90925090506001600160a01b03821615801590610dbf5750600081115b15610dca5760006004555b60045460408051838152602081019290925233916001600160a01b038516917f16f99217dbd279dc7089ccb0efd8412a673ed6451b0b1f2b887520bf90babece910160405180910390a3909450925050509091565b7f52c63247e1f47db19d5ce0460030c497f067ca4cebf71ba98eeadabe20bace03805460609160008051602061365b83398151915291610e5e90613369565b80601f0160208091040260200160405190810160405280929190818152602001828054610e8a90613369565b8015610ed75780601f10610eac57610100808354040283529160200191610ed7565b820191906000526020600020905b815481529060010190602001808311610eba57829003601f168201915b505050505091505090565b6000610b35826000611ee8565b600033610efd818585611f2f565b5060019392505050565b6000610b35826001611f3c565b6000610f1f81611e8e565b8115801590610f2f575081600114155b15610f4d5760405163416aebb560e11b815260040160405180910390fd5b60405183151581527ffa5b68283194f19fadee1c6f6741c0e5fa49065b5f9794882fdea0e8557996579060200160405180910390a181600003610fa85760038054841515600160a81b0260ff60a81b19909116179055505050565b6003805460ff60b01b1916600160b01b851515021790555b505050565b600033610fd3858285611f9e565b610fde858585611ffe565b60019150505b9392505050565b60009081526000805160206136bb833981519152602052604090206001015490565b61101682610feb565b61101f81611e8e565b611029838361205d565b50505050565b600061103a81611e8e565b611079826040518060400160405280601781526020017f7365745661756c74537472617465677941646472657373000000000000000000815250611ebf565b6040516001600160a01b038316907fff75b176244b4869d0f63bcd38c47fcf8d1c4867f9ff4ee2d18ff62e5cb3f79a90600090a250600280546001600160a01b0319166001600160a01b0392909216919091179055565b6000806000805160206136db833981519152905060008154610afe9190600160a01b900460ff166133b3565b6001600160a01b03811633146111255760405163334bd91960e11b815260040160405180910390fd5b610fc08282612102565b6000805160206136db833981519152546001600160a01b031690565b600061115681611e8e565b61115e61217e565b50565b6000808061116e81611e8e565b6002546040805180820190915260148152737661756c7453747261746567794164647265737360601b60208201526111af916001600160a01b031690611ebf565b600254604080516314f1402b60e31b8152815160009384936001600160a01b039091169263a78a01589260048083019392829003018187875af11580156111fa573d6000803e3d6000fd5b505050506040513d601f19601f8201168201806040525081019061121e919061333b565b915091506112293390565b6001600160a01b0316826001600160a01b03167f612393db0d818881e56e76cafa2c1f8c31c98b0c5d6bf12a78a0c149074f4d7b8360405161126d91815260200190565b60405180910390a39093509150509091565b600061128a81611e8e565b6112c9826040518060400160405280601881526020017f7365745661756c74735265676973747279416464726573730000000000000000815250611ebf565b6040516001600160a01b038316907ff456cf93e413d2c9e331969506c9fec24d8a2f0c084a402f00d10e6128eacd9190600090a250600080546001600160a01b0319166001600160a01b0392909216919091179055565b600061132b81611e8e565b8160ff166001148061134057508160ff166002145b6113915760405162461bcd60e51b815260206004820152601860248201527f496e76616c69642076616c756174696f6e536f757263655f000000000000000060448201526064015b60405180910390fd5b60405160ff831681527f8293c6c4b7ac2c1602ceb85691cc993ed8db45ead0fe9e917c32b9a2ed98c6e59060200160405180910390a1506003805460ff909216600160a01b0260ff60a01b19909216919091179055565b600060008051602061367b83398151915261140281611e8e565b61140a6121de565b611439846040518060400160405280600d81526020016c617373657473416d6f756e745f60981b815250611e98565b61146383604051806040016040528060088152602001676163636f756e745f60c01b815250611ebf565b61146d6000612211565b600061147885611d5a565b6001549091506114949085906001600160a01b03168784612262565b84600460008282546114a691906133cc565b909155509095945050505050565b6001600160a01b0316600090815260008051602061365b833981519152602052604090205490565b60006114e781611e8e565b61151e82604051806040016040528060158152602001747365744d6173746572546f6b656e4164647265737360581b815250611ebf565b6040516001600160a01b038316907fe9e97d114ee06d8e3bf5fa839071c8024f6937aaecebeb7cdf8881f8b1da3e5f90600090a250600180546001600160a01b0319166001600160a01b0392909216919091179055565b600061158081611e8e565b61115e6122ef565b60009182526000805160206136bb833981519152602090815260408084206001600160a01b0393909316845291905290205460ff1690565b7ff0c57e16840df040f15088dc2f81fe391c3923bec73e23a9662efc9c229c6a008054600160401b810460ff16159067ffffffffffffffff166000811580156116065750825b905060008267ffffffffffffffff1660011480156116235750303b155b905081158015611631575080155b1561164f5760405163f92ee8a960e01b815260040160405180910390fd5b845467ffffffffffffffff19166001178555831561167957845460ff60401b1916600160401b1785555b6116b88b6040518060400160405280601781526020017f756e6465726c79696e67546f6b656e416464726573735f000000000000000000815250611ebf565b6116ed8a604051806040016040528060138152602001726d6173746572546f6b656e416464726573735f60681b815250611ebf565b61172589604051806040016040528060168152602001757661756c74735265676973747279416464726573735f60501b815250611ebf565b611754886040518060400160405280600d81526020016c6f776e6572416464726573735f60981b815250611ebf565b611781876040518060400160405280600b81526020016a7368617265734e616d655f60a81b815250612338565b6117b0866040518060400160405280600d81526020016c73686172657353796d626f6c5f60981b815250612338565b6117b861235c565b6117c061236c565b6117c861237c565b6117d18b612384565b6117db8787612395565b6117e660008961205d565b50600180546001600160a01b03808d166001600160a01b0319928316811790935560008054918d169190921617815560038054600160a11b60ff60a01b199091161790556040517fe9e97d114ee06d8e3bf5fa839071c8024f6937aaecebeb7cdf8881f8b1da3e5f9190a2831561189757845460ff60401b19168555604051600181527fc7f505b2f371ae2175ee4913f4499e1f2633a7b5936321eed1cdaeb6115181d29060200160405180910390a15b5050505050505050505050565b6040805180820182526014815273119d5b98dd1a5bdb881b9bdd08185b1b1bddd95960621b6020820152905162461bcd60e51b815260009161138891600401612fbe565b7f52c63247e1f47db19d5ce0460030c497f067ca4cebf71ba98eeadabe20bace04805460609160008051602061365b83398151915291610e5e90613369565b60007fd1473398bb66596de5d1ea1fc8e303ff2ac23265adc9144b1b52065dc4f0934b61195381611e8e565b8260ff166001148061196857508260ff166002145b6119b45760405162461bcd60e51b815260206004820152601b60248201527f496e76616c696420736f7572636520746f2067657420707269636500000000006044820152606401611388565b6002546040805180820190915260148152737661756c7453747261746567794164647265737360601b60208201526119f5916001600160a01b031690611ebf565b6002546040516372cfcaad60e01b815260ff851660048201526000916001600160a01b0316906372cfcaad906024016020604051808303816000875af1158015611a43573d6000803e3d6000fd5b505050506040513d601f19601f82011682018060405250810190611a6791906132e8565b9050600060045482611a7991906133cc565b6004546040805183815260208101869052808201929092525191925033917f61c280e478496b7f61c4ed50190cf3bc184e164b68f5bf3866e643e8902fe23c9181900360600190a29250505b50919050565b600033610efd818585611ffe565b6000610b35826001611ee8565b600060008051602061367b833981519152611b0081611e8e565b611b086121de565b611b37856040518060400160405280600d81526020016c617373657473416d6f756e745f60981b815250611e98565b611b6183604051806040016040528060088152602001676163636f756e745f60c01b815250611ebf565b611b8a846040518060400160405280600781526020016663616c6c65725f60c81b815250611ebf565b611b946001612211565b6000611b9f86610f07565b9050611bad858288876123a7565b5095945050505050565b600060008051602061367b833981519152611bd181611e8e565b611bd96121de565b611c08856040518060400160405280600d81526020016c736861726573416d6f756e745f60981b815250611e98565b611c3283604051806040016040528060088152602001676163636f756e745f60c01b815250611ebf565b611c5b846040518060400160405280600781526020016663616c6c65725f60c81b815250611ebf565b611c656001612211565b6000611c7086610ee2565b90506000611c80868884886123a7565b979650505050505050565b6002546040805180820190915260148152737661756c7453747261746567794164647265737360601b6020820152600091611cd1916001600160a01b0390911690611ebf565b600454600260009054906101000a90046001600160a01b03166001600160a01b031663e2868d336040518163ffffffff1660e01b8152600401602060405180830381865afa158015611d27573d6000803e3d6000fd5b505050506040513d601f19601f82011682018060405250810190611d4b91906132e8565b611d5591906133cc565b905090565b6000610b35826000611f3c565b6000610b35611d75836114b4565b6000611ee8565b611d8582610feb565b611d8e81611e8e565b6110298383612102565b6000610b35826114b4565b6001600160a01b0391821660009081527f52c63247e1f47db19d5ce0460030c497f067ca4cebf71ba98eeadabe20bace016020908152604080832093909416825291909152205490565b6000611df881611e8e565b611e37826040518060400160405280601a81526020017f7365745769746864726177537472617465677941646472657373000000000000815250611ebf565b6040516001600160a01b038316907f28548fb82baba9340b788ecc4911d241c9508404c350e6964e447fbf8d62c12890600090a250600380546001600160a01b0319166001600160a01b0392909216919091179055565b61115e813361264e565b81600003611ebb57806040516303b3e63560e41b81526004016113889190612fbe565b5050565b6001600160a01b038216611ebb578060405163eac0d38960e01b81526004016113889190612fbe565b6000610fe4611ef5611c8b565b611f009060016133cc565b611f0c6000600a6134c3565b60008051602061369b83398151915254611f2691906133cc565b85919085612687565b610fc083838360016126d8565b6000611f5460008051602061369b8339815191525490565b600003611f62575081610b35565b610fe4611f716000600a6134c3565b60008051602061369b83398151915254611f8b91906133cc565b611f93611c8b565b611f269060016133cc565b6000611faa8484611da3565b905060001981146110295781811015611fef57604051637dc7a0d960e11b81526001600160a01b03841660048201526024810182905260448101839052606401611388565b611029848484840360006126d8565b6001600160a01b03831661202857604051634b637e8f60e11b815260006004820152602401611388565b6001600160a01b0382166120525760405163ec442f0560e01b815260006004820152602401611388565b610fc08383836127b7565b60006000805160206136bb8339815191526120788484611588565b6120f8576000848152602082815260408083206001600160a01b03871684529091529020805460ff191660011790556120ae3390565b6001600160a01b0316836001600160a01b0316857f2f8788117e7eff1d82e926ec794901d17c78024a50270940304540a733656f0d60405160405180910390a46001915050610b35565b6000915050610b35565b60006000805160206136bb83398151915261211d8484611588565b156120f8576000848152602082815260408083206001600160a01b0387168085529252808320805460ff1916905551339287917ff6391f5c32d9c69d2a47ea670b442974b53935d1edc7fd64eb21e047a839171b9190a46001915050610b35565b6121866128f5565b6000805160206136fb833981519152805460ff191681557f5db9ee0a495bf2e6ff9c91a7834c1ba4fdd244a5e8aa4e537bd38aeae4b073aa335b6040516001600160a01b03909116815260200160405180910390a150565b6000805160206136fb8339815191525460ff161561220f5760405163d93c066560e01b815260040160405180910390fd5b565b801580156122285750600354600160a81b900460ff165b8061224757508060011480156122475750600354600160b01b900460ff165b1561115e57600354611ebb90600160a01b900460ff16611927565b6000805160206136db8339815191528054612288906001600160a01b0316863086612925565b612292848361298c565b836001600160a01b0316856001600160a01b03167fdcbc1c05240f31ff3ad067ef1ee35ce4997762752e3a095284754544f4c709d785856040516122e0929190918252602082015260400190565b60405180910390a35050505050565b6122f76121de565b6000805160206136fb833981519152805460ff191660011781557f62e78cea01bee320cd4e420270b5ea74000d11b0c9f74754ebdbfc544b05a258336121c0565b8151600003611ebb57806040516318a996bb60e21b81526004016113889190612fbe565b6123646129c2565b61220f612a0b565b6123746129c2565b61220f612a2c565b61220f6129c2565b61238c6129c2565b61115e81612a5a565b61239d6129c2565b611ebb8282612acc565b6001546040805180820190915260128152716d6173746572546f6b656e4164647265737360701b60208201526000916123eb916001600160a01b0390911690611ebf565b60035460408051808201909152601781527f77697468647261775374726174656779416464726573730000000000000000006020820152612435916001600160a01b031690611ebf565b60015460405163076e632760e51b81526001600160a01b038481166004830152600092169063edcc64e0906024016020604051808303816000875af1158015612482573d6000803e3d6000fd5b505050506040513d601f19601f820116820180604052508101906124a691906132e8565b9050808511156124d4576040516380f444cf60e01b81526001600160a01b0384166004820152602401611388565b836124dd611c8b565b10156125155760405163cb16547760e01b81526001600160a01b03841660048201526024810182905260448101859052606401611388565b6000600454612522611c8b565b146126335760035460009081906001600160a01b0316634a28ff243061254661112f565b6040516001600160e01b031960e085901b1681526001600160a01b03928316600482015291166024820152604481018a905260640160408051808303816000875af1158015612599573d6000803e3d6000fd5b505050506040513d601f19601f820116820180604052508101906125bd919061333b565b9150915080600014806125e957506125d361112f565b6001600160a01b0316826001600160a01b031614155b1561262a576125f661112f565b604051632bd709a760e21b81526001600160a01b039182166004820152908316602482015260448101829052606401611388565b91506126369050565b50835b612643878589848a612b1d565b509295945050505050565b6126588282611588565b611ebb5760405163e2517d3f60e01b81526001600160a01b038216600482015260248101839052604401611388565b600080612695868686612bd2565b90506126a083612c96565b80156126bc5750600084806126b7576126b76134d2565b868809115b156126cf576126cc6001826133cc565b90505b95945050505050565b60008051602061365b8339815191526001600160a01b0385166127115760405163e602df0560e01b815260006004820152602401611388565b6001600160a01b03841661273b57604051634a1406b160e11b815260006004820152602401611388565b6001600160a01b038086166000908152600183016020908152604080832093881683529290522083905581156127b057836001600160a01b0316856001600160a01b03167f8c5be1e5ebec7d5bd14f71427d1e84f3dd0314c0f7b2291e5b200ac8c7c3b925856040516122e091815260200190565b5050505050565b60008051602061365b8339815191526001600160a01b0384166127f357818160020160008282546127e891906133cc565b909155506128659050565b6001600160a01b038416600090815260208290526040902054828110156128465760405163391434e360e21b81526001600160a01b03861660048201526024810182905260448101849052606401611388565b6001600160a01b03851660009081526020839052604090209083900390555b6001600160a01b0383166128835760028101805483900390556128a2565b6001600160a01b03831660009081526020829052604090208054830190555b826001600160a01b0316846001600160a01b03167fddf252ad1be2c89b69c2b068fc378daa952ba7f163c4a11628f55a4df523b3ef846040516128e791815260200190565b60405180910390a350505050565b6000805160206136fb8339815191525460ff1661220f57604051638dfc202b60e01b815260040160405180910390fd5b6040516001600160a01b0384811660248301528381166044830152606482018390526110299186918216906323b872dd906084015b604051602081830303815290604052915060e01b6020820180516001600160e01b038381831617835250505050612cc3565b6001600160a01b0382166129b65760405163ec442f0560e01b815260006004820152602401611388565b611ebb600083836127b7565b7ff0c57e16840df040f15088dc2f81fe391c3923bec73e23a9662efc9c229c6a0054600160401b900460ff1661220f57604051631afcd79f60e31b815260040160405180910390fd5b612a136129c2565b6000805160206136fb833981519152805460ff19169055565b612a346129c2565b60017f9b779b17422d0df92223018b32b4d1fa46e071723d6817e2486d003becc55f0055565b612a626129c2565b6000805160206136db833981519152600080612a7d84612d26565b9150915081612a8d576012612a8f565b805b83546001600160a81b031916600160a01b60ff92909216919091026001600160a01b031916176001600160a01b0394909416939093179091555050565b612ad46129c2565b60008051602061365b8339815191527f52c63247e1f47db19d5ce0460030c497f067ca4cebf71ba98eeadabe20bace03612b0e8482613538565b50600481016110298382613538565b6000805160206136db8339815191526001600160a01b0386811690851614612b4a57612b4a848784611f9e565b612b548483612e02565b8054612b6a906001600160a01b03168685612e38565b836001600160a01b0316856001600160a01b0316876001600160a01b03167ffbde797d201c681b91056529119e0b02407c7bb96a4a2c75c01fc9667232c8db8686604051612bc2929190918252602082015260400190565b60405180910390a4505050505050565b6000838302816000198587098281108382030391505080600003612c0957838281612bff57612bff6134d2565b0492505050610fe4565b808411612c295760405163227bc15360e01b815260040160405180910390fd5b6000848688096000868103871696879004966002600389028118808a02820302808a02820302808a02820302808a02820302808a02820302808a02909103029181900381900460010186841190950394909402919094039290920491909117919091029150509392505050565b60006002826003811115612cac57612cac6135f8565b612cb6919061360e565b60ff166001149050919050565b6000612cd86001600160a01b03841683612e69565b90508051600014158015612cfd575080806020019051810190612cfb919061331e565b155b15610fc057604051635274afe760e01b81526001600160a01b0384166004820152602401611388565b60408051600481526024810182526020810180516001600160e01b031663313ce56760e01b17905290516000918291829182916001600160a01b03871691612d6d9161363e565b600060405180830381855afa9150503d8060008114612da8576040519150601f19603f3d011682016040523d82523d6000602084013e612dad565b606091505b5091509150818015612dc157506020815110155b15612df557600081806020019051810190612ddc91906132e8565b905060ff8111612df3576001969095509350505050565b505b5060009485945092505050565b6001600160a01b038216612e2c57604051634b637e8f60e11b815260006004820152602401611388565b611ebb826000836127b7565b6040516001600160a01b03838116602483015260448201839052610fc091859182169063a9059cbb9060640161295a565b6060610fe48383600084600080856001600160a01b03168486604051612e8f919061363e565b60006040518083038185875af1925050503d8060008114612ecc576040519150601f19603f3d011682016040523d82523d6000602084013e612ed1565b606091505b5091509150612ee1868383612eeb565b9695505050505050565b606082612f0057612efb82612f47565b610fe4565b8151158015612f1757506001600160a01b0384163b155b15612f4057604051639996b31560e01b81526001600160a01b0385166004820152602401611388565b5080610fe4565b805115612f575780518082602001fd5b604051630a12f52160e11b815260040160405180910390fd5b600060208284031215612f8257600080fd5b81356001600160e01b031981168114610fe457600080fd5b60005b83811015612fb5578181015183820152602001612f9d565b50506000910152565b6020815260008251806020840152612fdd816040850160208701612f9a565b601f01601f19169190910160400192915050565b60006020828403121561300357600080fd5b5035919050565b6001600160a01b038116811461115e57600080fd5b6000806040838503121561303257600080fd5b823561303d8161300a565b946020939093013593505050565b801515811461115e57600080fd5b6000806040838503121561306c57600080fd5b823561303d8161304b565b60008060006060848603121561308c57600080fd5b83356130978161300a565b925060208401356130a78161300a565b929592945050506040919091013590565b600080604083850312156130cb57600080fd5b8235915060208301356130dd8161300a565b809150509250929050565b6000602082840312156130fa57600080fd5b8135610fe48161300a565b60006020828403121561311757600080fd5b813560ff81168114610fe457600080fd5b634e487b7160e01b600052604160045260246000fd5b600082601f83011261314f57600080fd5b813567ffffffffffffffff8082111561316a5761316a613128565b604051601f8301601f19908116603f0116810190828211818310171561319257613192613128565b816040528381528660208588010111156131ab57600080fd5b836020870160208301376000602085830101528094505050505092915050565b60008060008060008060c087890312156131e457600080fd5b86356131ef8161300a565b955060208701356131ff8161300a565b9450604087013561320f8161300a565b9350606087013561321f8161300a565b9250608087013567ffffffffffffffff8082111561323c57600080fd5b6132488a838b0161313e565b935060a089013591508082111561325e57600080fd5b5061326b89828a0161313e565b9150509295509295509295565b60008060006060848603121561328d57600080fd5b83359250602084013561329f8161300a565b915060408401356132af8161300a565b809150509250925092565b600080604083850312156132cd57600080fd5b82356132d88161300a565b915060208301356130dd8161300a565b6000602082840312156132fa57600080fd5b5051919050565b60006020828403121561331357600080fd5b8151610fe48161300a565b60006020828403121561333057600080fd5b8151610fe48161304b565b6000806040838503121561334e57600080fd5b82516133598161300a565b6020939093015192949293505050565b600181811c9082168061337d57607f821691505b602082108103611ac557634e487b7160e01b600052602260045260246000fd5b634e487b7160e01b600052601160045260246000fd5b60ff8181168382160190811115610b3557610b3561339d565b80820180821115610b3557610b3561339d565b600181815b8085111561341a5781600019048211156134005761340061339d565b8085161561340d57918102915b93841c93908002906133e4565b509250929050565b60008261343157506001610b35565b8161343e57506000610b35565b8160018114613454576002811461345e5761347a565b6001915050610b35565b60ff84111561346f5761346f61339d565b50506001821b610b35565b5060208310610133831016604e8410600b841016171561349d575081810a610b35565b6134a783836133df565b80600019048211156134bb576134bb61339d565b029392505050565b6000610fe460ff841683613422565b634e487b7160e01b600052601260045260246000fd5b601f821115610fc0576000816000526020600020601f850160051c810160208610156135115750805b601f850160051c820191505b818110156135305782815560010161351d565b505050505050565b815167ffffffffffffffff81111561355257613552613128565b613566816135608454613369565b846134e8565b602080601f83116001811461359b57600084156135835750858301515b600019600386901b1c1916600185901b178555613530565b600085815260208120601f198616915b828110156135ca578886015182559484019460019091019084016135ab565b50858210156135e85787850151600019600388901b60f8161c191681555b5050505050600190811b01905550565b634e487b7160e01b600052602160045260246000fd5b600060ff83168061362f57634e487b7160e01b600052601260045260246000fd5b8060ff84160691505092915050565b60008251613650818460208701612f9a565b919091019291505056fe52c63247e1f47db19d5ce0460030c497f067ca4cebf71ba98eeadabe20bace005e7a68d59b8e969a6eba9014e1d53fa760e69bfc4c094dc44ed50004fdccdcd852c63247e1f47db19d5ce0460030c497f067ca4cebf71ba98eeadabe20bace0202dd7bc7dec4dceedda775e58dd541e08a116c6c53815c0bd028192f7b6268000773e532dfede91f04b12a73d3d2acd361424f41f76b4fb79f090161e36b4e00cd5ed15c6e187e77e9aee88184c21f4f2182ab5827cb3b7e07fbedcd63f03300a2646970667358221220c6e0f11d993a80f668c825140348f49f19f596115fca2010f55d40bbc723fdb264736f6c63430008180033","linkReferences":{}},"methodIdentifiers":{"DEFAULT_ADMIN_ROLE()":"a217fddf","MASTER_TOKEN_ROLE()":"0e1b456c","REVERT_MSG()":"7e531a39","VAULT_MANAGER_ROLE()":"5e5a24a4","allowance(address,address)":"dd62ed3e","approve(address,uint256)":"095ea7b3","asset()":"38d52e0f","balanceOf(address)":"70a08231","convertToAssets(uint256)":"07a2d13a","convertToShares(uint256)":"c6e6f592","decimals()":"313ce567","deployAssets()":"037897d6","deposit(uint256,address)":"6e553f65","getRoleAdmin(bytes32)":"248a9ca3","getVaultValuation()":"c06d8cd4","grantRole(bytes32,address)":"2f2ff15d","harvest()":"4641257d","hasRole(bytes32,address)":"91d14854","initialize(address,address,address,address,string,string)":"9317c200","liveValuationOnDeposit()":"e6a00fef","liveValuationOnWithdraw()":"cef14719","masterTokenAddress()":"da9b759d","maxDeposit(address)":"402d267d","maxMint(address)":"c63d75b6","maxRedeem(address)":"d905777e","maxWithdraw(address)":"ce96cb77","mint(uint256,address)":"94bf804d","name()":"06fdde03","pause()":"8456cb59","paused()":"5c975abb","pendingDepositAssets()":"5489becc","previewDeposit(uint256)":"ef8b30f7","previewMint(uint256)":"b3d7f6b9","previewRedeem(uint256)":"4cdad506","previewWithdraw(uint256)":"0a28a477","redeem(uint256,address,address)":"ba087652","renounceRole(bytes32,address)":"36568abe","revokeRole(bytes32,address)":"d547741f","setLiveValuation(bool,uint256)":"13c5977d","setMasterTokenAddress(address)":"794c9599","setValuationSource(uint8)":"654aeebf","setVaultStrategyAddress(address)":"3129a242","setVaultsRegistryAddress(address)":"5b48b6b8","setWithdrawStrategyAddress(address)":"ea9853d0","supportsInterface(bytes4)":"01ffc9a7","symbol()":"95d89b41","totalAssets()":"01e1d114","totalSupply()":"18160ddd","transfer(address,uint256)":"a9059cbb","transferFrom(address,address,uint256)":"23b872dd","unpause()":"3f4ba83a","updateVaultValuation(uint8)":"964455eb","valuationSource()":"2fe447bb","vaultStrategyAddress()":"39e3aca1","vaultsRegistryAddress()":"16c2501e","withdraw(uint256,address,address)":"b460af94","withdrawStrategyAddress()":"429e6e0f"},"id":5}