{"abi":[{"type":"receive","stateMutability":"payable"},{"type":"function","name":"DEFAULT_ADMIN_ROLE","inputs":[],"outputs":[{"name":"","type":"bytes32","internalType":"bytes32"}],"stateMutability":"view"},{"type":"function","name":"DEPLOYMENT_ADAPTERS_QTY","inputs":[],"outputs":[{"name":"","type":"uint8","internalType":"uint8"}],"stateMutability":"view"},{"type":"function","name":"REVERT_MSG","inputs":[],"outputs":[{"name":"","type":"string","internalType":"string"}],"stateMutability":"view"},{"type":"function","name":"VAULT_MANAGER_ROLE","inputs":[],"outputs":[{"name":"","type":"bytes32","internalType":"bytes32"}],"stateMutability":"view"},{"type":"function","name":"WITHDRAW_ADAPTERS_QTY","inputs":[],"outputs":[{"name":"","type":"uint8","internalType":"uint8"}],"stateMutability":"view"},{"type":"function","name":"adaptersDeployPath","inputs":[{"name":"","type":"uint256","internalType":"uint256"}],"outputs":[{"name":"","type":"address","internalType":"address"}],"stateMutability":"view"},{"type":"function","name":"adaptersWithdrawPath","inputs":[{"name":"","type":"uint256","internalType":"uint256"}],"outputs":[{"name":"","type":"address","internalType":"address"}],"stateMutability":"view"},{"type":"function","name":"buildPath","inputs":[{"name":"tokens_","type":"address[]","internalType":"address[]"},{"name":"fees_","type":"uint24[]","internalType":"uint24[]"}],"outputs":[],"stateMutability":"nonpayable"},{"type":"function","name":"deployedAssetsValue","inputs":[],"outputs":[{"name":"","type":"uint256","internalType":"uint256"}],"stateMutability":"view"},{"type":"function","name":"executeDeploymentStrategy","inputs":[{"name":"sender_","type":"address","internalType":"address"},{"name":"receiver_","type":"address","internalType":"address"},{"name":"asset_","type":"address","internalType":"address"},{"name":"assetsAmount_","type":"uint256","internalType":"uint256"}],"outputs":[{"name":"","type":"address","internalType":"address"},{"name":"","type":"uint256","internalType":"uint256"}],"stateMutability":"nonpayable"},{"type":"function","name":"executeHarvest","inputs":[],"outputs":[{"name":"","type":"address","internalType":"address"},{"name":"","type":"uint256","internalType":"uint256"}],"stateMutability":"nonpayable"},{"type":"function","name":"executeWithdrawStrategy","inputs":[{"name":"receiver_","type":"address","internalType":"address"},{"name":"asset_","type":"address","internalType":"address"},{"name":"assetsAmount_","type":"uint256","internalType":"uint256"}],"outputs":[{"name":"","type":"address","internalType":"address"},{"name":"","type":"uint256","internalType":"uint256"}],"stateMutability":"nonpayable"},{"type":"function","name":"getDeployedAssetsValue","inputs":[],"outputs":[{"name":"","type":"uint256","internalType":"uint256"}],"stateMutability":"view"},{"type":"function","name":"getFirstDepositAdapter","inputs":[],"outputs":[{"name":"","type":"address","internalType":"address"}],"stateMutability":"view"},{"type":"function","name":"getRoleAdmin","inputs":[{"name":"role","type":"bytes32","internalType":"bytes32"}],"outputs":[{"name":"","type":"bytes32","internalType":"bytes32"}],"stateMutability":"view"},{"type":"function","name":"getTokenPrice","inputs":[{"name":"token_","type":"address","internalType":"address"},{"name":"source_","type":"uint8","internalType":"uint8"}],"outputs":[{"name":"","type":"uint256","internalType":"uint256"}],"stateMutability":"view"},{"type":"function","name":"grantRole","inputs":[{"name":"role","type":"bytes32","internalType":"bytes32"},{"name":"account","type":"address","internalType":"address"}],"outputs":[],"stateMutability":"nonpayable"},{"type":"function","name":"hasRole","inputs":[{"name":"role","type":"bytes32","internalType":"bytes32"},{"name":"account","type":"address","internalType":"address"}],"outputs":[{"name":"","type":"bool","internalType":"bool"}],"stateMutability":"view"},{"type":"function","name":"initialize","inputs":[{"name":"vaultAddress_","type":"address","internalType":"address"},{"name":"liquidTokenAddress_","type":"address","internalType":"address"},{"name":"adaptersDeployPath_","type":"address[]","internalType":"address[]"},{"name":"adaptersWithdrawPath_","type":"address[]","internalType":"address[]"},{"name":"strategyName_","type":"string","internalType":"string"}],"outputs":[],"stateMutability":"nonpayable"},{"type":"function","name":"liquidTokenAddress","inputs":[],"outputs":[{"name":"","type":"address","internalType":"address"}],"stateMutability":"view"},{"type":"function","name":"pause","inputs":[],"outputs":[],"stateMutability":"nonpayable"},{"type":"function","name":"paused","inputs":[],"outputs":[{"name":"","type":"bool","internalType":"bool"}],"stateMutability":"view"},{"type":"function","name":"priceFeedPerToken","inputs":[{"name":"token","type":"address","internalType":"address"}],"outputs":[{"name":"priceFeed","type":"address","internalType":"address"}],"stateMutability":"view"},{"type":"function","name":"renounceRole","inputs":[{"name":"role","type":"bytes32","internalType":"bytes32"},{"name":"callerConfirmation","type":"address","internalType":"address"}],"outputs":[],"stateMutability":"nonpayable"},{"type":"function","name":"revokeRole","inputs":[{"name":"role","type":"bytes32","internalType":"bytes32"},{"name":"account","type":"address","internalType":"address"}],"outputs":[],"stateMutability":"nonpayable"},{"type":"function","name":"setAdaptersDeployPath","inputs":[{"name":"adaptersDeployPath_","type":"address[]","internalType":"address[]"}],"outputs":[],"stateMutability":"nonpayable"},{"type":"function","name":"setAdaptersWithdrawPath","inputs":[{"name":"adaptersWithdrawPath_","type":"address[]","internalType":"address[]"}],"outputs":[],"stateMutability":"nonpayable"},{"type":"function","name":"setLiquidTokenAddress","inputs":[{"name":"liquidTokenAddress_","type":"address","internalType":"address"}],"outputs":[],"stateMutability":"nonpayable"},{"type":"function","name":"setPriceFeedPerToken","inputs":[{"name":"token_","type":"address","internalType":"address"},{"name":"feed_","type":"address","internalType":"address"}],"outputs":[],"stateMutability":"nonpayable"},{"type":"function","name":"setStrategyName","inputs":[{"name":"strategyName_","type":"string","internalType":"string"}],"outputs":[],"stateMutability":"nonpayable"},{"type":"function","name":"setVaultAddress","inputs":[{"name":"vaultAddress_","type":"address","internalType":"address"}],"outputs":[],"stateMutability":"nonpayable"},{"type":"function","name":"setWithdrawStrategyAddress","inputs":[{"name":"withdrawStrategyAddress_","type":"address","internalType":"address"}],"outputs":[],"stateMutability":"nonpayable"},{"type":"function","name":"setWrappedLiquidTokenAddress","inputs":[{"name":"wrappedLiquidTokenAddress_","type":"address","internalType":"address"}],"outputs":[],"stateMutability":"nonpayable"},{"type":"function","name":"strategyName","inputs":[],"outputs":[{"name":"","type":"string","internalType":"string"}],"stateMutability":"view"},{"type":"function","name":"supportsInterface","inputs":[{"name":"interfaceId","type":"bytes4","internalType":"bytes4"}],"outputs":[{"name":"","type":"bool","internalType":"bool"}],"stateMutability":"view"},{"type":"function","name":"swapPath","inputs":[],"outputs":[{"name":"","type":"bytes","internalType":"bytes"}],"stateMutability":"view"},{"type":"function","name":"unpause","inputs":[],"outputs":[],"stateMutability":"nonpayable"},{"type":"function","name":"unwrapToken","inputs":[{"name":"amount_","type":"uint256","internalType":"uint256"}],"outputs":[{"name":"","type":"uint256","internalType":"uint256"}],"stateMutability":"nonpayable"},{"type":"function","name":"updateDeployedAssetVaule","inputs":[{"name":"source_","type":"uint8","internalType":"uint8"}],"outputs":[{"name":"","type":"uint256","internalType":"uint256"}],"stateMutability":"nonpayable"},{"type":"function","name":"vaultAddress","inputs":[],"outputs":[{"name":"","type":"address","internalType":"address"}],"stateMutability":"view"},{"type":"function","name":"withdrawStrategyAddress","inputs":[],"outputs":[{"name":"","type":"address","internalType":"address"}],"stateMutability":"view"},{"type":"function","name":"wrapToken","inputs":[{"name":"amount_","type":"uint256","internalType":"uint256"}],"outputs":[{"name":"","type":"uint256","internalType":"uint256"}],"stateMutability":"nonpayable"},{"type":"function","name":"wrappedLiquidTokenAddress","inputs":[],"outputs":[{"name":"","type":"address","internalType":"address"}],"stateMutability":"view"},{"type":"event","name":"AdaptersDeployPathSet","inputs":[{"name":"newDeployPath","type":"address[]","indexed":false,"internalType":"address[]"}],"anonymous":false},{"type":"event","name":"AdaptersWithdrawPathSet","inputs":[{"name":"newWithdrawPath","type":"address[]","indexed":false,"internalType":"address[]"}],"anonymous":false},{"type":"event","name":"DeployedAssetsValueUpdated","inputs":[{"name":"liquidTokenAddress","type":"address","indexed":false,"internalType":"address"},{"name":"deployedAssetsValueETH","type":"uint256","indexed":false,"internalType":"uint256"},{"name":"strategyContract","type":"address","indexed":false,"internalType":"address"}],"anonymous":false},{"type":"event","name":"DeploymentStrategyExecuted","inputs":[{"name":"assets","type":"address","indexed":true,"internalType":"address"},{"name":"assetsAmount","type":"uint256","indexed":false,"internalType":"uint256"},{"name":"liquidToken","type":"address","indexed":true,"internalType":"address"},{"name":"liquidTokenAmount","type":"uint256","indexed":false,"internalType":"uint256"}],"anonymous":false},{"type":"event","name":"Initialized","inputs":[{"name":"version","type":"uint64","indexed":false,"internalType":"uint64"}],"anonymous":false},{"type":"event","name":"LiquidTokenSet","inputs":[{"name":"","type":"address","indexed":true,"internalType":"address"}],"anonymous":false},{"type":"event","name":"PathUpdated","inputs":[{"name":"path","type":"bytes","indexed":false,"internalType":"bytes"}],"anonymous":false},{"type":"event","name":"Paused","inputs":[{"name":"account","type":"address","indexed":false,"internalType":"address"}],"anonymous":false},{"type":"event","name":"PriceFeedSet","inputs":[{"name":"token","type":"address","indexed":false,"internalType":"address"},{"name":"priceFeed","type":"address","indexed":false,"internalType":"address"}],"anonymous":false},{"type":"event","name":"RoleAdminChanged","inputs":[{"name":"role","type":"bytes32","indexed":true,"internalType":"bytes32"},{"name":"previousAdminRole","type":"bytes32","indexed":true,"internalType":"bytes32"},{"name":"newAdminRole","type":"bytes32","indexed":true,"internalType":"bytes32"}],"anonymous":false},{"type":"event","name":"RoleGranted","inputs":[{"name":"role","type":"bytes32","indexed":true,"internalType":"bytes32"},{"name":"account","type":"address","indexed":true,"internalType":"address"},{"name":"sender","type":"address","indexed":true,"internalType":"address"}],"anonymous":false},{"type":"event","name":"RoleRevoked","inputs":[{"name":"role","type":"bytes32","indexed":true,"internalType":"bytes32"},{"name":"account","type":"address","indexed":true,"internalType":"address"},{"name":"sender","type":"address","indexed":true,"internalType":"address"}],"anonymous":false},{"type":"event","name":"StrategyNameSet","inputs":[{"name":"name","type":"string","indexed":false,"internalType":"string"}],"anonymous":false},{"type":"event","name":"TokenWrapperSet","inputs":[{"name":"","type":"address","indexed":true,"internalType":"address"}],"anonymous":false},{"type":"event","name":"Unpaused","inputs":[{"name":"account","type":"address","indexed":false,"internalType":"address"}],"anonymous":false},{"type":"event","name":"UnwrappedAmount","inputs":[{"name":"wrappedLiquidTokenAddress","type":"address","indexed":false,"internalType":"address"},{"name":"wrappedAmount","type":"uint256","indexed":false,"internalType":"uint256"},{"name":"liquidTokenAddress","type":"address","indexed":false,"internalType":"address"},{"name":"unwrappedAmount","type":"uint256","indexed":false,"internalType":"uint256"}],"anonymous":false},{"type":"event","name":"VaultAddressSet","inputs":[{"name":"vaultAddress","type":"address","indexed":true,"internalType":"address"}],"anonymous":false},{"type":"event","name":"WithdrawStrategyAddressSet","inputs":[{"name":"strategyAddress","type":"address","indexed":true,"internalType":"address"}],"anonymous":false},{"type":"event","name":"WithdrawStrategyExecuted","inputs":[{"name":"receiver","type":"address","indexed":false,"internalType":"address"},{"name":"asset","type":"address","indexed":false,"internalType":"address"},{"name":"assetsAmount","type":"uint256","indexed":false,"internalType":"uint256"}],"anonymous":false},{"type":"event","name":"WrappedAmount","inputs":[{"name":"liquidTokenAddress","type":"address","indexed":false,"internalType":"address"},{"name":"unwrappedAmount","type":"uint256","indexed":false,"internalType":"uint256"},{"name":"wrappedLiquidTokenAddress","type":"address","indexed":false,"internalType":"address"},{"name":"wrappedAmount","type":"uint256","indexed":false,"internalType":"uint256"}],"anonymous":false},{"type":"error","name":"AccessControlBadConfirmation","inputs":[]},{"type":"error","name":"AccessControlUnauthorizedAccount","inputs":[{"name":"account","type":"address","internalType":"address"},{"name":"neededRole","type":"bytes32","internalType":"bytes32"}]},{"type":"error","name":"EmptyString","inputs":[{"name":"target","type":"string","internalType":"string"}]},{"type":"error","name":"EnforcedPause","inputs":[]},{"type":"error","name":"ErrorStep","inputs":[{"name":"index","type":"uint256","internalType":"uint256"}]},{"type":"error","name":"ExecuteWithdrawWStrategyError","inputs":[]},{"type":"error","name":"ExpectedPause","inputs":[]},{"type":"error","name":"InsufficientFundsToWithdraw","inputs":[{"name":"balance","type":"uint256","internalType":"uint256"},{"name":"needed","type":"uint256","internalType":"uint256"}]},{"type":"error","name":"InvalidAdaptersPath","inputs":[{"name":"target","type":"string","internalType":"string"}]},{"type":"error","name":"InvalidInitialization","inputs":[]},{"type":"error","name":"MalformedPath","inputs":[]},{"type":"error","name":"MinTwoTokensNeeded","inputs":[]},{"type":"error","name":"NotInitializing","inputs":[]},{"type":"error","name":"ReentrancyGuardReentrantCall","inputs":[]},{"type":"error","name":"StrategyWrapError","inputs":[{"name":"tokenWrapperAddress","type":"address","internalType":"address"},{"name":"amountInMaximum","type":"uint256","internalType":"uint256"},{"name":"wrap","type":"bool","internalType":"bool"}]},{"type":"error","name":"ZeroAddress","inputs":[{"name":"target","type":"string","internalType":"string"}]},{"type":"error","name":"ZeroAmount","inputs":[{"name":"target","type":"string","internalType":"string"}]}],"bytecode":{"object":"0x608060405234801561001057600080fd5b506133ec806100206000396000f3fe6080604052600436106102605760003560e01c8063754ae09c11610144578063b3967113116100b6578063e173ad251161007a578063e173ad2514610778578063e2868d331461078d578063ea9853d0146107a2578063eb0a7fd0146107c2578063ed79f712146107e2578063edd4604c1461031157600080fd5b8063b3967113146106cd578063b89f319d14610703578063d547741f14610723578063ddd0638c14610743578063df5af13f1461076357600080fd5b806391d148541161010857806391d1485414610623578063940997f714610643578063a016b2cd14610663578063a217fddf14610683578063a4d1e2ca14610698578063a78a0158146106b857600080fd5b8063754ae09c1461056b5780637e531a391461058b5780637f4879aa146105d85780638456cb59146105ee57806385535cc51461060357600080fd5b806336568abe116101dd5780635c786892116101a15780635c786892146104a45780635c975abb146104c45780635e5a24a4146104e95780636371d6bb1461050b578063642024e41461052b57806372cfcaad1461054b57600080fd5b806336568abe146103f05780633f4ba83a14610410578063429e6e0f14610425578063430bf08a146104455780634a28ff241461046557600080fd5b80631f696df8116102245780631f696df814610338578063248a9ca314610370578063254c72a2146103905780632f2ff15d146103b057806333dc7f07146103d057600080fd5b806301ffc9a71461026c5780630690416a146102a15780630a69ba4d146102c35780630fed40b0146102f15780631ac5d67d1461031157600080fd5b3661026757005b600080fd5b34801561027857600080fd5b5061028c6102873660046128a0565b6107f7565b60405190151581526020015b60405180910390f35b3480156102ad57600080fd5b506102c16102bc3660046128e6565b61082e565b005b3480156102cf57600080fd5b506102e36102de366004612919565b6108c5565b604051908152602001610298565b3480156102fd57600080fd5b506102c161030c366004612a7a565b610ad5565b34801561031d57600080fd5b50610326600181565b60405160ff9091168152602001610298565b34801561034457600080fd5b50610358610353366004612b2e565b610d17565b6040516001600160a01b039091168152602001610298565b34801561037c57600080fd5b506102e361038b366004612b2e565b610d41565b34801561039c57600080fd5b506102c16103ab3660046128e6565b610d63565b3480156103bc57600080fd5b506102c16103cb366004612b47565b610e04565b3480156103dc57600080fd5b50600254610358906001600160a01b031681565b3480156103fc57600080fd5b506102c161040b366004612b47565b610e26565b34801561041c57600080fd5b506102c1610e5e565b34801561043157600080fd5b50600354610358906001600160a01b031681565b34801561045157600080fd5b50600454610358906001600160a01b031681565b34801561047157600080fd5b50610485610480366004612b77565b610e74565b604080516001600160a01b039093168352602083019190915201610298565b3480156104b057600080fd5b506102c16104bf366004612bb8565b610f9c565b3480156104d057600080fd5b506000805160206133978339815191525460ff1661028c565b3480156104f557600080fd5b506102e360008051602061335783398151915281565b34801561051757600080fd5b506102e3610526366004612b2e565b610fb6565b34801561053757600080fd5b50610485610546366004612bed565b6111ab565b34801561055757600080fd5b506102e3610566366004612c3e565b61135b565b34801561057757600080fd5b506102c1610586366004612bb8565b6114da565b34801561059757600080fd5b506105cb60405180604001604052806014815260200173119d5b98dd1a5bdb881b9bdd08185b1b1bddd95960621b81525081565b6040516102989190612c9f565b3480156105e457600080fd5b506102e360055481565b3480156105fa57600080fd5b506102c16114f0565b34801561060f57600080fd5b506102c161061e3660046128e6565b611503565b34801561062f57600080fd5b5061028c61063e366004612b47565b611594565b34801561064f57600080fd5b506102e361065e366004612b2e565b6115cc565b34801561066f57600080fd5b506102c161067e366004612cb2565b6117b1565b34801561068f57600080fd5b506102e3600081565b3480156106a457600080fd5b506103586106b3366004612b2e565b611866565b3480156106c457600080fd5b50610485611876565b3480156106d957600080fd5b506103586106e83660046128e6565b6008602052600090815260409020546001600160a01b031681565b34801561070f57600080fd5b50600154610358906001600160a01b031681565b34801561072f57600080fd5b506102c161073e366004612b47565b6118bf565b34801561074f57600080fd5b506102c161075e366004612cf4565b6118db565b34801561076f57600080fd5b506105cb611b0b565b34801561078457600080fd5b506105cb611b99565b34801561079957600080fd5b506102e3611ba6565b3480156107ae57600080fd5b506102c16107bd3660046128e6565b611bb6565b3480156107ce57600080fd5b506102c16107dd366004612dc1565b611c57565b3480156107ee57600080fd5b50610358611d55565b60006001600160e01b03198216637965db0b60e01b148061082857506301ffc9a760e01b6001600160e01b03198316145b92915050565b600061083981611d5f565b61086e82604051806040016040528060138152602001726c6971756964546f6b656e416464726573735f60681b815250611d69565b6040516001600160a01b038316907f4245d51ab06b77fea049f6e1eab0e31b343fc4c1e9fe7774373362c37eb2034490600090a250600180546001600160a01b0319166001600160a01b0392909216919091179055565b6001546000906001600160a01b03848116911614806108f157506002546001600160a01b038481169116145b6109425760405162461bcd60e51b815260206004820152601760248201527f496e76616c696420746f6b656e2072657175657374656400000000000000000060448201526064015b60405180910390fd5b8160ff166001148061095757508160ff166002145b6109a35760405162461bcd60e51b815260206004820152601b60248201527f496e76616c696420736f7572636520746f2067657420707269636500000000006044820152606401610939565b6001600160a01b03808416600090815260086020526040812054909116908115610a39576000826001600160a01b031663feaf968c6040518163ffffffff1660e01b815260040160a060405180830381865afa158015610a07573d6000803e3d6000fd5b505050506040513d601f19601f82011682018060405250810190610a2b9190612e09565b50919450610acd9350505050565b60008460ff16600214610a5357610a4e611d92565b610a5b565b610a5b611dd0565b604051630681320d60e51b81526001600160a01b0388811660048301529192509082169063d02641a090602401602060405180830381865afa158015610aa5573d6000803e3d6000fd5b505050506040513d601f19601f82011682018060405250810190610ac99190612e59565b9150505b949350505050565b7ff0c57e16840df040f15088dc2f81fe391c3923bec73e23a9662efc9c229c6a008054600160401b810460ff16159067ffffffffffffffff16600081158015610b1b5750825b905060008267ffffffffffffffff166001148015610b385750303b155b905081158015610b46575080155b15610b645760405163f92ee8a960e01b815260040160405180910390fd5b845467ffffffffffffffff191660011785558315610b8e57845460ff60401b1916600160401b1785555b610bbd8b6040518060400160405280600d81526020016c7661756c74416464726573735f60981b815250611d69565b610bf28a604051806040016040528060138152602001726c6971756964546f6b656e416464726573735f60681b815250611d69565b610c5687878080601f0160208091040260200160405190810160405280939291908181526020018383808284376000920191909152505060408051808201909152600d81526c73747261746567794e616d655f60981b60208201529150611de69050565b610c5e611e0a565b610c69600033611e14565b50610c75896001611eb9565b610c80886001611fee565b600480546001600160a01b0319166001600160a01b038d161790556000610ca8878983612ef6565b50600180546001600160a01b0319166001600160a01b038c161790558315610d0a57845460ff60401b19168555604051600181527fc7f505b2f371ae2175ee4913f4499e1f2633a7b5936321eed1cdaeb6115181d29060200160405180910390a15b5050505050505050505050565b60068181548110610d2757600080fd5b6000918252602090912001546001600160a01b0316905081565b6000908152600080516020613377833981519152602052604090206001015490565b6000610d6e81611d5f565b610dad826040518060400160405280601a81526020017f777261707065644c6971756964546f6b656e416464726573735f000000000000815250611d69565b6040516001600160a01b038316907fce01361fe7ff662213b751c96882886f856789c4049c51e47af22049de7976b890600090a250600280546001600160a01b0319166001600160a01b0392909216919091179055565b610e0d82610d41565b610e1681611d5f565b610e208383611e14565b50505050565b6001600160a01b0381163314610e4f5760405163334bd91960e11b815260040160405180910390fd5b610e59828261212d565b505050565b6000610e6981611d5f565b610e716121a9565b50565b600080600080516020613357833981519152610e8f81611d5f565b610eba866040518060400160405280600981526020016872656365697665725f60b81b815250611d69565b610ee2856040518060400160405280600681526020016561737365745f60d01b815250611d69565b610f11846040518060400160405280600d81526020016c617373657473416d6f756e745f60981b815250612209565b600080610f1f88888861222c565b9150915080600003610f4457604051637efa1e0f60e11b815260040160405180910390fd5b604080516001600160a01b03808b168252841660208201529081018290527ff69538dab01a66f366bf2dbbe6bea4efee94973f6d5d8d70d19dab18c1b3e8b19060600160405180910390a19097909650945050505050565b6000610fa781611d5f565b610fb2826001611fee565b5050565b6000600080516020613357833981519152610fd081611d5f565b6002546001600160a01b031661101d5760405162461bcd60e51b81526020600482015260126024820152712737903232b334b732b2103bb930b83832b960711b6044820152606401610939565b60015460025460405163095ea7b360e01b81526001600160a01b0391821660048201526024810186905291169063095ea7b3906044016020604051808303816000875af1158015611072573d6000803e3d6000fd5b505050506040513d601f19601f820116820180604052508101906110969190612fb7565b50600254604051630ea598cb60e41b8152600481018590526000916001600160a01b03169063ea598cb0906024016020604051808303816000875af11580156110e3573d6000803e3d6000fd5b505050506040513d601f19601f820116820180604052508101906111079190612e59565b905080600003611147576002546040516333ece22360e21b81526001600160a01b0390911660048201526024810185905260016044820152606401610939565b600154600254604080516001600160a01b039384168152602081018890529290911690820152606081018290527fda542a6430bf8482eb425b35bad6701f112540783af4af76389552a2d8902e59906080015b60405180910390a191505b50919050565b6000806000805160206133578339815191526111c681611d5f565b6111ef876040518060400160405280600781526020016673656e6465725f60c81b815250611d69565b61121a866040518060400160405280600981526020016872656365697665725f60b81b815250611d69565b611242856040518060400160405280600681526020016561737365745f60d01b815250611d69565b611271846040518060400160405280600d81526020016c617373657473416d6f756e745f60981b815250612209565b6001600061127d612699565b9050600080611291838c8c8c8c60006126af565b91509150806000036112b957604051630eeb421160e21b815260048101859052602401610939565b8015806112d457506001546001600160a01b03838116911614155b156112f557604051630eeb421160e21b815260048101859052602401610939565b816001600160a01b0316896001600160a01b03167f59b7a96ada3a44d05c501ea0e559b7033ce7bd281bf88b061ceb5b29ad4a9fa28a84604051611343929190918252602082015260400190565b60405180910390a3909a909950975050505050505050565b600060008051602061335783398151915261137581611d5f565b8260ff166001148061138a57508260ff166002145b6113d65760405162461bcd60e51b815260206004820152601b60248201527f496e76616c696420736f7572636520746f2067657420707269636500000000006044820152606401610939565b6001546000906113f0906001600160a01b031660026108c5565b6001546040516370a0823160e01b8152306004820152919250670de0b6b3a76400009183916001600160a01b0316906370a0823190602401602060405180830381865afa158015611445573d6000803e3d6000fd5b505050506040513d601f19601f820116820180604052508101906114699190612e59565b6114739190612fef565b61147d9190613006565b6005819055600154604080516001600160a01b0390921682526020820192909252308183015290517f662f619155fcceea17128ce9cf93a4df288a2427524b2eabdf40a5013d9e94f99181900360600190a1505060055492915050565b60006114e581611d5f565b610fb2826001611eb9565b60006114fb81611d5f565b610e71612742565b600061150e81611d5f565b61153d826040518060400160405280600d81526020016c7661756c74416464726573735f60981b815250611d69565b6040516001600160a01b038316907f5c06d966572db101b61cacf1a095f31609e34873f11016fc5cb333651e969f6790600090a250600480546001600160a01b0319166001600160a01b0392909216919091179055565b6000918252600080516020613377833981519152602090815260408084206001600160a01b0393909316845291905290205460ff1690565b60006000805160206133578339815191526115e681611d5f565b6002546001600160a01b03166116335760405162461bcd60e51b81526020600482015260126024820152712737903232b334b732b2103bb930b83832b960711b6044820152606401610939565b60025460405163095ea7b360e01b81526001600160a01b0390911660048201819052602482018590529063095ea7b3906044016020604051808303816000875af1158015611685573d6000803e3d6000fd5b505050506040513d601f19601f820116820180604052508101906116a99190612fb7565b50600254604051636f074d1f60e11b8152600481018590526000916001600160a01b03169063de0e9a3e906024016020604051808303816000875af11580156116f6573d6000803e3d6000fd5b505050506040513d601f19601f8201168201806040525081019061171a9190612e59565b90508060000361175a576002546040516333ece22360e21b81526001600160a01b0390911660048201526024810185905260006044820152606401610939565b600254600154604080516001600160a01b039384168152602081018890529290911690820152606081018290527f7687e177cae37c3bc6b45449595322baa1bcb203db50ebab44854268528e8c319060800161119a565b60006117bc81611d5f565b61182083838080601f0160208091040260200160405190810160405280939291908181526020018383808284376000920191909152505060408051808201909152600d81526c73747261746567794e616d655f60981b60208201529150611de69050565b7f21ce9ce25f0f85766c680deb376fbea42cd6d6911f217c0d89f14c439b84fcfd8383604051611851929190613028565b60405180910390a16000610e20838583612ef6565b60078181548110610d2757600080fd5b60008060405180604001604052806014815260200173119d5b98dd1a5bdb881b9bdd08185b1b1bddd95960621b81525060405162461bcd60e51b81526004016109399190612c9f565b6118c882610d41565b6118d181611d5f565b610e20838361212d565b60006118e681611d5f565b82518251600282101561190c57604051630468e0af60e41b815260040160405180910390fd5b611917816001613057565b821461193657604051630d6c3bc160e41b815260040160405180910390fd5b60005b8281101561198b576119838682815181106119565761195661306a565b602002602001015160405180604001604052806007815260200166746f6b656e735f60c81b815250611d69565b600101611939565b5060005b818110156119e4576119dc8582815181106119ac576119ac61306a565b602002602001015162ffffff1660405180604001604052806005815260200164666565735f60d81b815250612209565b60010161198f565b50846000815181106119f8576119f861306a565b6020026020010151604051602001611a28919060609190911b6bffffffffffffffffffffffff1916815260140190565b60405160208183030381529060405260099081611a459190613080565b5060005b81811015611acb576009858281518110611a6557611a6561306a565b602002602001015187836001611a7b9190613057565b81518110611a8b57611a8b61306a565b6020026020010151604051602001611aa593929190613140565b60405160208183030381529060405260099081611ac29190613080565b50600101611a49565b507fa0ddd263f8966deaa9209d36ecf63770a4baf7f627d164775a94f808930cd0486009604051611afc919061325e565b60405180910390a15050505050565b60098054611b1890612e72565b80601f0160208091040260200160405190810160405280929190818152602001828054611b4490612e72565b8015611b915780601f10611b6657610100808354040283529160200191611b91565b820191906000526020600020905b815481529060010190602001808311611b7457829003601f168201915b505050505081565b60008054611b1890612e72565b6000611bb160055490565b905090565b6000611bc181611d5f565b611c00826040518060400160405280601881526020017f77697468647261775374726174656779416464726573735f0000000000000000815250611d69565b6040516001600160a01b038316907f28548fb82baba9340b788ecc4911d241c9508404c350e6964e447fbf8d62c12890600090a250600380546001600160a01b0319166001600160a01b0392909216919091179055565b6000611c6281611d5f565b6001546001600160a01b0384811691161480611c8b57506002546001600160a01b038481169116145b8015611c9f57506001600160a01b03831615155b611ce35760405162461bcd60e51b8152602060048201526015602482015274125b9d985b1a59081d1bdad95b88195b9d195c9959605a1b6044820152606401610939565b604080516001600160a01b038086168252841660208201527fd2d8394cf7549a5ddbc2ba3dd7b2de8d53c891472d1f2907008ed6a10045fdae910160405180910390a1506001600160a01b03918216600090815260086020526040902080546001600160a01b03191691909216179055565b6000611bb1612699565b610e71813361278b565b6001600160a01b038216610fb2578060405163eac0d38960e01b81526004016109399190612c9f565b6006805460009190611da690600190613271565b81548110611db657611db661306a565b6000918252602090912001546001600160a01b0316919050565b60006007600081548110611db657611db661306a565b6000825111610fb257806040516318a996bb60e21b81526004016109399190612c9f565b611e126127c4565b565b6000600080516020613377833981519152611e2f8484611594565b611eaf576000848152602082815260408083206001600160a01b03871684529091529020805460ff19166001179055611e653390565b6001600160a01b0316836001600160a01b0316857f2f8788117e7eff1d82e926ec794901d17c78024a50270940304540a733656f0d60405160405180910390a46001915050610828565b6000915050610828565b815160ff82168114611ef75760405163cb97bcb160e01b81526020600482015260066024820152656465706c6f7960d01b6044820152606401610939565b611f036006600061286e565b7f7e68ba9b3bbcc418714dcc03de2c047ccdb19978700780676f593eb95af7f68083604051611f329190613284565b60405180910390a160005b81811015610e2057611f95848281518110611f5a57611f5a61306a565b60200260200101516040518060400160405280601581526020017461646170746572734465706c6f79506174685f5b5d60581b815250611d69565b6006848281518110611fa957611fa961306a565b60209081029190910181015182546001808201855560009485529290932090920180546001600160a01b0319166001600160a01b039093169290921790915501611f3d565b815160ff8216811461202e5760405163cb97bcb160e01b8152602060048201526008602482015267776974686472617760c01b6044820152606401610939565b61203a6007600061286e565b7fdb2c7c26f26f22897028e2e018c1967eef4170d6a2c476a373823d8639da73ec836040516120699190613284565b60405180910390a160005b81811015610e20576120d48482815181106120915761209161306a565b60200260200101516040518060400160405280601781526020017f61646170746572735769746864726177506174685f5b5d000000000000000000815250611d69565b60078482815181106120e8576120e861306a565b60209081029190910181015182546001808201855560009485529290932090920180546001600160a01b0319166001600160a01b039093169290921790915501612074565b60006000805160206133778339815191526121488484611594565b15611eaf576000848152602082815260408083206001600160a01b0387168085529252808320805460ff1916905551339287917ff6391f5c32d9c69d2a47ea670b442974b53935d1edc7fd64eb21e047a839171b9190a46001915050610828565b6121b161280d565b600080516020613397833981519152805460ff191681557f5db9ee0a495bf2e6ff9c91a7834c1ba4fdd244a5e8aa4e537bd38aeae4b073aa335b6040516001600160a01b03909116815260200160405180910390a150565b81600003610fb257806040516303b3e63560e41b81526004016109399190612c9f565b600254600090819081906001600160a01b0316612254576001546001600160a01b0316612261565b6002546001600160a01b03165b905060006122708260026108c5565b90506000670de0b6b3a7640000612285611dd0565b6001600160a01b031663fc9cee3c6040518163ffffffff1660e01b8152600401602060405180830381865afa1580156122c2573d6000803e3d6000fd5b505050506040513d601f19601f820116820180604052508101906122e69190612e59565b6122f890670de0b6b3a7640000613057565b8361230b89670de0b6b3a7640000612fef565b6123159190613006565b61231f9190612fef565b6123299190613006565b6002549091506000906001600160a01b03908116908516036124405760015460009061235f906001600160a01b031660026108c5565b6123698486612fef565b6123739190613006565b6001546040516370a0823160e01b81523060048201529192506001600160a01b0316906370a0823190602401602060405180830381865afa1580156123bc573d6000803e3d6000fd5b505050506040513d601f19601f820116820180604052508101906123e09190612e59565b81111561242f5760405162461bcd60e51b815260206004820152601960248201527f4e6f7420656e6f75676820746f6b656e7320746f2077726170000000000000006044820152606401610939565b61243881610fb6565b915050612443565b50805b6001546040516370a0823160e01b81523060048201526000916001600160a01b0316906370a0823190602401602060405180830381865afa15801561248c573d6000803e3d6000fd5b505050506040513d601f19601f820116820180604052508101906124b09190612e59565b9050808211156124dd5760405163682324e760e11b81526004810182905260248101839052604401610939565b846001600160a01b031663095ea7b36124f4611dd0565b6040516001600160e01b031960e084901b1681526001600160a01b039091166004820152602481018590526044016020604051808303816000875af1158015612541573d6000803e3d6000fd5b505050506040513d601f19601f820116820180604052508101906125659190612fb7565b50600080612571611dd0565b6001600160a01b0316636a39fe60308e8e8e8c8a60096040518863ffffffff1660e01b81526004016125a997969594939291906132d1565b60408051808303816000875af11580156125c7573d6000803e3d6000fd5b505050506040513d601f19601f820116820180604052508101906125eb9190613328565b60025491935091506001600160a01b0390811690881603612688576002546040516370a0823160e01b81523060048201526000916001600160a01b0316906370a0823190602401602060405180830381865afa15801561264f573d6000803e3d6000fd5b505050506040513d601f19601f820116820180604052508101906126739190612e59565b9050801561268657612684816115cc565b505b505b909b909a5098505050505050505050565b60006006600081548110611db657611db661306a565b604051635354c2b160e01b81526001600160a01b038681166004830152858116602483015284811660448301526064820184905282151560848301526000918291829182918b1690635354c2b19060a40160408051808303816000875af115801561271e573d6000803e3d6000fd5b505050506040513d601f19601f820116820180604052508101906126889190613328565b61274a61283d565b600080516020613397833981519152805460ff191660011781557f62e78cea01bee320cd4e420270b5ea74000d11b0c9f74754ebdbfc544b05a258336121eb565b6127958282611594565b610fb25760405163e2517d3f60e01b81526001600160a01b038216600482015260248101839052604401610939565b7ff0c57e16840df040f15088dc2f81fe391c3923bec73e23a9662efc9c229c6a0054600160401b900460ff16611e1257604051631afcd79f60e31b815260040160405180910390fd5b6000805160206133978339815191525460ff16611e1257604051638dfc202b60e01b815260040160405180910390fd5b6000805160206133978339815191525460ff1615611e125760405163d93c066560e01b815260040160405180910390fd5b5080546000825590600052602060002090810190610e7191905b8082111561289c5760008155600101612888565b5090565b6000602082840312156128b257600080fd5b81356001600160e01b0319811681146128ca57600080fd5b9392505050565b6001600160a01b0381168114610e7157600080fd5b6000602082840312156128f857600080fd5b81356128ca816128d1565b803560ff8116811461291457600080fd5b919050565b6000806040838503121561292c57600080fd5b8235612937816128d1565b915061294560208401612903565b90509250929050565b634e487b7160e01b600052604160045260246000fd5b604051601f8201601f1916810167ffffffffffffffff8111828210171561298d5761298d61294e565b604052919050565b600067ffffffffffffffff8211156129af576129af61294e565b5060051b60200190565b600082601f8301126129ca57600080fd5b813560206129df6129da83612995565b612964565b8083825260208201915060208460051b870101935086841115612a0157600080fd5b602086015b84811015612a26578035612a19816128d1565b8352918301918301612a06565b509695505050505050565b60008083601f840112612a4357600080fd5b50813567ffffffffffffffff811115612a5b57600080fd5b602083019150836020828501011115612a7357600080fd5b9250929050565b60008060008060008060a08789031215612a9357600080fd5b8635612a9e816128d1565b95506020870135612aae816128d1565b9450604087013567ffffffffffffffff80821115612acb57600080fd5b612ad78a838b016129b9565b95506060890135915080821115612aed57600080fd5b612af98a838b016129b9565b94506080890135915080821115612b0f57600080fd5b50612b1c89828a01612a31565b979a9699509497509295939492505050565b600060208284031215612b4057600080fd5b5035919050565b60008060408385031215612b5a57600080fd5b823591506020830135612b6c816128d1565b809150509250929050565b600080600060608486031215612b8c57600080fd5b8335612b97816128d1565b92506020840135612ba7816128d1565b929592945050506040919091013590565b600060208284031215612bca57600080fd5b813567ffffffffffffffff811115612be157600080fd5b610acd848285016129b9565b60008060008060808587031215612c0357600080fd5b8435612c0e816128d1565b93506020850135612c1e816128d1565b92506040850135612c2e816128d1565b9396929550929360600135925050565b600060208284031215612c5057600080fd5b6128ca82612903565b6000815180845260005b81811015612c7f57602081850181015186830182015201612c63565b506000602082860101526020601f19601f83011685010191505092915050565b6020815260006128ca6020830184612c59565b60008060208385031215612cc557600080fd5b823567ffffffffffffffff811115612cdc57600080fd5b612ce885828601612a31565b90969095509350505050565b60008060408385031215612d0757600080fd5b823567ffffffffffffffff80821115612d1f57600080fd5b612d2b868387016129b9565b9350602091508185013581811115612d4257600080fd5b85019050601f81018613612d5557600080fd5b8035612d636129da82612995565b81815260059190911b82018301908381019088831115612d8257600080fd5b928401925b82841015612db257833562ffffff81168114612da35760008081fd5b82529284019290840190612d87565b80955050505050509250929050565b60008060408385031215612dd457600080fd5b8235612ddf816128d1565b91506020830135612b6c816128d1565b805169ffffffffffffffffffff8116811461291457600080fd5b600080600080600060a08688031215612e2157600080fd5b612e2a86612def565b9450602086015193506040860151925060608601519150612e4d60808701612def565b90509295509295909350565b600060208284031215612e6b57600080fd5b5051919050565b600181811c90821680612e8657607f821691505b6020821081036111a557634e487b7160e01b600052602260045260246000fd5b601f821115610e59576000816000526020600020601f850160051c81016020861015612ecf5750805b601f850160051c820191505b81811015612eee57828155600101612edb565b505050505050565b67ffffffffffffffff831115612f0e57612f0e61294e565b612f2283612f1c8354612e72565b83612ea6565b6000601f841160018114612f565760008515612f3e5750838201355b600019600387901b1c1916600186901b178355612fb0565b600083815260209020601f19861690835b82811015612f875786850135825560209485019460019092019101612f67565b5086821015612fa45760001960f88860031b161c19848701351681555b505060018560011b0183555b5050505050565b600060208284031215612fc957600080fd5b815180151581146128ca57600080fd5b634e487b7160e01b600052601160045260246000fd5b808202811582820484141761082857610828612fd9565b60008261302357634e487b7160e01b600052601260045260246000fd5b500490565b60208152816020820152818360408301376000818301604090810191909152601f909201601f19160101919050565b8082018082111561082857610828612fd9565b634e487b7160e01b600052603260045260246000fd5b815167ffffffffffffffff81111561309a5761309a61294e565b6130ae816130a88454612e72565b84612ea6565b602080601f8311600181146130e357600084156130cb5750858301515b600019600386901b1c1916600185901b178555612eee565b600085815260208120601f198616915b82811015613112578886015182559484019460019091019084016130f3565b50858210156131305787850151600019600388901b60f8161c191681555b5050505050600190811b01905550565b600080855461314e81612e72565b60018281168015613166576001811461317b576131aa565b60ff19841687528215158302870194506131aa565b8960005260208060002060005b858110156131a15781548a820152908401908201613188565b50505082870194505b5050505060e89490941b6001600160e81b0319168452505060601b6bffffffffffffffffffffffff19166003820152601701919050565b600081546131ee81612e72565b80855260206001838116801561320b576001811461322557613253565b60ff1985168884015283151560051b880183019550613253565b866000528260002060005b8581101561324b5781548a8201860152908301908401613230565b890184019650505b505050505092915050565b6020815260006128ca60208301846131e1565b8181038181111561082857610828612fd9565b6020808252825182820181905260009190848201906040850190845b818110156132c55783516001600160a01b0316835292840192918401916001016132a0565b50909695505050505050565b6001600160a01b03888116825287811660208301528681166040830152606082018690528416608082015260a0810183905260e060c0820181905260009061331b908301846131e1565b9998505050505050505050565b6000806040838503121561333b57600080fd5b8251613346816128d1565b602093909301519294929350505056fed1473398bb66596de5d1ea1fc8e303ff2ac23265adc9144b1b52065dc4f0934b02dd7bc7dec4dceedda775e58dd541e08a116c6c53815c0bd028192f7b626800cd5ed15c6e187e77e9aee88184c21f4f2182ab5827cb3b7e07fbedcd63f03300a26469706673582212205749e158242cbf8f90c5fea0dc349622b9976600eb5120ad517146b34f5a197d64736f6c63430008180033","linkReferences":{}},"methodIdentifiers":{"DEFAULT_ADMIN_ROLE()":"a217fddf","DEPLOYMENT_ADAPTERS_QTY()":"1ac5d67d","REVERT_MSG()":"7e531a39","VAULT_MANAGER_ROLE()":"5e5a24a4","WITHDRAW_ADAPTERS_QTY()":"edd4604c","adaptersDeployPath(uint256)":"1f696df8","adaptersWithdrawPath(uint256)":"a4d1e2ca","buildPath(address[],uint24[])":"ddd0638c","deployedAssetsValue()":"7f4879aa","executeDeploymentStrategy(address,address,address,uint256)":"642024e4","executeHarvest()":"a78a0158","executeWithdrawStrategy(address,address,uint256)":"4a28ff24","getDeployedAssetsValue()":"e2868d33","getFirstDepositAdapter()":"ed79f712","getRoleAdmin(bytes32)":"248a9ca3","getTokenPrice(address,uint8)":"0a69ba4d","grantRole(bytes32,address)":"2f2ff15d","hasRole(bytes32,address)":"91d14854","initialize(address,address,address[],address[],string)":"0fed40b0","liquidTokenAddress()":"b89f319d","pause()":"8456cb59","paused()":"5c975abb","priceFeedPerToken(address)":"b3967113","renounceRole(bytes32,address)":"36568abe","revokeRole(bytes32,address)":"d547741f","setAdaptersDeployPath(address[])":"754ae09c","setAdaptersWithdrawPath(address[])":"5c786892","setLiquidTokenAddress(address)":"0690416a","setPriceFeedPerToken(address,address)":"eb0a7fd0","setStrategyName(string)":"a016b2cd","setVaultAddress(address)":"85535cc5","setWithdrawStrategyAddress(address)":"ea9853d0","setWrappedLiquidTokenAddress(address)":"254c72a2","strategyName()":"e173ad25","supportsInterface(bytes4)":"01ffc9a7","swapPath()":"df5af13f","unpause()":"3f4ba83a","unwrapToken(uint256)":"940997f7","updateDeployedAssetVaule(uint8)":"72cfcaad","vaultAddress()":"430bf08a","withdrawStrategyAddress()":"429e6e0f","wrapToken(uint256)":"6371d6bb","wrappedLiquidTokenAddress()":"33dc7f07"},"id":54}