{"abi":[{"type":"receive","stateMutability":"payable"},{"type":"function","name":"DEFAULT_ADMIN_ROLE","inputs":[],"outputs":[{"name":"","type":"bytes32","internalType":"bytes32"}],"stateMutability":"view"},{"type":"function","name":"MASTER_TOKEN_ROLE","inputs":[],"outputs":[{"name":"","type":"bytes32","internalType":"bytes32"}],"stateMutability":"view"},{"type":"function","name":"REVERT_MSG","inputs":[],"outputs":[{"name":"","type":"string","internalType":"string"}],"stateMutability":"view"},{"type":"function","name":"VAULT_MANAGER_ROLE","inputs":[],"outputs":[{"name":"","type":"bytes32","internalType":"bytes32"}],"stateMutability":"view"},{"type":"function","name":"addedMethodVaultV2","inputs":[{"name":"_newValue","type":"uint256","internalType":"uint256"}],"outputs":[],"stateMutability":"nonpayable"},{"type":"function","name":"addedVariableVaultV2","inputs":[],"outputs":[{"name":"","type":"uint256","internalType":"uint256"}],"stateMutability":"view"},{"type":"function","name":"allowance","inputs":[{"name":"owner","type":"address","internalType":"address"},{"name":"spender","type":"address","internalType":"address"}],"outputs":[{"name":"","type":"uint256","internalType":"uint256"}],"stateMutability":"view"},{"type":"function","name":"approve","inputs":[{"name":"spender","type":"address","internalType":"address"},{"name":"value","type":"uint256","internalType":"uint256"}],"outputs":[{"name":"","type":"bool","internalType":"bool"}],"stateMutability":"nonpayable"},{"type":"function","name":"asset","inputs":[],"outputs":[{"name":"","type":"address","internalType":"address"}],"stateMutability":"view"},{"type":"function","name":"balanceOf","inputs":[{"name":"account","type":"address","internalType":"address"}],"outputs":[{"name":"","type":"uint256","internalType":"uint256"}],"stateMutability":"view"},{"type":"function","name":"convertToAssets","inputs":[{"name":"shares","type":"uint256","internalType":"uint256"}],"outputs":[{"name":"","type":"uint256","internalType":"uint256"}],"stateMutability":"view"},{"type":"function","name":"convertToShares","inputs":[{"name":"assets","type":"uint256","internalType":"uint256"}],"outputs":[{"name":"","type":"uint256","internalType":"uint256"}],"stateMutability":"view"},{"type":"function","name":"decimals","inputs":[],"outputs":[{"name":"","type":"uint8","internalType":"uint8"}],"stateMutability":"view"},{"type":"function","name":"deployAssets","inputs":[],"outputs":[{"name":"","type":"address","internalType":"address"},{"name":"","type":"uint256","internalType":"uint256"}],"stateMutability":"nonpayable"},{"type":"function","name":"deposit","inputs":[{"name":"assetsAmount_","type":"uint256","internalType":"uint256"},{"name":"account_","type":"address","internalType":"address"}],"outputs":[{"name":"","type":"uint256","internalType":"uint256"}],"stateMutability":"nonpayable"},{"type":"function","name":"getRoleAdmin","inputs":[{"name":"role","type":"bytes32","internalType":"bytes32"}],"outputs":[{"name":"","type":"bytes32","internalType":"bytes32"}],"stateMutability":"view"},{"type":"function","name":"getVaultValuation","inputs":[],"outputs":[{"name":"","type":"uint256","internalType":"uint256"}],"stateMutability":"view"},{"type":"function","name":"grantRole","inputs":[{"name":"role","type":"bytes32","internalType":"bytes32"},{"name":"account","type":"address","internalType":"address"}],"outputs":[],"stateMutability":"nonpayable"},{"type":"function","name":"harvest","inputs":[],"outputs":[{"name":"","type":"address","internalType":"address"},{"name":"","type":"uint256","internalType":"uint256"}],"stateMutability":"nonpayable"},{"type":"function","name":"hasRole","inputs":[{"name":"role","type":"bytes32","internalType":"bytes32"},{"name":"account","type":"address","internalType":"address"}],"outputs":[{"name":"","type":"bool","internalType":"bool"}],"stateMutability":"view"},{"type":"function","name":"initialize","inputs":[{"name":"underlyingTokenAddress_","type":"address","internalType":"address"},{"name":"masterTokenAddress_","type":"address","internalType":"address"},{"name":"vaultsRegistryAddress_","type":"address","internalType":"address"},{"name":"ownerAddress_","type":"address","internalType":"address"},{"name":"sharesName_","type":"string","internalType":"string"},{"name":"sharesSymbol_","type":"string","internalType":"string"}],"outputs":[],"stateMutability":"nonpayable"},{"type":"function","name":"liveValuationOnDeposit","inputs":[],"outputs":[{"name":"","type":"bool","internalType":"bool"}],"stateMutability":"view"},{"type":"function","name":"liveValuationOnWithdraw","inputs":[],"outputs":[{"name":"","type":"bool","internalType":"bool"}],"stateMutability":"view"},{"type":"function","name":"masterTokenAddress","inputs":[],"outputs":[{"name":"","type":"address","internalType":"address"}],"stateMutability":"view"},{"type":"function","name":"maxDeposit","inputs":[{"name":"","type":"address","internalType":"address"}],"outputs":[{"name":"","type":"uint256","internalType":"uint256"}],"stateMutability":"view"},{"type":"function","name":"maxMint","inputs":[{"name":"","type":"address","internalType":"address"}],"outputs":[{"name":"","type":"uint256","internalType":"uint256"}],"stateMutability":"view"},{"type":"function","name":"maxRedeem","inputs":[{"name":"owner","type":"address","internalType":"address"}],"outputs":[{"name":"","type":"uint256","internalType":"uint256"}],"stateMutability":"view"},{"type":"function","name":"maxWithdraw","inputs":[{"name":"owner","type":"address","internalType":"address"}],"outputs":[{"name":"","type":"uint256","internalType":"uint256"}],"stateMutability":"view"},{"type":"function","name":"mint","inputs":[{"name":"","type":"uint256","internalType":"uint256"},{"name":"","type":"address","internalType":"address"}],"outputs":[{"name":"","type":"uint256","internalType":"uint256"}],"stateMutability":"nonpayable"},{"type":"function","name":"name","inputs":[],"outputs":[{"name":"","type":"string","internalType":"string"}],"stateMutability":"view"},{"type":"function","name":"pause","inputs":[],"outputs":[],"stateMutability":"nonpayable"},{"type":"function","name":"paused","inputs":[],"outputs":[{"name":"","type":"bool","internalType":"bool"}],"stateMutability":"view"},{"type":"function","name":"pendingDepositAssets","inputs":[],"outputs":[{"name":"","type":"uint256","internalType":"uint256"}],"stateMutability":"view"},{"type":"function","name":"previewDeposit","inputs":[{"name":"assets","type":"uint256","internalType":"uint256"}],"outputs":[{"name":"","type":"uint256","internalType":"uint256"}],"stateMutability":"view"},{"type":"function","name":"previewMint","inputs":[{"name":"shares","type":"uint256","internalType":"uint256"}],"outputs":[{"name":"","type":"uint256","internalType":"uint256"}],"stateMutability":"view"},{"type":"function","name":"previewRedeem","inputs":[{"name":"shares","type":"uint256","internalType":"uint256"}],"outputs":[{"name":"","type":"uint256","internalType":"uint256"}],"stateMutability":"view"},{"type":"function","name":"previewWithdraw","inputs":[{"name":"assets","type":"uint256","internalType":"uint256"}],"outputs":[{"name":"","type":"uint256","internalType":"uint256"}],"stateMutability":"view"},{"type":"function","name":"redeem","inputs":[{"name":"sharesAmount_","type":"uint256","internalType":"uint256"},{"name":"caller_","type":"address","internalType":"address"},{"name":"account_","type":"address","internalType":"address"}],"outputs":[{"name":"","type":"uint256","internalType":"uint256"}],"stateMutability":"nonpayable"},{"type":"function","name":"renounceRole","inputs":[{"name":"role","type":"bytes32","internalType":"bytes32"},{"name":"callerConfirmation","type":"address","internalType":"address"}],"outputs":[],"stateMutability":"nonpayable"},{"type":"function","name":"revokeRole","inputs":[{"name":"role","type":"bytes32","internalType":"bytes32"},{"name":"account","type":"address","internalType":"address"}],"outputs":[],"stateMutability":"nonpayable"},{"type":"function","name":"setLiveValuation","inputs":[{"name":"status_","type":"bool","internalType":"bool"},{"name":"target_","type":"uint256","internalType":"uint256"}],"outputs":[],"stateMutability":"nonpayable"},{"type":"function","name":"setMasterTokenAddress","inputs":[{"name":"masterTokenAddress_","type":"address","internalType":"address"}],"outputs":[],"stateMutability":"nonpayable"},{"type":"function","name":"setValuationSource","inputs":[{"name":"valuationSource_","type":"uint8","internalType":"uint8"}],"outputs":[],"stateMutability":"nonpayable"},{"type":"function","name":"setVaultStrategyAddress","inputs":[{"name":"vaultStrategyAddress_","type":"address","internalType":"address"}],"outputs":[],"stateMutability":"nonpayable"},{"type":"function","name":"setVaultsRegistryAddress","inputs":[{"name":"vaultsRegistryAddress_","type":"address","internalType":"address"}],"outputs":[],"stateMutability":"nonpayable"},{"type":"function","name":"setWithdrawStrategyAddress","inputs":[{"name":"withdrawStrategyAddress_","type":"address","internalType":"address"}],"outputs":[],"stateMutability":"nonpayable"},{"type":"function","name":"supportsInterface","inputs":[{"name":"interfaceId","type":"bytes4","internalType":"bytes4"}],"outputs":[{"name":"","type":"bool","internalType":"bool"}],"stateMutability":"view"},{"type":"function","name":"symbol","inputs":[],"outputs":[{"name":"","type":"string","internalType":"string"}],"stateMutability":"view"},{"type":"function","name":"totalAssets","inputs":[],"outputs":[{"name":"","type":"uint256","internalType":"uint256"}],"stateMutability":"view"},{"type":"function","name":"totalSupply","inputs":[],"outputs":[{"name":"","type":"uint256","internalType":"uint256"}],"stateMutability":"view"},{"type":"function","name":"transfer","inputs":[{"name":"to","type":"address","internalType":"address"},{"name":"value","type":"uint256","internalType":"uint256"}],"outputs":[{"name":"","type":"bool","internalType":"bool"}],"stateMutability":"nonpayable"},{"type":"function","name":"transferFrom","inputs":[{"name":"from","type":"address","internalType":"address"},{"name":"to","type":"address","internalType":"address"},{"name":"value","type":"uint256","internalType":"uint256"}],"outputs":[{"name":"","type":"bool","internalType":"bool"}],"stateMutability":"nonpayable"},{"type":"function","name":"unpause","inputs":[],"outputs":[],"stateMutability":"nonpayable"},{"type":"function","name":"updateVaultValuation","inputs":[{"name":"priceSource_","type":"uint8","internalType":"uint8"}],"outputs":[{"name":"","type":"uint256","internalType":"uint256"}],"stateMutability":"nonpayable"},{"type":"function","name":"valuationSource","inputs":[],"outputs":[{"name":"","type":"uint8","internalType":"uint8"}],"stateMutability":"view"},{"type":"function","name":"vaultStrategyAddress","inputs":[],"outputs":[{"name":"","type":"address","internalType":"address"}],"stateMutability":"view"},{"type":"function","name":"vaultsRegistryAddress","inputs":[],"outputs":[{"name":"","type":"address","internalType":"address"}],"stateMutability":"view"},{"type":"function","name":"withdraw","inputs":[{"name":"assetsAmount_","type":"uint256","internalType":"uint256"},{"name":"caller_","type":"address","internalType":"address"},{"name":"account_","type":"address","internalType":"address"}],"outputs":[{"name":"","type":"uint256","internalType":"uint256"}],"stateMutability":"nonpayable"},{"type":"function","name":"withdrawStrategyAddress","inputs":[],"outputs":[{"name":"","type":"address","internalType":"address"}],"stateMutability":"view"},{"type":"event","name":"Approval","inputs":[{"name":"owner","type":"address","indexed":true,"internalType":"address"},{"name":"spender","type":"address","indexed":true,"internalType":"address"},{"name":"value","type":"uint256","indexed":false,"internalType":"uint256"}],"anonymous":false},{"type":"event","name":"AssetsDeployed","inputs":[{"name":"liquidToken","type":"address","indexed":true,"internalType":"address"},{"name":"liquidTokenAmount","type":"uint256","indexed":false,"internalType":"uint256"},{"name":"pendingDepositAssets","type":"uint256","indexed":false,"internalType":"uint256"},{"name":"caller","type":"address","indexed":true,"internalType":"address"}],"anonymous":false},{"type":"event","name":"Deposit","inputs":[{"name":"sender","type":"address","indexed":true,"internalType":"address"},{"name":"owner","type":"address","indexed":true,"internalType":"address"},{"name":"assets","type":"uint256","indexed":false,"internalType":"uint256"},{"name":"shares","type":"uint256","indexed":false,"internalType":"uint256"}],"anonymous":false},{"type":"event","name":"HarvestExecuted","inputs":[{"name":"token","type":"address","indexed":true,"internalType":"address"},{"name":"tokenAmount","type":"uint256","indexed":false,"internalType":"uint256"},{"name":"caller","type":"address","indexed":true,"internalType":"address"}],"anonymous":false},{"type":"event","name":"Initialized","inputs":[{"name":"version","type":"uint64","indexed":false,"internalType":"uint64"}],"anonymous":false},{"type":"event","name":"LiveValuationSet","inputs":[{"name":"status","type":"bool","indexed":false,"internalType":"bool"}],"anonymous":false},{"type":"event","name":"MasterTokenAddressSet","inputs":[{"name":"newAddress","type":"address","indexed":true,"internalType":"address"}],"anonymous":false},{"type":"event","name":"Paused","inputs":[{"name":"account","type":"address","indexed":false,"internalType":"address"}],"anonymous":false},{"type":"event","name":"RoleAdminChanged","inputs":[{"name":"role","type":"bytes32","indexed":true,"internalType":"bytes32"},{"name":"previousAdminRole","type":"bytes32","indexed":true,"internalType":"bytes32"},{"name":"newAdminRole","type":"bytes32","indexed":true,"internalType":"bytes32"}],"anonymous":false},{"type":"event","name":"RoleGranted","inputs":[{"name":"role","type":"bytes32","indexed":true,"internalType":"bytes32"},{"name":"account","type":"address","indexed":true,"internalType":"address"},{"name":"sender","type":"address","indexed":true,"internalType":"address"}],"anonymous":false},{"type":"event","name":"RoleRevoked","inputs":[{"name":"role","type":"bytes32","indexed":true,"internalType":"bytes32"},{"name":"account","type":"address","indexed":true,"internalType":"address"},{"name":"sender","type":"address","indexed":true,"internalType":"address"}],"anonymous":false},{"type":"event","name":"Transfer","inputs":[{"name":"from","type":"address","indexed":true,"internalType":"address"},{"name":"to","type":"address","indexed":true,"internalType":"address"},{"name":"value","type":"uint256","indexed":false,"internalType":"uint256"}],"anonymous":false},{"type":"event","name":"Unpaused","inputs":[{"name":"account","type":"address","indexed":false,"internalType":"address"}],"anonymous":false},{"type":"event","name":"ValuationSourceSet","inputs":[{"name":"valuationSource","type":"uint8","indexed":false,"internalType":"uint8"}],"anonymous":false},{"type":"event","name":"VaultStrategyAddressSet","inputs":[{"name":"newAddress","type":"address","indexed":true,"internalType":"address"}],"anonymous":false},{"type":"event","name":"VaultValuationUpdated","inputs":[{"name":"vaultValuation","type":"uint256","indexed":false,"internalType":"uint256"},{"name":"deployedAssetsValue","type":"uint256","indexed":false,"internalType":"uint256"},{"name":"pendingDepositAssets","type":"uint256","indexed":false,"internalType":"uint256"},{"name":"caller","type":"address","indexed":true,"internalType":"address"}],"anonymous":false},{"type":"event","name":"VaultsRegistryAddressSet","inputs":[{"name":"newAddress","type":"address","indexed":true,"internalType":"address"}],"anonymous":false},{"type":"event","name":"Withdraw","inputs":[{"name":"sender","type":"address","indexed":true,"internalType":"address"},{"name":"receiver","type":"address","indexed":true,"internalType":"address"},{"name":"owner","type":"address","indexed":true,"internalType":"address"},{"name":"assets","type":"uint256","indexed":false,"internalType":"uint256"},{"name":"shares","type":"uint256","indexed":false,"internalType":"uint256"}],"anonymous":false},{"type":"event","name":"WithdrawStrategyAddressSet","inputs":[{"name":"newAddress","type":"address","indexed":true,"internalType":"address"}],"anonymous":false},{"type":"error","name":"AccessControlBadConfirmation","inputs":[]},{"type":"error","name":"AccessControlUnauthorizedAccount","inputs":[{"name":"account","type":"address","internalType":"address"},{"name":"neededRole","type":"bytes32","internalType":"bytes32"}]},{"type":"error","name":"AddressEmptyCode","inputs":[{"name":"target","type":"address","internalType":"address"}]},{"type":"error","name":"AddressInsufficientBalance","inputs":[{"name":"account","type":"address","internalType":"address"}]},{"type":"error","name":"ERC20InsufficientAllowance","inputs":[{"name":"spender","type":"address","internalType":"address"},{"name":"allowance","type":"uint256","internalType":"uint256"},{"name":"needed","type":"uint256","internalType":"uint256"}]},{"type":"error","name":"ERC20InsufficientBalance","inputs":[{"name":"sender","type":"address","internalType":"address"},{"name":"balance","type":"uint256","internalType":"uint256"},{"name":"needed","type":"uint256","internalType":"uint256"}]},{"type":"error","name":"ERC20InvalidApprover","inputs":[{"name":"approver","type":"address","internalType":"address"}]},{"type":"error","name":"ERC20InvalidReceiver","inputs":[{"name":"receiver","type":"address","internalType":"address"}]},{"type":"error","name":"ERC20InvalidSender","inputs":[{"name":"sender","type":"address","internalType":"address"}]},{"type":"error","name":"ERC20InvalidSpender","inputs":[{"name":"spender","type":"address","internalType":"address"}]},{"type":"error","name":"ERC4626ExceededMaxDeposit","inputs":[{"name":"receiver","type":"address","internalType":"address"},{"name":"assets","type":"uint256","internalType":"uint256"},{"name":"max","type":"uint256","internalType":"uint256"}]},{"type":"error","name":"ERC4626ExceededMaxMint","inputs":[{"name":"receiver","type":"address","internalType":"address"},{"name":"shares","type":"uint256","internalType":"uint256"},{"name":"max","type":"uint256","internalType":"uint256"}]},{"type":"error","name":"ERC4626ExceededMaxRedeem","inputs":[{"name":"owner","type":"address","internalType":"address"},{"name":"shares","type":"uint256","internalType":"uint256"},{"name":"max","type":"uint256","internalType":"uint256"}]},{"type":"error","name":"ERC4626ExceededMaxWithdraw","inputs":[{"name":"owner","type":"address","internalType":"address"},{"name":"assets","type":"uint256","internalType":"uint256"},{"name":"max","type":"uint256","internalType":"uint256"}]},{"type":"error","name":"EmptyString","inputs":[{"name":"target","type":"string","internalType":"string"}]},{"type":"error","name":"EnforcedPause","inputs":[]},{"type":"error","name":"ExpectedPause","inputs":[]},{"type":"error","name":"FailedInnerCall","inputs":[]},{"type":"error","name":"InsufficientAssetsToWithdraw","inputs":[{"name":"account","type":"address","internalType":"address"},{"name":"accountBalance","type":"uint256","internalType":"uint256"},{"name":"requestedAmount","type":"uint256","internalType":"uint256"}]},{"type":"error","name":"InsufficientFundsForAssetsDeployment","inputs":[]},{"type":"error","name":"InsufficientShares","inputs":[{"name":"user","type":"address","internalType":"address"}]},{"type":"error","name":"InvalidAssetReturned","inputs":[{"name":"vaultAsset","type":"address","internalType":"address"},{"name":"returnedAsset","type":"address","internalType":"address"},{"name":"assetsAmount","type":"uint256","internalType":"uint256"}]},{"type":"error","name":"InvalidInitialization","inputs":[]},{"type":"error","name":"InvalidTarget","inputs":[]},{"type":"error","name":"MathOverflowedMulDiv","inputs":[]},{"type":"error","name":"NotInitializing","inputs":[]},{"type":"error","name":"ReentrancyGuardReentrantCall","inputs":[]},{"type":"error","name":"SafeERC20FailedOperation","inputs":[{"name":"token","type":"address","internalType":"address"}]},{"type":"error","name":"ZeroAddress","inputs":[{"name":"target","type":"string","internalType":"string"}]},{"type":"error","name":"ZeroAmount","inputs":[{"name":"target","type":"string","internalType":"string"}]}],"bytecode":{"object":"0x608060405234801561001057600080fd5b5061379c806100206000396000f3fe6080604052600436106103905760003560e01c8063654aeebf116101dc578063b3d7f6b911610102578063cef14719116100a0578063dd62ed3e1161006f578063dd62ed3e14610a6b578063e6a00fef14610a8b578063ea9853d014610aac578063ef8b30f7146109aa57600080fd5b8063cef14719146109ea578063d547741f14610a0b578063d905777e14610a2b578063da9b759d14610a4b57600080fd5b8063c06d8cd4116100dc578063c06d8cd414610995578063c63d75b61461067a578063c6e6f592146109aa578063ce96cb77146109ca57600080fd5b8063b3d7f6b914610935578063b460af9414610955578063ba0876521461097557600080fd5b80639317c2001161017a578063a1f504b711610149578063a1f504b7146108ca578063a217fddf146108ea578063a9059cbb146108ff578063b20725641461091f57600080fd5b80639317c2001461085557806394bf804d1461087557806395d89b4114610895578063964455eb146108aa57600080fd5b8063794c9599116101b6578063794c9599146107c05780637e531a39146107e05780638456cb591461082057806391d148541461083557600080fd5b8063654aeebf146107605780636e553f651461078057806370a08231146107a057600080fd5b80632fe447bb116102c1578063402d267d1161025f5780635489becc1161022e5780635489becc146106d15780635b48b6b8146106e75780635c975abb146107075780635e5a24a41461072c57600080fd5b8063402d267d1461067a578063429e6e0f1461069c5780634641257d146106bc5780634cdad5061461044a57600080fd5b806336568abe1161029b57806336568abe1461061057806338d52e0f1461063057806339e3aca1146106455780633f4ba83a1461066557600080fd5b80632fe447bb146105a85780633129a242146105db578063313ce567146105fb57600080fd5b80630e1b456c1161032e57806318160ddd1161030857806318160ddd1461052657806323b872dd14610548578063248a9ca3146105685780632f2ff15d1461058857600080fd5b80630e1b456c146104aa57806313c5977d146104cc57806316c2501e146104ee57600080fd5b806306fdde031161036a57806306fdde031461042857806307a2d13a1461044a578063095ea7b31461046a5780630a28a4771461048a57600080fd5b806301e1d1141461039c57806301ffc9a7146103c4578063037897d6146103f457600080fd5b3661039757005b600080fd5b3480156103a857600080fd5b506103b1610acc565b6040519081526020015b60405180910390f35b3480156103d057600080fd5b506103e46103df366004612fbc565b610b50565b60405190151581526020016103bb565b34801561040057600080fd5b50610409610b87565b604080516001600160a01b0390931683526020830191909152016103bb565b34801561043457600080fd5b5061043d610e6b565b6040516103bb919061300a565b34801561045657600080fd5b506103b161046536600461303d565b610f2e565b34801561047657600080fd5b506103e461048536600461306b565b610f3b565b34801561049657600080fd5b506103b16104a536600461303d565b610f53565b3480156104b657600080fd5b506103b16000805160206136c783398151915281565b3480156104d857600080fd5b506104ec6104e73660046130a5565b610f60565b005b3480156104fa57600080fd5b5060005461050e906001600160a01b031681565b6040516001600160a01b0390911681526020016103bb565b34801561053257600080fd5b506000805160206136e7833981519152546103b1565b34801561055457600080fd5b506103e46105633660046130c3565b611011565b34801561057457600080fd5b506103b161058336600461303d565b611037565b34801561059457600080fd5b506104ec6105a3366004613104565b611059565b3480156105b457600080fd5b506003546105c990600160a01b900460ff1681565b60405160ff90911681526020016103bb565b3480156105e757600080fd5b506104ec6105f6366004613134565b61107b565b34801561060757600080fd5b506105c961111c565b34801561061c57600080fd5b506104ec61062b366004613104565b611148565b34801561063c57600080fd5b5061050e61117b565b34801561065157600080fd5b5060025461050e906001600160a01b031681565b34801561067157600080fd5b506104ec611197565b34801561068657600080fd5b506103b1610695366004613134565b5060001990565b3480156106a857600080fd5b5060035461050e906001600160a01b031681565b3480156106c857600080fd5b506104096111ad565b3480156106dd57600080fd5b506103b160045481565b3480156106f357600080fd5b506104ec610702366004613134565b6112cb565b34801561071357600080fd5b506000805160206137478339815191525460ff166103e4565b34801561073857600080fd5b506103b17fd1473398bb66596de5d1ea1fc8e303ff2ac23265adc9144b1b52065dc4f0934b81565b34801561076c57600080fd5b506104ec61077b366004613151565b61136c565b34801561078c57600080fd5b506103b161079b366004613104565b611434565b3480156107ac57600080fd5b506103b16107bb366004613134565b611500565b3480156107cc57600080fd5b506104ec6107db366004613134565b611528565b3480156107ec57600080fd5b5061043d60405180604001604052806014815260200173119d5b98dd1a5bdb881b9bdd08185b1b1bddd95960621b81525081565b34801561082c57600080fd5b506104ec6115c1565b34801561084157600080fd5b506103e4610850366004613104565b6115d4565b34801561086157600080fd5b506104ec610870366004613217565b61160c565b34801561088157600080fd5b506103b1610890366004613104565b6118f0565b3480156108a157600080fd5b5061043d611934565b3480156108b657600080fd5b506103b16108c5366004613151565b611973565b3480156108d657600080fd5b506104ec6108e536600461303d565b600555565b3480156108f657600080fd5b506103b1600081565b34801561090b57600080fd5b506103e461091a36600461306b565b611b17565b34801561092b57600080fd5b506103b160055481565b34801561094157600080fd5b506103b161095036600461303d565b611b25565b34801561096157600080fd5b506103b16109703660046132c4565b611b32565b34801561098157600080fd5b506103b16109903660046132c4565b611c03565b3480156109a157600080fd5b506103b1611cd7565b3480156109b657600080fd5b506103b16109c536600461303d565b611da6565b3480156109d657600080fd5b506103b16109e5366004613134565b611db3565b3480156109f657600080fd5b506003546103e490600160b01b900460ff1681565b348015610a1757600080fd5b506104ec610a26366004613104565b611dc8565b348015610a3757600080fd5b506103b1610a46366004613134565b611de4565b348015610a5757600080fd5b5060015461050e906001600160a01b031681565b348015610a7757600080fd5b506103b1610a86366004613306565b611def565b348015610a9757600080fd5b506003546103e490600160a81b900460ff1681565b348015610ab857600080fd5b506104ec610ac7366004613134565b611e39565b60008060008051602061372783398151915280546040516370a0823160e01b81523060048201529192506001600160a01b0316906370a0823190602401602060405180830381865afa158015610b26573d6000803e3d6000fd5b505050506040513d601f19601f82011682018060405250810190610b4a9190613334565b91505090565b60006001600160e01b03198216637965db0b60e01b1480610b8157506301ffc9a760e01b6001600160e01b03198316145b92915050565b6000807fd1473398bb66596de5d1ea1fc8e303ff2ac23265adc9144b1b52065dc4f0934b610bb481611eda565b610bec6004546040518060400160405280601481526020017370656e64696e674465706f73697441737365747360601b815250611ee4565b6002546040805180820190915260148152737661756c7453747261746567794164647265737360601b6020820152610c2d916001600160a01b031690611f0b565b610c35610acc565b6004541115610c575760405163735038a160e11b815260040160405180910390fd5b600254604080516376bcfb8960e11b815290516000926001600160a01b03169163ed79f712916004808301926020929190829003018187875af1158015610ca2573d6000803e3d6000fd5b505050506040513d601f19601f82011682018060405250810190610cc6919061334d565b9050610cd061117b565b6004805460405163095ea7b360e01b81526001600160a01b0385811693820193909352602481019190915291169063095ea7b3906044016020604051808303816000875af1158015610d26573d6000803e3d6000fd5b505050506040513d601f19601f82011682018060405250810190610d4a919061336a565b5060025460009081906001600160a01b031663642024e43082610d6b61117b565b600480546040516001600160e01b031960e088901b1681526001600160a01b0395861692810192909252928416602482015292166044830152606482015260840160408051808303816000875af1158015610dca573d6000803e3d6000fd5b505050506040513d601f19601f82011682018060405250810190610dee9190613387565b90925090506001600160a01b03821615801590610e0b5750600081115b15610e165760006004555b60045460408051838152602081019290925233916001600160a01b038516917f16f99217dbd279dc7089ccb0efd8412a673ed6451b0b1f2b887520bf90babece910160405180910390a3909450925050509091565b7f52c63247e1f47db19d5ce0460030c497f067ca4cebf71ba98eeadabe20bace0380546060916000805160206136a783398151915291610eaa906133b5565b80601f0160208091040260200160405190810160405280929190818152602001828054610ed6906133b5565b8015610f235780601f10610ef857610100808354040283529160200191610f23565b820191906000526020600020905b815481529060010190602001808311610f0657829003601f168201915b505050505091505090565b6000610b81826000611f34565b600033610f49818585611f7b565b5060019392505050565b6000610b81826001611f88565b6000610f6b81611eda565b8115801590610f7b575081600114155b15610f995760405163416aebb560e11b815260040160405180910390fd5b60405183151581527ffa5b68283194f19fadee1c6f6741c0e5fa49065b5f9794882fdea0e8557996579060200160405180910390a181600003610ff45760038054841515600160a81b0260ff60a81b19909116179055505050565b6003805460ff60b01b1916600160b01b851515021790555b505050565b60003361101f858285611fea565b61102a85858561204a565b60019150505b9392505050565b6000908152600080516020613707833981519152602052604090206001015490565b61106282611037565b61106b81611eda565b61107583836120a9565b50505050565b600061108681611eda565b6110c5826040518060400160405280601781526020017f7365745661756c74537472617465677941646472657373000000000000000000815250611f0b565b6040516001600160a01b038316907fff75b176244b4869d0f63bcd38c47fcf8d1c4867f9ff4ee2d18ff62e5cb3f79a90600090a250600280546001600160a01b0319166001600160a01b0392909216919091179055565b600080600080516020613727833981519152905060008154610b4a9190600160a01b900460ff166133ff565b6001600160a01b03811633146111715760405163334bd91960e11b815260040160405180910390fd5b61100c828261214e565b600080516020613727833981519152546001600160a01b031690565b60006111a281611eda565b6111aa6121ca565b50565b600080806111ba81611eda565b6002546040805180820190915260148152737661756c7453747261746567794164647265737360601b60208201526111fb916001600160a01b031690611f0b565b600254604080516314f1402b60e31b8152815160009384936001600160a01b039091169263a78a01589260048083019392829003018187875af1158015611246573d6000803e3d6000fd5b505050506040513d601f19601f8201168201806040525081019061126a9190613387565b915091506112753390565b6001600160a01b0316826001600160a01b03167f612393db0d818881e56e76cafa2c1f8c31c98b0c5d6bf12a78a0c149074f4d7b836040516112b991815260200190565b60405180910390a39093509150509091565b60006112d681611eda565b611315826040518060400160405280601881526020017f7365745661756c74735265676973747279416464726573730000000000000000815250611f0b565b6040516001600160a01b038316907ff456cf93e413d2c9e331969506c9fec24d8a2f0c084a402f00d10e6128eacd9190600090a250600080546001600160a01b0319166001600160a01b0392909216919091179055565b600061137781611eda565b8160ff166001148061138c57508160ff166002145b6113dd5760405162461bcd60e51b815260206004820152601860248201527f496e76616c69642076616c756174696f6e536f757263655f000000000000000060448201526064015b60405180910390fd5b60405160ff831681527f8293c6c4b7ac2c1602ceb85691cc993ed8db45ead0fe9e917c32b9a2ed98c6e59060200160405180910390a1506003805460ff909216600160a01b0260ff60a01b19909216919091179055565b60006000805160206136c783398151915261144e81611eda565b61145661222a565b611485846040518060400160405280600d81526020016c617373657473416d6f756e745f60981b815250611ee4565b6114af83604051806040016040528060088152602001676163636f756e745f60c01b815250611f0b565b6114b9600061225d565b60006114c485611da6565b6001549091506114e09085906001600160a01b031687846122ae565b84600460008282546114f29190613418565b909155509095945050505050565b6001600160a01b031660009081526000805160206136a7833981519152602052604090205490565b600061153381611eda565b61156a82604051806040016040528060158152602001747365744d6173746572546f6b656e4164647265737360581b815250611f0b565b6040516001600160a01b038316907fe9e97d114ee06d8e3bf5fa839071c8024f6937aaecebeb7cdf8881f8b1da3e5f90600090a250600180546001600160a01b0319166001600160a01b0392909216919091179055565b60006115cc81611eda565b6111aa61233b565b6000918252600080516020613707833981519152602090815260408084206001600160a01b0393909316845291905290205460ff1690565b7ff0c57e16840df040f15088dc2f81fe391c3923bec73e23a9662efc9c229c6a008054600160401b810460ff16159067ffffffffffffffff166000811580156116525750825b905060008267ffffffffffffffff16600114801561166f5750303b155b90508115801561167d575080155b1561169b5760405163f92ee8a960e01b815260040160405180910390fd5b845467ffffffffffffffff1916600117855583156116c557845460ff60401b1916600160401b1785555b6117048b6040518060400160405280601781526020017f756e6465726c79696e67546f6b656e416464726573735f000000000000000000815250611f0b565b6117398a604051806040016040528060138152602001726d6173746572546f6b656e416464726573735f60681b815250611f0b565b61177189604051806040016040528060168152602001757661756c74735265676973747279416464726573735f60501b815250611f0b565b6117a0886040518060400160405280600d81526020016c6f776e6572416464726573735f60981b815250611f0b565b6117cd876040518060400160405280600b81526020016a7368617265734e616d655f60a81b815250612384565b6117fc866040518060400160405280600d81526020016c73686172657353796d626f6c5f60981b815250612384565b6118046123a8565b61180c6123b8565b6118146123c8565b61181d8b6123d0565b61182787876123e1565b6118326000896120a9565b50600180546001600160a01b03808d166001600160a01b0319928316811790935560008054918d169190921617815560038054600160a11b60ff60a01b199091161790556040517fe9e97d114ee06d8e3bf5fa839071c8024f6937aaecebeb7cdf8881f8b1da3e5f9190a283156118e357845460ff60401b19168555604051600181527fc7f505b2f371ae2175ee4913f4499e1f2633a7b5936321eed1cdaeb6115181d29060200160405180910390a15b5050505050505050505050565b6040805180820182526014815273119d5b98dd1a5bdb881b9bdd08185b1b1bddd95960621b6020820152905162461bcd60e51b81526000916113d49160040161300a565b7f52c63247e1f47db19d5ce0460030c497f067ca4cebf71ba98eeadabe20bace0480546060916000805160206136a783398151915291610eaa906133b5565b60007fd1473398bb66596de5d1ea1fc8e303ff2ac23265adc9144b1b52065dc4f0934b61199f81611eda565b8260ff16600114806119b457508260ff166002145b611a005760405162461bcd60e51b815260206004820152601b60248201527f496e76616c696420736f7572636520746f20676574207072696365000000000060448201526064016113d4565b6002546040805180820190915260148152737661756c7453747261746567794164647265737360601b6020820152611a41916001600160a01b031690611f0b565b6002546040516372cfcaad60e01b815260ff851660048201526000916001600160a01b0316906372cfcaad906024016020604051808303816000875af1158015611a8f573d6000803e3d6000fd5b505050506040513d601f19601f82011682018060405250810190611ab39190613334565b9050600060045482611ac59190613418565b6004546040805183815260208101869052808201929092525191925033917f61c280e478496b7f61c4ed50190cf3bc184e164b68f5bf3866e643e8902fe23c9181900360600190a29250505b50919050565b600033610f4981858561204a565b6000610b81826001611f34565b60006000805160206136c7833981519152611b4c81611eda565b611b5461222a565b611b83856040518060400160405280600d81526020016c617373657473416d6f756e745f60981b815250611ee4565b611bad83604051806040016040528060088152602001676163636f756e745f60c01b815250611f0b565b611bd6846040518060400160405280600781526020016663616c6c65725f60c81b815250611f0b565b611be0600161225d565b6000611beb86610f53565b9050611bf9858288876123f3565b5095945050505050565b60006000805160206136c7833981519152611c1d81611eda565b611c2561222a565b611c54856040518060400160405280600d81526020016c736861726573416d6f756e745f60981b815250611ee4565b611c7e83604051806040016040528060088152602001676163636f756e745f60c01b815250611f0b565b611ca7846040518060400160405280600781526020016663616c6c65725f60c81b815250611f0b565b611cb1600161225d565b6000611cbc86610f2e565b90506000611ccc868884886123f3565b979650505050505050565b6002546040805180820190915260148152737661756c7453747261746567794164647265737360601b6020820152600091611d1d916001600160a01b0390911690611f0b565b600454600260009054906101000a90046001600160a01b03166001600160a01b031663e2868d336040518163ffffffff1660e01b8152600401602060405180830381865afa158015611d73573d6000803e3d6000fd5b505050506040513d601f19601f82011682018060405250810190611d979190613334565b611da19190613418565b905090565b6000610b81826000611f88565b6000610b81611dc183611500565b6000611f34565b611dd182611037565b611dda81611eda565b611075838361214e565b6000610b8182611500565b6001600160a01b0391821660009081527f52c63247e1f47db19d5ce0460030c497f067ca4cebf71ba98eeadabe20bace016020908152604080832093909416825291909152205490565b6000611e4481611eda565b611e83826040518060400160405280601a81526020017f7365745769746864726177537472617465677941646472657373000000000000815250611f0b565b6040516001600160a01b038316907f28548fb82baba9340b788ecc4911d241c9508404c350e6964e447fbf8d62c12890600090a250600380546001600160a01b0319166001600160a01b0392909216919091179055565b6111aa813361269a565b81600003611f0757806040516303b3e63560e41b81526004016113d4919061300a565b5050565b6001600160a01b038216611f07578060405163eac0d38960e01b81526004016113d4919061300a565b6000611030611f41611cd7565b611f4c906001613418565b611f586000600a61350f565b6000805160206136e783398151915254611f729190613418565b859190856126d3565b61100c8383836001612724565b6000611fa06000805160206136e78339815191525490565b600003611fae575081610b81565b611030611fbd6000600a61350f565b6000805160206136e783398151915254611fd79190613418565b611fdf611cd7565b611f72906001613418565b6000611ff68484611def565b90506000198114611075578181101561203b57604051637dc7a0d960e11b81526001600160a01b038416600482015260248101829052604481018390526064016113d4565b61107584848484036000612724565b6001600160a01b03831661207457604051634b637e8f60e11b8152600060048201526024016113d4565b6001600160a01b03821661209e5760405163ec442f0560e01b8152600060048201526024016113d4565b61100c838383612803565b60006000805160206137078339815191526120c484846115d4565b612144576000848152602082815260408083206001600160a01b03871684529091529020805460ff191660011790556120fa3390565b6001600160a01b0316836001600160a01b0316857f2f8788117e7eff1d82e926ec794901d17c78024a50270940304540a733656f0d60405160405180910390a46001915050610b81565b6000915050610b81565b600060008051602061370783398151915261216984846115d4565b15612144576000848152602082815260408083206001600160a01b0387168085529252808320805460ff1916905551339287917ff6391f5c32d9c69d2a47ea670b442974b53935d1edc7fd64eb21e047a839171b9190a46001915050610b81565b6121d2612941565b600080516020613747833981519152805460ff191681557f5db9ee0a495bf2e6ff9c91a7834c1ba4fdd244a5e8aa4e537bd38aeae4b073aa335b6040516001600160a01b03909116815260200160405180910390a150565b6000805160206137478339815191525460ff161561225b5760405163d93c066560e01b815260040160405180910390fd5b565b801580156122745750600354600160a81b900460ff165b8061229357508060011480156122935750600354600160b01b900460ff165b156111aa57600354611f0790600160a01b900460ff16611973565b60008051602061372783398151915280546122d4906001600160a01b0316863086612971565b6122de84836129d8565b836001600160a01b0316856001600160a01b03167fdcbc1c05240f31ff3ad067ef1ee35ce4997762752e3a095284754544f4c709d7858560405161232c929190918252602082015260400190565b60405180910390a35050505050565b61234361222a565b600080516020613747833981519152805460ff191660011781557f62e78cea01bee320cd4e420270b5ea74000d11b0c9f74754ebdbfc544b05a2583361220c565b8151600003611f0757806040516318a996bb60e21b81526004016113d4919061300a565b6123b0612a0e565b61225b612a57565b6123c0612a0e565b61225b612a78565b61225b612a0e565b6123d8612a0e565b6111aa81612aa6565b6123e9612a0e565b611f078282612b18565b6001546040805180820190915260128152716d6173746572546f6b656e4164647265737360701b6020820152600091612437916001600160a01b0390911690611f0b565b60035460408051808201909152601781527f77697468647261775374726174656779416464726573730000000000000000006020820152612481916001600160a01b031690611f0b565b60015460405163076e632760e51b81526001600160a01b038481166004830152600092169063edcc64e0906024016020604051808303816000875af11580156124ce573d6000803e3d6000fd5b505050506040513d601f19601f820116820180604052508101906124f29190613334565b905080851115612520576040516380f444cf60e01b81526001600160a01b03841660048201526024016113d4565b83612529611cd7565b10156125615760405163cb16547760e01b81526001600160a01b038416600482015260248101829052604481018590526064016113d4565b600060045461256e611cd7565b1461267f5760035460009081906001600160a01b0316634a28ff243061259261117b565b6040516001600160e01b031960e085901b1681526001600160a01b03928316600482015291166024820152604481018a905260640160408051808303816000875af11580156125e5573d6000803e3d6000fd5b505050506040513d601f19601f820116820180604052508101906126099190613387565b915091508060001480612635575061261f61117b565b6001600160a01b0316826001600160a01b031614155b156126765761264261117b565b604051632bd709a760e21b81526001600160a01b0391821660048201529083166024820152604481018290526064016113d4565b91506126829050565b50835b61268f878589848a612b69565b509295945050505050565b6126a482826115d4565b611f075760405163e2517d3f60e01b81526001600160a01b0382166004820152602481018390526044016113d4565b6000806126e1868686612c1e565b90506126ec83612ce2565b80156127085750600084806127035761270361351e565b868809115b1561271b57612718600182613418565b90505b95945050505050565b6000805160206136a78339815191526001600160a01b03851661275d5760405163e602df0560e01b8152600060048201526024016113d4565b6001600160a01b03841661278757604051634a1406b160e11b8152600060048201526024016113d4565b6001600160a01b038086166000908152600183016020908152604080832093881683529290522083905581156127fc57836001600160a01b0316856001600160a01b03167f8c5be1e5ebec7d5bd14f71427d1e84f3dd0314c0f7b2291e5b200ac8c7c3b9258560405161232c91815260200190565b5050505050565b6000805160206136a78339815191526001600160a01b03841661283f57818160020160008282546128349190613418565b909155506128b19050565b6001600160a01b038416600090815260208290526040902054828110156128925760405163391434e360e21b81526001600160a01b038616600482015260248101829052604481018490526064016113d4565b6001600160a01b03851660009081526020839052604090209083900390555b6001600160a01b0383166128cf5760028101805483900390556128ee565b6001600160a01b03831660009081526020829052604090208054830190555b826001600160a01b0316846001600160a01b03167fddf252ad1be2c89b69c2b068fc378daa952ba7f163c4a11628f55a4df523b3ef8460405161293391815260200190565b60405180910390a350505050565b6000805160206137478339815191525460ff1661225b57604051638dfc202b60e01b815260040160405180910390fd5b6040516001600160a01b0384811660248301528381166044830152606482018390526110759186918216906323b872dd906084015b604051602081830303815290604052915060e01b6020820180516001600160e01b038381831617835250505050612d0f565b6001600160a01b038216612a025760405163ec442f0560e01b8152600060048201526024016113d4565b611f0760008383612803565b7ff0c57e16840df040f15088dc2f81fe391c3923bec73e23a9662efc9c229c6a0054600160401b900460ff1661225b57604051631afcd79f60e31b815260040160405180910390fd5b612a5f612a0e565b600080516020613747833981519152805460ff19169055565b612a80612a0e565b60017f9b779b17422d0df92223018b32b4d1fa46e071723d6817e2486d003becc55f0055565b612aae612a0e565b600080516020613727833981519152600080612ac984612d72565b9150915081612ad9576012612adb565b805b83546001600160a81b031916600160a01b60ff92909216919091026001600160a01b031916176001600160a01b0394909416939093179091555050565b612b20612a0e565b6000805160206136a78339815191527f52c63247e1f47db19d5ce0460030c497f067ca4cebf71ba98eeadabe20bace03612b5a8482613584565b50600481016110758382613584565b6000805160206137278339815191526001600160a01b0386811690851614612b9657612b96848784611fea565b612ba08483612e4e565b8054612bb6906001600160a01b03168685612e84565b836001600160a01b0316856001600160a01b0316876001600160a01b03167ffbde797d201c681b91056529119e0b02407c7bb96a4a2c75c01fc9667232c8db8686604051612c0e929190918252602082015260400190565b60405180910390a4505050505050565b6000838302816000198587098281108382030391505080600003612c5557838281612c4b57612c4b61351e565b0492505050611030565b808411612c755760405163227bc15360e01b815260040160405180910390fd5b6000848688096000868103871696879004966002600389028118808a02820302808a02820302808a02820302808a02820302808a02820302808a02909103029181900381900460010186841190950394909402919094039290920491909117919091029150509392505050565b60006002826003811115612cf857612cf8613644565b612d02919061365a565b60ff166001149050919050565b6000612d246001600160a01b03841683612eb5565b90508051600014158015612d49575080806020019051810190612d47919061336a565b155b1561100c57604051635274afe760e01b81526001600160a01b03841660048201526024016113d4565b60408051600481526024810182526020810180516001600160e01b031663313ce56760e01b17905290516000918291829182916001600160a01b03871691612db99161368a565b600060405180830381855afa9150503d8060008114612df4576040519150601f19603f3d011682016040523d82523d6000602084013e612df9565b606091505b5091509150818015612e0d57506020815110155b15612e4157600081806020019051810190612e289190613334565b905060ff8111612e3f576001969095509350505050565b505b5060009485945092505050565b6001600160a01b038216612e7857604051634b637e8f60e11b8152600060048201526024016113d4565b611f0782600083612803565b6040516001600160a01b0383811660248301526044820183905261100c91859182169063a9059cbb906064016129a6565b60606110308383600084600080856001600160a01b03168486604051612edb919061368a565b60006040518083038185875af1925050503d8060008114612f18576040519150601f19603f3d011682016040523d82523d6000602084013e612f1d565b606091505b5091509150612f2d868383612f37565b9695505050505050565b606082612f4c57612f4782612f93565b611030565b8151158015612f6357506001600160a01b0384163b155b15612f8c57604051639996b31560e01b81526001600160a01b03851660048201526024016113d4565b5080611030565b805115612fa35780518082602001fd5b604051630a12f52160e11b815260040160405180910390fd5b600060208284031215612fce57600080fd5b81356001600160e01b03198116811461103057600080fd5b60005b83811015613001578181015183820152602001612fe9565b50506000910152565b6020815260008251806020840152613029816040850160208701612fe6565b601f01601f19169190910160400192915050565b60006020828403121561304f57600080fd5b5035919050565b6001600160a01b03811681146111aa57600080fd5b6000806040838503121561307e57600080fd5b823561308981613056565b946020939093013593505050565b80151581146111aa57600080fd5b600080604083850312156130b857600080fd5b823561308981613097565b6000806000606084860312156130d857600080fd5b83356130e381613056565b925060208401356130f381613056565b929592945050506040919091013590565b6000806040838503121561311757600080fd5b82359150602083013561312981613056565b809150509250929050565b60006020828403121561314657600080fd5b813561103081613056565b60006020828403121561316357600080fd5b813560ff8116811461103057600080fd5b634e487b7160e01b600052604160045260246000fd5b600082601f83011261319b57600080fd5b813567ffffffffffffffff808211156131b6576131b6613174565b604051601f8301601f19908116603f011681019082821181831017156131de576131de613174565b816040528381528660208588010111156131f757600080fd5b836020870160208301376000602085830101528094505050505092915050565b60008060008060008060c0878903121561323057600080fd5b863561323b81613056565b9550602087013561324b81613056565b9450604087013561325b81613056565b9350606087013561326b81613056565b9250608087013567ffffffffffffffff8082111561328857600080fd5b6132948a838b0161318a565b935060a08901359150808211156132aa57600080fd5b506132b789828a0161318a565b9150509295509295509295565b6000806000606084860312156132d957600080fd5b8335925060208401356132eb81613056565b915060408401356132fb81613056565b809150509250925092565b6000806040838503121561331957600080fd5b823561332481613056565b9150602083013561312981613056565b60006020828403121561334657600080fd5b5051919050565b60006020828403121561335f57600080fd5b815161103081613056565b60006020828403121561337c57600080fd5b815161103081613097565b6000806040838503121561339a57600080fd5b82516133a581613056565b6020939093015192949293505050565b600181811c908216806133c957607f821691505b602082108103611b1157634e487b7160e01b600052602260045260246000fd5b634e487b7160e01b600052601160045260246000fd5b60ff8181168382160190811115610b8157610b816133e9565b80820180821115610b8157610b816133e9565b600181815b8085111561346657816000190482111561344c5761344c6133e9565b8085161561345957918102915b93841c9390800290613430565b509250929050565b60008261347d57506001610b81565b8161348a57506000610b81565b81600181146134a057600281146134aa576134c6565b6001915050610b81565b60ff8411156134bb576134bb6133e9565b50506001821b610b81565b5060208310610133831016604e8410600b84101617156134e9575081810a610b81565b6134f3838361342b565b8060001904821115613507576135076133e9565b029392505050565b600061103060ff84168361346e565b634e487b7160e01b600052601260045260246000fd5b601f82111561100c576000816000526020600020601f850160051c8101602086101561355d5750805b601f850160051c820191505b8181101561357c57828155600101613569565b505050505050565b815167ffffffffffffffff81111561359e5761359e613174565b6135b2816135ac84546133b5565b84613534565b602080601f8311600181146135e757600084156135cf5750858301515b600019600386901b1c1916600185901b17855561357c565b600085815260208120601f198616915b82811015613616578886015182559484019460019091019084016135f7565b50858210156136345787850151600019600388901b60f8161c191681555b5050505050600190811b01905550565b634e487b7160e01b600052602160045260246000fd5b600060ff83168061367b57634e487b7160e01b600052601260045260246000fd5b8060ff84160691505092915050565b6000825161369c818460208701612fe6565b919091019291505056fe52c63247e1f47db19d5ce0460030c497f067ca4cebf71ba98eeadabe20bace005e7a68d59b8e969a6eba9014e1d53fa760e69bfc4c094dc44ed50004fdccdcd852c63247e1f47db19d5ce0460030c497f067ca4cebf71ba98eeadabe20bace0202dd7bc7dec4dceedda775e58dd541e08a116c6c53815c0bd028192f7b6268000773e532dfede91f04b12a73d3d2acd361424f41f76b4fb79f090161e36b4e00cd5ed15c6e187e77e9aee88184c21f4f2182ab5827cb3b7e07fbedcd63f03300a26469706673582212203735719832009e482ff45017e5262ed37b5aa7c2819097fd7536144b4b2272a764736f6c63430008180033","linkReferences":{}},"methodIdentifiers":{"DEFAULT_ADMIN_ROLE()":"a217fddf","MASTER_TOKEN_ROLE()":"0e1b456c","REVERT_MSG()":"7e531a39","VAULT_MANAGER_ROLE()":"5e5a24a4","addedMethodVaultV2(uint256)":"a1f504b7","addedVariableVaultV2()":"b2072564","allowance(address,address)":"dd62ed3e","approve(address,uint256)":"095ea7b3","asset()":"38d52e0f","balanceOf(address)":"70a08231","convertToAssets(uint256)":"07a2d13a","convertToShares(uint256)":"c6e6f592","decimals()":"313ce567","deployAssets()":"037897d6","deposit(uint256,address)":"6e553f65","getRoleAdmin(bytes32)":"248a9ca3","getVaultValuation()":"c06d8cd4","grantRole(bytes32,address)":"2f2ff15d","harvest()":"4641257d","hasRole(bytes32,address)":"91d14854","initialize(address,address,address,address,string,string)":"9317c200","liveValuationOnDeposit()":"e6a00fef","liveValuationOnWithdraw()":"cef14719","masterTokenAddress()":"da9b759d","maxDeposit(address)":"402d267d","maxMint(address)":"c63d75b6","maxRedeem(address)":"d905777e","maxWithdraw(address)":"ce96cb77","mint(uint256,address)":"94bf804d","name()":"06fdde03","pause()":"8456cb59","paused()":"5c975abb","pendingDepositAssets()":"5489becc","previewDeposit(uint256)":"ef8b30f7","previewMint(uint256)":"b3d7f6b9","previewRedeem(uint256)":"4cdad506","previewWithdraw(uint256)":"0a28a477","redeem(uint256,address,address)":"ba087652","renounceRole(bytes32,address)":"36568abe","revokeRole(bytes32,address)":"d547741f","setLiveValuation(bool,uint256)":"13c5977d","setMasterTokenAddress(address)":"794c9599","setValuationSource(uint8)":"654aeebf","setVaultStrategyAddress(address)":"3129a242","setVaultsRegistryAddress(address)":"5b48b6b8","setWithdrawStrategyAddress(address)":"ea9853d0","supportsInterface(bytes4)":"01ffc9a7","symbol()":"95d89b41","totalAssets()":"01e1d114","totalSupply()":"18160ddd","transfer(address,uint256)":"a9059cbb","transferFrom(address,address,uint256)":"23b872dd","unpause()":"3f4ba83a","updateVaultValuation(uint8)":"964455eb","valuationSource()":"2fe447bb","vaultStrategyAddress()":"39e3aca1","vaultsRegistryAddress()":"16c2501e","withdraw(uint256,address,address)":"b460af94","withdrawStrategyAddress()":"429e6e0f"},"id":16}