{
  "_format": "hh-sol-artifact-1",
  "contractName": "ERC20Mock",
  "sourceName": "contracts/_mocks/tokens/ERC20Mock.sol",
  "abi": [
    {
      "inputs": [
        {
          "internalType": "string",
          "name": "name_",
          "type": "string"
        },
        {
          "internalType": "string",
          "name": "symbol_",
          "type": "string"
        },
        {
          "internalType": "uint8",
          "name": "decimals_",
          "type": "uint8"
        }
      ],
      "stateMutability": "nonpayable",
      "type": "constructor"
    },
    {
      "anonymous": false,
      "inputs": [
        {
          "indexed": true,
          "internalType": "address",
          "name": "owner",
          "type": "address"
        },
        {
          "indexed": true,
          "internalType": "address",
          "name": "spender",
          "type": "address"
        },
        {
          "indexed": false,
          "internalType": "uint256",
          "name": "value",
          "type": "uint256"
        }
      ],
      "name": "Approval",
      "type": "event"
    },
    {
      "anonymous": false,
      "inputs": [
        {
          "indexed": true,
          "internalType": "address",
          "name": "from",
          "type": "address"
        },
        {
          "indexed": true,
          "internalType": "address",
          "name": "to",
          "type": "address"
        },
        {
          "indexed": false,
          "internalType": "uint256",
          "name": "value",
          "type": "uint256"
        }
      ],
      "name": "Transfer",
      "type": "event"
    },
    {
      "inputs": [
        {
          "internalType": "address",
          "name": "",
          "type": "address"
        }
      ],
      "name": "_balances",
      "outputs": [
        {
          "internalType": "uint256",
          "name": "",
          "type": "uint256"
        }
      ],
      "stateMutability": "view",
      "type": "function"
    },
    {
      "inputs": [
        {
          "internalType": "address",
          "name": "owner",
          "type": "address"
        },
        {
          "internalType": "address",
          "name": "spender",
          "type": "address"
        }
      ],
      "name": "allowance",
      "outputs": [
        {
          "internalType": "uint256",
          "name": "",
          "type": "uint256"
        }
      ],
      "stateMutability": "view",
      "type": "function"
    },
    {
      "inputs": [
        {
          "internalType": "address",
          "name": "recipient",
          "type": "address"
        },
        {
          "internalType": "uint256",
          "name": "amount",
          "type": "uint256"
        }
      ],
      "name": "approve",
      "outputs": [
        {
          "internalType": "bool",
          "name": "",
          "type": "bool"
        }
      ],
      "stateMutability": "nonpayable",
      "type": "function"
    },
    {
      "inputs": [
        {
          "internalType": "address",
          "name": "account",
          "type": "address"
        }
      ],
      "name": "balanceOf",
      "outputs": [
        {
          "internalType": "uint256",
          "name": "",
          "type": "uint256"
        }
      ],
      "stateMutability": "view",
      "type": "function"
    },
    {
      "inputs": [
        {
          "internalType": "address",
          "name": "account",
          "type": "address"
        },
        {
          "internalType": "uint256",
          "name": "amount",
          "type": "uint256"
        }
      ],
      "name": "burnFrom",
      "outputs": [],
      "stateMutability": "nonpayable",
      "type": "function"
    },
    {
      "inputs": [],
      "name": "decimals",
      "outputs": [
        {
          "internalType": "uint8",
          "name": "",
          "type": "uint8"
        }
      ],
      "stateMutability": "view",
      "type": "function"
    },
    {
      "inputs": [
        {
          "internalType": "address",
          "name": "spender",
          "type": "address"
        },
        {
          "internalType": "uint256",
          "name": "subtractedValue",
          "type": "uint256"
        }
      ],
      "name": "decreaseAllowance",
      "outputs": [
        {
          "internalType": "bool",
          "name": "",
          "type": "bool"
        }
      ],
      "stateMutability": "nonpayable",
      "type": "function"
    },
    {
      "inputs": [
        {
          "internalType": "address",
          "name": "spender",
          "type": "address"
        },
        {
          "internalType": "uint256",
          "name": "addedValue",
          "type": "uint256"
        }
      ],
      "name": "increaseAllowance",
      "outputs": [
        {
          "internalType": "bool",
          "name": "",
          "type": "bool"
        }
      ],
      "stateMutability": "nonpayable",
      "type": "function"
    },
    {
      "inputs": [],
      "name": "isSafeApprove",
      "outputs": [
        {
          "internalType": "bool",
          "name": "",
          "type": "bool"
        }
      ],
      "stateMutability": "view",
      "type": "function"
    },
    {
      "inputs": [
        {
          "internalType": "address",
          "name": "account",
          "type": "address"
        },
        {
          "internalType": "uint256",
          "name": "amount",
          "type": "uint256"
        }
      ],
      "name": "mint",
      "outputs": [],
      "stateMutability": "nonpayable",
      "type": "function"
    },
    {
      "inputs": [
        {
          "internalType": "address",
          "name": "_account",
          "type": "address"
        },
        {
          "internalType": "uint256",
          "name": "newBalance",
          "type": "uint256"
        }
      ],
      "name": "mockBalanceOf",
      "outputs": [],
      "stateMutability": "nonpayable",
      "type": "function"
    },
    {
      "inputs": [],
      "name": "name",
      "outputs": [
        {
          "internalType": "string",
          "name": "",
          "type": "string"
        }
      ],
      "stateMutability": "view",
      "type": "function"
    },
    {
      "inputs": [],
      "name": "needToReturnValue",
      "outputs": [
        {
          "internalType": "bool",
          "name": "",
          "type": "bool"
        }
      ],
      "stateMutability": "view",
      "type": "function"
    },
    {
      "inputs": [],
      "name": "returnBoolValue",
      "outputs": [
        {
          "internalType": "bool",
          "name": "",
          "type": "bool"
        }
      ],
      "stateMutability": "view",
      "type": "function"
    },
    {
      "inputs": [
        {
          "internalType": "uint8",
          "name": "value",
          "type": "uint8"
        }
      ],
      "name": "setDecimals",
      "outputs": [],
      "stateMutability": "nonpayable",
      "type": "function"
    },
    {
      "inputs": [
        {
          "internalType": "bool",
          "name": "_value",
          "type": "bool"
        }
      ],
      "name": "setIsSafeApprove",
      "outputs": [],
      "stateMutability": "nonpayable",
      "type": "function"
    },
    {
      "inputs": [
        {
          "internalType": "bool",
          "name": "_value",
          "type": "bool"
        }
      ],
      "name": "setNeedToReturnValue",
      "outputs": [],
      "stateMutability": "nonpayable",
      "type": "function"
    },
    {
      "inputs": [
        {
          "internalType": "bool",
          "name": "_value",
          "type": "bool"
        }
      ],
      "name": "setReturnBoolValue",
      "outputs": [],
      "stateMutability": "nonpayable",
      "type": "function"
    },
    {
      "inputs": [],
      "name": "symbol",
      "outputs": [
        {
          "internalType": "string",
          "name": "",
          "type": "string"
        }
      ],
      "stateMutability": "view",
      "type": "function"
    },
    {
      "inputs": [],
      "name": "totalSupply",
      "outputs": [
        {
          "internalType": "uint256",
          "name": "",
          "type": "uint256"
        }
      ],
      "stateMutability": "view",
      "type": "function"
    },
    {
      "inputs": [
        {
          "internalType": "address",
          "name": "recipient",
          "type": "address"
        },
        {
          "internalType": "uint256",
          "name": "amount",
          "type": "uint256"
        }
      ],
      "name": "transfer",
      "outputs": [
        {
          "internalType": "bool",
          "name": "",
          "type": "bool"
        }
      ],
      "stateMutability": "nonpayable",
      "type": "function"
    },
    {
      "inputs": [
        {
          "internalType": "address",
          "name": "sender",
          "type": "address"
        },
        {
          "internalType": "address",
          "name": "recipient",
          "type": "address"
        },
        {
          "internalType": "uint256",
          "name": "amount",
          "type": "uint256"
        }
      ],
      "name": "transferFrom",
      "outputs": [
        {
          "internalType": "bool",
          "name": "",
          "type": "bool"
        }
      ],
      "stateMutability": "nonpayable",
      "type": "function"
    }
  ],
  "bytecode": "0x60806040526005805463ffffff001916620101001790553480156200002357600080fd5b50604051620011b5380380620011b583398101604081905262000046916200014e565b8282600362000056838262000264565b50600462000065828262000264565b50506005805460ff191660ff93909316929092179091555062000330915050565b634e487b7160e01b600052604160045260246000fd5b600082601f830112620000ae57600080fd5b81516001600160401b0380821115620000cb57620000cb62000086565b604051601f8301601f19908116603f01168101908282118183101715620000f657620000f662000086565b81604052838152602092508660208588010111156200011457600080fd5b600091505b8382101562000138578582018301518183018401529082019062000119565b6000602085830101528094505050505092915050565b6000806000606084860312156200016457600080fd5b83516001600160401b03808211156200017c57600080fd5b6200018a878388016200009c565b94506020860151915080821115620001a157600080fd5b50620001b0868287016200009c565b925050604084015160ff81168114620001c857600080fd5b809150509250925092565b600181811c90821680620001e857607f821691505b6020821081036200020957634e487b7160e01b600052602260045260246000fd5b50919050565b601f8211156200025f576000816000526020600020601f850160051c810160208610156200023a5750805b601f850160051c820191505b818110156200025b5782815560010162000246565b5050505b505050565b81516001600160401b0381111562000280576200028062000086565b6200029881620002918454620001d3565b846200020f565b602080601f831160018114620002d05760008415620002b75750858301515b600019600386901b1c1916600185901b1785556200025b565b600085815260208120601f198616915b828110156200030157888601518255948401946001909101908401620002e0565b5085821015620003205787850151600019600388901b60f8161c191681555b5050505050600190811b01905550565b610e7580620003406000396000f3fe608060405234801561001057600080fd5b50600436106101425760003560e01c80636ebcf607116100b857806395d89b411161007c57806395d89b411461030b578063a457c2d714610313578063a9059cbb14610326578063cf787f7914610339578063d98a056114610365578063dd62ed3e1461037957600080fd5b80636ebcf6071461027857806370a082311461029857806375216a2f146102c157806379cc6790146102d45780637a1395aa146102e757600080fd5b80632dbcb32b1161010a5780632dbcb32b146101d7578063313ce5671461020157806335df40f21461021657806339509351146102405780633f06b9071461025357806340c10f191461026557600080fd5b806306fdde0314610147578063095ea7b31461016557806318160ddd1461018857806323b872dd1461019a578063257224ab146101ad575b600080fd5b61014f6103b2565b60405161015c9190610c65565b60405180910390f35b610178610173366004610cd0565b610444565b604051901515815260200161015c565b6002545b60405190815260200161015c565b6101786101a8366004610cfa565b610502565b6101d56101bb366004610d36565b600580549115156101000261ff0019909216919091179055565b005b6101d56101e5366004610cd0565b6001600160a01b03909116600090815260208190526040902055565b60055460405160ff909116815260200161015c565b6101d5610224366004610d36565b60058054911515620100000262ff000019909216919091179055565b61017861024e366004610cd0565b61055b565b60055461017890610100900460ff1681565b6101d5610273366004610cd0565b610597565b61018c610286366004610d58565b60006020819052908152604090205481565b61018c6102a6366004610d58565b6001600160a01b031660009081526020819052604090205490565b6005546101789062010000900460ff1681565b6101d56102e2366004610cd0565b6105a5565b6101d56102f5366004610d73565b6005805460ff191660ff92909216919091179055565b61014f6105af565b610178610321366004610cd0565b6105be565b610178610334366004610cd0565b610652565b6101d5610347366004610d36565b6005805491151563010000000263ff00000019909216919091179055565b600554610178906301000000900460ff1681565b61018c610387366004610d96565b6001600160a01b03918216600090815260016020908152604080832093909416825291909152205490565b6060600380546103c190610dc9565b80601f01602080910402602001604051908101604052809291908181526020018280546103ed90610dc9565b801561043a5780601f1061040f5761010080835404028352916020019161043a565b820191906000526020600020905b81548152906001019060200180831161041d57829003601f168201915b5050505050905090565b60055460009062010000900460ff1680156104675750600554610100900460ff16155b15610474575060006104fc565b60055462010000900460ff16801561049557506005546301000000900460ff165b80156104a057508115155b80156104ce57503360009081526001602090815260408083206001600160a01b038716845290915290205415155b156104db575060006104fc565b6104e5838361068c565b5060055462010000900460ff166104f857005b5060015b92915050565b60055460009062010000900460ff1680156105255750600554610100900460ff16155b1561053257506000610554565b61053d848484610699565b5060055462010000900460ff1661055057005b5060015b9392505050565b3360008181526001602090815260408083206001600160a01b038716845290915281205490916104f8918590610592908690610e19565b610743565b6105a18282610868565b5050565b6105a18282610947565b6060600480546103c190610dc9565b3360009081526001602090815260408083206001600160a01b0386168452909152812054828110156106455760405162461bcd60e51b815260206004820152602560248201527f45524332303a2064656372656173656420616c6c6f77616e63652062656c6f77604482015264207a65726f60d81b60648201526084015b60405180910390fd5b6105503385858403610743565b60055460009062010000900460ff1680156106755750600554610100900460ff16155b15610682575060006104fc565b6104e58383610a8d565b60006104f8338484610743565b60006106a6848484610a96565b6001600160a01b03841660009081526001602090815260408083203384529091529020548281101561072b5760405162461bcd60e51b815260206004820152602860248201527f45524332303a207472616e7366657220616d6f756e74206578636565647320616044820152676c6c6f77616e636560c01b606482015260840161063c565b6107388533858403610743565b506001949350505050565b6001600160a01b0383166107a55760405162461bcd60e51b8152602060048201526024808201527f45524332303a20617070726f76652066726f6d20746865207a65726f206164646044820152637265737360e01b606482015260840161063c565b6001600160a01b0382166108065760405162461bcd60e51b815260206004820152602260248201527f45524332303a20617070726f766520746f20746865207a65726f206164647265604482015261737360f01b606482015260840161063c565b6001600160a01b0383811660008181526001602090815260408083209487168084529482529182902085905590518481527f8c5be1e5ebec7d5bd14f71427d1e84f3dd0314c0f7b2291e5b200ac8c7c3b92591015b60405180910390a3505050565b6001600160a01b0382166108be5760405162461bcd60e51b815260206004820152601f60248201527f45524332303a206d696e7420746f20746865207a65726f206164647265737300604482015260640161063c565b80600260008282546108d09190610e19565b90915550506001600160a01b038216600090815260208190526040812080548392906108fd908490610e19565b90915550506040518181526001600160a01b038316906000907fddf252ad1be2c89b69c2b068fc378daa952ba7f163c4a11628f55a4df523b3ef9060200160405180910390a35050565b6001600160a01b0382166109a75760405162461bcd60e51b815260206004820152602160248201527f45524332303a206275726e2066726f6d20746865207a65726f206164647265736044820152607360f81b606482015260840161063c565b6001600160a01b03821660009081526020819052604090205481811015610a1b5760405162461bcd60e51b815260206004820152602260248201527f45524332303a206275726e20616d6f756e7420657863656564732062616c616e604482015261636560f01b606482015260840161063c565b6001600160a01b0383166000908152602081905260408120838303905560028054849290610a4a908490610e2c565b90915550506040518281526000906001600160a01b038516907fddf252ad1be2c89b69c2b068fc378daa952ba7f163c4a11628f55a4df523b3ef9060200161085b565b60006104f83384845b6001600160a01b038316610afa5760405162461bcd60e51b815260206004820152602560248201527f45524332303a207472616e736665722066726f6d20746865207a65726f206164604482015264647265737360d81b606482015260840161063c565b6001600160a01b038216610b5c5760405162461bcd60e51b815260206004820152602360248201527f45524332303a207472616e7366657220746f20746865207a65726f206164647260448201526265737360e81b606482015260840161063c565b6001600160a01b03831660009081526020819052604090205481811015610bd45760405162461bcd60e51b815260206004820152602660248201527f45524332303a207472616e7366657220616d6f756e7420657863656564732062604482015265616c616e636560d01b606482015260840161063c565b6001600160a01b03808516600090815260208190526040808220858503905591851681529081208054849290610c0b908490610e19565b92505081905550826001600160a01b0316846001600160a01b03167fddf252ad1be2c89b69c2b068fc378daa952ba7f163c4a11628f55a4df523b3ef84604051610c5791815260200190565b60405180910390a350505050565b60006020808352835180602085015260005b81811015610c9357858101830151858201604001528201610c77565b506000604082860101526040601f19601f8301168501019250505092915050565b80356001600160a01b0381168114610ccb57600080fd5b919050565b60008060408385031215610ce357600080fd5b610cec83610cb4565b946020939093013593505050565b600080600060608486031215610d0f57600080fd5b610d1884610cb4565b9250610d2660208501610cb4565b9150604084013590509250925092565b600060208284031215610d4857600080fd5b8135801515811461055457600080fd5b600060208284031215610d6a57600080fd5b61055482610cb4565b600060208284031215610d8557600080fd5b813560ff8116811461055457600080fd5b60008060408385031215610da957600080fd5b610db283610cb4565b9150610dc060208401610cb4565b90509250929050565b600181811c90821680610ddd57607f821691505b602082108103610dfd57634e487b7160e01b600052602260045260246000fd5b50919050565b634e487b7160e01b600052601160045260246000fd5b808201808211156104fc576104fc610e03565b818103818111156104fc576104fc610e0356fea26469706673582212206913b1b0384664b4f2640a5c02f335b2b322fd08ea4e05f47266c4a8a70af9e464736f6c63430008180033",
  "linkReferences": {},
  "deployedLinkReferences": {}
}