{
  "_format": "hh-sol-artifact-1",
  "contractName": "RETHMock",
  "sourceName": "contracts/_mocks/tokens/RETHMock.sol",
  "abi": [
    {
      "inputs": [],
      "stateMutability": "nonpayable",
      "type": "constructor"
    },
    {
      "anonymous": false,
      "inputs": [
        {
          "indexed": true,
          "internalType": "address",
          "name": "owner",
          "type": "address"
        },
        {
          "indexed": true,
          "internalType": "address",
          "name": "spender",
          "type": "address"
        },
        {
          "indexed": false,
          "internalType": "uint256",
          "name": "value",
          "type": "uint256"
        }
      ],
      "name": "Approval",
      "type": "event"
    },
    {
      "anonymous": false,
      "inputs": [
        {
          "indexed": true,
          "internalType": "address",
          "name": "from",
          "type": "address"
        },
        {
          "indexed": true,
          "internalType": "address",
          "name": "to",
          "type": "address"
        },
        {
          "indexed": false,
          "internalType": "uint256",
          "name": "value",
          "type": "uint256"
        }
      ],
      "name": "Transfer",
      "type": "event"
    },
    {
      "inputs": [
        {
          "internalType": "address",
          "name": "",
          "type": "address"
        }
      ],
      "name": "_balances",
      "outputs": [
        {
          "internalType": "uint256",
          "name": "",
          "type": "uint256"
        }
      ],
      "stateMutability": "view",
      "type": "function"
    },
    {
      "inputs": [
        {
          "internalType": "address",
          "name": "owner",
          "type": "address"
        },
        {
          "internalType": "address",
          "name": "spender",
          "type": "address"
        }
      ],
      "name": "allowance",
      "outputs": [
        {
          "internalType": "uint256",
          "name": "",
          "type": "uint256"
        }
      ],
      "stateMutability": "view",
      "type": "function"
    },
    {
      "inputs": [
        {
          "internalType": "address",
          "name": "recipient",
          "type": "address"
        },
        {
          "internalType": "uint256",
          "name": "amount",
          "type": "uint256"
        }
      ],
      "name": "approve",
      "outputs": [
        {
          "internalType": "bool",
          "name": "",
          "type": "bool"
        }
      ],
      "stateMutability": "nonpayable",
      "type": "function"
    },
    {
      "inputs": [
        {
          "internalType": "address",
          "name": "account",
          "type": "address"
        }
      ],
      "name": "balanceOf",
      "outputs": [
        {
          "internalType": "uint256",
          "name": "",
          "type": "uint256"
        }
      ],
      "stateMutability": "view",
      "type": "function"
    },
    {
      "inputs": [
        {
          "internalType": "uint256",
          "name": "_rethAmount",
          "type": "uint256"
        }
      ],
      "name": "burn",
      "outputs": [],
      "stateMutability": "nonpayable",
      "type": "function"
    },
    {
      "inputs": [
        {
          "internalType": "address",
          "name": "account",
          "type": "address"
        },
        {
          "internalType": "uint256",
          "name": "amount",
          "type": "uint256"
        }
      ],
      "name": "burnFrom",
      "outputs": [],
      "stateMutability": "nonpayable",
      "type": "function"
    },
    {
      "inputs": [],
      "name": "decimals",
      "outputs": [
        {
          "internalType": "uint8",
          "name": "",
          "type": "uint8"
        }
      ],
      "stateMutability": "view",
      "type": "function"
    },
    {
      "inputs": [
        {
          "internalType": "address",
          "name": "spender",
          "type": "address"
        },
        {
          "internalType": "uint256",
          "name": "subtractedValue",
          "type": "uint256"
        }
      ],
      "name": "decreaseAllowance",
      "outputs": [
        {
          "internalType": "bool",
          "name": "",
          "type": "bool"
        }
      ],
      "stateMutability": "nonpayable",
      "type": "function"
    },
    {
      "inputs": [
        {
          "internalType": "uint256",
          "name": "_rethAmount",
          "type": "uint256"
        }
      ],
      "name": "getEthValue",
      "outputs": [
        {
          "internalType": "uint256",
          "name": "",
          "type": "uint256"
        }
      ],
      "stateMutability": "view",
      "type": "function"
    },
    {
      "inputs": [],
      "name": "getExchangeRate",
      "outputs": [
        {
          "internalType": "uint256",
          "name": "",
          "type": "uint256"
        }
      ],
      "stateMutability": "view",
      "type": "function"
    },
    {
      "inputs": [
        {
          "internalType": "uint256",
          "name": "_ethAmount",
          "type": "uint256"
        }
      ],
      "name": "getRethValue",
      "outputs": [
        {
          "internalType": "uint256",
          "name": "",
          "type": "uint256"
        }
      ],
      "stateMutability": "view",
      "type": "function"
    },
    {
      "inputs": [],
      "name": "getTotalCollateral",
      "outputs": [
        {
          "internalType": "uint256",
          "name": "",
          "type": "uint256"
        }
      ],
      "stateMutability": "view",
      "type": "function"
    },
    {
      "inputs": [
        {
          "internalType": "address",
          "name": "spender",
          "type": "address"
        },
        {
          "internalType": "uint256",
          "name": "addedValue",
          "type": "uint256"
        }
      ],
      "name": "increaseAllowance",
      "outputs": [
        {
          "internalType": "bool",
          "name": "",
          "type": "bool"
        }
      ],
      "stateMutability": "nonpayable",
      "type": "function"
    },
    {
      "inputs": [],
      "name": "isSafeApprove",
      "outputs": [
        {
          "internalType": "bool",
          "name": "",
          "type": "bool"
        }
      ],
      "stateMutability": "view",
      "type": "function"
    },
    {
      "inputs": [
        {
          "internalType": "address",
          "name": "account",
          "type": "address"
        },
        {
          "internalType": "uint256",
          "name": "amount",
          "type": "uint256"
        }
      ],
      "name": "mint",
      "outputs": [],
      "stateMutability": "nonpayable",
      "type": "function"
    },
    {
      "inputs": [
        {
          "internalType": "address",
          "name": "_account",
          "type": "address"
        },
        {
          "internalType": "uint256",
          "name": "newBalance",
          "type": "uint256"
        }
      ],
      "name": "mockBalanceOf",
      "outputs": [],
      "stateMutability": "nonpayable",
      "type": "function"
    },
    {
      "inputs": [],
      "name": "name",
      "outputs": [
        {
          "internalType": "string",
          "name": "",
          "type": "string"
        }
      ],
      "stateMutability": "view",
      "type": "function"
    },
    {
      "inputs": [],
      "name": "needToReturnValue",
      "outputs": [
        {
          "internalType": "bool",
          "name": "",
          "type": "bool"
        }
      ],
      "stateMutability": "view",
      "type": "function"
    },
    {
      "inputs": [],
      "name": "returnBoolValue",
      "outputs": [
        {
          "internalType": "bool",
          "name": "",
          "type": "bool"
        }
      ],
      "stateMutability": "view",
      "type": "function"
    },
    {
      "inputs": [
        {
          "internalType": "uint8",
          "name": "value",
          "type": "uint8"
        }
      ],
      "name": "setDecimals",
      "outputs": [],
      "stateMutability": "nonpayable",
      "type": "function"
    },
    {
      "inputs": [
        {
          "internalType": "uint256",
          "name": "_exchangeRate",
          "type": "uint256"
        }
      ],
      "name": "setExchangeRate",
      "outputs": [],
      "stateMutability": "nonpayable",
      "type": "function"
    },
    {
      "inputs": [
        {
          "internalType": "bool",
          "name": "_value",
          "type": "bool"
        }
      ],
      "name": "setIsSafeApprove",
      "outputs": [],
      "stateMutability": "nonpayable",
      "type": "function"
    },
    {
      "inputs": [
        {
          "internalType": "bool",
          "name": "_value",
          "type": "bool"
        }
      ],
      "name": "setNeedToReturnValue",
      "outputs": [],
      "stateMutability": "nonpayable",
      "type": "function"
    },
    {
      "inputs": [
        {
          "internalType": "bool",
          "name": "_value",
          "type": "bool"
        }
      ],
      "name": "setReturnBoolValue",
      "outputs": [],
      "stateMutability": "nonpayable",
      "type": "function"
    },
    {
      "inputs": [
        {
          "internalType": "uint256",
          "name": "_totalCollateral",
          "type": "uint256"
        }
      ],
      "name": "setTotalCollateral",
      "outputs": [],
      "stateMutability": "nonpayable",
      "type": "function"
    },
    {
      "inputs": [],
      "name": "symbol",
      "outputs": [
        {
          "internalType": "string",
          "name": "",
          "type": "string"
        }
      ],
      "stateMutability": "view",
      "type": "function"
    },
    {
      "inputs": [],
      "name": "totalSupply",
      "outputs": [
        {
          "internalType": "uint256",
          "name": "",
          "type": "uint256"
        }
      ],
      "stateMutability": "view",
      "type": "function"
    },
    {
      "inputs": [
        {
          "internalType": "address",
          "name": "recipient",
          "type": "address"
        },
        {
          "internalType": "uint256",
          "name": "amount",
          "type": "uint256"
        }
      ],
      "name": "transfer",
      "outputs": [
        {
          "internalType": "bool",
          "name": "",
          "type": "bool"
        }
      ],
      "stateMutability": "nonpayable",
      "type": "function"
    },
    {
      "inputs": [
        {
          "internalType": "address",
          "name": "sender",
          "type": "address"
        },
        {
          "internalType": "address",
          "name": "recipient",
          "type": "address"
        },
        {
          "internalType": "uint256",
          "name": "amount",
          "type": "uint256"
        }
      ],
      "name": "transferFrom",
      "outputs": [
        {
          "internalType": "bool",
          "name": "",
          "type": "bool"
        }
      ],
      "stateMutability": "nonpayable",
      "type": "function"
    }
  ],
  "bytecode": "0x60806040526005805463ffffff001916620101001790553480156200002357600080fd5b506040805180820182526004808252630a48aa8960e31b6020808401829052845180860190955291845290830152906012828260036200006483826200013b565b5060046200007382826200013b565b50506005805460ff191660ff93909316929092179091555062000207915050565b634e487b7160e01b600052604160045260246000fd5b600181811c90821680620000bf57607f821691505b602082108103620000e057634e487b7160e01b600052602260045260246000fd5b50919050565b601f82111562000136576000816000526020600020601f850160051c81016020861015620001115750805b601f850160051c820191505b8181101562000132578281556001016200011d565b5050505b505050565b81516001600160401b0381111562000157576200015762000094565b6200016f81620001688454620000aa565b84620000e6565b602080601f831160018114620001a757600084156200018e5750858301515b600019600386901b1c1916600185901b17855562000132565b600085815260208120601f198616915b82811015620001d857888601518255948401946001909101908401620001b7565b5085821015620001f75787850151600019600388901b60f8161c191681555b5050505050600190811b01905550565b61102880620002176000396000f3fe608060405234801561001057600080fd5b50600436106101cf5760003560e01c80636ebcf60711610104578063a457c2d7116100a2578063d98a056111610071578063d98a056114610446578063db068e0e1461045a578063dd62ed3e1461046d578063e6aa216c146104a657600080fd5b8063a457c2d7146103ec578063a9059cbb146103ff578063cf787f7914610412578063d6eb59101461043e57600080fd5b806379cc6790116100de57806379cc67901461039a5780637a1395aa146103ad5780638b32fa23146103d157806395d89b41146103e457600080fd5b80636ebcf6071461033e57806370a082311461035e57806375216a2f1461038757600080fd5b806335df40f21161017157806340c10f191161014b57806340c10f19146102f257806342966c68146103055780634346f03e14610318578063647944591461032b57600080fd5b806335df40f2146102a357806339509351146102cd5780633f06b907146102e057600080fd5b806323b872dd116101ad57806323b872dd14610227578063257224ab1461023a5780632dbcb32b14610264578063313ce5671461028e57600080fd5b806306fdde03146101d4578063095ea7b3146101f257806318160ddd14610215575b600080fd5b6101dc6104ae565b6040516101e99190610dc6565b60405180910390f35b610205610200366004610e31565b610540565b60405190151581526020016101e9565b6002545b6040519081526020016101e9565b610205610235366004610e5b565b6105fe565b610262610248366004610e97565b600580549115156101000261ff0019909216919091179055565b005b610262610272366004610e31565b6001600160a01b03909116600090815260208190526040902055565b60055460405160ff90911681526020016101e9565b6102626102b1366004610e97565b60058054911515620100000262ff000019909216919091179055565b6102056102db366004610e31565b610657565b60055461020590610100900460ff1681565b610262610300366004610e31565b610693565b610262610313366004610eb9565b6106a1565b610219610326366004610eb9565b6106e6565b610262610339366004610eb9565b600655565b61021961034c366004610ed2565b60006020819052908152604090205481565b61021961036c366004610ed2565b6001600160a01b031660009081526020819052604090205490565b6005546102059062010000900460ff1681565b6102626103a8366004610e31565b6106f6565b6102626103bb366004610eed565b6005805460ff191660ff92909216919091179055565b6102196103df366004610eb9565b610700565b6101dc610710565b6102056103fa366004610e31565b61071f565b61020561040d366004610e31565b6107b3565b610262610420366004610e97565b6005805491151563010000000263ff00000019909216919091179055565b600654610219565b600554610205906301000000900460ff1681565b610262610468366004610eb9565b600755565b61021961047b366004610f10565b6001600160a01b03918216600090815260016020908152604080832093909416825291909152205490565b600754610219565b6060600380546104bd90610f43565b80601f01602080910402602001604051908101604052809291908181526020018280546104e990610f43565b80156105365780601f1061050b57610100808354040283529160200191610536565b820191906000526020600020905b81548152906001019060200180831161051957829003601f168201915b5050505050905090565b60055460009062010000900460ff1680156105635750600554610100900460ff16155b15610570575060006105f8565b60055462010000900460ff16801561059157506005546301000000900460ff165b801561059c57508115155b80156105ca57503360009081526001602090815260408083206001600160a01b038716845290915290205415155b156105d7575060006105f8565b6105e183836107ed565b5060055462010000900460ff166105f457005b5060015b92915050565b60055460009062010000900460ff1680156106215750600554610100900460ff16155b1561062e57506000610650565b6106398484846107fa565b5060055462010000900460ff1661064c57005b5060015b9392505050565b3360008181526001602090815260408083206001600160a01b038716845290915281205490916105f491859061068e908690610f93565b6108a4565b61069d82826109c9565b5050565b6106ab33826106f6565b60075433906108fc906106be9084610fa6565b6040518115909202916000818181858888f1935050505015801561069d573d6000803e3d6000fd5b6000600754826105f89190610fbd565b61069d8282610aa8565b6000600754826105f89190610fa6565b6060600480546104bd90610f43565b3360009081526001602090815260408083206001600160a01b0386168452909152812054828110156107a65760405162461bcd60e51b815260206004820152602560248201527f45524332303a2064656372656173656420616c6c6f77616e63652062656c6f77604482015264207a65726f60d81b60648201526084015b60405180910390fd5b61064c33858584036108a4565b60055460009062010000900460ff1680156107d65750600554610100900460ff16155b156107e3575060006105f8565b6105e18383610bee565b60006105f43384846108a4565b6000610807848484610bf7565b6001600160a01b03841660009081526001602090815260408083203384529091529020548281101561088c5760405162461bcd60e51b815260206004820152602860248201527f45524332303a207472616e7366657220616d6f756e74206578636565647320616044820152676c6c6f77616e636560c01b606482015260840161079d565b61089985338584036108a4565b506001949350505050565b6001600160a01b0383166109065760405162461bcd60e51b8152602060048201526024808201527f45524332303a20617070726f76652066726f6d20746865207a65726f206164646044820152637265737360e01b606482015260840161079d565b6001600160a01b0382166109675760405162461bcd60e51b815260206004820152602260248201527f45524332303a20617070726f766520746f20746865207a65726f206164647265604482015261737360f01b606482015260840161079d565b6001600160a01b0383811660008181526001602090815260408083209487168084529482529182902085905590518481527f8c5be1e5ebec7d5bd14f71427d1e84f3dd0314c0f7b2291e5b200ac8c7c3b92591015b60405180910390a3505050565b6001600160a01b038216610a1f5760405162461bcd60e51b815260206004820152601f60248201527f45524332303a206d696e7420746f20746865207a65726f206164647265737300604482015260640161079d565b8060026000828254610a319190610f93565b90915550506001600160a01b03821660009081526020819052604081208054839290610a5e908490610f93565b90915550506040518181526001600160a01b038316906000907fddf252ad1be2c89b69c2b068fc378daa952ba7f163c4a11628f55a4df523b3ef9060200160405180910390a35050565b6001600160a01b038216610b085760405162461bcd60e51b815260206004820152602160248201527f45524332303a206275726e2066726f6d20746865207a65726f206164647265736044820152607360f81b606482015260840161079d565b6001600160a01b03821660009081526020819052604090205481811015610b7c5760405162461bcd60e51b815260206004820152602260248201527f45524332303a206275726e20616d6f756e7420657863656564732062616c616e604482015261636560f01b606482015260840161079d565b6001600160a01b0383166000908152602081905260408120838303905560028054849290610bab908490610fdf565b90915550506040518281526000906001600160a01b038516907fddf252ad1be2c89b69c2b068fc378daa952ba7f163c4a11628f55a4df523b3ef906020016109bc565b60006105f43384845b6001600160a01b038316610c5b5760405162461bcd60e51b815260206004820152602560248201527f45524332303a207472616e736665722066726f6d20746865207a65726f206164604482015264647265737360d81b606482015260840161079d565b6001600160a01b038216610cbd5760405162461bcd60e51b815260206004820152602360248201527f45524332303a207472616e7366657220746f20746865207a65726f206164647260448201526265737360e81b606482015260840161079d565b6001600160a01b03831660009081526020819052604090205481811015610d355760405162461bcd60e51b815260206004820152602660248201527f45524332303a207472616e7366657220616d6f756e7420657863656564732062604482015265616c616e636560d01b606482015260840161079d565b6001600160a01b03808516600090815260208190526040808220858503905591851681529081208054849290610d6c908490610f93565b92505081905550826001600160a01b0316846001600160a01b03167fddf252ad1be2c89b69c2b068fc378daa952ba7f163c4a11628f55a4df523b3ef84604051610db891815260200190565b60405180910390a350505050565b60006020808352835180602085015260005b81811015610df457858101830151858201604001528201610dd8565b506000604082860101526040601f19601f8301168501019250505092915050565b80356001600160a01b0381168114610e2c57600080fd5b919050565b60008060408385031215610e4457600080fd5b610e4d83610e15565b946020939093013593505050565b600080600060608486031215610e7057600080fd5b610e7984610e15565b9250610e8760208501610e15565b9150604084013590509250925092565b600060208284031215610ea957600080fd5b8135801515811461065057600080fd5b600060208284031215610ecb57600080fd5b5035919050565b600060208284031215610ee457600080fd5b61065082610e15565b600060208284031215610eff57600080fd5b813560ff8116811461065057600080fd5b60008060408385031215610f2357600080fd5b610f2c83610e15565b9150610f3a60208401610e15565b90509250929050565b600181811c90821680610f5757607f821691505b602082108103610f7757634e487b7160e01b600052602260045260246000fd5b50919050565b634e487b7160e01b600052601160045260246000fd5b808201808211156105f8576105f8610f7d565b80820281158282048414176105f8576105f8610f7d565b600082610fda57634e487b7160e01b600052601260045260246000fd5b500490565b818103818111156105f8576105f8610f7d56fea2646970667358221220a2fe76968362f6924592eadb877bf95d5092bc4c8925de5c4a977c39b4abbf0164736f6c63430008180033",
  "linkReferences": {},
  "deployedLinkReferences": {}
}