{"abi":[{"type":"fallback","stateMutability":"payable"},{"type":"receive","stateMutability":"payable"},{"type":"function","name":"DEFAULT_ADMIN_ROLE","inputs":[],"outputs":[{"name":"","type":"bytes32","internalType":"bytes32"}],"stateMutability":"view"},{"type":"function","name":"REVERT_MSG","inputs":[],"outputs":[{"name":"","type":"string","internalType":"string"}],"stateMutability":"view"},{"type":"function","name":"VAULT_STRATEGY_ROLE","inputs":[],"outputs":[{"name":"","type":"bytes32","internalType":"bytes32"}],"stateMutability":"view"},{"type":"function","name":"claimEarnings","inputs":[{"name":"","type":"address","internalType":"address"},{"name":"","type":"address","internalType":"address"}],"outputs":[{"name":"","type":"address","internalType":"address"},{"name":"","type":"uint256","internalType":"uint256"}],"stateMutability":"nonpayable"},{"type":"function","name":"deposit","inputs":[{"name":"sender_","type":"address","internalType":"address"},{"name":"receiver_","type":"address","internalType":"address"},{"name":"token_","type":"address","internalType":"address"},{"name":"tokenAmount_","type":"uint256","internalType":"uint256"},{"name":"wrapToken_","type":"bool","internalType":"bool"}],"outputs":[{"name":"liquidTkn","type":"address","internalType":"address"},{"name":"liquidTknAmount","type":"uint256","internalType":"uint256"}],"stateMutability":"nonpayable"},{"type":"function","name":"getProtocol","inputs":[],"outputs":[{"name":"","type":"address","internalType":"address"}],"stateMutability":"view"},{"type":"function","name":"getRoleAdmin","inputs":[{"name":"role","type":"bytes32","internalType":"bytes32"}],"outputs":[{"name":"","type":"bytes32","internalType":"bytes32"}],"stateMutability":"view"},{"type":"function","name":"getSlippage","inputs":[],"outputs":[{"name":"","type":"uint256","internalType":"uint256"}],"stateMutability":"view"},{"type":"function","name":"getTokenPrice","inputs":[{"name":"token_","type":"address","internalType":"address"}],"outputs":[{"name":"","type":"uint256","internalType":"uint256"}],"stateMutability":"view"},{"type":"function","name":"grantRole","inputs":[{"name":"role","type":"bytes32","internalType":"bytes32"},{"name":"account","type":"address","internalType":"address"}],"outputs":[],"stateMutability":"nonpayable"},{"type":"function","name":"hasRole","inputs":[{"name":"role","type":"bytes32","internalType":"bytes32"},{"name":"account","type":"address","internalType":"address"}],"outputs":[{"name":"","type":"bool","internalType":"bool"}],"stateMutability":"view"},{"type":"function","name":"initialize","inputs":[{"name":"protocolAddress_","type":"address","internalType":"address"},{"name":"wethAddress_","type":"address","internalType":"address"},{"name":"wstETHAddress_","type":"address","internalType":"address"}],"outputs":[],"stateMutability":"nonpayable"},{"type":"function","name":"pause","inputs":[],"outputs":[],"stateMutability":"nonpayable"},{"type":"function","name":"paused","inputs":[],"outputs":[{"name":"","type":"bool","internalType":"bool"}],"stateMutability":"view"},{"type":"function","name":"protocolAddress","inputs":[],"outputs":[{"name":"","type":"address","internalType":"address"}],"stateMutability":"view"},{"type":"function","name":"protocolName","inputs":[],"outputs":[{"name":"","type":"string","internalType":"string"}],"stateMutability":"view"},{"type":"function","name":"renounceRole","inputs":[{"name":"role","type":"bytes32","internalType":"bytes32"},{"name":"callerConfirmation","type":"address","internalType":"address"}],"outputs":[],"stateMutability":"nonpayable"},{"type":"function","name":"revokeRole","inputs":[{"name":"role","type":"bytes32","internalType":"bytes32"},{"name":"account","type":"address","internalType":"address"}],"outputs":[],"stateMutability":"nonpayable"},{"type":"function","name":"setSlippage","inputs":[{"name":"slippage_","type":"uint256","internalType":"uint256"}],"outputs":[],"stateMutability":"nonpayable"},{"type":"function","name":"setWETHAddress","inputs":[{"name":"wethAddress_","type":"address","internalType":"address"}],"outputs":[],"stateMutability":"nonpayable"},{"type":"function","name":"setWstETHAddress","inputs":[{"name":"wstETHAddress_","type":"address","internalType":"address"}],"outputs":[],"stateMutability":"nonpayable"},{"type":"function","name":"setprotocolAddress","inputs":[{"name":"protocolAddress_","type":"address","internalType":"address"}],"outputs":[],"stateMutability":"nonpayable"},{"type":"function","name":"slippage","inputs":[],"outputs":[{"name":"","type":"uint256","internalType":"uint256"}],"stateMutability":"view"},{"type":"function","name":"supportsInterface","inputs":[{"name":"interfaceId","type":"bytes4","internalType":"bytes4"}],"outputs":[{"name":"","type":"bool","internalType":"bool"}],"stateMutability":"view"},{"type":"function","name":"unpause","inputs":[],"outputs":[],"stateMutability":"nonpayable"},{"type":"function","name":"wethAddress","inputs":[],"outputs":[{"name":"","type":"address","internalType":"address"}],"stateMutability":"view"},{"type":"function","name":"withdraw","inputs":[{"name":"","type":"address","internalType":"address"},{"name":"","type":"address","internalType":"address"},{"name":"","type":"address","internalType":"address"},{"name":"","type":"uint256","internalType":"uint256"},{"name":"","type":"address","internalType":"address"},{"name":"","type":"uint256","internalType":"uint256"},{"name":"","type":"bytes","internalType":"bytes"}],"outputs":[{"name":"","type":"address","internalType":"address"},{"name":"","type":"uint256","internalType":"uint256"}],"stateMutability":"nonpayable"},{"type":"function","name":"wstETHAddress","inputs":[],"outputs":[{"name":"","type":"address","internalType":"address"}],"stateMutability":"view"},{"type":"event","name":"AddressUpdated","inputs":[{"name":"which","type":"string","indexed":true,"internalType":"string"},{"name":"newAddress","type":"address","indexed":false,"internalType":"address"}],"anonymous":false},{"type":"event","name":"DepositedOnProtocol","inputs":[{"name":"sender","type":"address","indexed":true,"internalType":"address"},{"name":"token","type":"address","indexed":true,"internalType":"address"},{"name":"tokenAmount","type":"uint256","indexed":false,"internalType":"uint256"},{"name":"liquidTkn","type":"address","indexed":true,"internalType":"address"},{"name":"liquidTknAmount","type":"uint256","indexed":false,"internalType":"uint256"}],"anonymous":false},{"type":"event","name":"Initialized","inputs":[{"name":"version","type":"uint64","indexed":false,"internalType":"uint64"}],"anonymous":false},{"type":"event","name":"Paused","inputs":[{"name":"account","type":"address","indexed":false,"internalType":"address"}],"anonymous":false},{"type":"event","name":"RoleAdminChanged","inputs":[{"name":"role","type":"bytes32","indexed":true,"internalType":"bytes32"},{"name":"previousAdminRole","type":"bytes32","indexed":true,"internalType":"bytes32"},{"name":"newAdminRole","type":"bytes32","indexed":true,"internalType":"bytes32"}],"anonymous":false},{"type":"event","name":"RoleGranted","inputs":[{"name":"role","type":"bytes32","indexed":true,"internalType":"bytes32"},{"name":"account","type":"address","indexed":true,"internalType":"address"},{"name":"sender","type":"address","indexed":true,"internalType":"address"}],"anonymous":false},{"type":"event","name":"RoleRevoked","inputs":[{"name":"role","type":"bytes32","indexed":true,"internalType":"bytes32"},{"name":"account","type":"address","indexed":true,"internalType":"address"},{"name":"sender","type":"address","indexed":true,"internalType":"address"}],"anonymous":false},{"type":"event","name":"SlippageUpdated","inputs":[{"name":"newSlippage","type":"uint256","indexed":false,"internalType":"uint256"}],"anonymous":false},{"type":"event","name":"Unpaused","inputs":[{"name":"account","type":"address","indexed":false,"internalType":"address"}],"anonymous":false},{"type":"event","name":"WithdrawFromProtocol","inputs":[{"name":"caller_","type":"address","indexed":true,"internalType":"address"},{"name":"receiver_","type":"address","indexed":true,"internalType":"address"},{"name":"liquidTokenAddress_","type":"address","indexed":true,"internalType":"address"},{"name":"amountSpent","type":"uint256","indexed":false,"internalType":"uint256"},{"name":"asset_","type":"address","indexed":false,"internalType":"address"},{"name":"assetsAmount_","type":"uint256","indexed":false,"internalType":"uint256"}],"anonymous":false},{"type":"error","name":"AccessControlBadConfirmation","inputs":[]},{"type":"error","name":"AccessControlUnauthorizedAccount","inputs":[{"name":"account","type":"address","internalType":"address"},{"name":"neededRole","type":"bytes32","internalType":"bytes32"}]},{"type":"error","name":"AddressEmptyCode","inputs":[{"name":"target","type":"address","internalType":"address"}]},{"type":"error","name":"AddressInsufficientBalance","inputs":[{"name":"account","type":"address","internalType":"address"}]},{"type":"error","name":"EnforcedPause","inputs":[]},{"type":"error","name":"ExpectedPause","inputs":[]},{"type":"error","name":"FailedInnerCall","inputs":[]},{"type":"error","name":"InvalidInitialization","inputs":[]},{"type":"error","name":"InvalidLidoPrice","inputs":[{"name":"inLidoContract","type":"uint256","internalType":"uint256"},{"name":"inWstEthContract","type":"uint256","internalType":"uint256"}]},{"type":"error","name":"NotInitializing","inputs":[]},{"type":"error","name":"OnlyWETHAllowed","inputs":[]},{"type":"error","name":"ReentrancyGuardReentrantCall","inputs":[]},{"type":"error","name":"SafeERC20FailedOperation","inputs":[{"name":"token","type":"address","internalType":"address"}]},{"type":"error","name":"SlippageExceededOnDeposit","inputs":[{"name":"required","type":"uint256","internalType":"uint256"},{"name":"actual","type":"uint256","internalType":"uint256"}]},{"type":"error","name":"SlippageExceededOnWithdrawal","inputs":[{"name":"required","type":"uint256","internalType":"uint256"},{"name":"actual","type":"uint256","internalType":"uint256"}]},{"type":"error","name":"StakingPaused","inputs":[]},{"type":"error","name":"WrapError","inputs":[{"name":"token","type":"address","internalType":"address"},{"name":"amount","type":"uint256","internalType":"uint256"}]},{"type":"error","name":"ZeroAddress","inputs":[{"name":"target","type":"string","internalType":"string"}]},{"type":"error","name":"ZeroAmount","inputs":[{"name":"target","type":"string","internalType":"string"}]}],"bytecode":{"object":"0x608060405234801561001057600080fd5b50611df8806100206000396000f3fe6080604052600436106101a35760003560e01c80637e531a39116100e0578063c0c53b8b11610084578063d547741f11610061578063d547741f1461051a578063e567e8691461053a578063f0fa55a91461054f578063fc9cee3c1461056f57005b8063c0c53b8b146104bc578063d02641a0146104dc578063d16352af146104fc57005b806391d14854116100bd57806391d148541461044c578063970de3811461046c5780639be65d9614610487578063a217fddf146104a757005b80637e531a39146103ca5780638024e968146104175780638456cb591461043757005b80633e032a3b116101475780635354c2b1116101245780635354c2b1146103265780635c975abb146103655780636a39fe601461038a5780636a4234eb146103aa57005b80633e032a3b146102db5780633f4ba83a146102f15780634f0e0ef31461030657005b80631bacfd0b116101805780631bacfd0b14610239578063248a9ca31461027b5780632f2ff15d1461029b57806336568abe146102bb57005b806301ffc9a7146101ac5780630676c1b7146101e157806313e69bf81461021957005b366101aa57005b005b3480156101b857600080fd5b506101cc6101c736600461188d565b610584565b60405190151581526020015b60405180910390f35b3480156101ed57600080fd5b50600354610201906001600160a01b031681565b6040516001600160a01b0390911681526020016101d8565b34801561022557600080fd5b506101aa6102343660046118d3565b6105bb565b34801561024557600080fd5b5061026d7f4fe08aea4652d25d7d2c09148537810c0b7e49021cc60dd467483872e4452ff581565b6040519081526020016101d8565b34801561028757600080fd5b5061026d6102963660046118ee565b610679565b3480156102a757600080fd5b506101aa6102b6366004611907565b61069b565b3480156102c757600080fd5b506101aa6102d6366004611907565b6106bd565b3480156102e757600080fd5b5061026d60015481565b3480156102fd57600080fd5b506101aa6106f5565b34801561031257600080fd5b50600054610201906001600160a01b031681565b34801561033257600080fd5b50610346610341366004611941565b61070b565b604080516001600160a01b0390931683526020830191909152016101d8565b34801561037157600080fd5b50600080516020611da38339815191525460ff166101cc565b34801561039657600080fd5b506103466103a53660046119b9565b610c66565b3480156103b657600080fd5b506101aa6103c53660046118d3565b610caf565b3480156103d657600080fd5b5061040a60405180604001604052806014815260200173119d5b98dd1a5bdb881b9bdd08185b1b1bddd95960621b81525081565b6040516101d89190611ae4565b34801561042357600080fd5b506101aa6104323660046118d3565b610d65565b34801561044357600080fd5b506101aa610e1f565b34801561045857600080fd5b506101cc610467366004611907565b610e32565b34801561047857600080fd5b506103466103a5366004611b17565b34801561049357600080fd5b50600454610201906001600160a01b031681565b3480156104b357600080fd5b5061026d600081565b3480156104c857600080fd5b506101aa6104d7366004611b41565b610e6a565b3480156104e857600080fd5b5061026d6104f73660046118d3565b611097565b34801561050857600080fd5b506003546001600160a01b0316610201565b34801561052657600080fd5b506101aa610535366004611907565b611178565b34801561054657600080fd5b5061040a611194565b34801561055b57600080fd5b506101aa61056a3660046118ee565b611222565b34801561057b57600080fd5b5060015461026d565b60006001600160e01b03198216637965db0b60e01b14806105b557506301ffc9a760e01b6001600160e01b03198316145b92915050565b60006105c681611291565b6105f8826040518060400160405280601081526020016f70726f746f636f6c416464726573735f60801b81525061129b565b6040516e70726f746f636f6c4164647265737360881b8152600f016040519081900381206001600160a01b0384168252907f943e9d45a11aaae5d87503e3bc248665d9807856e5cf2bdb4a988bee444227819060200160405180910390a250600380546001600160a01b0319166001600160a01b0392909216919091179055565b6000908152600080516020611d83833981519152602052604090206001015490565b6106a482610679565b6106ad81611291565b6106b783836112c8565b50505050565b6001600160a01b03811633146106e65760405163334bd91960e11b815260040160405180910390fd5b6106f0828261136d565b505050565b600061070081611291565b6107086113e9565b50565b600080610716611449565b61071e61147c565b7f4fe08aea4652d25d7d2c09148537810c0b7e49021cc60dd467483872e4452ff561074881611291565b610771886040518060400160405280600781526020016673656e6465725f60c81b81525061129b565b61079c876040518060400160405280600981526020016872656365697665725f60b81b81525061129b565b6107c48660405180604001604052806006815260200165746f6b656e5f60d01b81525061129b565b6107f2856040518060400160405280600c81526020016b746f6b656e416d6f756e745f60a01b8152506114c6565b6000546001600160a01b0387811691161461082057604051632f5e77a960e01b815260040160405180910390fd5b600054610838906001600160a01b03168930886114e9565b600054604051632e1a7d4d60e01b8152600481018790526001600160a01b0390911690632e1a7d4d90602401600060405180830381600087803b15801561087e57600080fd5b505af1158015610892573d6000803e3d6000fd5b50505050600360009054906101000a90046001600160a01b03166001600160a01b0316631ea7ca896040518163ffffffff1660e01b8152600401602060405180830381865afa1580156108e9573d6000803e3d6000fd5b505050506040513d601f19601f8201168201806040525081019061090d9190611b84565b1561092b576040516326d1807b60e01b815260040160405180910390fd5b6000670de0b6b3a7640000600154670de0b6b3a764000061094c9190611bb7565b6109569088611bca565b6109609190611be1565b60035460405163a1903eab60e01b8152600060048201529192506001600160a01b03169063a1903eab90889060240160206040518083038185885af11580156109ad573d6000803e3d6000fd5b50505050506040513d601f19601f820116820180604052508101906109d29190611c03565b506003546040516370a0823160e01b81523060048201526000916001600160a01b0316906370a0823190602401602060405180830381865afa158015610a1c573d6000803e3d6000fd5b505050506040513d601f19601f82011682018060405250810190610a409190611c03565b905081811015610a725760405163c60d402760e01b815260048101839052602481018290526044015b60405180910390fd5b6003546001600160a01b031694509250828515610bbc576003546004805460405163095ea7b360e01b81526001600160a01b0391821692810192909252602482018490529091169063095ea7b3906044016020604051808303816000875af1158015610ae2573d6000803e3d6000fd5b505050506040513d601f19601f82011682018060405250810190610b069190611b84565b5060048054604051630ea598cb60e41b81529182018390526001600160a01b03169063ea598cb0906024016020604051808303816000875af1158015610b50573d6000803e3d6000fd5b505050506040513d601f19601f82011682018060405250810190610b749190611c03565b6004546001600160a01b0316955093506000849003610bbc576003546040516309b835c760e31b81526001600160a01b03909116600482015260248101829052604401610a69565b610bd06001600160a01b0386168a86611550565b846001600160a01b0316886001600160a01b03168b6001600160a01b03167f044d4bbddd3af59e620636cb231e96ccd6acfbac6aa9a369ea17075cc839daee8a88604051610c28929190918252602082015260400190565b60405180910390a4505050610c5c60017f9b779b17422d0df92223018b32b4d1fa46e071723d6817e2486d003becc55f0055565b9550959350505050565b60008060405180604001604052806014815260200173119d5b98dd1a5bdb881b9bdd08185b1b1bddd95960621b81525060405162461bcd60e51b8152600401610a699190611ae4565b6000610cba81611291565b610ce8826040518060400160405280600c81526020016b77657468416464726573735f60a01b81525061129b565b6040516a776574684164647265737360a81b8152600b016040519081900381206001600160a01b0384168252907f943e9d45a11aaae5d87503e3bc248665d9807856e5cf2bdb4a988bee444227819060200160405180910390a250600080546001600160a01b0319166001600160a01b0392909216919091179055565b6000610d7081611291565b610da0826040518060400160405280600e81526020016d777374455448416464726573735f60901b81525061129b565b6040516c7773744554484164647265737360981b8152600d016040519081900381206001600160a01b0384168252907f943e9d45a11aaae5d87503e3bc248665d9807856e5cf2bdb4a988bee444227819060200160405180910390a250600480546001600160a01b0319166001600160a01b0392909216919091179055565b6000610e2a81611291565b6107086115a7565b6000918252600080516020611d83833981519152602090815260408084206001600160a01b0393909316845291905290205460ff1690565b7ff0c57e16840df040f15088dc2f81fe391c3923bec73e23a9662efc9c229c6a008054600160401b810460ff16159067ffffffffffffffff16600081158015610eb05750825b905060008267ffffffffffffffff166001148015610ecd5750303b155b905081158015610edb575080155b15610ef95760405163f92ee8a960e01b815260040160405180910390fd5b845467ffffffffffffffff191660011785558315610f2357845460ff60401b1916600160401b1785555b610f55886040518060400160405280601081526020016f70726f746f636f6c416464726573735f60801b81525061129b565b610f83876040518060400160405280600c81526020016b77657468416464726573735f60a01b81525061129b565b610fb3866040518060400160405280600e81526020016d777374455448416464726573735f60901b81525061129b565b610fbb6115f0565b610fc36115f8565b610fcb611608565b610fd66000336112c8565b50600380546001600160a01b03808b166001600160a01b031992831617909255600080548a84169083161790556004805492891692909116919091178155668e1bc9bf04000060015560408051808201909152908152634c69646f60e01b60208201526002906110469082611ca6565b50831561108d57845460ff60401b19168555604051600181527fc7f505b2f371ae2175ee4913f4499e1f2633a7b5936321eed1cdaeb6115181d29060200160405180910390a15b5050505050505050565b60035460009081906001600160a01b03908116908416036110c15750670de0b6b3a764000061114e565b6004546001600160a01b039081169084160361114e57600354604051630f451f7160e31b8152670de0b6b3a764000060048201526001600160a01b0390911690637a28fb8890602401602060405180830381865afa158015611127573d6000803e3d6000fd5b505050506040513d601f19601f8201168201806040525081019061114b9190611c03565b90505b600081116105b55760405162e22d2d60e41b81526004810182905260006024820152604401610a69565b61118182610679565b61118a81611291565b6106b7838361136d565b600280546111a190611c1c565b80601f01602080910402602001604051908101604052809291908181526020018280546111cd90611c1c565b801561121a5780601f106111ef5761010080835404028352916020019161121a565b820191906000526020600020905b8154815290600101906020018083116111fd57829003601f168201915b505050505081565b600061122d81611291565b6112588260405180604001604052806009815260200168736c6970706167655f60b81b8152506114c6565b6040518281527ff5a802650e0a86db227cc342f06327d2ca0ff5cf2b12e0084fc5d8a7db2c54fd9060200160405180910390a150600155565b6107088133611618565b6001600160a01b0382166112c4578060405163eac0d38960e01b8152600401610a699190611ae4565b5050565b6000600080516020611d838339815191526112e38484610e32565b611363576000848152602082815260408083206001600160a01b03871684529091529020805460ff191660011790556113193390565b6001600160a01b0316836001600160a01b0316857f2f8788117e7eff1d82e926ec794901d17c78024a50270940304540a733656f0d60405160405180910390a460019150506105b5565b60009150506105b5565b6000600080516020611d838339815191526113888484610e32565b15611363576000848152602082815260408083206001600160a01b0387168085529252808320805460ff1916905551339287917ff6391f5c32d9c69d2a47ea670b442974b53935d1edc7fd64eb21e047a839171b9190a460019150506105b5565b6113f1611651565b600080516020611da3833981519152805460ff191681557f5db9ee0a495bf2e6ff9c91a7834c1ba4fdd244a5e8aa4e537bd38aeae4b073aa335b6040516001600160a01b03909116815260200160405180910390a150565b600080516020611da38339815191525460ff161561147a5760405163d93c066560e01b815260040160405180910390fd5b565b7f9b779b17422d0df92223018b32b4d1fa46e071723d6817e2486d003becc55f008054600119016114c057604051633ee5aeb560e01b815260040160405180910390fd5b60029055565b816000036112c457806040516303b3e63560e41b8152600401610a699190611ae4565b6040516001600160a01b0384811660248301528381166044830152606482018390526106b79186918216906323b872dd906084015b604051602081830303815290604052915060e01b6020820180516001600160e01b038381831617835250505050611681565b6040516001600160a01b038381166024830152604482018390526106f091859182169063a9059cbb9060640161151e565b60017f9b779b17422d0df92223018b32b4d1fa46e071723d6817e2486d003becc55f0055565b6115af611449565b600080516020611da3833981519152805460ff191660011781557f62e78cea01bee320cd4e420270b5ea74000d11b0c9f74754ebdbfc544b05a2583361142b565b61147a6116e4565b6116006116e4565b61147a61172d565b6116106116e4565b61147a611735565b6116228282610e32565b6112c45760405163e2517d3f60e01b81526001600160a01b038216600482015260248101839052604401610a69565b600080516020611da38339815191525460ff1661147a57604051638dfc202b60e01b815260040160405180910390fd5b60006116966001600160a01b03841683611756565b905080516000141580156116bb5750808060200190518101906116b99190611b84565b155b156106f057604051635274afe760e01b81526001600160a01b0384166004820152602401610a69565b7ff0c57e16840df040f15088dc2f81fe391c3923bec73e23a9662efc9c229c6a0054600160401b900460ff1661147a57604051631afcd79f60e31b815260040160405180910390fd5b6115816116e4565b61173d6116e4565b600080516020611da3833981519152805460ff19169055565b60606117648383600061176b565b9392505050565b6060814710156117905760405163cd78605960e01b8152306004820152602401610a69565b600080856001600160a01b031684866040516117ac9190611d66565b60006040518083038185875af1925050503d80600081146117e9576040519150601f19603f3d011682016040523d82523d6000602084013e6117ee565b606091505b50915091506117fe868383611808565b9695505050505050565b60608261181d5761181882611864565b611764565b815115801561183457506001600160a01b0384163b155b1561185d57604051639996b31560e01b81526001600160a01b0385166004820152602401610a69565b5080611764565b8051156118745780518082602001fd5b604051630a12f52160e11b815260040160405180910390fd5b60006020828403121561189f57600080fd5b81356001600160e01b03198116811461176457600080fd5b80356001600160a01b03811681146118ce57600080fd5b919050565b6000602082840312156118e557600080fd5b611764826118b7565b60006020828403121561190057600080fd5b5035919050565b6000806040838503121561191a57600080fd5b8235915061192a602084016118b7565b90509250929050565b801515811461070857600080fd5b600080600080600060a0868803121561195957600080fd5b611962866118b7565b9450611970602087016118b7565b935061197e604087016118b7565b925060608601359150608086013561199581611933565b809150509295509295909350565b634e487b7160e01b600052604160045260246000fd5b600080600080600080600060e0888a0312156119d457600080fd5b6119dd886118b7565b96506119eb602089016118b7565b95506119f9604089016118b7565b945060608801359350611a0e608089016118b7565b925060a0880135915060c088013567ffffffffffffffff80821115611a3257600080fd5b818a0191508a601f830112611a4657600080fd5b813581811115611a5857611a586119a3565b604051601f8201601f19908116603f01168101908382118183101715611a8057611a806119a3565b816040528281528d6020848701011115611a9957600080fd5b82602086016020830137600060208483010152809550505050505092959891949750929550565b60005b83811015611adb578181015183820152602001611ac3565b50506000910152565b6020815260008251806020840152611b03816040850160208701611ac0565b601f01601f19169190910160400192915050565b60008060408385031215611b2a57600080fd5b611b33836118b7565b915061192a602084016118b7565b600080600060608486031215611b5657600080fd5b611b5f846118b7565b9250611b6d602085016118b7565b9150611b7b604085016118b7565b90509250925092565b600060208284031215611b9657600080fd5b815161176481611933565b634e487b7160e01b600052601160045260246000fd5b818103818111156105b5576105b5611ba1565b80820281158282048414176105b5576105b5611ba1565b600082611bfe57634e487b7160e01b600052601260045260246000fd5b500490565b600060208284031215611c1557600080fd5b5051919050565b600181811c90821680611c3057607f821691505b602082108103611c5057634e487b7160e01b600052602260045260246000fd5b50919050565b601f8211156106f0576000816000526020600020601f850160051c81016020861015611c7f5750805b601f850160051c820191505b81811015611c9e57828155600101611c8b565b505050505050565b815167ffffffffffffffff811115611cc057611cc06119a3565b611cd481611cce8454611c1c565b84611c56565b602080601f831160018114611d095760008415611cf15750858301515b600019600386901b1c1916600185901b178555611c9e565b600085815260208120601f198616915b82811015611d3857888601518255948401946001909101908401611d19565b5085821015611d565787850151600019600388901b60f8161c191681555b5050505050600190811b01905550565b60008251611d78818460208701611ac0565b919091019291505056fe02dd7bc7dec4dceedda775e58dd541e08a116c6c53815c0bd028192f7b626800cd5ed15c6e187e77e9aee88184c21f4f2182ab5827cb3b7e07fbedcd63f03300a2646970667358221220ec111bfba70e65678737a0922bab1a4aa9852663c18befd70b4b64bcf625661664736f6c63430008180033","linkReferences":{}},"methodIdentifiers":{"DEFAULT_ADMIN_ROLE()":"a217fddf","REVERT_MSG()":"7e531a39","VAULT_STRATEGY_ROLE()":"1bacfd0b","claimEarnings(address,address)":"970de381","deposit(address,address,address,uint256,bool)":"5354c2b1","getProtocol()":"d16352af","getRoleAdmin(bytes32)":"248a9ca3","getSlippage()":"fc9cee3c","getTokenPrice(address)":"d02641a0","grantRole(bytes32,address)":"2f2ff15d","hasRole(bytes32,address)":"91d14854","initialize(address,address,address)":"c0c53b8b","pause()":"8456cb59","paused()":"5c975abb","protocolAddress()":"0676c1b7","protocolName()":"e567e869","renounceRole(bytes32,address)":"36568abe","revokeRole(bytes32,address)":"d547741f","setSlippage(uint256)":"f0fa55a9","setWETHAddress(address)":"6a4234eb","setWstETHAddress(address)":"8024e968","setprotocolAddress(address)":"13e69bf8","slippage()":"3e032a3b","supportsInterface(bytes4)":"01ffc9a7","unpause()":"3f4ba83a","wethAddress()":"4f0e0ef3","withdraw(address,address,address,uint256,address,uint256,bytes)":"6a39fe60","wstETHAddress()":"9be65d96"},"id":27}