{
  "_format": "hh-sol-artifact-1",
  "contractName": "StrSimpleReStaking",
  "sourceName": "contracts/vaultStrategies/StrSimpleReStaking.sol",
  "abi": [
    {
      "inputs": [],
      "name": "AccessControlBadConfirmation",
      "type": "error"
    },
    {
      "inputs": [
        {
          "internalType": "address",
          "name": "account",
          "type": "address"
        },
        {
          "internalType": "bytes32",
          "name": "neededRole",
          "type": "bytes32"
        }
      ],
      "name": "AccessControlUnauthorizedAccount",
      "type": "error"
    },
    {
      "inputs": [
        {
          "internalType": "string",
          "name": "target",
          "type": "string"
        }
      ],
      "name": "EmptyString",
      "type": "error"
    },
    {
      "inputs": [],
      "name": "EnforcedPause",
      "type": "error"
    },
    {
      "inputs": [
        {
          "internalType": "uint256",
          "name": "index",
          "type": "uint256"
        }
      ],
      "name": "ErrorStep",
      "type": "error"
    },
    {
      "inputs": [],
      "name": "ExecuteWithdrawWStrategyError",
      "type": "error"
    },
    {
      "inputs": [],
      "name": "ExpectedPause",
      "type": "error"
    },
    {
      "inputs": [
        {
          "internalType": "uint256",
          "name": "balance",
          "type": "uint256"
        },
        {
          "internalType": "uint256",
          "name": "needed",
          "type": "uint256"
        }
      ],
      "name": "InsufficientFundsToWithdraw",
      "type": "error"
    },
    {
      "inputs": [
        {
          "internalType": "string",
          "name": "target",
          "type": "string"
        }
      ],
      "name": "InvalidAdaptersPath",
      "type": "error"
    },
    {
      "inputs": [],
      "name": "InvalidInitialization",
      "type": "error"
    },
    {
      "inputs": [],
      "name": "MalformedPath",
      "type": "error"
    },
    {
      "inputs": [],
      "name": "MinTwoTokensNeeded",
      "type": "error"
    },
    {
      "inputs": [],
      "name": "NotInitializing",
      "type": "error"
    },
    {
      "inputs": [],
      "name": "ReentrancyGuardReentrantCall",
      "type": "error"
    },
    {
      "inputs": [
        {
          "internalType": "address",
          "name": "tokenWrapperAddress",
          "type": "address"
        },
        {
          "internalType": "uint256",
          "name": "amountInMaximum",
          "type": "uint256"
        },
        {
          "internalType": "bool",
          "name": "wrap",
          "type": "bool"
        }
      ],
      "name": "StrategyWrapError",
      "type": "error"
    },
    {
      "inputs": [
        {
          "internalType": "string",
          "name": "target",
          "type": "string"
        }
      ],
      "name": "ZeroAddress",
      "type": "error"
    },
    {
      "inputs": [
        {
          "internalType": "string",
          "name": "target",
          "type": "string"
        }
      ],
      "name": "ZeroAmount",
      "type": "error"
    },
    {
      "anonymous": false,
      "inputs": [
        {
          "indexed": false,
          "internalType": "address[]",
          "name": "newDeployPath",
          "type": "address[]"
        }
      ],
      "name": "AdaptersDeployPathSet",
      "type": "event"
    },
    {
      "anonymous": false,
      "inputs": [
        {
          "indexed": false,
          "internalType": "address[]",
          "name": "newWithdrawPath",
          "type": "address[]"
        }
      ],
      "name": "AdaptersWithdrawPathSet",
      "type": "event"
    },
    {
      "anonymous": false,
      "inputs": [
        {
          "indexed": false,
          "internalType": "address",
          "name": "liquidTokenAddress",
          "type": "address"
        },
        {
          "indexed": false,
          "internalType": "uint256",
          "name": "deployedAssetsValueETH",
          "type": "uint256"
        },
        {
          "indexed": false,
          "internalType": "address",
          "name": "strategyContract",
          "type": "address"
        }
      ],
      "name": "DeployedAssetsValueUpdated",
      "type": "event"
    },
    {
      "anonymous": false,
      "inputs": [
        {
          "indexed": true,
          "internalType": "address",
          "name": "assets",
          "type": "address"
        },
        {
          "indexed": false,
          "internalType": "uint256",
          "name": "assetsAmount",
          "type": "uint256"
        },
        {
          "indexed": true,
          "internalType": "address",
          "name": "liquidToken",
          "type": "address"
        },
        {
          "indexed": false,
          "internalType": "uint256",
          "name": "liquidTokenAmount",
          "type": "uint256"
        }
      ],
      "name": "DeploymentStrategyExecuted",
      "type": "event"
    },
    {
      "anonymous": false,
      "inputs": [
        {
          "indexed": false,
          "internalType": "uint64",
          "name": "version",
          "type": "uint64"
        }
      ],
      "name": "Initialized",
      "type": "event"
    },
    {
      "anonymous": false,
      "inputs": [
        {
          "indexed": true,
          "internalType": "address",
          "name": "",
          "type": "address"
        }
      ],
      "name": "LiquidTokenSet",
      "type": "event"
    },
    {
      "anonymous": false,
      "inputs": [
        {
          "indexed": false,
          "internalType": "bytes",
          "name": "path",
          "type": "bytes"
        }
      ],
      "name": "PathUpdated",
      "type": "event"
    },
    {
      "anonymous": false,
      "inputs": [
        {
          "indexed": false,
          "internalType": "address",
          "name": "account",
          "type": "address"
        }
      ],
      "name": "Paused",
      "type": "event"
    },
    {
      "anonymous": false,
      "inputs": [
        {
          "indexed": false,
          "internalType": "address",
          "name": "token",
          "type": "address"
        },
        {
          "indexed": false,
          "internalType": "address",
          "name": "priceFeed",
          "type": "address"
        }
      ],
      "name": "PriceFeedSet",
      "type": "event"
    },
    {
      "anonymous": false,
      "inputs": [
        {
          "indexed": true,
          "internalType": "bytes32",
          "name": "role",
          "type": "bytes32"
        },
        {
          "indexed": true,
          "internalType": "bytes32",
          "name": "previousAdminRole",
          "type": "bytes32"
        },
        {
          "indexed": true,
          "internalType": "bytes32",
          "name": "newAdminRole",
          "type": "bytes32"
        }
      ],
      "name": "RoleAdminChanged",
      "type": "event"
    },
    {
      "anonymous": false,
      "inputs": [
        {
          "indexed": true,
          "internalType": "bytes32",
          "name": "role",
          "type": "bytes32"
        },
        {
          "indexed": true,
          "internalType": "address",
          "name": "account",
          "type": "address"
        },
        {
          "indexed": true,
          "internalType": "address",
          "name": "sender",
          "type": "address"
        }
      ],
      "name": "RoleGranted",
      "type": "event"
    },
    {
      "anonymous": false,
      "inputs": [
        {
          "indexed": true,
          "internalType": "bytes32",
          "name": "role",
          "type": "bytes32"
        },
        {
          "indexed": true,
          "internalType": "address",
          "name": "account",
          "type": "address"
        },
        {
          "indexed": true,
          "internalType": "address",
          "name": "sender",
          "type": "address"
        }
      ],
      "name": "RoleRevoked",
      "type": "event"
    },
    {
      "anonymous": false,
      "inputs": [
        {
          "indexed": false,
          "internalType": "string",
          "name": "name",
          "type": "string"
        }
      ],
      "name": "StrategyNameSet",
      "type": "event"
    },
    {
      "anonymous": false,
      "inputs": [
        {
          "indexed": true,
          "internalType": "address",
          "name": "",
          "type": "address"
        }
      ],
      "name": "TokenWrapperSet",
      "type": "event"
    },
    {
      "anonymous": false,
      "inputs": [
        {
          "indexed": false,
          "internalType": "address",
          "name": "account",
          "type": "address"
        }
      ],
      "name": "Unpaused",
      "type": "event"
    },
    {
      "anonymous": false,
      "inputs": [
        {
          "indexed": false,
          "internalType": "address",
          "name": "wrappedLiquidTokenAddress",
          "type": "address"
        },
        {
          "indexed": false,
          "internalType": "uint256",
          "name": "wrappedAmount",
          "type": "uint256"
        },
        {
          "indexed": false,
          "internalType": "address",
          "name": "liquidTokenAddress",
          "type": "address"
        },
        {
          "indexed": false,
          "internalType": "uint256",
          "name": "unwrappedAmount",
          "type": "uint256"
        }
      ],
      "name": "UnwrappedAmount",
      "type": "event"
    },
    {
      "anonymous": false,
      "inputs": [
        {
          "indexed": true,
          "internalType": "address",
          "name": "vaultAddress",
          "type": "address"
        }
      ],
      "name": "VaultAddressSet",
      "type": "event"
    },
    {
      "anonymous": false,
      "inputs": [
        {
          "indexed": true,
          "internalType": "address",
          "name": "strategyAddress",
          "type": "address"
        }
      ],
      "name": "WithdrawStrategyAddressSet",
      "type": "event"
    },
    {
      "anonymous": false,
      "inputs": [
        {
          "indexed": false,
          "internalType": "address",
          "name": "receiver",
          "type": "address"
        },
        {
          "indexed": false,
          "internalType": "address",
          "name": "asset",
          "type": "address"
        },
        {
          "indexed": false,
          "internalType": "uint256",
          "name": "assetsAmount",
          "type": "uint256"
        }
      ],
      "name": "WithdrawStrategyExecuted",
      "type": "event"
    },
    {
      "anonymous": false,
      "inputs": [
        {
          "indexed": false,
          "internalType": "address",
          "name": "liquidTokenAddress",
          "type": "address"
        },
        {
          "indexed": false,
          "internalType": "uint256",
          "name": "unwrappedAmount",
          "type": "uint256"
        },
        {
          "indexed": false,
          "internalType": "address",
          "name": "wrappedLiquidTokenAddress",
          "type": "address"
        },
        {
          "indexed": false,
          "internalType": "uint256",
          "name": "wrappedAmount",
          "type": "uint256"
        }
      ],
      "name": "WrappedAmount",
      "type": "event"
    },
    {
      "inputs": [],
      "name": "DEFAULT_ADMIN_ROLE",
      "outputs": [
        {
          "internalType": "bytes32",
          "name": "",
          "type": "bytes32"
        }
      ],
      "stateMutability": "view",
      "type": "function"
    },
    {
      "inputs": [],
      "name": "DEPLOYMENT_ADAPTERS_QTY",
      "outputs": [
        {
          "internalType": "uint8",
          "name": "",
          "type": "uint8"
        }
      ],
      "stateMutability": "view",
      "type": "function"
    },
    {
      "inputs": [],
      "name": "REVERT_MSG",
      "outputs": [
        {
          "internalType": "string",
          "name": "",
          "type": "string"
        }
      ],
      "stateMutability": "view",
      "type": "function"
    },
    {
      "inputs": [],
      "name": "VAULT_MANAGER_ROLE",
      "outputs": [
        {
          "internalType": "bytes32",
          "name": "",
          "type": "bytes32"
        }
      ],
      "stateMutability": "view",
      "type": "function"
    },
    {
      "inputs": [],
      "name": "WITHDRAW_ADAPTERS_QTY",
      "outputs": [
        {
          "internalType": "uint8",
          "name": "",
          "type": "uint8"
        }
      ],
      "stateMutability": "view",
      "type": "function"
    },
    {
      "inputs": [
        {
          "internalType": "uint256",
          "name": "",
          "type": "uint256"
        }
      ],
      "name": "adaptersDeployPath",
      "outputs": [
        {
          "internalType": "address",
          "name": "",
          "type": "address"
        }
      ],
      "stateMutability": "view",
      "type": "function"
    },
    {
      "inputs": [
        {
          "internalType": "uint256",
          "name": "",
          "type": "uint256"
        }
      ],
      "name": "adaptersWithdrawPath",
      "outputs": [
        {
          "internalType": "address",
          "name": "",
          "type": "address"
        }
      ],
      "stateMutability": "view",
      "type": "function"
    },
    {
      "inputs": [
        {
          "internalType": "address[]",
          "name": "tokens_",
          "type": "address[]"
        },
        {
          "internalType": "uint24[]",
          "name": "fees_",
          "type": "uint24[]"
        }
      ],
      "name": "buildPath",
      "outputs": [],
      "stateMutability": "nonpayable",
      "type": "function"
    },
    {
      "inputs": [],
      "name": "deployedAssetsValue",
      "outputs": [
        {
          "internalType": "uint256",
          "name": "",
          "type": "uint256"
        }
      ],
      "stateMutability": "view",
      "type": "function"
    },
    {
      "inputs": [
        {
          "internalType": "address",
          "name": "sender_",
          "type": "address"
        },
        {
          "internalType": "address",
          "name": "receiver_",
          "type": "address"
        },
        {
          "internalType": "address",
          "name": "asset_",
          "type": "address"
        },
        {
          "internalType": "uint256",
          "name": "assetsAmount_",
          "type": "uint256"
        }
      ],
      "name": "executeDeploymentStrategy",
      "outputs": [
        {
          "internalType": "address",
          "name": "",
          "type": "address"
        },
        {
          "internalType": "uint256",
          "name": "",
          "type": "uint256"
        }
      ],
      "stateMutability": "nonpayable",
      "type": "function"
    },
    {
      "inputs": [],
      "name": "executeHarvest",
      "outputs": [
        {
          "internalType": "address",
          "name": "",
          "type": "address"
        },
        {
          "internalType": "uint256",
          "name": "",
          "type": "uint256"
        }
      ],
      "stateMutability": "nonpayable",
      "type": "function"
    },
    {
      "inputs": [
        {
          "internalType": "address",
          "name": "receiver_",
          "type": "address"
        },
        {
          "internalType": "address",
          "name": "asset_",
          "type": "address"
        },
        {
          "internalType": "uint256",
          "name": "assetsAmount_",
          "type": "uint256"
        }
      ],
      "name": "executeWithdrawStrategy",
      "outputs": [
        {
          "internalType": "address",
          "name": "",
          "type": "address"
        },
        {
          "internalType": "uint256",
          "name": "",
          "type": "uint256"
        }
      ],
      "stateMutability": "nonpayable",
      "type": "function"
    },
    {
      "inputs": [],
      "name": "getDeployedAssetsValue",
      "outputs": [
        {
          "internalType": "uint256",
          "name": "",
          "type": "uint256"
        }
      ],
      "stateMutability": "view",
      "type": "function"
    },
    {
      "inputs": [],
      "name": "getFirstDepositAdapter",
      "outputs": [
        {
          "internalType": "address",
          "name": "",
          "type": "address"
        }
      ],
      "stateMutability": "view",
      "type": "function"
    },
    {
      "inputs": [
        {
          "internalType": "bytes32",
          "name": "role",
          "type": "bytes32"
        }
      ],
      "name": "getRoleAdmin",
      "outputs": [
        {
          "internalType": "bytes32",
          "name": "",
          "type": "bytes32"
        }
      ],
      "stateMutability": "view",
      "type": "function"
    },
    {
      "inputs": [
        {
          "internalType": "address",
          "name": "token_",
          "type": "address"
        },
        {
          "internalType": "uint256",
          "name": "source_",
          "type": "uint256"
        }
      ],
      "name": "getTokenPrice",
      "outputs": [
        {
          "internalType": "uint256",
          "name": "",
          "type": "uint256"
        }
      ],
      "stateMutability": "view",
      "type": "function"
    },
    {
      "inputs": [
        {
          "internalType": "bytes32",
          "name": "role",
          "type": "bytes32"
        },
        {
          "internalType": "address",
          "name": "account",
          "type": "address"
        }
      ],
      "name": "grantRole",
      "outputs": [],
      "stateMutability": "nonpayable",
      "type": "function"
    },
    {
      "inputs": [
        {
          "internalType": "bytes32",
          "name": "role",
          "type": "bytes32"
        },
        {
          "internalType": "address",
          "name": "account",
          "type": "address"
        }
      ],
      "name": "hasRole",
      "outputs": [
        {
          "internalType": "bool",
          "name": "",
          "type": "bool"
        }
      ],
      "stateMutability": "view",
      "type": "function"
    },
    {
      "inputs": [
        {
          "internalType": "address",
          "name": "vaultAddress_",
          "type": "address"
        },
        {
          "internalType": "address",
          "name": "liquidTokenAddress_",
          "type": "address"
        },
        {
          "internalType": "address[]",
          "name": "adaptersDeployPath_",
          "type": "address[]"
        },
        {
          "internalType": "address[]",
          "name": "adaptersWithdrawPath_",
          "type": "address[]"
        },
        {
          "internalType": "string",
          "name": "strategyName_",
          "type": "string"
        }
      ],
      "name": "initialize",
      "outputs": [],
      "stateMutability": "nonpayable",
      "type": "function"
    },
    {
      "inputs": [],
      "name": "liquidTokenAddress",
      "outputs": [
        {
          "internalType": "address",
          "name": "",
          "type": "address"
        }
      ],
      "stateMutability": "view",
      "type": "function"
    },
    {
      "inputs": [],
      "name": "pause",
      "outputs": [],
      "stateMutability": "nonpayable",
      "type": "function"
    },
    {
      "inputs": [],
      "name": "paused",
      "outputs": [
        {
          "internalType": "bool",
          "name": "",
          "type": "bool"
        }
      ],
      "stateMutability": "view",
      "type": "function"
    },
    {
      "inputs": [
        {
          "internalType": "address",
          "name": "token",
          "type": "address"
        }
      ],
      "name": "priceFeedPerToken",
      "outputs": [
        {
          "internalType": "address",
          "name": "priceFeed",
          "type": "address"
        }
      ],
      "stateMutability": "view",
      "type": "function"
    },
    {
      "inputs": [
        {
          "internalType": "bytes32",
          "name": "role",
          "type": "bytes32"
        },
        {
          "internalType": "address",
          "name": "callerConfirmation",
          "type": "address"
        }
      ],
      "name": "renounceRole",
      "outputs": [],
      "stateMutability": "nonpayable",
      "type": "function"
    },
    {
      "inputs": [
        {
          "internalType": "bytes32",
          "name": "role",
          "type": "bytes32"
        },
        {
          "internalType": "address",
          "name": "account",
          "type": "address"
        }
      ],
      "name": "revokeRole",
      "outputs": [],
      "stateMutability": "nonpayable",
      "type": "function"
    },
    {
      "inputs": [
        {
          "internalType": "address[]",
          "name": "adaptersDeployPath_",
          "type": "address[]"
        }
      ],
      "name": "setAdaptersDeployPath",
      "outputs": [],
      "stateMutability": "nonpayable",
      "type": "function"
    },
    {
      "inputs": [
        {
          "internalType": "address[]",
          "name": "adaptersWithdrawPath_",
          "type": "address[]"
        }
      ],
      "name": "setAdaptersWithdrawPath",
      "outputs": [],
      "stateMutability": "nonpayable",
      "type": "function"
    },
    {
      "inputs": [
        {
          "internalType": "address",
          "name": "liquidTokenAddress_",
          "type": "address"
        }
      ],
      "name": "setLiquidTokenAddress",
      "outputs": [],
      "stateMutability": "nonpayable",
      "type": "function"
    },
    {
      "inputs": [
        {
          "internalType": "address",
          "name": "token_",
          "type": "address"
        },
        {
          "internalType": "address",
          "name": "feed_",
          "type": "address"
        }
      ],
      "name": "setPriceFeedPerToken",
      "outputs": [],
      "stateMutability": "nonpayable",
      "type": "function"
    },
    {
      "inputs": [
        {
          "internalType": "string",
          "name": "strategyName_",
          "type": "string"
        }
      ],
      "name": "setStrategyName",
      "outputs": [],
      "stateMutability": "nonpayable",
      "type": "function"
    },
    {
      "inputs": [
        {
          "internalType": "address",
          "name": "vaultAddress_",
          "type": "address"
        }
      ],
      "name": "setVaultAddress",
      "outputs": [],
      "stateMutability": "nonpayable",
      "type": "function"
    },
    {
      "inputs": [
        {
          "internalType": "address",
          "name": "withdrawStrategyAddress_",
          "type": "address"
        }
      ],
      "name": "setWithdrawStrategyAddress",
      "outputs": [],
      "stateMutability": "nonpayable",
      "type": "function"
    },
    {
      "inputs": [
        {
          "internalType": "address",
          "name": "wrappedLiquidTokenAddress_",
          "type": "address"
        }
      ],
      "name": "setWrappedLiquidTokenAddress",
      "outputs": [],
      "stateMutability": "nonpayable",
      "type": "function"
    },
    {
      "inputs": [],
      "name": "strategyName",
      "outputs": [
        {
          "internalType": "string",
          "name": "",
          "type": "string"
        }
      ],
      "stateMutability": "view",
      "type": "function"
    },
    {
      "inputs": [
        {
          "internalType": "bytes4",
          "name": "interfaceId",
          "type": "bytes4"
        }
      ],
      "name": "supportsInterface",
      "outputs": [
        {
          "internalType": "bool",
          "name": "",
          "type": "bool"
        }
      ],
      "stateMutability": "view",
      "type": "function"
    },
    {
      "inputs": [],
      "name": "swapPath",
      "outputs": [
        {
          "internalType": "bytes",
          "name": "",
          "type": "bytes"
        }
      ],
      "stateMutability": "view",
      "type": "function"
    },
    {
      "inputs": [],
      "name": "unpause",
      "outputs": [],
      "stateMutability": "nonpayable",
      "type": "function"
    },
    {
      "inputs": [
        {
          "internalType": "uint256",
          "name": "amount_",
          "type": "uint256"
        }
      ],
      "name": "unwrapToken",
      "outputs": [
        {
          "internalType": "uint256",
          "name": "",
          "type": "uint256"
        }
      ],
      "stateMutability": "nonpayable",
      "type": "function"
    },
    {
      "inputs": [
        {
          "internalType": "uint256",
          "name": "source_",
          "type": "uint256"
        }
      ],
      "name": "updateDeployedAssetVaule",
      "outputs": [
        {
          "internalType": "uint256",
          "name": "",
          "type": "uint256"
        }
      ],
      "stateMutability": "nonpayable",
      "type": "function"
    },
    {
      "inputs": [],
      "name": "vaultAddress",
      "outputs": [
        {
          "internalType": "address",
          "name": "",
          "type": "address"
        }
      ],
      "stateMutability": "view",
      "type": "function"
    },
    {
      "inputs": [],
      "name": "withdrawStrategyAddress",
      "outputs": [
        {
          "internalType": "address",
          "name": "",
          "type": "address"
        }
      ],
      "stateMutability": "view",
      "type": "function"
    },
    {
      "inputs": [
        {
          "internalType": "uint256",
          "name": "amount_",
          "type": "uint256"
        }
      ],
      "name": "wrapToken",
      "outputs": [
        {
          "internalType": "uint256",
          "name": "",
          "type": "uint256"
        }
      ],
      "stateMutability": "nonpayable",
      "type": "function"
    },
    {
      "inputs": [],
      "name": "wrappedLiquidTokenAddress",
      "outputs": [
        {
          "internalType": "address",
          "name": "",
          "type": "address"
        }
      ],
      "stateMutability": "view",
      "type": "function"
    },
    {
      "stateMutability": "payable",
      "type": "receive"
    }
  ],
  "bytecode": "0x608060405234801561001057600080fd5b5061345d806100206000396000f3fe6080604052600436106102605760003560e01c80637f4879aa11610144578063b89f319d116100b6578063e173ad251161007a578063e173ad2514610778578063e2868d331461078d578063ea9853d0146107a2578063eb0a7fd0146107c2578063ed79f712146107e2578063edd4604c146107f757600080fd5b8063b89f319d146106e3578063c9f7153c14610703578063d547741f14610723578063ddd0638c14610743578063df5af13f1461076357600080fd5b8063a016b2cd11610108578063a016b2cd14610623578063a217fddf14610643578063a33228b014610658578063a4d1e2ca14610678578063a78a015814610698578063b3967113146106ad57600080fd5b80637f4879aa146105985780638456cb59146105ae57806385535cc5146105c357806391d14854146105e3578063940997f71461060357600080fd5b80633f4ba83a116101dd5780635c975abb116101a15780635c975abb146104a45780635e5a24a4146104c95780636371d6bb146104eb578063642024e41461050b578063754ae09c1461052b5780637e531a391461054b57600080fd5b80633f4ba83a146103f0578063429e6e0f14610405578063430bf08a146104255780634a28ff24146104455780635c7868921461048457600080fd5b8063248a9ca311610224578063248a9ca314610342578063254c72a2146103705780632f2ff15d1461039057806333dc7f07146103b057806336568abe146103d057600080fd5b806301ffc9a71461026c5780630690416a146102a15780630fed40b0146102c35780631ac5d67d146102e35780631f696df81461030a57600080fd5b3661026757005b600080fd5b34801561027857600080fd5b5061028c610287366004612946565b61080c565b60405190151581526020015b60405180910390f35b3480156102ad57600080fd5b506102c16102bc36600461298c565b610843565b005b3480156102cf57600080fd5b506102c16102de366004612ad5565b6108da565b3480156102ef57600080fd5b506102f8600281565b60405160ff9091168152602001610298565b34801561031657600080fd5b5061032a610325366004612b89565b610b1c565b6040516001600160a01b039091168152602001610298565b34801561034e57600080fd5b5061036261035d366004612b89565b610b46565b604051908152602001610298565b34801561037c57600080fd5b506102c161038b36600461298c565b610b68565b34801561039c57600080fd5b506102c16103ab366004612ba2565b610c09565b3480156103bc57600080fd5b5060025461032a906001600160a01b031681565b3480156103dc57600080fd5b506102c16103eb366004612ba2565b610c2b565b3480156103fc57600080fd5b506102c1610c63565b34801561041157600080fd5b5060035461032a906001600160a01b031681565b34801561043157600080fd5b5060045461032a906001600160a01b031681565b34801561045157600080fd5b50610465610460366004612bd2565b610c79565b604080516001600160a01b039093168352602083019190915201610298565b34801561049057600080fd5b506102c161049f366004612c13565b610da9565b3480156104b057600080fd5b506000805160206134088339815191525460ff1661028c565b3480156104d557600080fd5b506103626000805160206133c883398151915281565b3480156104f757600080fd5b50610362610506366004612b89565b610dc3565b34801561051757600080fd5b50610465610526366004612c48565b610fbd565b34801561053757600080fd5b506102c1610546366004612c13565b611213565b34801561055757600080fd5b5061058b60405180604001604052806014815260200173119d5b98dd1a5bdb881b9bdd08185b1b1bddd95960621b81525081565b6040516102989190612cdf565b3480156105a457600080fd5b5061036260005481565b3480156105ba57600080fd5b506102c1611229565b3480156105cf57600080fd5b506102c16105de36600461298c565b61123c565b3480156105ef57600080fd5b5061028c6105fe366004612ba2565b6112cd565b34801561060f57600080fd5b5061036261061e366004612b89565b611305565b34801561062f57600080fd5b506102c161063e366004612cf2565b6114ea565b34801561064f57600080fd5b50610362600081565b34801561066457600080fd5b50610362610673366004612b89565b61159f565b34801561068457600080fd5b5061032a610693366004612b89565b611717565b3480156106a457600080fd5b50610465611727565b3480156106b957600080fd5b5061032a6106c836600461298c565b6008602052600090815260409020546001600160a01b031681565b3480156106ef57600080fd5b5060015461032a906001600160a01b031681565b34801561070f57600080fd5b5061036261071e366004612d34565b611770565b34801561072f57600080fd5b506102c161073e366004612ba2565b611972565b34801561074f57600080fd5b506102c161075e366004612d60565b61198e565b34801561076f57600080fd5b5061058b611bbe565b34801561078457600080fd5b5061058b611c4c565b34801561079957600080fd5b50600054610362565b3480156107ae57600080fd5b506102c16107bd36600461298c565b611c5e565b3480156107ce57600080fd5b506102c16107dd366004612e2d565b611cff565b3480156107ee57600080fd5b5061032a611dfd565b34801561080357600080fd5b506102f8600181565b60006001600160e01b03198216637965db0b60e01b148061083d57506301ffc9a760e01b6001600160e01b03198316145b92915050565b600061084e81611e07565b61088382604051806040016040528060138152602001726c6971756964546f6b656e416464726573735f60681b815250611e11565b6040516001600160a01b038316907f4245d51ab06b77fea049f6e1eab0e31b343fc4c1e9fe7774373362c37eb2034490600090a250600180546001600160a01b0319166001600160a01b0392909216919091179055565b7ff0c57e16840df040f15088dc2f81fe391c3923bec73e23a9662efc9c229c6a008054600160401b810460ff16159067ffffffffffffffff166000811580156109205750825b905060008267ffffffffffffffff16600114801561093d5750303b155b90508115801561094b575080155b156109695760405163f92ee8a960e01b815260040160405180910390fd5b845467ffffffffffffffff19166001178555831561099357845460ff60401b1916600160401b1785555b6109c28b6040518060400160405280600d81526020016c7661756c74416464726573735f60981b815250611e11565b6109f78a604051806040016040528060138152602001726c6971756964546f6b656e416464726573735f60681b815250611e11565b610a5b87878080601f0160208091040260200160405190810160405280939291908181526020018383808284376000920191909152505060408051808201909152600d81526c73747261746567794e616d655f60981b60208201529150611e3a9050565b610a63611e5e565b610a6e600033611e68565b50610a7a896002611f0d565b610a85886001612042565b600480546001600160a01b0319166001600160a01b038d161790556007610aad878983612edf565b50600180546001600160a01b0319166001600160a01b038c161790558315610b0f57845460ff60401b19168555604051600181527fc7f505b2f371ae2175ee4913f4499e1f2633a7b5936321eed1cdaeb6115181d29060200160405180910390a15b5050505050505050505050565b60058181548110610b2c57600080fd5b6000918252602090912001546001600160a01b0316905081565b60009081526000805160206133e8833981519152602052604090206001015490565b6000610b7381611e07565b610bb2826040518060400160405280601a81526020017f777261707065644c6971756964546f6b656e416464726573735f000000000000815250611e11565b6040516001600160a01b038316907fce01361fe7ff662213b751c96882886f856789c4049c51e47af22049de7976b890600090a250600280546001600160a01b0319166001600160a01b0392909216919091179055565b610c1282610b46565b610c1b81611e07565b610c258383611e68565b50505050565b6001600160a01b0381163314610c545760405163334bd91960e11b815260040160405180910390fd5b610c5e8282612181565b505050565b6000610c6e81611e07565b610c766121fd565b50565b600080610c8461225d565b6000805160206133c8833981519152610c9c81611e07565b610cc7866040518060400160405280600981526020016872656365697665725f60b81b815250611e11565b610cf6846040518060400160405280600d81526020016c617373657473416d6f756e745f60981b81525061228e565b610d1e856040518060400160405280600681526020016561737365745f60d01b815250611e11565b600080610d2c8888886122b1565b9150915080600003610d5157604051637efa1e0f60e11b815260040160405180910390fd5b604080516001600160a01b03808b168252841660208201529081018290527ff69538dab01a66f366bf2dbbe6bea4efee94973f6d5d8d70d19dab18c1b3e8b19060600160405180910390a19097909650945050505050565b6000610db481611e07565b610dbf826001612042565b5050565b60006000805160206133c8833981519152610ddd81611e07565b6002546001600160a01b0316610e2f5760405162461bcd60e51b81526020600482015260126024820152712737903232b334b732b2103bb930b83832b960711b60448201526064015b60405180910390fd5b60015460025460405163095ea7b360e01b81526001600160a01b0391821660048201526024810186905291169063095ea7b3906044016020604051808303816000875af1158015610e84573d6000803e3d6000fd5b505050506040513d601f19601f82011682018060405250810190610ea89190612fa0565b50600254604051630ea598cb60e41b8152600481018590526000916001600160a01b03169063ea598cb0906024016020604051808303816000875af1158015610ef5573d6000803e3d6000fd5b505050506040513d601f19601f82011682018060405250810190610f199190612fc2565b905080600003610f59576002546040516333ece22360e21b81526001600160a01b0390911660048201526024810185905260016044820152606401610e26565b600154600254604080516001600160a01b039384168152602081018890529290911690820152606081018290527fda542a6430bf8482eb425b35bad6701f112540783af4af76389552a2d8902e59906080015b60405180910390a191505b50919050565b600080610fc861225d565b6000805160206133c8833981519152610fe081611e07565b611009876040518060400160405280600781526020016673656e6465725f60c81b815250611e11565b611034866040518060400160405280600981526020016872656365697665725f60b81b815250611e11565b61105c856040518060400160405280600681526020016561737365745f60d01b815250611e11565b61108b846040518060400160405280600d81526020016c617373657473416d6f756e745f60981b81525061228e565b6001600061109761271c565b90506000806110ab838c8c8c8c600061274c565b91509150806000036110d357604051630eeb421160e21b815260048101859052602401610e26565b600293506110df6127df565b60405163095ea7b360e01b81526001600160a01b038083166004830152602482018490529194509083169063095ea7b3906044016020604051808303816000875af1158015611132573d6000803e3d6000fd5b505050506040513d601f19601f820116820180604052508101906111569190612fa0565b506000806111698530308787600061274c565b91509150806000148061118a57506001546001600160a01b03838116911614155b156111ab57604051630eeb421160e21b815260048101879052602401610e26565b816001600160a01b03168b6001600160a01b03167f59b7a96ada3a44d05c501ea0e559b7033ce7bd281bf88b061ceb5b29ad4a9fa28c846040516111f9929190918252602082015260400190565b60405180910390a3909c909b509950505050505050505050565b600061121e81611e07565b610dbf826002611f0d565b600061123481611e07565b610c76612803565b600061124781611e07565b611276826040518060400160405280600d81526020016c7661756c74416464726573735f60981b815250611e11565b6040516001600160a01b038316907f5c06d966572db101b61cacf1a095f31609e34873f11016fc5cb333651e969f6790600090a250600480546001600160a01b0319166001600160a01b0392909216919091179055565b60009182526000805160206133e8833981519152602090815260408084206001600160a01b0393909316845291905290205460ff1690565b60006000805160206133c883398151915261131f81611e07565b6002546001600160a01b031661136c5760405162461bcd60e51b81526020600482015260126024820152712737903232b334b732b2103bb930b83832b960711b6044820152606401610e26565b60025460405163095ea7b360e01b81526001600160a01b0390911660048201819052602482018590529063095ea7b3906044016020604051808303816000875af11580156113be573d6000803e3d6000fd5b505050506040513d601f19601f820116820180604052508101906113e29190612fa0565b50600254604051636f074d1f60e11b8152600481018590526000916001600160a01b03169063de0e9a3e906024016020604051808303816000875af115801561142f573d6000803e3d6000fd5b505050506040513d601f19601f820116820180604052508101906114539190612fc2565b905080600003611493576002546040516333ece22360e21b81526001600160a01b0390911660048201526024810185905260006044820152606401610e26565b600254600154604080516001600160a01b039384168152602081018890529290911690820152606081018290527f7687e177cae37c3bc6b45449595322baa1bcb203db50ebab44854268528e8c3190608001610fac565b60006114f581611e07565b61155983838080601f0160208091040260200160405190810160405280939291908181526020018383808284376000920191909152505060408051808201909152600d81526c73747261746567794e616d655f60981b60208201529150611e3a9050565b7f21ce9ce25f0f85766c680deb376fbea42cd6d6911f217c0d89f14c439b84fcfd838360405161158a929190612fdb565b60405180910390a16007610c25838583612edf565b60006000805160206133c88339815191526115b981611e07565b82600114806115c85750826002145b6116145760405162461bcd60e51b815260206004820152601b60248201527f496e76616c696420736f7572636520746f2067657420707269636500000000006044820152606401610e26565b60015460009061162d906001600160a01b031685611770565b6001546040516370a0823160e01b8152306004820152919250670de0b6b3a76400009183916001600160a01b0316906370a0823190602401602060405180830381865afa158015611682573d6000803e3d6000fd5b505050506040513d601f19601f820116820180604052508101906116a69190612fc2565b6116b09190613020565b6116ba9190613037565b6000819055600154604080516001600160a01b0390921682526020820192909252308183015290517f662f619155fcceea17128ce9cf93a4df288a2427524b2eabdf40a5013d9e94f99181900360600190a1505060005492915050565b60068181548110610b2c57600080fd5b60008060405180604001604052806014815260200173119d5b98dd1a5bdb881b9bdd08185b1b1bddd95960621b81525060405162461bcd60e51b8152600401610e269190612cdf565b6001546000906001600160a01b038481169116148061179c57506002546001600160a01b038481169116145b6117e85760405162461bcd60e51b815260206004820152601760248201527f496e76616c696420746f6b656e207265717565737465640000000000000000006044820152606401610e26565b81600114806117f75750816002145b6118435760405162461bcd60e51b815260206004820152601b60248201527f496e76616c696420736f7572636520746f2067657420707269636500000000006044820152606401610e26565b6001600160a01b038084166000908152600860205260408120549091169081156118d9576000826001600160a01b031663feaf968c6040518163ffffffff1660e01b815260040160a060405180830381865afa1580156118a7573d6000803e3d6000fd5b505050506040513d601f19601f820116820180604052508101906118cb9190613078565b5091945061196a9350505050565b6000846002146118f0576118eb6127df565b6118f8565b6118f861284c565b604051630681320d60e51b81526001600160a01b0388811660048301529192509082169063d02641a090602401602060405180830381865afa158015611942573d6000803e3d6000fd5b505050506040513d601f19601f820116820180604052508101906119669190612fc2565b9150505b949350505050565b61197b82610b46565b61198481611e07565b610c258383612181565b600061199981611e07565b8251825160028210156119bf57604051630468e0af60e41b815260040160405180910390fd5b6119ca8160016130c8565b82146119e957604051630d6c3bc160e41b815260040160405180910390fd5b60005b82811015611a3e57611a36868281518110611a0957611a096130db565b602002602001015160405180604001604052806007815260200166746f6b656e735f60c81b815250611e11565b6001016119ec565b5060005b81811015611a9757611a8f858281518110611a5f57611a5f6130db565b602002602001015162ffffff1660405180604001604052806005815260200164666565735f60d81b81525061228e565b600101611a42565b5084600081518110611aab57611aab6130db565b6020026020010151604051602001611adb919060609190911b6bffffffffffffffffffffffff1916815260140190565b60405160208183030381529060405260099081611af891906130f1565b5060005b81811015611b7e576009858281518110611b1857611b186130db565b602002602001015187836001611b2e91906130c8565b81518110611b3e57611b3e6130db565b6020026020010151604051602001611b58939291906131b1565b60405160208183030381529060405260099081611b7591906130f1565b50600101611afc565b507fa0ddd263f8966deaa9209d36ecf63770a4baf7f627d164775a94f808930cd0486009604051611baf91906132cf565b60405180910390a15050505050565b60098054611bcb90612e5b565b80601f0160208091040260200160405190810160405280929190818152602001828054611bf790612e5b565b8015611c445780601f10611c1957610100808354040283529160200191611c44565b820191906000526020600020905b815481529060010190602001808311611c2757829003601f168201915b505050505081565b60078054611bcb90612e5b565b905090565b6000611c6981611e07565b611ca8826040518060400160405280601881526020017f77697468647261775374726174656779416464726573735f0000000000000000815250611e11565b6040516001600160a01b038316907f28548fb82baba9340b788ecc4911d241c9508404c350e6964e447fbf8d62c12890600090a250600380546001600160a01b0319166001600160a01b0392909216919091179055565b6000611d0a81611e07565b6001546001600160a01b0384811691161480611d3357506002546001600160a01b038481169116145b8015611d4757506001600160a01b03831615155b611d8b5760405162461bcd60e51b8152602060048201526015602482015274125b9d985b1a59081d1bdad95b88195b9d195c9959605a1b6044820152606401610e26565b604080516001600160a01b038086168252841660208201527fd2d8394cf7549a5ddbc2ba3dd7b2de8d53c891472d1f2907008ed6a10045fdae910160405180910390a1506001600160a01b03918216600090815260086020526040902080546001600160a01b03191691909216179055565b6000611c5961271c565b610c768133612862565b6001600160a01b038216610dbf578060405163eac0d38960e01b8152600401610e269190612cdf565b6000825111610dbf57806040516318a996bb60e21b8152600401610e269190612cdf565b611e6661289b565b565b60006000805160206133e8833981519152611e8384846112cd565b611f03576000848152602082815260408083206001600160a01b03871684529091529020805460ff19166001179055611eb93390565b6001600160a01b0316836001600160a01b0316857f2f8788117e7eff1d82e926ec794901d17c78024a50270940304540a733656f0d60405160405180910390a4600191505061083d565b600091505061083d565b815160ff82168114611f4b5760405163cb97bcb160e01b81526020600482015260066024820152656465706c6f7960d01b6044820152606401610e26565b611f5760056000612914565b7f7e68ba9b3bbcc418714dcc03de2c047ccdb19978700780676f593eb95af7f68083604051611f8691906132e2565b60405180910390a160005b81811015610c2557611fe9848281518110611fae57611fae6130db565b60200260200101516040518060400160405280601581526020017461646170746572734465706c6f79506174685f5b5d60581b815250611e11565b6005848281518110611ffd57611ffd6130db565b60209081029190910181015182546001808201855560009485529290932090920180546001600160a01b0319166001600160a01b039093169290921790915501611f91565b815160ff821681146120825760405163cb97bcb160e01b8152602060048201526008602482015267776974686472617760c01b6044820152606401610e26565b61208e60066000612914565b7fdb2c7c26f26f22897028e2e018c1967eef4170d6a2c476a373823d8639da73ec836040516120bd91906132e2565b60405180910390a160005b81811015610c25576121288482815181106120e5576120e56130db565b60200260200101516040518060400160405280601781526020017f61646170746572735769746864726177506174685f5b5d000000000000000000815250611e11565b600684828151811061213c5761213c6130db565b60209081029190910181015182546001808201855560009485529290932090920180546001600160a01b0319166001600160a01b0390931692909217909155016120c8565b60006000805160206133e883398151915261219c84846112cd565b15611f03576000848152602082815260408083206001600160a01b0387168085529252808320805460ff1916905551339287917ff6391f5c32d9c69d2a47ea670b442974b53935d1edc7fd64eb21e047a839171b9190a4600191505061083d565b6122056128e4565b600080516020613408833981519152805460ff191681557f5db9ee0a495bf2e6ff9c91a7834c1ba4fdd244a5e8aa4e537bd38aeae4b073aa335b6040516001600160a01b03909116815260200160405180910390a150565b6000805160206134088339815191525460ff1615611e665760405163d93c066560e01b815260040160405180910390fd5b81600003610dbf57806040516303b3e63560e41b8152600401610e269190612cdf565b600254600090819081906001600160a01b03166122d9576001546001600160a01b03166122e6565b6002546001600160a01b03165b905060006122f5826002611770565b90506000670de0b6b3a764000061230a61284c565b6001600160a01b031663fc9cee3c6040518163ffffffff1660e01b8152600401602060405180830381865afa158015612347573d6000803e3d6000fd5b505050506040513d601f19601f8201168201806040525081019061236b9190612fc2565b61237d90670de0b6b3a76400006130c8565b8361239089670de0b6b3a7640000613020565b61239a9190613037565b6123a49190613020565b6123ae9190613037565b6002549091506000906001600160a01b03908116908516036124c5576001546000906123e4906001600160a01b03166002611770565b6123ee8486613020565b6123f89190613037565b6001546040516370a0823160e01b81523060048201529192506001600160a01b0316906370a0823190602401602060405180830381865afa158015612441573d6000803e3d6000fd5b505050506040513d601f19601f820116820180604052508101906124659190612fc2565b8111156124b45760405162461bcd60e51b815260206004820152601960248201527f4e6f7420656e6f75676820746f6b656e7320746f2077726170000000000000006044820152606401610e26565b6124bd81610dc3565b9150506124c8565b50805b6040516370a0823160e01b81523060048201526000906001600160a01b038616906370a0823190602401602060405180830381865afa15801561250f573d6000803e3d6000fd5b505050506040513d601f19601f820116820180604052508101906125339190612fc2565b9050808211156125605760405163682324e760e11b81526004810182905260248101839052604401610e26565b846001600160a01b031663095ea7b361257761284c565b6040516001600160e01b031960e084901b1681526001600160a01b039091166004820152602481018590526044016020604051808303816000875af11580156125c4573d6000803e3d6000fd5b505050506040513d601f19601f820116820180604052508101906125e89190612fa0565b506000806125f461284c565b6001600160a01b0316636a39fe60308e8e8e8c8a60096040518863ffffffff1660e01b815260040161262c979695949392919061332f565b60408051808303816000875af115801561264a573d6000803e3d6000fd5b505050506040513d601f19601f8201168201806040525081019061266e9190613386565b60025491935091506001600160a01b039081169088160361270b576002546040516370a0823160e01b81523060048201526000916001600160a01b0316906370a0823190602401602060405180830381865afa1580156126d2573d6000803e3d6000fd5b505050506040513d601f19601f820116820180604052508101906126f69190612fc2565b905080156127095761270781611305565b505b505b909b909a5098505050505050505050565b60006005600081548110612732576127326130db565b6000918252602090912001546001600160a01b0316919050565b604051635354c2b160e01b81526001600160a01b038681166004830152858116602483015284811660448301526064820184905282151560848301526000918291829182918b1690635354c2b19060a40160408051808303816000875af11580156127bb573d6000803e3d6000fd5b505050506040513d601f19601f8201168201806040525081019061270b9190613386565b60058054600091906127f3906001906133b4565b81548110612732576127326130db565b61280b61225d565b600080516020613408833981519152805460ff191660011781557f62e78cea01bee320cd4e420270b5ea74000d11b0c9f74754ebdbfc544b05a2583361223f565b60006006600081548110612732576127326130db565b61286c82826112cd565b610dbf5760405163e2517d3f60e01b81526001600160a01b038216600482015260248101839052604401610e26565b7ff0c57e16840df040f15088dc2f81fe391c3923bec73e23a9662efc9c229c6a0054600160401b900460ff16611e6657604051631afcd79f60e31b815260040160405180910390fd5b6000805160206134088339815191525460ff16611e6657604051638dfc202b60e01b815260040160405180910390fd5b5080546000825590600052602060002090810190610c7691905b80821115612942576000815560010161292e565b5090565b60006020828403121561295857600080fd5b81356001600160e01b03198116811461297057600080fd5b9392505050565b6001600160a01b0381168114610c7657600080fd5b60006020828403121561299e57600080fd5b813561297081612977565b634e487b7160e01b600052604160045260246000fd5b604051601f8201601f1916810167ffffffffffffffff811182821017156129e8576129e86129a9565b604052919050565b600067ffffffffffffffff821115612a0a57612a0a6129a9565b5060051b60200190565b600082601f830112612a2557600080fd5b81356020612a3a612a35836129f0565b6129bf565b8083825260208201915060208460051b870101935086841115612a5c57600080fd5b602086015b84811015612a81578035612a7481612977565b8352918301918301612a61565b509695505050505050565b60008083601f840112612a9e57600080fd5b50813567ffffffffffffffff811115612ab657600080fd5b602083019150836020828501011115612ace57600080fd5b9250929050565b60008060008060008060a08789031215612aee57600080fd5b8635612af981612977565b95506020870135612b0981612977565b9450604087013567ffffffffffffffff80821115612b2657600080fd5b612b328a838b01612a14565b95506060890135915080821115612b4857600080fd5b612b548a838b01612a14565b94506080890135915080821115612b6a57600080fd5b50612b7789828a01612a8c565b979a9699509497509295939492505050565b600060208284031215612b9b57600080fd5b5035919050565b60008060408385031215612bb557600080fd5b823591506020830135612bc781612977565b809150509250929050565b600080600060608486031215612be757600080fd5b8335612bf281612977565b92506020840135612c0281612977565b929592945050506040919091013590565b600060208284031215612c2557600080fd5b813567ffffffffffffffff811115612c3c57600080fd5b61196a84828501612a14565b60008060008060808587031215612c5e57600080fd5b8435612c6981612977565b93506020850135612c7981612977565b92506040850135612c8981612977565b9396929550929360600135925050565b6000815180845260005b81811015612cbf57602081850181015186830182015201612ca3565b506000602082860101526020601f19601f83011685010191505092915050565b6020815260006129706020830184612c99565b60008060208385031215612d0557600080fd5b823567ffffffffffffffff811115612d1c57600080fd5b612d2885828601612a8c565b90969095509350505050565b60008060408385031215612d4757600080fd5b8235612d5281612977565b946020939093013593505050565b60008060408385031215612d7357600080fd5b823567ffffffffffffffff80821115612d8b57600080fd5b612d9786838701612a14565b9350602091508185013581811115612dae57600080fd5b85019050601f81018613612dc157600080fd5b8035612dcf612a35826129f0565b81815260059190911b82018301908381019088831115612dee57600080fd5b928401925b82841015612e1e57833562ffffff81168114612e0f5760008081fd5b82529284019290840190612df3565b80955050505050509250929050565b60008060408385031215612e4057600080fd5b8235612e4b81612977565b91506020830135612bc781612977565b600181811c90821680612e6f57607f821691505b602082108103610fb757634e487b7160e01b600052602260045260246000fd5b601f821115610c5e576000816000526020600020601f850160051c81016020861015612eb85750805b601f850160051c820191505b81811015612ed757828155600101612ec4565b505050505050565b67ffffffffffffffff831115612ef757612ef76129a9565b612f0b83612f058354612e5b565b83612e8f565b6000601f841160018114612f3f5760008515612f275750838201355b600019600387901b1c1916600186901b178355612f99565b600083815260209020601f19861690835b82811015612f705786850135825560209485019460019092019101612f50565b5086821015612f8d5760001960f88860031b161c19848701351681555b505060018560011b0183555b5050505050565b600060208284031215612fb257600080fd5b8151801515811461297057600080fd5b600060208284031215612fd457600080fd5b5051919050565b60208152816020820152818360408301376000818301604090810191909152601f909201601f19160101919050565b634e487b7160e01b600052601160045260246000fd5b808202811582820484141761083d5761083d61300a565b60008261305457634e487b7160e01b600052601260045260246000fd5b500490565b805169ffffffffffffffffffff8116811461307357600080fd5b919050565b600080600080600060a0868803121561309057600080fd5b61309986613059565b94506020860151935060408601519250606086015191506130bc60808701613059565b90509295509295909350565b8082018082111561083d5761083d61300a565b634e487b7160e01b600052603260045260246000fd5b815167ffffffffffffffff81111561310b5761310b6129a9565b61311f816131198454612e5b565b84612e8f565b602080601f831160018114613154576000841561313c5750858301515b600019600386901b1c1916600185901b178555612ed7565b600085815260208120601f198616915b8281101561318357888601518255948401946001909101908401613164565b50858210156131a15787850151600019600388901b60f8161c191681555b5050505050600190811b01905550565b60008085546131bf81612e5b565b600182811680156131d757600181146131ec5761321b565b60ff198416875282151583028701945061321b565b8960005260208060002060005b858110156132125781548a8201529084019082016131f9565b50505082870194505b5050505060e89490941b6001600160e81b0319168452505060601b6bffffffffffffffffffffffff19166003820152601701919050565b6000815461325f81612e5b565b80855260206001838116801561327c5760018114613296576132c4565b60ff1985168884015283151560051b8801830195506132c4565b866000528260002060005b858110156132bc5781548a82018601529083019084016132a1565b890184019650505b505050505092915050565b6020815260006129706020830184613252565b6020808252825182820181905260009190848201906040850190845b818110156133235783516001600160a01b0316835292840192918401916001016132fe565b50909695505050505050565b6001600160a01b03888116825287811660208301528681166040830152606082018690528416608082015260a0810183905260e060c0820181905260009061337990830184613252565b9998505050505050505050565b6000806040838503121561339957600080fd5b82516133a481612977565b6020939093015192949293505050565b8181038181111561083d5761083d61300a56fed1473398bb66596de5d1ea1fc8e303ff2ac23265adc9144b1b52065dc4f0934b02dd7bc7dec4dceedda775e58dd541e08a116c6c53815c0bd028192f7b626800cd5ed15c6e187e77e9aee88184c21f4f2182ab5827cb3b7e07fbedcd63f03300a26469706673582212207858fa075d65edaf713e6a5c6489a19cf96ee2ac516f084bf050ff0e0d7c67f464736f6c63430008180033",
  "linkReferences": {},
  "deployedLinkReferences": {}
}