{
  "_format": "hh-sol-artifact-1",
  "contractName": "WETHMock",
  "sourceName": "contracts/_mocks/tokens/WETHMock.sol",
  "abi": [
    {
      "inputs": [],
      "stateMutability": "nonpayable",
      "type": "constructor"
    },
    {
      "anonymous": false,
      "inputs": [
        {
          "indexed": true,
          "internalType": "address",
          "name": "owner",
          "type": "address"
        },
        {
          "indexed": true,
          "internalType": "address",
          "name": "spender",
          "type": "address"
        },
        {
          "indexed": false,
          "internalType": "uint256",
          "name": "value",
          "type": "uint256"
        }
      ],
      "name": "Approval",
      "type": "event"
    },
    {
      "anonymous": false,
      "inputs": [
        {
          "indexed": true,
          "internalType": "address",
          "name": "from",
          "type": "address"
        },
        {
          "indexed": true,
          "internalType": "address",
          "name": "to",
          "type": "address"
        },
        {
          "indexed": false,
          "internalType": "uint256",
          "name": "value",
          "type": "uint256"
        }
      ],
      "name": "Transfer",
      "type": "event"
    },
    {
      "inputs": [
        {
          "internalType": "address",
          "name": "",
          "type": "address"
        }
      ],
      "name": "_balances",
      "outputs": [
        {
          "internalType": "uint256",
          "name": "",
          "type": "uint256"
        }
      ],
      "stateMutability": "view",
      "type": "function"
    },
    {
      "inputs": [
        {
          "internalType": "address",
          "name": "owner",
          "type": "address"
        },
        {
          "internalType": "address",
          "name": "spender",
          "type": "address"
        }
      ],
      "name": "allowance",
      "outputs": [
        {
          "internalType": "uint256",
          "name": "",
          "type": "uint256"
        }
      ],
      "stateMutability": "view",
      "type": "function"
    },
    {
      "inputs": [
        {
          "internalType": "address",
          "name": "recipient",
          "type": "address"
        },
        {
          "internalType": "uint256",
          "name": "amount",
          "type": "uint256"
        }
      ],
      "name": "approve",
      "outputs": [
        {
          "internalType": "bool",
          "name": "",
          "type": "bool"
        }
      ],
      "stateMutability": "nonpayable",
      "type": "function"
    },
    {
      "inputs": [
        {
          "internalType": "address",
          "name": "account",
          "type": "address"
        }
      ],
      "name": "balanceOf",
      "outputs": [
        {
          "internalType": "uint256",
          "name": "",
          "type": "uint256"
        }
      ],
      "stateMutability": "view",
      "type": "function"
    },
    {
      "inputs": [
        {
          "internalType": "address",
          "name": "account",
          "type": "address"
        },
        {
          "internalType": "uint256",
          "name": "amount",
          "type": "uint256"
        }
      ],
      "name": "burnFrom",
      "outputs": [],
      "stateMutability": "nonpayable",
      "type": "function"
    },
    {
      "inputs": [],
      "name": "decimals",
      "outputs": [
        {
          "internalType": "uint8",
          "name": "",
          "type": "uint8"
        }
      ],
      "stateMutability": "view",
      "type": "function"
    },
    {
      "inputs": [
        {
          "internalType": "address",
          "name": "spender",
          "type": "address"
        },
        {
          "internalType": "uint256",
          "name": "subtractedValue",
          "type": "uint256"
        }
      ],
      "name": "decreaseAllowance",
      "outputs": [
        {
          "internalType": "bool",
          "name": "",
          "type": "bool"
        }
      ],
      "stateMutability": "nonpayable",
      "type": "function"
    },
    {
      "inputs": [],
      "name": "deposit",
      "outputs": [],
      "stateMutability": "payable",
      "type": "function"
    },
    {
      "inputs": [
        {
          "internalType": "address",
          "name": "spender",
          "type": "address"
        },
        {
          "internalType": "uint256",
          "name": "addedValue",
          "type": "uint256"
        }
      ],
      "name": "increaseAllowance",
      "outputs": [
        {
          "internalType": "bool",
          "name": "",
          "type": "bool"
        }
      ],
      "stateMutability": "nonpayable",
      "type": "function"
    },
    {
      "inputs": [],
      "name": "isSafeApprove",
      "outputs": [
        {
          "internalType": "bool",
          "name": "",
          "type": "bool"
        }
      ],
      "stateMutability": "view",
      "type": "function"
    },
    {
      "inputs": [
        {
          "internalType": "address",
          "name": "account",
          "type": "address"
        },
        {
          "internalType": "uint256",
          "name": "amount",
          "type": "uint256"
        }
      ],
      "name": "mint",
      "outputs": [],
      "stateMutability": "nonpayable",
      "type": "function"
    },
    {
      "inputs": [
        {
          "internalType": "address",
          "name": "_account",
          "type": "address"
        },
        {
          "internalType": "uint256",
          "name": "newBalance",
          "type": "uint256"
        }
      ],
      "name": "mockBalanceOf",
      "outputs": [],
      "stateMutability": "nonpayable",
      "type": "function"
    },
    {
      "inputs": [],
      "name": "name",
      "outputs": [
        {
          "internalType": "string",
          "name": "",
          "type": "string"
        }
      ],
      "stateMutability": "view",
      "type": "function"
    },
    {
      "inputs": [],
      "name": "needToReturnValue",
      "outputs": [
        {
          "internalType": "bool",
          "name": "",
          "type": "bool"
        }
      ],
      "stateMutability": "view",
      "type": "function"
    },
    {
      "inputs": [],
      "name": "returnBoolValue",
      "outputs": [
        {
          "internalType": "bool",
          "name": "",
          "type": "bool"
        }
      ],
      "stateMutability": "view",
      "type": "function"
    },
    {
      "inputs": [
        {
          "internalType": "uint8",
          "name": "value",
          "type": "uint8"
        }
      ],
      "name": "setDecimals",
      "outputs": [],
      "stateMutability": "nonpayable",
      "type": "function"
    },
    {
      "inputs": [
        {
          "internalType": "bool",
          "name": "_value",
          "type": "bool"
        }
      ],
      "name": "setIsSafeApprove",
      "outputs": [],
      "stateMutability": "nonpayable",
      "type": "function"
    },
    {
      "inputs": [
        {
          "internalType": "bool",
          "name": "_value",
          "type": "bool"
        }
      ],
      "name": "setNeedToReturnValue",
      "outputs": [],
      "stateMutability": "nonpayable",
      "type": "function"
    },
    {
      "inputs": [
        {
          "internalType": "bool",
          "name": "_value",
          "type": "bool"
        }
      ],
      "name": "setReturnBoolValue",
      "outputs": [],
      "stateMutability": "nonpayable",
      "type": "function"
    },
    {
      "inputs": [],
      "name": "symbol",
      "outputs": [
        {
          "internalType": "string",
          "name": "",
          "type": "string"
        }
      ],
      "stateMutability": "view",
      "type": "function"
    },
    {
      "inputs": [],
      "name": "totalSupply",
      "outputs": [
        {
          "internalType": "uint256",
          "name": "",
          "type": "uint256"
        }
      ],
      "stateMutability": "view",
      "type": "function"
    },
    {
      "inputs": [
        {
          "internalType": "address",
          "name": "recipient",
          "type": "address"
        },
        {
          "internalType": "uint256",
          "name": "amount",
          "type": "uint256"
        }
      ],
      "name": "transfer",
      "outputs": [
        {
          "internalType": "bool",
          "name": "",
          "type": "bool"
        }
      ],
      "stateMutability": "nonpayable",
      "type": "function"
    },
    {
      "inputs": [
        {
          "internalType": "address",
          "name": "sender",
          "type": "address"
        },
        {
          "internalType": "address",
          "name": "recipient",
          "type": "address"
        },
        {
          "internalType": "uint256",
          "name": "amount",
          "type": "uint256"
        }
      ],
      "name": "transferFrom",
      "outputs": [
        {
          "internalType": "bool",
          "name": "",
          "type": "bool"
        }
      ],
      "stateMutability": "nonpayable",
      "type": "function"
    },
    {
      "inputs": [
        {
          "internalType": "uint256",
          "name": "wad",
          "type": "uint256"
        }
      ],
      "name": "withdraw",
      "outputs": [],
      "stateMutability": "nonpayable",
      "type": "function"
    }
  ],
  "bytecode": "0x60806040526005805463ffffff001916620101001790553480156200002357600080fd5b506040805180820182526004808252630ae8aa8960e31b6020808401829052845180860190955291845290830152906012828260036200006483826200013b565b5060046200007382826200013b565b50506005805460ff191660ff93909316929092179091555062000207915050565b634e487b7160e01b600052604160045260246000fd5b600181811c90821680620000bf57607f821691505b602082108103620000e057634e487b7160e01b600052602260045260246000fd5b50919050565b601f82111562000136576000816000526020600020601f850160051c81016020861015620001115750805b601f850160051c820191505b8181101562000132578281556001016200011d565b5050505b505050565b81516001600160401b0381111562000157576200015762000094565b6200016f81620001688454620000aa565b84620000e6565b602080601f831160018114620001a757600084156200018e5750858301515b600019600386901b1c1916600185901b17855562000132565b600085815260208120601f198616915b82811015620001d857888601518255948401946001909101908401620001b7565b5085821015620001f75787850151600019600388901b60f8161c191681555b5050505050600190811b01905550565b61102080620002176000396000f3fe60806040526004361061014b5760003560e01c80636ebcf607116100b6578063a457c2d71161006f578063a457c2d714610419578063a9059cbb14610439578063cf787f7914610459578063d0e30db014610492578063d98a05611461049a578063dd62ed3e146104bb57600080fd5b80636ebcf6071461033057806370a082311461035d57806375216a2f1461039357806379cc6790146103b35780637a1395aa146103d357806395d89b411461040457600080fd5b80632e1a7d4d116101085780632e1a7d4d14610258578063313ce5671461027857806335df40f21461029a57806339509351146102d15780633f06b907146102f157806340c10f191461031057600080fd5b806306fdde0314610150578063095ea7b31461017b57806318160ddd146101ab57806323b872dd146101ca578063257224ab146101ea5780632dbcb32b14610221575b600080fd5b34801561015c57600080fd5b50610165610501565b6040516101729190610df7565b60405180910390f35b34801561018757600080fd5b5061019b610196366004610e62565b610593565b6040519015158152602001610172565b3480156101b757600080fd5b506002545b604051908152602001610172565b3480156101d657600080fd5b5061019b6101e5366004610e8c565b610651565b3480156101f657600080fd5b5061021f610205366004610ec8565b600580549115156101000261ff0019909216919091179055565b005b34801561022d57600080fd5b5061021f61023c366004610e62565b6001600160a01b03909116600090815260208190526040902055565b34801561026457600080fd5b5061021f610273366004610eea565b6106aa565b34801561028457600080fd5b5060055460405160ff9091168152602001610172565b3480156102a657600080fd5b5061021f6102b5366004610ec8565b60058054911515620100000262ff000019909216919091179055565b3480156102dd57600080fd5b5061019b6102ec366004610e62565b6106e5565b3480156102fd57600080fd5b5060055461019b90610100900460ff1681565b34801561031c57600080fd5b5061021f61032b366004610e62565b610721565b34801561033c57600080fd5b506101bc61034b366004610f03565b60006020819052908152604090205481565b34801561036957600080fd5b506101bc610378366004610f03565b6001600160a01b031660009081526020819052604090205490565b34801561039f57600080fd5b5060055461019b9062010000900460ff1681565b3480156103bf57600080fd5b5061021f6103ce366004610e62565b61072b565b3480156103df57600080fd5b5061021f6103ee366004610f1e565b6005805460ff191660ff92909216919091179055565b34801561041057600080fd5b50610165610735565b34801561042557600080fd5b5061019b610434366004610e62565b610744565b34801561044557600080fd5b5061019b610454366004610e62565b6107d8565b34801561046557600080fd5b5061021f610474366004610ec8565b6005805491151563010000000263ff00000019909216919091179055565b61021f610812565b3480156104a657600080fd5b5060055461019b906301000000900460ff1681565b3480156104c757600080fd5b506101bc6104d6366004610f41565b6001600160a01b03918216600090815260016020908152604080832093909416825291909152205490565b60606003805461051090610f74565b80601f016020809104026020016040519081016040528092919081815260200182805461053c90610f74565b80156105895780601f1061055e57610100808354040283529160200191610589565b820191906000526020600020905b81548152906001019060200180831161056c57829003601f168201915b5050505050905090565b60055460009062010000900460ff1680156105b65750600554610100900460ff16155b156105c35750600061064b565b60055462010000900460ff1680156105e457506005546301000000900460ff165b80156105ef57508115155b801561061d57503360009081526001602090815260408083206001600160a01b038716845290915290205415155b1561062a5750600061064b565b610634838361081e565b5060055462010000900460ff1661064757005b5060015b92915050565b60055460009062010000900460ff1680156106745750600554610100900460ff16155b15610681575060006106a3565b61068c84848461082b565b5060055462010000900460ff1661069f57005b5060015b9392505050565b6106b4338261072b565b604051339082156108fc029083906000818181858888f193505050501580156106e1573d6000803e3d6000fd5b5050565b3360008181526001602090815260408083206001600160a01b0387168452909152812054909161064791859061071c908690610fc4565b6108d5565b6106e182826109fa565b6106e18282610ad9565b60606004805461051090610f74565b3360009081526001602090815260408083206001600160a01b0386168452909152812054828110156107cb5760405162461bcd60e51b815260206004820152602560248201527f45524332303a2064656372656173656420616c6c6f77616e63652062656c6f77604482015264207a65726f60d81b60648201526084015b60405180910390fd5b61069f33858584036108d5565b60055460009062010000900460ff1680156107fb5750600554610100900460ff16155b156108085750600061064b565b6106348383610c1f565b61081c3334610721565b565b60006106473384846108d5565b6000610838848484610c28565b6001600160a01b0384166000908152600160209081526040808320338452909152902054828110156108bd5760405162461bcd60e51b815260206004820152602860248201527f45524332303a207472616e7366657220616d6f756e74206578636565647320616044820152676c6c6f77616e636560c01b60648201526084016107c2565b6108ca85338584036108d5565b506001949350505050565b6001600160a01b0383166109375760405162461bcd60e51b8152602060048201526024808201527f45524332303a20617070726f76652066726f6d20746865207a65726f206164646044820152637265737360e01b60648201526084016107c2565b6001600160a01b0382166109985760405162461bcd60e51b815260206004820152602260248201527f45524332303a20617070726f766520746f20746865207a65726f206164647265604482015261737360f01b60648201526084016107c2565b6001600160a01b0383811660008181526001602090815260408083209487168084529482529182902085905590518481527f8c5be1e5ebec7d5bd14f71427d1e84f3dd0314c0f7b2291e5b200ac8c7c3b92591015b60405180910390a3505050565b6001600160a01b038216610a505760405162461bcd60e51b815260206004820152601f60248201527f45524332303a206d696e7420746f20746865207a65726f20616464726573730060448201526064016107c2565b8060026000828254610a629190610fc4565b90915550506001600160a01b03821660009081526020819052604081208054839290610a8f908490610fc4565b90915550506040518181526001600160a01b038316906000907fddf252ad1be2c89b69c2b068fc378daa952ba7f163c4a11628f55a4df523b3ef9060200160405180910390a35050565b6001600160a01b038216610b395760405162461bcd60e51b815260206004820152602160248201527f45524332303a206275726e2066726f6d20746865207a65726f206164647265736044820152607360f81b60648201526084016107c2565b6001600160a01b03821660009081526020819052604090205481811015610bad5760405162461bcd60e51b815260206004820152602260248201527f45524332303a206275726e20616d6f756e7420657863656564732062616c616e604482015261636560f01b60648201526084016107c2565b6001600160a01b0383166000908152602081905260408120838303905560028054849290610bdc908490610fd7565b90915550506040518281526000906001600160a01b038516907fddf252ad1be2c89b69c2b068fc378daa952ba7f163c4a11628f55a4df523b3ef906020016109ed565b60006106473384845b6001600160a01b038316610c8c5760405162461bcd60e51b815260206004820152602560248201527f45524332303a207472616e736665722066726f6d20746865207a65726f206164604482015264647265737360d81b60648201526084016107c2565b6001600160a01b038216610cee5760405162461bcd60e51b815260206004820152602360248201527f45524332303a207472616e7366657220746f20746865207a65726f206164647260448201526265737360e81b60648201526084016107c2565b6001600160a01b03831660009081526020819052604090205481811015610d665760405162461bcd60e51b815260206004820152602660248201527f45524332303a207472616e7366657220616d6f756e7420657863656564732062604482015265616c616e636560d01b60648201526084016107c2565b6001600160a01b03808516600090815260208190526040808220858503905591851681529081208054849290610d9d908490610fc4565b92505081905550826001600160a01b0316846001600160a01b03167fddf252ad1be2c89b69c2b068fc378daa952ba7f163c4a11628f55a4df523b3ef84604051610de991815260200190565b60405180910390a350505050565b60006020808352835180602085015260005b81811015610e2557858101830151858201604001528201610e09565b506000604082860101526040601f19601f8301168501019250505092915050565b80356001600160a01b0381168114610e5d57600080fd5b919050565b60008060408385031215610e7557600080fd5b610e7e83610e46565b946020939093013593505050565b600080600060608486031215610ea157600080fd5b610eaa84610e46565b9250610eb860208501610e46565b9150604084013590509250925092565b600060208284031215610eda57600080fd5b813580151581146106a357600080fd5b600060208284031215610efc57600080fd5b5035919050565b600060208284031215610f1557600080fd5b6106a382610e46565b600060208284031215610f3057600080fd5b813560ff811681146106a357600080fd5b60008060408385031215610f5457600080fd5b610f5d83610e46565b9150610f6b60208401610e46565b90509250929050565b600181811c90821680610f8857607f821691505b602082108103610fa857634e487b7160e01b600052602260045260246000fd5b50919050565b634e487b7160e01b600052601160045260246000fd5b8082018082111561064b5761064b610fae565b8181038181111561064b5761064b610fae56fea26469706673582212203dcb6465b1926e7a101d92315a2c686342c9d0a3f819167c218c1e9cb00eb64164736f6c63430008180033",
  "linkReferences": {},
  "deployedLinkReferences": {}
}