{"abi":[{"type":"fallback","stateMutability":"payable"},{"type":"receive","stateMutability":"payable"},{"type":"function","name":"DEFAULT_ADMIN_ROLE","inputs":[],"outputs":[{"name":"","type":"bytes32","internalType":"bytes32"}],"stateMutability":"view"},{"type":"function","name":"REVERT_MSG","inputs":[],"outputs":[{"name":"","type":"string","internalType":"string"}],"stateMutability":"view"},{"type":"function","name":"VAULT_STRATEGY_ROLE","inputs":[],"outputs":[{"name":"","type":"bytes32","internalType":"bytes32"}],"stateMutability":"view"},{"type":"function","name":"claimEarnings","inputs":[{"name":"","type":"address","internalType":"address"},{"name":"","type":"address","internalType":"address"}],"outputs":[{"name":"","type":"address","internalType":"address"},{"name":"","type":"uint256","internalType":"uint256"}],"stateMutability":"nonpayable"},{"type":"function","name":"deposit","inputs":[{"name":"sender_","type":"address","internalType":"address"},{"name":"receiver_","type":"address","internalType":"address"},{"name":"token_","type":"address","internalType":"address"},{"name":"tokenAmount_","type":"uint256","internalType":"uint256"},{"name":"","type":"bool","internalType":"bool"}],"outputs":[{"name":"liquidTkn","type":"address","internalType":"address"},{"name":"liquidTknAmount","type":"uint256","internalType":"uint256"}],"stateMutability":"nonpayable"},{"type":"function","name":"ethxAddress","inputs":[],"outputs":[{"name":"","type":"address","internalType":"address"}],"stateMutability":"view"},{"type":"function","name":"getProtocol","inputs":[],"outputs":[{"name":"","type":"address","internalType":"address"}],"stateMutability":"view"},{"type":"function","name":"getRoleAdmin","inputs":[{"name":"role","type":"bytes32","internalType":"bytes32"}],"outputs":[{"name":"","type":"bytes32","internalType":"bytes32"}],"stateMutability":"view"},{"type":"function","name":"getSlippage","inputs":[],"outputs":[{"name":"","type":"uint256","internalType":"uint256"}],"stateMutability":"view"},{"type":"function","name":"getTokenPrice","inputs":[{"name":"","type":"address","internalType":"address"}],"outputs":[{"name":"","type":"uint256","internalType":"uint256"}],"stateMutability":"view"},{"type":"function","name":"grantRole","inputs":[{"name":"role","type":"bytes32","internalType":"bytes32"},{"name":"account","type":"address","internalType":"address"}],"outputs":[],"stateMutability":"nonpayable"},{"type":"function","name":"hasRole","inputs":[{"name":"role","type":"bytes32","internalType":"bytes32"},{"name":"account","type":"address","internalType":"address"}],"outputs":[{"name":"","type":"bool","internalType":"bool"}],"stateMutability":"view"},{"type":"function","name":"initialize","inputs":[{"name":"protocolAddress_","type":"address","internalType":"address"},{"name":"wethAddress_","type":"address","internalType":"address"},{"name":"ethxAddress_","type":"address","internalType":"address"}],"outputs":[],"stateMutability":"nonpayable"},{"type":"function","name":"pause","inputs":[],"outputs":[],"stateMutability":"nonpayable"},{"type":"function","name":"paused","inputs":[],"outputs":[{"name":"","type":"bool","internalType":"bool"}],"stateMutability":"view"},{"type":"function","name":"protocolAddress","inputs":[],"outputs":[{"name":"","type":"address","internalType":"address"}],"stateMutability":"view"},{"type":"function","name":"protocolName","inputs":[],"outputs":[{"name":"","type":"string","internalType":"string"}],"stateMutability":"view"},{"type":"function","name":"renounceRole","inputs":[{"name":"role","type":"bytes32","internalType":"bytes32"},{"name":"callerConfirmation","type":"address","internalType":"address"}],"outputs":[],"stateMutability":"nonpayable"},{"type":"function","name":"revokeRole","inputs":[{"name":"role","type":"bytes32","internalType":"bytes32"},{"name":"account","type":"address","internalType":"address"}],"outputs":[],"stateMutability":"nonpayable"},{"type":"function","name":"setETHxAddress","inputs":[{"name":"ethxAddress_","type":"address","internalType":"address"}],"outputs":[],"stateMutability":"nonpayable"},{"type":"function","name":"setSlippage","inputs":[{"name":"slippage_","type":"uint256","internalType":"uint256"}],"outputs":[],"stateMutability":"nonpayable"},{"type":"function","name":"setWETHAddress","inputs":[{"name":"wethAddress_","type":"address","internalType":"address"}],"outputs":[],"stateMutability":"nonpayable"},{"type":"function","name":"setprotocolAddress","inputs":[{"name":"protocolAddress_","type":"address","internalType":"address"}],"outputs":[],"stateMutability":"nonpayable"},{"type":"function","name":"slippage","inputs":[],"outputs":[{"name":"","type":"uint256","internalType":"uint256"}],"stateMutability":"view"},{"type":"function","name":"supportsInterface","inputs":[{"name":"interfaceId","type":"bytes4","internalType":"bytes4"}],"outputs":[{"name":"","type":"bool","internalType":"bool"}],"stateMutability":"view"},{"type":"function","name":"unpause","inputs":[],"outputs":[],"stateMutability":"nonpayable"},{"type":"function","name":"wethAddress","inputs":[],"outputs":[{"name":"","type":"address","internalType":"address"}],"stateMutability":"view"},{"type":"function","name":"withdraw","inputs":[{"name":"","type":"address","internalType":"address"},{"name":"","type":"address","internalType":"address"},{"name":"","type":"address","internalType":"address"},{"name":"","type":"uint256","internalType":"uint256"},{"name":"","type":"address","internalType":"address"},{"name":"","type":"uint256","internalType":"uint256"},{"name":"","type":"bytes","internalType":"bytes"}],"outputs":[{"name":"","type":"address","internalType":"address"},{"name":"","type":"uint256","internalType":"uint256"}],"stateMutability":"nonpayable"},{"type":"event","name":"AddressUpdated","inputs":[{"name":"which","type":"string","indexed":true,"internalType":"string"},{"name":"newAddress","type":"address","indexed":false,"internalType":"address"}],"anonymous":false},{"type":"event","name":"DepositedOnProtocol","inputs":[{"name":"sender","type":"address","indexed":true,"internalType":"address"},{"name":"token","type":"address","indexed":true,"internalType":"address"},{"name":"tokenAmount","type":"uint256","indexed":false,"internalType":"uint256"},{"name":"liquidTkn","type":"address","indexed":true,"internalType":"address"},{"name":"liquidTknAmount","type":"uint256","indexed":false,"internalType":"uint256"}],"anonymous":false},{"type":"event","name":"Initialized","inputs":[{"name":"version","type":"uint64","indexed":false,"internalType":"uint64"}],"anonymous":false},{"type":"event","name":"Paused","inputs":[{"name":"account","type":"address","indexed":false,"internalType":"address"}],"anonymous":false},{"type":"event","name":"RoleAdminChanged","inputs":[{"name":"role","type":"bytes32","indexed":true,"internalType":"bytes32"},{"name":"previousAdminRole","type":"bytes32","indexed":true,"internalType":"bytes32"},{"name":"newAdminRole","type":"bytes32","indexed":true,"internalType":"bytes32"}],"anonymous":false},{"type":"event","name":"RoleGranted","inputs":[{"name":"role","type":"bytes32","indexed":true,"internalType":"bytes32"},{"name":"account","type":"address","indexed":true,"internalType":"address"},{"name":"sender","type":"address","indexed":true,"internalType":"address"}],"anonymous":false},{"type":"event","name":"RoleRevoked","inputs":[{"name":"role","type":"bytes32","indexed":true,"internalType":"bytes32"},{"name":"account","type":"address","indexed":true,"internalType":"address"},{"name":"sender","type":"address","indexed":true,"internalType":"address"}],"anonymous":false},{"type":"event","name":"SlippageUpdated","inputs":[{"name":"newSlippage","type":"uint256","indexed":false,"internalType":"uint256"}],"anonymous":false},{"type":"event","name":"Unpaused","inputs":[{"name":"account","type":"address","indexed":false,"internalType":"address"}],"anonymous":false},{"type":"event","name":"WithdrawFromProtocol","inputs":[{"name":"caller_","type":"address","indexed":true,"internalType":"address"},{"name":"receiver_","type":"address","indexed":true,"internalType":"address"},{"name":"liquidTokenAddress_","type":"address","indexed":true,"internalType":"address"},{"name":"amountSpent","type":"uint256","indexed":false,"internalType":"uint256"},{"name":"asset_","type":"address","indexed":false,"internalType":"address"},{"name":"assetsAmount_","type":"uint256","indexed":false,"internalType":"uint256"}],"anonymous":false},{"type":"error","name":"AccessControlBadConfirmation","inputs":[]},{"type":"error","name":"AccessControlUnauthorizedAccount","inputs":[{"name":"account","type":"address","internalType":"address"},{"name":"neededRole","type":"bytes32","internalType":"bytes32"}]},{"type":"error","name":"AddressEmptyCode","inputs":[{"name":"target","type":"address","internalType":"address"}]},{"type":"error","name":"AddressInsufficientBalance","inputs":[{"name":"account","type":"address","internalType":"address"}]},{"type":"error","name":"EnforcedPause","inputs":[]},{"type":"error","name":"ExpectedPause","inputs":[]},{"type":"error","name":"FailedInnerCall","inputs":[]},{"type":"error","name":"InvalidInitialization","inputs":[]},{"type":"error","name":"MaxDeposit","inputs":[]},{"type":"error","name":"MinDeposit","inputs":[]},{"type":"error","name":"NotInitializing","inputs":[]},{"type":"error","name":"OnlyWETHAllowed","inputs":[]},{"type":"error","name":"ReentrancyGuardReentrantCall","inputs":[]},{"type":"error","name":"SafeERC20FailedOperation","inputs":[{"name":"token","type":"address","internalType":"address"}]},{"type":"error","name":"SlippageExceededOnDeposit","inputs":[{"name":"required","type":"uint256","internalType":"uint256"},{"name":"actual","type":"uint256","internalType":"uint256"}]},{"type":"error","name":"SlippageExceededOnWithdrawal","inputs":[{"name":"required","type":"uint256","internalType":"uint256"},{"name":"actual","type":"uint256","internalType":"uint256"}]},{"type":"error","name":"StakingPaused","inputs":[]},{"type":"error","name":"ZeroAddress","inputs":[{"name":"target","type":"string","internalType":"string"}]},{"type":"error","name":"ZeroAmount","inputs":[{"name":"target","type":"string","internalType":"string"}]}],"bytecode":{"object":"0x608060405234801561001057600080fd5b50611cdb806100206000396000f3fe6080604052600436106101a35760003560e01c80636a4234eb116100e0578063d02641a011610084578063e567e86911610061578063e567e8691461051a578063ed6655bf1461052f578063f0fa55a91461054f578063fc9cee3c1461056f57005b8063d02641a0146104bc578063d16352af146104dc578063d547741f146104fa57005b806391d14854116100bd57806391d148541461044c578063970de3811461046c578063a217fddf14610487578063c0c53b8b1461049c57005b80636a4234eb146103ca5780637e531a39146103ea5780638456cb591461043757005b80633c51687f116101475780634f0e0ef3116101245780634f0e0ef3146103265780635354c2b1146103465780635c975abb146103855780636a39fe60146103aa57005b80633c51687f146102db5780633e032a3b146102fb5780633f4ba83a1461031157005b80631bacfd0b116101805780631bacfd0b14610239578063248a9ca31461027b5780632f2ff15d1461029b57806336568abe146102bb57005b806301ffc9a7146101ac5780630676c1b7146101e157806313e69bf81461021957005b366101aa57005b005b3480156101b857600080fd5b506101cc6101c7366004611770565b610584565b60405190151581526020015b60405180910390f35b3480156101ed57600080fd5b50600354610201906001600160a01b031681565b6040516001600160a01b0390911681526020016101d8565b34801561022557600080fd5b506101aa6102343660046117b6565b6105bb565b34801561024557600080fd5b5061026d7f4fe08aea4652d25d7d2c09148537810c0b7e49021cc60dd467483872e4452ff581565b6040519081526020016101d8565b34801561028757600080fd5b5061026d6102963660046117d1565b610679565b3480156102a757600080fd5b506101aa6102b63660046117ea565b61069b565b3480156102c757600080fd5b506101aa6102d63660046117ea565b6106bd565b3480156102e757600080fd5b506101aa6102f63660046117b6565b6106f5565b34801561030757600080fd5b5061026d60015481565b34801561031d57600080fd5b506101aa6107ac565b34801561033257600080fd5b50600054610201906001600160a01b031681565b34801561035257600080fd5b50610366610361366004611824565b6107c2565b604080516001600160a01b0390931683526020830191909152016101d8565b34801561039157600080fd5b50600080516020611c868339815191525460ff166101cc565b3480156103b657600080fd5b506103666103c536600461189c565b610c9f565b3480156103d657600080fd5b506101aa6103e53660046117b6565b610ce8565b3480156103f657600080fd5b5061042a60405180604001604052806014815260200173119d5b98dd1a5bdb881b9bdd08185b1b1bddd95960621b81525081565b6040516101d891906119c7565b34801561044357600080fd5b506101aa610d9e565b34801561045857600080fd5b506101cc6104673660046117ea565b610db1565b34801561047857600080fd5b506103666103c53660046119fa565b34801561049357600080fd5b5061026d600081565b3480156104a857600080fd5b506101aa6104b7366004611a24565b610de9565b3480156104c857600080fd5b5061026d6104d73660046117b6565b611017565b3480156104e857600080fd5b506003546001600160a01b0316610201565b34801561050657600080fd5b506101aa6105153660046117ea565b61105b565b34801561052657600080fd5b5061042a611077565b34801561053b57600080fd5b50600454610201906001600160a01b031681565b34801561055b57600080fd5b506101aa61056a3660046117d1565b611105565b34801561057b57600080fd5b5060015461026d565b60006001600160e01b03198216637965db0b60e01b14806105b557506301ffc9a760e01b6001600160e01b03198316145b92915050565b60006105c681611174565b6105f8826040518060400160405280601081526020016f70726f746f636f6c416464726573735f60801b81525061117e565b6040516e70726f746f636f6c4164647265737360881b8152600f016040519081900381206001600160a01b0384168252907f943e9d45a11aaae5d87503e3bc248665d9807856e5cf2bdb4a988bee444227819060200160405180910390a250600380546001600160a01b0319166001600160a01b0392909216919091179055565b6000908152600080516020611c66833981519152602052604090206001015490565b6106a482610679565b6106ad81611174565b6106b783836111ab565b50505050565b6001600160a01b03811633146106e65760405163334bd91960e11b815260040160405180910390fd5b6106f08282611250565b505050565b600061070081611174565b61072e826040518060400160405280600c81526020016b65746878416464726573735f60a01b81525061117e565b6040516b65746878416464726573735f60a01b8152600c016040519081900381206001600160a01b0384168252907f943e9d45a11aaae5d87503e3bc248665d9807856e5cf2bdb4a988bee444227819060200160405180910390a250600480546001600160a01b0319166001600160a01b0392909216919091179055565b60006107b781611174565b6107bf6112cc565b50565b6000806107cd61132c565b6107d561135f565b7f4fe08aea4652d25d7d2c09148537810c0b7e49021cc60dd467483872e4452ff56107ff81611174565b610828886040518060400160405280600781526020016673656e6465725f60c81b81525061117e565b610853876040518060400160405280600981526020016872656365697665725f60b81b81525061117e565b61087b8660405180604001604052806006815260200165746f6b656e5f60d01b81525061117e565b6108a9856040518060400160405280600c81526020016b746f6b656e416d6f756e745f60a01b8152506113a9565b6000546001600160a01b038781169116146108d757604051632f5e77a960e01b815260040160405180910390fd5b6000546108ef906001600160a01b03168930886113cc565b600054604051632e1a7d4d60e01b8152600481018790526001600160a01b0390911690632e1a7d4d90602401600060405180830381600087803b15801561093557600080fd5b505af1158015610949573d6000803e3d6000fd5b50505050600360009054906101000a90046001600160a01b03166001600160a01b0316635c975abb6040518163ffffffff1660e01b8152600401602060405180830381865afa1580156109a0573d6000803e3d6000fd5b505050506040513d601f19601f820116820180604052508101906109c49190611a67565b156109e2576040516326d1807b60e01b815260040160405180910390fd5b600360009054906101000a90046001600160a01b03166001600160a01b03166341b3d1856040518163ffffffff1660e01b8152600401602060405180830381865afa158015610a35573d6000803e3d6000fd5b505050506040513d601f19601f82011682018060405250810190610a599190611a84565b851015610a795760405163011bcd8360e41b815260040160405180910390fd5b600360009054906101000a90046001600160a01b03166001600160a01b0316636083e59a6040518163ffffffff1660e01b8152600401602060405180830381865afa158015610acc573d6000803e3d6000fd5b505050506040513d601f19601f82011682018060405250810190610af09190611a84565b851115610b1057604051633b8698ab60e01b815260040160405180910390fd5b6000670de0b6b3a7640000600154670de0b6b3a7640000610b319190611ab3565b610b3b9088611ac6565b610b459190611add565b60035460405163f340fa0160e01b81523060048201529192506000916001600160a01b039091169063f340fa0190899060240160206040518083038185885af1158015610b96573d6000803e3d6000fd5b50505050506040513d601f19601f82011682018060405250810190610bbb9190611a84565b905081811015610bed5760405163c60d402760e01b815260048101839052602481018290526044015b60405180910390fd5b6004546001600160a01b03169450925082610c09858a83611433565b846001600160a01b0316886001600160a01b03168b6001600160a01b03167f044d4bbddd3af59e620636cb231e96ccd6acfbac6aa9a369ea17075cc839daee8a88604051610c61929190918252602082015260400190565b60405180910390a4505050610c9560017f9b779b17422d0df92223018b32b4d1fa46e071723d6817e2486d003becc55f0055565b9550959350505050565b60008060405180604001604052806014815260200173119d5b98dd1a5bdb881b9bdd08185b1b1bddd95960621b81525060405162461bcd60e51b8152600401610be491906119c7565b6000610cf381611174565b610d21826040518060400160405280600c81526020016b77657468416464726573735f60a01b81525061117e565b6040516a776574684164647265737360a81b8152600b016040519081900381206001600160a01b0384168252907f943e9d45a11aaae5d87503e3bc248665d9807856e5cf2bdb4a988bee444227819060200160405180910390a250600080546001600160a01b0319166001600160a01b0392909216919091179055565b6000610da981611174565b6107bf61148a565b6000918252600080516020611c66833981519152602090815260408084206001600160a01b0393909316845291905290205460ff1690565b7ff0c57e16840df040f15088dc2f81fe391c3923bec73e23a9662efc9c229c6a008054600160401b810460ff16159067ffffffffffffffff16600081158015610e2f5750825b905060008267ffffffffffffffff166001148015610e4c5750303b155b905081158015610e5a575080155b15610e785760405163f92ee8a960e01b815260040160405180910390fd5b845467ffffffffffffffff191660011785558315610ea257845460ff60401b1916600160401b1785555b610ed4886040518060400160405280601081526020016f70726f746f636f6c416464726573735f60801b81525061117e565b610f02876040518060400160405280600c81526020016b77657468416464726573735f60a01b81525061117e565b610f30866040518060400160405280600c81526020016b65746878416464726573735f60a01b81525061117e565b610f386114d3565b610f406114db565b610f486114eb565b610f536000336111ab565b50600380546001600160a01b03808b166001600160a01b031992831617909255600080548a84169083161790556004805492891692909116919091179055668e1bc9bf04000060015560408051808201909152600681526529ba30b232b960d11b6020820152600290610fc69082611b89565b50831561100d57845460ff60401b19168555604051600181527fc7f505b2f371ae2175ee4913f4499e1f2633a7b5936321eed1cdaeb6115181d29060200160405180910390a15b5050505050505050565b6040805180820182526014815273119d5b98dd1a5bdb881b9bdd08185b1b1bddd95960621b6020820152905162461bcd60e51b8152600091610be4916004016119c7565b61106482610679565b61106d81611174565b6106b78383611250565b6002805461108490611aff565b80601f01602080910402602001604051908101604052809291908181526020018280546110b090611aff565b80156110fd5780601f106110d2576101008083540402835291602001916110fd565b820191906000526020600020905b8154815290600101906020018083116110e057829003601f168201915b505050505081565b600061111081611174565b61113b8260405180604001604052806009815260200168736c6970706167655f60b81b8152506113a9565b6040518281527ff5a802650e0a86db227cc342f06327d2ca0ff5cf2b12e0084fc5d8a7db2c54fd9060200160405180910390a150600155565b6107bf81336114fb565b6001600160a01b0382166111a7578060405163eac0d38960e01b8152600401610be491906119c7565b5050565b6000600080516020611c668339815191526111c68484610db1565b611246576000848152602082815260408083206001600160a01b03871684529091529020805460ff191660011790556111fc3390565b6001600160a01b0316836001600160a01b0316857f2f8788117e7eff1d82e926ec794901d17c78024a50270940304540a733656f0d60405160405180910390a460019150506105b5565b60009150506105b5565b6000600080516020611c6683398151915261126b8484610db1565b15611246576000848152602082815260408083206001600160a01b0387168085529252808320805460ff1916905551339287917ff6391f5c32d9c69d2a47ea670b442974b53935d1edc7fd64eb21e047a839171b9190a460019150506105b5565b6112d4611534565b600080516020611c86833981519152805460ff191681557f5db9ee0a495bf2e6ff9c91a7834c1ba4fdd244a5e8aa4e537bd38aeae4b073aa335b6040516001600160a01b03909116815260200160405180910390a150565b600080516020611c868339815191525460ff161561135d5760405163d93c066560e01b815260040160405180910390fd5b565b7f9b779b17422d0df92223018b32b4d1fa46e071723d6817e2486d003becc55f008054600119016113a357604051633ee5aeb560e01b815260040160405180910390fd5b60029055565b816000036111a757806040516303b3e63560e41b8152600401610be491906119c7565b6040516001600160a01b0384811660248301528381166044830152606482018390526106b79186918216906323b872dd906084015b604051602081830303815290604052915060e01b6020820180516001600160e01b038381831617835250505050611564565b6040516001600160a01b038381166024830152604482018390526106f091859182169063a9059cbb90606401611401565b60017f9b779b17422d0df92223018b32b4d1fa46e071723d6817e2486d003becc55f0055565b61149261132c565b600080516020611c86833981519152805460ff191660011781557f62e78cea01bee320cd4e420270b5ea74000d11b0c9f74754ebdbfc544b05a2583361130e565b61135d6115c7565b6114e36115c7565b61135d611610565b6114f36115c7565b61135d611618565b6115058282610db1565b6111a75760405163e2517d3f60e01b81526001600160a01b038216600482015260248101839052604401610be4565b600080516020611c868339815191525460ff1661135d57604051638dfc202b60e01b815260040160405180910390fd5b60006115796001600160a01b03841683611639565b9050805160001415801561159e57508080602001905181019061159c9190611a67565b155b156106f057604051635274afe760e01b81526001600160a01b0384166004820152602401610be4565b7ff0c57e16840df040f15088dc2f81fe391c3923bec73e23a9662efc9c229c6a0054600160401b900460ff1661135d57604051631afcd79f60e31b815260040160405180910390fd5b6114646115c7565b6116206115c7565b600080516020611c86833981519152805460ff19169055565b60606116478383600061164e565b9392505050565b6060814710156116735760405163cd78605960e01b8152306004820152602401610be4565b600080856001600160a01b0316848660405161168f9190611c49565b60006040518083038185875af1925050503d80600081146116cc576040519150601f19603f3d011682016040523d82523d6000602084013e6116d1565b606091505b50915091506116e18683836116eb565b9695505050505050565b606082611700576116fb82611747565b611647565b815115801561171757506001600160a01b0384163b155b1561174057604051639996b31560e01b81526001600160a01b0385166004820152602401610be4565b5080611647565b8051156117575780518082602001fd5b604051630a12f52160e11b815260040160405180910390fd5b60006020828403121561178257600080fd5b81356001600160e01b03198116811461164757600080fd5b80356001600160a01b03811681146117b157600080fd5b919050565b6000602082840312156117c857600080fd5b6116478261179a565b6000602082840312156117e357600080fd5b5035919050565b600080604083850312156117fd57600080fd5b8235915061180d6020840161179a565b90509250929050565b80151581146107bf57600080fd5b600080600080600060a0868803121561183c57600080fd5b6118458661179a565b94506118536020870161179a565b93506118616040870161179a565b925060608601359150608086013561187881611816565b809150509295509295909350565b634e487b7160e01b600052604160045260246000fd5b600080600080600080600060e0888a0312156118b757600080fd5b6118c08861179a565b96506118ce6020890161179a565b95506118dc6040890161179a565b9450606088013593506118f16080890161179a565b925060a0880135915060c088013567ffffffffffffffff8082111561191557600080fd5b818a0191508a601f83011261192957600080fd5b81358181111561193b5761193b611886565b604051601f8201601f19908116603f0116810190838211818310171561196357611963611886565b816040528281528d602084870101111561197c57600080fd5b82602086016020830137600060208483010152809550505050505092959891949750929550565b60005b838110156119be5781810151838201526020016119a6565b50506000910152565b60208152600082518060208401526119e68160408501602087016119a3565b601f01601f19169190910160400192915050565b60008060408385031215611a0d57600080fd5b611a168361179a565b915061180d6020840161179a565b600080600060608486031215611a3957600080fd5b611a428461179a565b9250611a506020850161179a565b9150611a5e6040850161179a565b90509250925092565b600060208284031215611a7957600080fd5b815161164781611816565b600060208284031215611a9657600080fd5b5051919050565b634e487b7160e01b600052601160045260246000fd5b818103818111156105b5576105b5611a9d565b80820281158282048414176105b5576105b5611a9d565b600082611afa57634e487b7160e01b600052601260045260246000fd5b500490565b600181811c90821680611b1357607f821691505b602082108103611b3357634e487b7160e01b600052602260045260246000fd5b50919050565b601f8211156106f0576000816000526020600020601f850160051c81016020861015611b625750805b601f850160051c820191505b81811015611b8157828155600101611b6e565b505050505050565b815167ffffffffffffffff811115611ba357611ba3611886565b611bb781611bb18454611aff565b84611b39565b602080601f831160018114611bec5760008415611bd45750858301515b600019600386901b1c1916600185901b178555611b81565b600085815260208120601f198616915b82811015611c1b57888601518255948401946001909101908401611bfc565b5085821015611c395787850151600019600388901b60f8161c191681555b5050505050600190811b01905550565b60008251611c5b8184602087016119a3565b919091019291505056fe02dd7bc7dec4dceedda775e58dd541e08a116c6c53815c0bd028192f7b626800cd5ed15c6e187e77e9aee88184c21f4f2182ab5827cb3b7e07fbedcd63f03300a264697066735822122087685c71335dfd3ec1d1ce3342a36b3c67d79cdd4bf383a7c57fc60cbd3ca5af64736f6c63430008180033","linkReferences":{}},"methodIdentifiers":{"DEFAULT_ADMIN_ROLE()":"a217fddf","REVERT_MSG()":"7e531a39","VAULT_STRATEGY_ROLE()":"1bacfd0b","claimEarnings(address,address)":"970de381","deposit(address,address,address,uint256,bool)":"5354c2b1","ethxAddress()":"ed6655bf","getProtocol()":"d16352af","getRoleAdmin(bytes32)":"248a9ca3","getSlippage()":"fc9cee3c","getTokenPrice(address)":"d02641a0","grantRole(bytes32,address)":"2f2ff15d","hasRole(bytes32,address)":"91d14854","initialize(address,address,address)":"c0c53b8b","pause()":"8456cb59","paused()":"5c975abb","protocolAddress()":"0676c1b7","protocolName()":"e567e869","renounceRole(bytes32,address)":"36568abe","revokeRole(bytes32,address)":"d547741f","setETHxAddress(address)":"3c51687f","setSlippage(uint256)":"f0fa55a9","setWETHAddress(address)":"6a4234eb","setprotocolAddress(address)":"13e69bf8","slippage()":"3e032a3b","supportsInterface(bytes4)":"01ffc9a7","unpause()":"3f4ba83a","wethAddress()":"4f0e0ef3","withdraw(address,address,address,uint256,address,uint256,bytes)":"6a39fe60"},"id":34}