{
  "_format": "hh-sol-artifact-1",
  "contractName": "UniswapPoolMock",
  "sourceName": "contracts/_mocks/adapters/UniswapPoolMock.sol",
  "abi": [
    {
      "inputs": [
        {
          "internalType": "uint160",
          "name": "sqrtPriceX96_",
          "type": "uint160"
        }
      ],
      "name": "setSlot0",
      "outputs": [],
      "stateMutability": "nonpayable",
      "type": "function"
    },
    {
      "inputs": [
        {
          "internalType": "address",
          "name": "token0_",
          "type": "address"
        }
      ],
      "name": "setToken0",
      "outputs": [],
      "stateMutability": "nonpayable",
      "type": "function"
    },
    {
      "inputs": [],
      "name": "slot0",
      "outputs": [
        {
          "internalType": "uint160",
          "name": "",
          "type": "uint160"
        },
        {
          "internalType": "int24",
          "name": "",
          "type": "int24"
        },
        {
          "internalType": "uint16",
          "name": "",
          "type": "uint16"
        },
        {
          "internalType": "uint16",
          "name": "",
          "type": "uint16"
        },
        {
          "internalType": "uint16",
          "name": "",
          "type": "uint16"
        },
        {
          "internalType": "uint8",
          "name": "",
          "type": "uint8"
        },
        {
          "internalType": "bool",
          "name": "",
          "type": "bool"
        }
      ],
      "stateMutability": "view",
      "type": "function"
    },
    {
      "inputs": [],
      "name": "sqrtPriceX96",
      "outputs": [
        {
          "internalType": "uint160",
          "name": "",
          "type": "uint160"
        }
      ],
      "stateMutability": "view",
      "type": "function"
    },
    {
      "inputs": [],
      "name": "token0",
      "outputs": [
        {
          "internalType": "address",
          "name": "",
          "type": "address"
        }
      ],
      "stateMutability": "view",
      "type": "function"
    }
  ],
  "bytecode": "0x608060405234801561001057600080fd5b506101b8806100206000396000f3fe608060405234801561001057600080fd5b50600436106100575760003560e01c80630dfe16811461005c5780631859ba571461008c5780633850c7bd146100be5780638db791d214610103578063c6e426bd14610116575b600080fd5b60005461006f906001600160a01b031681565b6040516001600160a01b0390911681526020015b60405180910390f35b6100bc61009a36600461015e565b600180546001600160a01b0319166001600160a01b0392909216919091179055565b005b600154604080516001600160a01b039092168252600060208301819052908201819052606082018190526080820181905260a0820181905260c082015260e001610083565b60015461006f906001600160a01b031681565b6100bc61012436600461015e565b600080546001600160a01b0319166001600160a01b0392909216919091179055565b6001600160a01b038116811461015b57600080fd5b50565b60006020828403121561017057600080fd5b813561017b81610146565b939250505056fea26469706673582212209a0bbbfd79c49f90dcb7b594cde162defe5d51b1868db7328c456a4b9ecc847d64736f6c63430008180033",
  "linkReferences": {},
  "deployedLinkReferences": {}
}