{"abi":[{"type":"fallback","stateMutability":"payable"},{"type":"receive","stateMutability":"payable"},{"type":"function","name":"DEFAULT_ADMIN_ROLE","inputs":[],"outputs":[{"name":"","type":"bytes32","internalType":"bytes32"}],"stateMutability":"view"},{"type":"function","name":"REVERT_MSG","inputs":[],"outputs":[{"name":"","type":"string","internalType":"string"}],"stateMutability":"view"},{"type":"function","name":"VAULT_STRATEGY_ROLE","inputs":[],"outputs":[{"name":"","type":"bytes32","internalType":"bytes32"}],"stateMutability":"view"},{"type":"function","name":"claimEarnings","inputs":[{"name":"","type":"address","internalType":"address"},{"name":"","type":"address","internalType":"address"}],"outputs":[{"name":"","type":"address","internalType":"address"},{"name":"","type":"uint256","internalType":"uint256"}],"stateMutability":"nonpayable"},{"type":"function","name":"deposit","inputs":[{"name":"sender_","type":"address","internalType":"address"},{"name":"receiver_","type":"address","internalType":"address"},{"name":"token_","type":"address","internalType":"address"},{"name":"tokenAmount_","type":"uint256","internalType":"uint256"},{"name":"","type":"bool","internalType":"bool"}],"outputs":[{"name":"liquidTkn","type":"address","internalType":"address"},{"name":"liquidTknAmount","type":"uint256","internalType":"uint256"}],"stateMutability":"nonpayable"},{"type":"function","name":"getProtocol","inputs":[],"outputs":[{"name":"","type":"address","internalType":"address"}],"stateMutability":"view"},{"type":"function","name":"getRoleAdmin","inputs":[{"name":"role","type":"bytes32","internalType":"bytes32"}],"outputs":[{"name":"","type":"bytes32","internalType":"bytes32"}],"stateMutability":"view"},{"type":"function","name":"getSlippage","inputs":[],"outputs":[{"name":"","type":"uint256","internalType":"uint256"}],"stateMutability":"view"},{"type":"function","name":"getTokenPrice","inputs":[{"name":"","type":"address","internalType":"address"}],"outputs":[{"name":"","type":"uint256","internalType":"uint256"}],"stateMutability":"view"},{"type":"function","name":"grantRole","inputs":[{"name":"role","type":"bytes32","internalType":"bytes32"},{"name":"account","type":"address","internalType":"address"}],"outputs":[],"stateMutability":"nonpayable"},{"type":"function","name":"hasRole","inputs":[{"name":"role","type":"bytes32","internalType":"bytes32"},{"name":"account","type":"address","internalType":"address"}],"outputs":[{"name":"","type":"bool","internalType":"bool"}],"stateMutability":"view"},{"type":"function","name":"initialize","inputs":[{"name":"protocolAddress_","type":"address","internalType":"address"},{"name":"rocketSettingsAddress_","type":"address","internalType":"address"},{"name":"wethAddress_","type":"address","internalType":"address"},{"name":"rETHAddress_","type":"address","internalType":"address"}],"outputs":[],"stateMutability":"nonpayable"},{"type":"function","name":"pause","inputs":[],"outputs":[],"stateMutability":"nonpayable"},{"type":"function","name":"paused","inputs":[],"outputs":[{"name":"","type":"bool","internalType":"bool"}],"stateMutability":"view"},{"type":"function","name":"protocolAddress","inputs":[],"outputs":[{"name":"","type":"address","internalType":"address"}],"stateMutability":"view"},{"type":"function","name":"protocolName","inputs":[],"outputs":[{"name":"","type":"string","internalType":"string"}],"stateMutability":"view"},{"type":"function","name":"rETHAddress","inputs":[],"outputs":[{"name":"","type":"address","internalType":"address"}],"stateMutability":"view"},{"type":"function","name":"renounceRole","inputs":[{"name":"role","type":"bytes32","internalType":"bytes32"},{"name":"callerConfirmation","type":"address","internalType":"address"}],"outputs":[],"stateMutability":"nonpayable"},{"type":"function","name":"revokeRole","inputs":[{"name":"role","type":"bytes32","internalType":"bytes32"},{"name":"account","type":"address","internalType":"address"}],"outputs":[],"stateMutability":"nonpayable"},{"type":"function","name":"rocketSettingsAddress","inputs":[],"outputs":[{"name":"","type":"address","internalType":"address"}],"stateMutability":"view"},{"type":"function","name":"setRETHAddress","inputs":[{"name":"rETHAddress_","type":"address","internalType":"address"}],"outputs":[],"stateMutability":"nonpayable"},{"type":"function","name":"setSlippage","inputs":[{"name":"slippage_","type":"uint256","internalType":"uint256"}],"outputs":[],"stateMutability":"nonpayable"},{"type":"function","name":"setWETHAddress","inputs":[{"name":"wethAddress_","type":"address","internalType":"address"}],"outputs":[],"stateMutability":"nonpayable"},{"type":"function","name":"setprotocolAddress","inputs":[{"name":"protocolAddress_","type":"address","internalType":"address"}],"outputs":[],"stateMutability":"nonpayable"},{"type":"function","name":"slippage","inputs":[],"outputs":[{"name":"","type":"uint256","internalType":"uint256"}],"stateMutability":"view"},{"type":"function","name":"supportsInterface","inputs":[{"name":"interfaceId","type":"bytes4","internalType":"bytes4"}],"outputs":[{"name":"","type":"bool","internalType":"bool"}],"stateMutability":"view"},{"type":"function","name":"unpause","inputs":[],"outputs":[],"stateMutability":"nonpayable"},{"type":"function","name":"wethAddress","inputs":[],"outputs":[{"name":"","type":"address","internalType":"address"}],"stateMutability":"view"},{"type":"function","name":"withdraw","inputs":[{"name":"caller_","type":"address","internalType":"address"},{"name":"receiver_","type":"address","internalType":"address"},{"name":"asset_","type":"address","internalType":"address"},{"name":"assetsAmount_","type":"uint256","internalType":"uint256"},{"name":"liquidTokenAddress_","type":"address","internalType":"address"},{"name":"amountInMaximum_","type":"uint256","internalType":"uint256"},{"name":"","type":"bytes","internalType":"bytes"}],"outputs":[{"name":"","type":"address","internalType":"address"},{"name":"","type":"uint256","internalType":"uint256"}],"stateMutability":"nonpayable"},{"type":"event","name":"AddressUpdated","inputs":[{"name":"which","type":"string","indexed":true,"internalType":"string"},{"name":"newAddress","type":"address","indexed":false,"internalType":"address"}],"anonymous":false},{"type":"event","name":"DepositedOnProtocol","inputs":[{"name":"sender","type":"address","indexed":true,"internalType":"address"},{"name":"token","type":"address","indexed":true,"internalType":"address"},{"name":"tokenAmount","type":"uint256","indexed":false,"internalType":"uint256"},{"name":"liquidTkn","type":"address","indexed":true,"internalType":"address"},{"name":"liquidTknAmount","type":"uint256","indexed":false,"internalType":"uint256"}],"anonymous":false},{"type":"event","name":"Initialized","inputs":[{"name":"version","type":"uint64","indexed":false,"internalType":"uint64"}],"anonymous":false},{"type":"event","name":"Paused","inputs":[{"name":"account","type":"address","indexed":false,"internalType":"address"}],"anonymous":false},{"type":"event","name":"RoleAdminChanged","inputs":[{"name":"role","type":"bytes32","indexed":true,"internalType":"bytes32"},{"name":"previousAdminRole","type":"bytes32","indexed":true,"internalType":"bytes32"},{"name":"newAdminRole","type":"bytes32","indexed":true,"internalType":"bytes32"}],"anonymous":false},{"type":"event","name":"RoleGranted","inputs":[{"name":"role","type":"bytes32","indexed":true,"internalType":"bytes32"},{"name":"account","type":"address","indexed":true,"internalType":"address"},{"name":"sender","type":"address","indexed":true,"internalType":"address"}],"anonymous":false},{"type":"event","name":"RoleRevoked","inputs":[{"name":"role","type":"bytes32","indexed":true,"internalType":"bytes32"},{"name":"account","type":"address","indexed":true,"internalType":"address"},{"name":"sender","type":"address","indexed":true,"internalType":"address"}],"anonymous":false},{"type":"event","name":"SlippageUpdated","inputs":[{"name":"newSlippage","type":"uint256","indexed":false,"internalType":"uint256"}],"anonymous":false},{"type":"event","name":"Unpaused","inputs":[{"name":"account","type":"address","indexed":false,"internalType":"address"}],"anonymous":false},{"type":"event","name":"WithdrawFromProtocol","inputs":[{"name":"caller_","type":"address","indexed":true,"internalType":"address"},{"name":"receiver_","type":"address","indexed":true,"internalType":"address"},{"name":"liquidTokenAddress_","type":"address","indexed":true,"internalType":"address"},{"name":"amountSpent","type":"uint256","indexed":false,"internalType":"uint256"},{"name":"asset_","type":"address","indexed":false,"internalType":"address"},{"name":"assetsAmount_","type":"uint256","indexed":false,"internalType":"uint256"}],"anonymous":false},{"type":"error","name":"AccessControlBadConfirmation","inputs":[]},{"type":"error","name":"AccessControlUnauthorizedAccount","inputs":[{"name":"account","type":"address","internalType":"address"},{"name":"neededRole","type":"bytes32","internalType":"bytes32"}]},{"type":"error","name":"AddressEmptyCode","inputs":[{"name":"target","type":"address","internalType":"address"}]},{"type":"error","name":"AddressInsufficientBalance","inputs":[{"name":"account","type":"address","internalType":"address"}]},{"type":"error","name":"EnforcedPause","inputs":[]},{"type":"error","name":"ExceedCapacity","inputs":[]},{"type":"error","name":"ExpectedPause","inputs":[]},{"type":"error","name":"FailedInnerCall","inputs":[]},{"type":"error","name":"InvalidInitialization","inputs":[]},{"type":"error","name":"MinDeposit","inputs":[]},{"type":"error","name":"NotInitializing","inputs":[]},{"type":"error","name":"OnlyWETHAllowed","inputs":[]},{"type":"error","name":"ReentrancyGuardReentrantCall","inputs":[]},{"type":"error","name":"SafeERC20FailedOperation","inputs":[{"name":"token","type":"address","internalType":"address"}]},{"type":"error","name":"SlippageExceededOnDeposit","inputs":[{"name":"required","type":"uint256","internalType":"uint256"},{"name":"actual","type":"uint256","internalType":"uint256"}]},{"type":"error","name":"SlippageExceededOnWithdrawal","inputs":[{"name":"required","type":"uint256","internalType":"uint256"},{"name":"actual","type":"uint256","internalType":"uint256"}]},{"type":"error","name":"StakingPaused","inputs":[]},{"type":"error","name":"ZeroAddress","inputs":[{"name":"target","type":"string","internalType":"string"}]},{"type":"error","name":"ZeroAmount","inputs":[{"name":"target","type":"string","internalType":"string"}]}],"bytecode":{"object":"0x608060405234801561001057600080fd5b50612227806100206000396000f3fe6080604052600436106101ae5760003560e01c80636a4234eb116100eb578063ca7acdcd1161008f578063e567e86911610061578063e567e8691461054a578063f0fa55a91461055f578063f8c8765e1461057f578063fc9cee3c1461059f57005b8063ca7acdcd146104cc578063d02641a0146104ec578063d16352af1461050c578063d547741f1461052a57005b806391d14854116100c857806391d1485414610457578063970de3811461047757806398d1e96714610497578063a217fddf146104b757005b80636a4234eb146103d55780637e531a39146103f55780638456cb591461044257005b806336568abe116101525780634f0e0ef31161012f5780634f0e0ef3146103315780635354c2b1146103515780635c975abb146103905780636a39fe60146103b557005b806336568abe146102e65780633e032a3b146103065780633f4ba83a1461031c57005b80631bacfd0b1161018b5780631bacfd0b14610244578063248a9ca3146102865780632ee09f42146102a65780632f2ff15d146102c657005b806301ffc9a7146101b75780630676c1b7146101ec57806313e69bf81461022457005b366101b557005b005b3480156101c357600080fd5b506101d76101d2366004611c98565b6105b4565b60405190151581526020015b60405180910390f35b3480156101f857600080fd5b5060035461020c906001600160a01b031681565b6040516001600160a01b0390911681526020016101e3565b34801561023057600080fd5b506101b561023f366004611cde565b6105eb565b34801561025057600080fd5b506102787f4fe08aea4652d25d7d2c09148537810c0b7e49021cc60dd467483872e4452ff581565b6040519081526020016101e3565b34801561029257600080fd5b506102786102a1366004611cf9565b6106a9565b3480156102b257600080fd5b506101b56102c1366004611cde565b6106cb565b3480156102d257600080fd5b506101b56102e1366004611d12565b610781565b3480156102f257600080fd5b506101b5610301366004611d12565b6107a3565b34801561031257600080fd5b5061027860015481565b34801561032857600080fd5b506101b56107db565b34801561033d57600080fd5b5060005461020c906001600160a01b031681565b34801561035d57600080fd5b5061037161036c366004611d4c565b6107f1565b604080516001600160a01b0390931683526020830191909152016101e3565b34801561039c57600080fd5b506000805160206121d28339815191525460ff166101d7565b3480156103c157600080fd5b506103716103d0366004611dc4565b610da6565b3480156103e157600080fd5b506101b56103f0366004611cde565b611156565b34801561040157600080fd5b5061043560405180604001604052806014815260200173119d5b98dd1a5bdb881b9bdd08185b1b1bddd95960621b81525081565b6040516101e39190611eef565b34801561044e57600080fd5b506101b561120c565b34801561046357600080fd5b506101d7610472366004611d12565b61121f565b34801561048357600080fd5b50610371610492366004611f22565b611257565b3480156104a357600080fd5b5060045461020c906001600160a01b031681565b3480156104c357600080fd5b50610278600081565b3480156104d857600080fd5b5060055461020c906001600160a01b031681565b3480156104f857600080fd5b50610278610507366004611cde565b6112a0565b34801561051857600080fd5b506003546001600160a01b031661020c565b34801561053657600080fd5b506101b5610545366004611d12565b61130e565b34801561055657600080fd5b5061043561132a565b34801561056b57600080fd5b506101b561057a366004611cf9565b6113b8565b34801561058b57600080fd5b506101b561059a366004611f4c565b611427565b3480156105ab57600080fd5b50600154610278565b60006001600160e01b03198216637965db0b60e01b14806105e557506301ffc9a760e01b6001600160e01b03198316145b92915050565b60006105f68161169c565b610628826040518060400160405280601081526020016f70726f746f636f6c416464726573735f60801b8152506116a6565b6040516e70726f746f636f6c4164647265737360881b8152600f016040519081900381206001600160a01b0384168252907f943e9d45a11aaae5d87503e3bc248665d9807856e5cf2bdb4a988bee444227819060200160405180910390a250600380546001600160a01b0319166001600160a01b0392909216919091179055565b60009081526000805160206121b2833981519152602052604090206001015490565b60006106d68161169c565b610704826040518060400160405280600c81526020016b72455448416464726573735f60a01b8152506116a6565b6040516a724554484164647265737360a81b8152600b016040519081900381206001600160a01b0384168252907f943e9d45a11aaae5d87503e3bc248665d9807856e5cf2bdb4a988bee444227819060200160405180910390a250600580546001600160a01b0319166001600160a01b0392909216919091179055565b61078a826106a9565b6107938161169c565b61079d83836116d3565b50505050565b6001600160a01b03811633146107cc5760405163334bd91960e11b815260040160405180910390fd5b6107d68282611778565b505050565b60006107e68161169c565b6107ee6117f4565b50565b6000806107fc611854565b610804611887565b7f4fe08aea4652d25d7d2c09148537810c0b7e49021cc60dd467483872e4452ff561082e8161169c565b610857886040518060400160405280600781526020016673656e6465725f60c81b8152506116a6565b610882876040518060400160405280600981526020016872656365697665725f60b81b8152506116a6565b6108aa8660405180604001604052806006815260200165746f6b656e5f60d01b8152506116a6565b6108d8856040518060400160405280600c81526020016b746f6b656e416d6f756e745f60a01b8152506118d1565b6000546001600160a01b0387811691161461090657604051632f5e77a960e01b815260040160405180910390fd5b60005461091e906001600160a01b03168930886118f4565b600054604051632e1a7d4d60e01b8152600481018790526001600160a01b0390911690632e1a7d4d90602401600060405180830381600087803b15801561096457600080fd5b505af1158015610978573d6000803e3d6000fd5b50506004805460408051636ada784760e01b815290516001600160a01b039092169450636ada7847935080830192602092918290030181865afa1580156109c3573d6000803e3d6000fd5b505050506040513d601f19601f820116820180604052508101906109e79190611fa0565b610a04576040516326d1807b60e01b815260040160405180910390fd5b60048054604080516301ae78a160e11b815290516001600160a01b039092169263035cf1429282820192602092908290030181865afa158015610a4b573d6000803e3d6000fd5b505050506040513d601f19601f82011682018060405250810190610a6f9190611fbd565b851015610a8f5760405163011bcd8360e41b815260040160405180910390fd5b600085600360009054906101000a90046001600160a01b03166001600160a01b03166312065fe06040518163ffffffff1660e01b8152600401602060405180830381865afa158015610ae5573d6000803e3d6000fd5b505050506040513d601f19601f82011682018060405250810190610b099190611fbd565b610b139190611fec565b90506000600460009054906101000a90046001600160a01b03166001600160a01b031663fd6ce89e6040518163ffffffff1660e01b8152600401602060405180830381865afa158015610b6a573d6000803e3d6000fd5b505050506040513d601f19601f82011682018060405250810190610b8e9190611fbd565b905080821115610bb1576040516362fc4d6760e11b815260040160405180910390fd5b6000670de0b6b3a7640000600154670de0b6b3a7640000610bd29190611fff565b610bdc908a612012565b610be69190612029565b9050600360009054906101000a90046001600160a01b03166001600160a01b031663d0e30db0896040518263ffffffff1660e01b81526004016000604051808303818588803b158015610c3857600080fd5b505af1158015610c4c573d6000803e3d6000fd5b50506005546040516370a0823160e01b8152306004820152600094506001600160a01b0390911692506370a082319150602401602060405180830381865afa158015610c9c573d6000803e3d6000fd5b505050506040513d601f19601f82011682018060405250810190610cc09190611fbd565b905081811015610cf25760405163c60d402760e01b815260048101839052602481018290526044015b60405180910390fd5b6005546001600160a01b03169650945084610d0e878c8361195b565b866001600160a01b03168a6001600160a01b03168d6001600160a01b03167f044d4bbddd3af59e620636cb231e96ccd6acfbac6aa9a369ea17075cc839daee8c8a604051610d66929190918252602082015260400190565b60405180910390a45050505050610d9c60017f9b779b17422d0df92223018b32b4d1fa46e071723d6817e2486d003becc55f0055565b9550959350505050565b600080610dd2896040518060400160405280600781526020016663616c6c65725f60c81b8152506116a6565b610dfd886040518060400160405280600981526020016872656365697665725f60b81b8152506116a6565b610e25876040518060400160405280600681526020016561737365745f60d01b8152506116a6565b610e5a85604051806040016040528060138152602001726c6971756964546f6b656e416464726573735f60681b8152506116a6565b610e89866040518060400160405280600d81526020016c617373657473416d6f756e745f60981b8152506118d1565b610ebb846040518060400160405280601081526020016f616d6f756e74496e4d6178696d756d5f60801b8152506118d1565b600554604051638b32fa2360e01b8152600481018690526000916001600160a01b031690638b32fa2390602401602060405180830381865afa158015610f05573d6000803e3d6000fd5b505050506040513d601f19601f82011682018060405250810190610f299190611fbd565b90506000600560009054906101000a90046001600160a01b03166001600160a01b031663d6eb59106040518163ffffffff1660e01b8152600401602060405180830381865afa158015610f80573d6000803e3d6000fd5b505050506040513d601f19601f82011682018060405250810190610fa49190611fbd565b905080821115610fb357600080fd5b610fc86001600160a01b0388168c30896118f4565b600554604051630852cd8d60e31b8152600481018890526001600160a01b03909116906342966c6890602401600060405180830381600087803b15801561100e57600080fd5b505af1158015611022573d6000803e3d6000fd5b50505050886001600160a01b031663d0e30db0836040518263ffffffff1660e01b81526004016000604051808303818588803b15801561106157600080fd5b505af1158015611075573d6000803e3d6000fd5b505060405163a9059cbb60e01b81526001600160a01b038e81166004830152602482018790528d16935063a9059cbb925060440190506020604051808303816000875af11580156110ca573d6000803e3d6000fd5b505050506040513d601f19601f820116820180604052508101906110ee9190611fa0565b50604080518781526001600160a01b038b811660208301529181018a9052818916918c811691908e16907fb50a58e455523e349c8e52077b9c73c5501c301f58c903c383b2eda002094a689060600160405180910390a4509699959850949650505050505050565b60006111618161169c565b61118f826040518060400160405280600c81526020016b77657468416464726573735f60a01b8152506116a6565b6040516a776574684164647265737360a81b8152600b016040519081900381206001600160a01b0384168252907f943e9d45a11aaae5d87503e3bc248665d9807856e5cf2bdb4a988bee444227819060200160405180910390a250600080546001600160a01b0319166001600160a01b0392909216919091179055565b60006112178161169c565b6107ee6119b2565b60009182526000805160206121b2833981519152602090815260408084206001600160a01b0393909316845291905290205460ff1690565b60008060405180604001604052806014815260200173119d5b98dd1a5bdb881b9bdd08185b1b1bddd95960621b81525060405162461bcd60e51b8152600401610ce99190611eef565b600554604080516339aa885b60e21b815290516000926001600160a01b03169163e6aa216c9160048083019260209291908290030181865afa1580156112ea573d6000803e3d6000fd5b505050506040513d601f19601f820116820180604052508101906105e59190611fbd565b611317826106a9565b6113208161169c565b61079d8383611778565b600280546113379061204b565b80601f01602080910402602001604051908101604052809291908181526020018280546113639061204b565b80156113b05780601f10611385576101008083540402835291602001916113b0565b820191906000526020600020905b81548152906001019060200180831161139357829003601f168201915b505050505081565b60006113c38161169c565b6113ee8260405180604001604052806009815260200168736c6970706167655f60b81b8152506118d1565b6040518281527ff5a802650e0a86db227cc342f06327d2ca0ff5cf2b12e0084fc5d8a7db2c54fd9060200160405180910390a150600155565b7ff0c57e16840df040f15088dc2f81fe391c3923bec73e23a9662efc9c229c6a008054600160401b810460ff16159067ffffffffffffffff1660008115801561146d5750825b905060008267ffffffffffffffff16600114801561148a5750303b155b905081158015611498575080155b156114b65760405163f92ee8a960e01b815260040160405180910390fd5b845467ffffffffffffffff1916600117855583156114e057845460ff60401b1916600160401b1785555b611512896040518060400160405280601081526020016f70726f746f636f6c416464726573735f60801b8152506116a6565b61154a8860405180604001604052806016815260200175726f636b657453657474696e6773416464726573735f60501b8152506116a6565b611578876040518060400160405280600c81526020016b77657468416464726573735f60a01b8152506116a6565b6115a6866040518060400160405280600c81526020016b72455448416464726573735f60a01b8152506116a6565b6115ae6119fb565b6115b6611a03565b6115be611a13565b6115c96000336116d3565b50600380546001600160a01b03808c166001600160a01b031992831617909255600480548b8416908316179055600080548a8416908316179055600580549289169290911691909117905567016345785d8a0000600155604080518082019091526006815265149bd8dad95d60d21b602082015260029061164a90826120d5565b50831561169157845460ff60401b19168555604051600181527fc7f505b2f371ae2175ee4913f4499e1f2633a7b5936321eed1cdaeb6115181d29060200160405180910390a15b505050505050505050565b6107ee8133611a23565b6001600160a01b0382166116cf578060405163eac0d38960e01b8152600401610ce99190611eef565b5050565b60006000805160206121b28339815191526116ee848461121f565b61176e576000848152602082815260408083206001600160a01b03871684529091529020805460ff191660011790556117243390565b6001600160a01b0316836001600160a01b0316857f2f8788117e7eff1d82e926ec794901d17c78024a50270940304540a733656f0d60405160405180910390a460019150506105e5565b60009150506105e5565b60006000805160206121b2833981519152611793848461121f565b1561176e576000848152602082815260408083206001600160a01b0387168085529252808320805460ff1916905551339287917ff6391f5c32d9c69d2a47ea670b442974b53935d1edc7fd64eb21e047a839171b9190a460019150506105e5565b6117fc611a5c565b6000805160206121d2833981519152805460ff191681557f5db9ee0a495bf2e6ff9c91a7834c1ba4fdd244a5e8aa4e537bd38aeae4b073aa335b6040516001600160a01b03909116815260200160405180910390a150565b6000805160206121d28339815191525460ff16156118855760405163d93c066560e01b815260040160405180910390fd5b565b7f9b779b17422d0df92223018b32b4d1fa46e071723d6817e2486d003becc55f008054600119016118cb57604051633ee5aeb560e01b815260040160405180910390fd5b60029055565b816000036116cf57806040516303b3e63560e41b8152600401610ce99190611eef565b6040516001600160a01b03848116602483015283811660448301526064820183905261079d9186918216906323b872dd906084015b604051602081830303815290604052915060e01b6020820180516001600160e01b038381831617835250505050611a8c565b6040516001600160a01b038381166024830152604482018390526107d691859182169063a9059cbb90606401611929565b60017f9b779b17422d0df92223018b32b4d1fa46e071723d6817e2486d003becc55f0055565b6119ba611854565b6000805160206121d2833981519152805460ff191660011781557f62e78cea01bee320cd4e420270b5ea74000d11b0c9f74754ebdbfc544b05a25833611836565b611885611aef565b611a0b611aef565b611885611b38565b611a1b611aef565b611885611b40565b611a2d828261121f565b6116cf5760405163e2517d3f60e01b81526001600160a01b038216600482015260248101839052604401610ce9565b6000805160206121d28339815191525460ff1661188557604051638dfc202b60e01b815260040160405180910390fd5b6000611aa16001600160a01b03841683611b61565b90508051600014158015611ac6575080806020019051810190611ac49190611fa0565b155b156107d657604051635274afe760e01b81526001600160a01b0384166004820152602401610ce9565b7ff0c57e16840df040f15088dc2f81fe391c3923bec73e23a9662efc9c229c6a0054600160401b900460ff1661188557604051631afcd79f60e31b815260040160405180910390fd5b61198c611aef565b611b48611aef565b6000805160206121d2833981519152805460ff19169055565b6060611b6f83836000611b76565b9392505050565b606081471015611b9b5760405163cd78605960e01b8152306004820152602401610ce9565b600080856001600160a01b03168486604051611bb79190612195565b60006040518083038185875af1925050503d8060008114611bf4576040519150601f19603f3d011682016040523d82523d6000602084013e611bf9565b606091505b5091509150611c09868383611c13565b9695505050505050565b606082611c2857611c2382611c6f565b611b6f565b8151158015611c3f57506001600160a01b0384163b155b15611c6857604051639996b31560e01b81526001600160a01b0385166004820152602401610ce9565b5080611b6f565b805115611c7f5780518082602001fd5b604051630a12f52160e11b815260040160405180910390fd5b600060208284031215611caa57600080fd5b81356001600160e01b031981168114611b6f57600080fd5b80356001600160a01b0381168114611cd957600080fd5b919050565b600060208284031215611cf057600080fd5b611b6f82611cc2565b600060208284031215611d0b57600080fd5b5035919050565b60008060408385031215611d2557600080fd5b82359150611d3560208401611cc2565b90509250929050565b80151581146107ee57600080fd5b600080600080600060a08688031215611d6457600080fd5b611d6d86611cc2565b9450611d7b60208701611cc2565b9350611d8960408701611cc2565b9250606086013591506080860135611da081611d3e565b809150509295509295909350565b634e487b7160e01b600052604160045260246000fd5b600080600080600080600060e0888a031215611ddf57600080fd5b611de888611cc2565b9650611df660208901611cc2565b9550611e0460408901611cc2565b945060608801359350611e1960808901611cc2565b925060a0880135915060c088013567ffffffffffffffff80821115611e3d57600080fd5b818a0191508a601f830112611e5157600080fd5b813581811115611e6357611e63611dae565b604051601f8201601f19908116603f01168101908382118183101715611e8b57611e8b611dae565b816040528281528d6020848701011115611ea457600080fd5b82602086016020830137600060208483010152809550505050505092959891949750929550565b60005b83811015611ee6578181015183820152602001611ece565b50506000910152565b6020815260008251806020840152611f0e816040850160208701611ecb565b601f01601f19169190910160400192915050565b60008060408385031215611f3557600080fd5b611f3e83611cc2565b9150611d3560208401611cc2565b60008060008060808587031215611f6257600080fd5b611f6b85611cc2565b9350611f7960208601611cc2565b9250611f8760408601611cc2565b9150611f9560608601611cc2565b905092959194509250565b600060208284031215611fb257600080fd5b8151611b6f81611d3e565b600060208284031215611fcf57600080fd5b5051919050565b634e487b7160e01b600052601160045260246000fd5b808201808211156105e5576105e5611fd6565b818103818111156105e5576105e5611fd6565b80820281158282048414176105e5576105e5611fd6565b60008261204657634e487b7160e01b600052601260045260246000fd5b500490565b600181811c9082168061205f57607f821691505b60208210810361207f57634e487b7160e01b600052602260045260246000fd5b50919050565b601f8211156107d6576000816000526020600020601f850160051c810160208610156120ae5750805b601f850160051c820191505b818110156120cd578281556001016120ba565b505050505050565b815167ffffffffffffffff8111156120ef576120ef611dae565b612103816120fd845461204b565b84612085565b602080601f83116001811461213857600084156121205750858301515b600019600386901b1c1916600185901b1785556120cd565b600085815260208120601f198616915b8281101561216757888601518255948401946001909101908401612148565b50858210156121855787850151600019600388901b60f8161c191681555b5050505050600190811b01905550565b600082516121a7818460208701611ecb565b919091019291505056fe02dd7bc7dec4dceedda775e58dd541e08a116c6c53815c0bd028192f7b626800cd5ed15c6e187e77e9aee88184c21f4f2182ab5827cb3b7e07fbedcd63f03300a2646970667358221220f3c090be5634e62af8c1fb4c59f0533f626c9c592ed2a21b63655c2d15e03c9664736f6c63430008180033","linkReferences":{}},"methodIdentifiers":{"DEFAULT_ADMIN_ROLE()":"a217fddf","REVERT_MSG()":"7e531a39","VAULT_STRATEGY_ROLE()":"1bacfd0b","claimEarnings(address,address)":"970de381","deposit(address,address,address,uint256,bool)":"5354c2b1","getProtocol()":"d16352af","getRoleAdmin(bytes32)":"248a9ca3","getSlippage()":"fc9cee3c","getTokenPrice(address)":"d02641a0","grantRole(bytes32,address)":"2f2ff15d","hasRole(bytes32,address)":"91d14854","initialize(address,address,address,address)":"f8c8765e","pause()":"8456cb59","paused()":"5c975abb","protocolAddress()":"0676c1b7","protocolName()":"e567e869","rETHAddress()":"ca7acdcd","renounceRole(bytes32,address)":"36568abe","revokeRole(bytes32,address)":"d547741f","rocketSettingsAddress()":"98d1e967","setRETHAddress(address)":"2ee09f42","setSlippage(uint256)":"f0fa55a9","setWETHAddress(address)":"6a4234eb","setprotocolAddress(address)":"13e69bf8","slippage()":"3e032a3b","supportsInterface(bytes4)":"01ffc9a7","unpause()":"3f4ba83a","wethAddress()":"4f0e0ef3","withdraw(address,address,address,uint256,address,uint256,bytes)":"6a39fe60"},"id":30}